:100000000C9464000C948C000C948C000C94F405FB
:100010000C94F4050C94F4050C948C000C948C0056
:100020000C948C000C948C000C948C000C948C0020
:100030000C948C000C948C000C948C000C948C0010
:100040000C9449080C948C000C94020B0C94340B07
:100050000C948C000C948C000C948C000C948C00F0
:100060000C948C000C948C0000000008000201002D
:100070000003040700000000000000000102040863
:100080001020408001020408102001020408102002
:10009000040404040404040402020202020203032E
:1000A00003030303000000002300260029000000D2
:1000B0000000250028002B0000000000240027007D
:1000C0002A001E02640B830211241FBECFEFD8E06A
:1000D000DEBFCDBF13E0A0E0B1E0E2EFF1E202C08D
:1000E00005900D92A236B107D9F725E0A2E6B3E05C
:1000F00001C01D92AA31B207E1F710E0C6ECD0E0D2
:1001000004C02297FE010E94470EC23CD107C9F7E6
:100110000E94A80B0C94EC100C940000CF92DF927C
:10012000EF92FF920F931F93CF93DF93CDB7DEB77C
:10013000C65AD1090FB6F894DEBF0FBECDBF8E01EF
:100140000F5F1F4F24E6F80111922A95E9F720E08E
:1001500030E044E650E0B8010E94910D66E071E0A5
:10016000C8010E943C107E01F5E6EF0EF11C67010C
:100170008CE3C80ED11C870166E071E080E090E05E
:100180000E943C10F701819391937F01EC15FD05CE
:1001900099F7F801E280F38061E370E0C7010E9403
:1001A0004A10892B09F478C0B701CE018F559F4FB3
:1001B0000E94FD0CBE016F557F4F8AE693E00E94BE
:1001C000130DCE018F559F4F0E948F0CF801648153
:1001D0007581CE018F559F4F0E94FD0CBE016F555A
:1001E0007F4F80E793E00E94130DCE018F559F4F04
:1001F0000E948F0CF80166817781CE018F559F4F49
:100200000E94FD0CBE016F557F4F86E793E00E9470
:10021000130DCE018F559F4F0E948F0CF801608502
:100220007185CE018F559F4F0E94FD0CBE016F5509
:100230007F4F8CE793E00E94130DCE018F559F4FA7
:100240000E948F0CF80162857385CE018F559F4FF8
:100250000E94FD0CBE016F557F4F82E893E00E9423
:10026000130DCE018F559F4F0E948F0CF8016485AE
:100270007585CE018F559F4F0E94FD0CBE016F55B5
:100280007F4F88E893E00E94130DCE018F559F4F5A
:100290000E948F0C81E001C080E0CA55DF4F0FB68D
:1002A000F894DEBF0FBECDBFDF91CF911F910F91AC
:1002B000FF90EF90DF90CF900895EF92FF920F9311
:1002C0001F93CF93DF9300D000D000D0CDB7DEB71F
:1002D0006AEF72E0CE0101960E94FD0C0E94930825
:1002E00068E071E086ED93E00E94030C68E071E045
:1002F00089E794E00E94030C6AEC73E086ED93E0DA
:100300000E94F50B6AEC73E089E794E00E94F50B1C
:100310006EEB73E086ED93E00E94F50B6EEB73E0FD
:1003200089E794E00E94F50B6CE171E086ED93E0C3
:100330000E94030C6CE171E089E794E00E94030CD9
:1003400068EB73E086ED93E00E94F50B68EB73E0D9
:1003500089E794E00E94F50B00E010E06AE271E0AA
:1003600086ED93E00E94030C6AE271E089E794E075
:100370000E94030CC80182579C4F7C01BC0186ED92
:1003800093E00E94F50BB70189E794E00E94F50B1A
:1003900068E271E086ED93E00E94030C68E271E090
:1003A00089E794E00E94030CC80186599C4F7C01A8
:1003B000BC0186ED93E00E94F50BB70189E794E05C
:1003C0000E94F50B0A5F1F4F0432110539F66AE1EE
:1003D00071E086ED93E00E94030C6AE171E089E729
:1003E00094E00E94030C86ED93E00E940C0C89E7D8
:1003F00094E00E940C0CCE0101960E948F0C81E0CB
:1004000026960FB6F894DEBF0FBECDBFDF91CF9119
:100410001F910F91FF90EF90089526E040E855E27C
:1004200060E070E089E794E00E94A00A40E855E2AD
:1004300060E070E086ED93E00C94F706CF93DF93D5
:1004400020E042E063E086ED93E00E94C7066CE2A4
:1004500071E080ED93E00E94FD0C65E371E08AECB1
:1004600093E00E94FD0C6AEF72E084EC93E00E943E
:10047000FD0C65E571E08EEB93E00E94FD0C6AE6F1
:1004800071E088EB93E00E94FD0C6FE771E082EB76
:1004900093E00E94FD0C64E971E08EE893E00E9415
:1004A000FD0C69E971E084E993E00E94FD0C62EAC9
:1004B00071E08AE993E00E94FD0C6CEA71E080EA49
:1004C00093E00E94FD0C65EB71E086EA93E00E94E8
:1004D000FD0C6BEB71E08CEA93E00E94FD0CCAE628
:1004E000D3E06AEF72E0CE010E94FD0C269683E015
:1004F000CE38D807B1F76AEF72E084E693E0DF9177
:10050000CF910C94FD0CCF93DF9384E693E00E948F
:100510008F0CCEE8D3E02697CE010E948F0C83E0AB
:10052000CA36D807C1F7C2EBD3E02697CE010E94A6
:100530008F0C83E0CE38D807C1F782EB93E00E949E
:100540008F0C88EB93E00E948F0C8EEB93E00E945F
:100550008F0C84EC93E00E948F0C8AEC93E00E9455
:100560008F0C80ED93E00E948F0C86ED93E0DF917D
:10057000CF910C946E060F931F93CF93DF9300D00F
:1005800000D000D0CDB7DEB76AEF72E0CE010196A1
:100590000E94FD0C0AE010E086ED93E00E948E05BB
:1005A000892B81F086ED93E00E940105682F89E791
:1005B00094E00E94050C6AE070E080E090E00E9408
:1005C000C208EACF0150110939F7CE0101960E9405
:1005D0008F0C26960FB6F894DEBF0FBECDBFDF910D
:1005E000CF911F910F9108950F931F93CF93DF9396
:1005F00000D000D000D0CDB7DEB76AEF72E0CE01F8
:1006000001960E94FD0C0AE010E086ED93E00E9446
:100610008E05892B59F086ED93E00E9401056AE072
:1006200070E080E090E00E94C208EFCF0150110915
:1006300061F7CE0101960E948F0C26960FB6F894B2
:10064000DEBF0FBECDBFDF91CF911F910F910895F7
:10065000CF93DF9362EC71E086ED93E00E94100C83
:10066000892BB1F06EEC71E084EC93E00E94720D86
:1006700081110EC061ED71E086ED93E00E94100CD7
:10068000892B31F062EC71E086ED93E00E94100C52
:1006900068EE73E080E090E00E94C2086DED71E0CA
:1006A00086ED93E00E94100C64E670E080E090E03C
:1006B0000E94C20861EF71E089E794E00E94030C98
:1006C0000E945D0160ED77E080E090E00E94C2084A
:1006D0000E94F4026CEF71E089E794E00E94030C41
:1006E0006FE072E086ED93E00E94100CCBE0D0E06A
:1006F00064EF71E080E090E00E94C2080E94BB02BB
:100700002197B1F7DF91CF9108950F931F93CF9366
:10071000DF9300D000D000D0CDB7DEB786ED93E0F8
:100720000E948E05892B09F446C086ED93E00E9455
:1007300001058A3011F08D30C9F56FE172E0CE010C
:1007400001960E94FD0CBE016F5F7F4F84E693E02F
:100750000E94D70D8C01CE0101960E948F0C0130B2
:10076000110591F464E673E0CE0101960E942A0D12
:10077000CE0101960E948E00182FCE0101960E9494
:100780008F0C11110E9428036AEF72E0CE010196CE
:100790000E94FD0CBE016F5F7F4F84E693E00E94D4
:1007A000130DCE0101960E948F0C05C0682F84E6C0
:1007B00093E00E945F0D26960FB6F894DEBF0FBE41
:1007C000CDBFDF91CF911F910F9108957F928F92AE
:1007D0009F92AF92BF92CF92DF92EF92FF920F93D0
:1007E0001F93CF93DF93CDB7DEB7C456D1090FB6B1
:1007F000F894DEBF0FBECDBF6B018E010F5F1F4FA0
:1008000024E6F80111922A95E9F7FC0120812223C0
:1008100059F0BC0186ED93E00E94100C64E670E094
:1008200080E090E00E94C2080E9493084B015C01A6
:10083000712CE12CF12C86ED93E00E948E05892B22
:1008400049F086ED93E00E940105F801E70DF11DE6
:10085000808373940E949308681979098A099B0917
:100860006C157D058E059F0530F380E0CC59DF4F78
:100870000FB6F894DEBF0FBECDBFDF91CF911F91B1
:100880000F91FF90EF90DF90CF90BF90AF909F902F
:100890008F907F90089564E670E08CE292E00E9471
:1008A000E60364E670E088E392E00E94E60364E613
:1008B00070E085E492E00E94E60364E670E084E57F
:1008C00092E00C94E603CF93DF9300D000D000D0E9
:1008D000CDB7DEB764E670E082E692E00E94E60300
:1008E00064E670E080E090E00E94C20864E670E098
:1008F00087E692E00E94E60364E670E080E090E024
:100900000E94C20864E670E081E792E00E94E6037C
:1009100064E670E080E090E00E94C20864E670E067
:100920008CE792E00E94E60364E670E080E090E0ED
:100930000E94C2086AEF72E0CE0101960E94FD0C8F
:100940000E9493086AE972E086ED93E00E94030C2E
:1009500060ED73E086ED93E00E94F50B6AE171E0D3
:1009600086ED93E00E94030C86ED93E00E940C0C50
:1009700060ED77E08FEA92E00E94E603CE010196F7
:100980000E948F0C26960FB6F894DEBF0FBECDBF27
:10099000DF91CF91089540ED57E060E070E089E38A
:1009A00094E00E94B00720E835E240E050E069E7BB
:1009B00074E089E394E00E94C30789E394E00E9415
:1009C000AD076CEB72E080916A0490916B040E9419
:1009D000030C6AE070E080E090E00E94C20841E011
:1009E00060E089E394E00E942E080E940D020E94BC
:1009F0004B040E9463046EEC72E089E794E00C946F
:100A0000100C209137043091380428173907B9F4B5
:100A10009091F5038091F603981789F0E091F50322
:100A2000F0E0E950FC4F80812091F50330E02F5F2A
:100A30003F4F2F7333272093F50390E008958FEFF6
:100A40009FEF08951F93CF93DF93DC015C968D9108
:100A50009C915D97009749F481E090E013969C93F8
:100A60008E93129780E090E03BC05196ED91FC91FF
:100A7000529750962C915097322F30951FB75E9613
:100A80004C915E9741FB772770F941FD6095F89492
:100A90004081772311F0422B01C043234083EC01B6
:100AA0002197F1F748E0508160FF02C0522B01C04E
:100AB00053235083EC012197F1F76695415099F744
:100AC0008081772311F0832301C0822B80831FBF95
:100AD0005C968D919C915D970197F1F781E090E094
:100AE000DF91CF911F910895209137043091380400
:100AF0002817390781F49091F5038091F603981730
:100B000051F0E091F503F0E0E950FC4F8081992726
:100B100087FD909508958FEF9FEF089520913704FA
:100B2000309138042817390771F48091F603209129
:100B3000F50390E0805C9F4F821B910960E470E0B8
:100B40000E94DC0D089580E090E008952091370424
:100B5000309138042817390739F48FB7F894109278
:100B6000F6031092F5038FBF0895E0913704F091DA
:100B70003804E817F90769F4A389B4899C91858939
:100B8000809589238C93109238041092370481E069
:100B9000089580E00895CF93DF93EC018A8D9B8DBB
:100BA000892BF1F080913704909138048C179D07C0
:100BB000B9F0009711F00E94B5058E8D8E7F8E8F53
:100BC0001092F6031092F503D0933804C0933704C3
:100BD000EB89FC8980819D89892B808381E001C01C
:100BE00080E0DF91CF9108951F920F920FB60F9280
:100BF00011242F933F934F935F936F937F938F9322
:100C00009F93AF93BF93EF93FF93E0913704F091DD
:100C10003804309709F451C0868DA685B78595852F
:100C200081FF04C08C91892329F447C08C918923CA
:100C300009F043C0A389B4899C9185898095892353
:100C40008C93868997890197F1F7208D318DA68540
:100C5000B785758558E040E0C9010197F1F7842F09
:100C600090E095958795482F6C91672309F040682F
:100C7000515091F7868D81FD40958091F60390E06B
:100C800001968F7399272091F503281749F0A091B9
:100C9000F603B0E0A950BC4F4C938093F60303C019
:100CA000868D8160868F828D938D0197F1F7A38960
:100CB000B4898C919589892B8C93FF91EF91BF9189
:100CC000AF919F918F917F916F915F914F913F91E4
:100CD0002F910F900FBE0F901F9018952FED32E0BF
:100CE000FC01318320830C94B5051F93CF93DF93D0
:100CF000EC01162F6E8D6695617081E06827812F5B
:100D00000E94870961E0812F0E944E09812F90E0A7
:100D1000FC01E458FF4FE491E88BFC01E057FF4FE2
:100D2000E491F0E0EE0FFF1FE255FF4F85919491A3
:100D30009A8B898BDF91CF911F9108951F93CF9349
:100D4000DF93EC01162F60E0812F0E944E098E8DFB
:100D500081FD04C061E0812F0E9487091C87812FDB
:100D600090E0FC01E458FF4FE491ED87FC01E0576F
:100D7000FF4FE491F0E0EE0FFF1FEC55FF4F859120
:100D800094919F878E87DF91CF911F910895FF9255
:100D90000F931F93CF93DF93EC01F62E522F1B82FC
:100DA0001A8208EE13E020E030E00C831D832E83CE
:100DB0003F838FED92E0998388831F8A1E8A198E64
:100DC000188E1B8E1A8E1D8E1C8E8E8D8E7F50FB64
:100DD00081F98E8F642FCE010E9475066F2DCE0192
:100DE000DF91CF911F910F91FF900C949E06CF93AE
:100DF000DF93EC019A01AB011B8E1A8E198E188EAF
:100E00001F8A1E8A60E079E08DE390E00E94120E56
:100E1000C9012430310520F0B9016350710902C0C5
:100E200061E070E07D8F6C8FEC85E63108F068C082
:100E3000B901769567956431710518F063517109B0
:100E400002C061E070E07F8B6E8B069718F0C901DD
:100E5000059702C081E090E0998F888FC901880FC3
:100E6000991F820F931F96958795969587958D303C
:100E7000910510F00C9702C081E090E09B8F8A8F63
:100E800020916800E83050F091E0EE3008F490E0F6
:100E900081E001C0880F9A95EAF701C084E0822BB7
:100EA000809368002C85283038F02E3040F02631B1
:100EB00048F48CE690E008C08DE690E005C08BE633
:100EC00090E002C080E090E09C8B8B8B283030F467
:100ED00081E001C0880F2A95EAF70DC0822F90E0CB
:100EE0002E3010F4089701C00E9791E001C0990FC1
:100EF0008A95EAF7892F8D8B8C8D9D8D0197F1F75F
:100F0000CE01DF91CF910C94CB050F931F93CF931C
:100F1000DF93EC01662359F00E94930869837A837A
:100F20008B839C83DF91CF911F910F9108950E9435
:100F3000930809811A812B813C81601B710B820B04
:100F4000930B623371058105910530F763E070E022
:100F500080E090E00E94C208EACF60E00C94850730
:100F6000FC0113AA14AA15AA16AA118212821382CE
:100F70001482411551056105710521F0CB01BA01BB
:100F80000C94C2080895FB01BA01A901DC01D296B4
:100F9000FC93EE93D19726E0CF010C94A00A1F9307
:100FA000CF93DF93EC01162F6BEE72E089A99AA91B
:100FB0000E94030C4AE050E0612F89A99AA90E947F
:100FC000880C62EF72E089A99AA90E94030C62E37F
:100FD00070E080E090E0DF91CF911F910C94C20807
:100FE0001F93CF93DF93EC01162F8D81882389F116
:100FF00089A99AA9DC01ED91FC910480F581E02D8D
:101000000995892BA9F307C02637310519F1283531
:10101000310509F41D8289A99AA9DC01ED91FC91A1
:101020000480F581E02D09951816190694F489A914
:101030009AA9DC01ED91FC910680F781E02D0995DC
:101040009C01332723363105F9F6612FCE010E942A
:10105000CF0783E6DF91CF911F9108950F931F93E0
:10106000CF93DF931F92CDB7DEB78C01662349F093
:1010700081E0F801858360E0C80149830E94F007A0
:101080004981F80145830F90DF91CF911F910F9116
:1010900008951F920F920FB60F9211242F933F9332
:1010A0008F939F93AF93BF9380917104909172043B
:1010B000A0917304B09174043091700423E0230F65
:1010C0002D3720F40196A11DB11D05C026E8230F80
:1010D0000296A11DB11D209370048093710490931A
:1010E0007204A0937304B09374048091750490917A
:1010F0007604A0917704B09178040196A11DB11DEA
:101100008093750490937604A0937704B093780449
:10111000BF91AF919F918F913F912F910F900FBEF3
:101120000F901F9018952FB7F894609171047091EB
:10113000720480917304909174042FBF08953FB797
:10114000F8948091750490917604A0917704B09101
:10115000780426B5A89B05C02F3F19F00196A11D64
:10116000B11D3FBF6627782F892F9A2F620F711DFF
:10117000811D911D42E0660F771F881F991F4A95B8
:10118000D1F70895CF92DF92EF92FF92CF93DF9342
:101190006B017C010E949F08EB01C114D104E104A2
:1011A000F10489F00E94DB0D0E949F086C1B7D0BEF
:1011B000683E734090F381E0C81AD108E108F10855
:1011C000C851DC4FEACFDF91CF91FF90EF90DF90D5
:1011D000CF900895789484B5826084BD84B5816091
:1011E00084BD85B5826085BD85B5816085BDEEE62F
:1011F000F0E0808181608083E1E8F0E0108280810E
:1012000082608083808181608083E0E8F0E080817B
:1012100081608083E1EBF0E0808184608083E0EB9B
:10122000F0E0808181608083EAE7F0E08081846083
:1012300080838081826080838081816080838081DF
:10124000806880831092C1000895833081F028F473
:10125000813099F08230A1F008958730A9F088306C
:10126000B9F08430D1F4809180008F7D03C08091EB
:1012700080008F7780938000089584B58F7702C0B7
:1012800084B58F7D84BD08958091B0008F7703C0B1
:101290008091B0008F7D8093B0000895CF93DF934D
:1012A00090E0FC01E458FF4F2491FC01E057FF4F10
:1012B0008491882349F190E0880F991FFC01E8543C
:1012C000FF4FA591B49182559F4FFC01C591D491D8
:1012D0009FB7611108C0F8948C91209582238C935C
:1012E000888182230AC0623051F4F8948C91322FA5
:1012F000309583238C938881822B888304C0F89453
:101300008C91822B8C939FBFDF91CF9108950F9387
:101310001F93CF93DF931F92CDB7DEB7282F30E016
:10132000F901E859FF4F8491F901E458FF4F1491F6
:10133000F901E057FF4F04910023C9F0882321F001
:1013400069830E9425096981E02FF0E0EE0FFF1FFD
:10135000E255FF4FA591B4919FB7F8948C9161111C
:1013600003C01095812301C0812B8C939FBF0F90E8
:10137000DF91CF911F910F910895FC01818D228DF6
:1013800090E0805C9F4F821B91098F73992708958D
:10139000FC01918D828D981731F0828DE80FF11D3F
:1013A000858D90E008958FEF9FEF0895FC01918D5A
:1013B000828D981761F0828DDF01A80FB11D5D96B7
:1013C0008C91928D9F5F9F73928F90E008958FEF25
:1013D0009FEF08958AE59BE0892B49F080E090E03B
:1013E000892B29F00E945A0B81110C94000008955A
:1013F000FC01848DDF01A80FB11DA35ABF4F2C91B2
:10140000848D90E001968F739927848FA689B78980
:101410002C93A089B1898C9180648C93938D848D59
:10142000981306C00288F389E02D80818F7D808328
:101430000895CF93DF93EC01888D8823C9F0EA8962
:10144000FB89808185FD05C0A889B9898C9186FDBD
:101450000FC00FB607FCF5CF808185FFF2CFA889BA
:10146000B9898C9185FFEDCFCE010E94F809E7CFB5
:10147000DF91CF910895CF92DF92FF920F931F9348
:10148000CF93DF931F92CDB7DEB76C0181E0D60119
:1014900058968C9358975B969C915B975C968C9131
:1014A0005C97981307C05096ED91FC9151978081FD
:1014B00085FD2EC0F601038D10E00F5F1F4F0F73E7
:1014C0001127F02EF601848DF81211C00FB607FC1B
:1014D000F9CFD6015096ED91FC915197808185FF0F
:1014E000F1CFC60169830E94F8096981EBCF838D32
:1014F000E80FF11DE35AFF4F6083D6015B960C9312
:101500005B975296ED91FC915397808180620CC05D
:10151000D6015696ED91FC91579760835096ED91C8
:10152000FC91519780818064808381E090E00F90EE
:10153000DF91CF911F910F91FF90DF90CF90089591
:10154000BF92CF92DF92EF92FF92CF93DF93EC01A5
:101550006A017B01B22EE889F98982E08083411516
:1015600081EE580761057105A1F060E079E08DE337
:1015700090E0A70196010E94F00D21503109410928
:1015800051095695479537952795211580E13807DC
:1015900098F0E889F989108260E874E88EE190E0BB
:1015A000A70196010E94F00D21503109410951090E
:1015B0005695479537952795EC85FD853083EE85C3
:1015C000FF852083188EEC89FD89B082EA89FB892A
:1015D000808180618083EA89FB8980818860808343
:1015E000EA89FB89808180688083EA89FB89808120
:1015F0008F7D8083DF91CF91FF90EF90DF90CF9030
:10160000BF9008951F920F920FB60F9211242F933F
:101610008F939F93EF93FF93E0918904F0918A0455
:101620008081E0918F04F091900482FD12C090813E
:10163000809192048F5F8F7320919304821751F0F1
:10164000E0919204F0E0E758FB4F958F809392046D
:1016500001C08081FF91EF919F918F912F910F9009
:101660000FBE0F901F9018951F920F920FB60F92FA
:1016700011242F933F934F935F936F937F938F9397
:101680009F93AF93BF93EF93FF9389E794E00E94FA
:10169000F809FF91EF91BF91AF919F918F917F9149
:1016A0006F915F914F913F912F910F900FBE0F90CF
:1016B0001F90189589E794E00E94BD0921E0892BCD
:1016C00009F420E0822F089510927C0410927B048C
:1016D00088EE93E0A0E0B0E080937D0490937E04D8
:1016E000A0937F04B093800487E493E090937A04FE
:1016F0008093790485EC90E0909386048093850430
:1017000084EC90E0909388048093870480EC90E0D0
:1017100090938A048093890481EC90E090938C04E8
:1017200080938B0482EC90E090938E0480938D04E0
:1017300086EC90E09093900480938F041092920432
:1017400010929304109294041092950408950895B1
:101750000E94EA080E94A70B0E94CB04CAEED9E0BF
:101760000E9485032097E1F30E94EA09F9CFCF9206
:10177000DF92EF92FF920F931F93CF93DF936C0151
:101780007A01EB01E60EF71E00E010E0CE15DF0552
:1017900061F06991D601ED91FC910190F081E02D0D
:1017A000C6010995080F191FF1CFC801DF91CF912C
:1017B0001F910F91FF90EF90DF90CF9008956115EA
:1017C000710581F0DB010D900020E9F7AD0141507A
:1017D0005109461B570BDC01ED91FC910280F3810E
:1017E000E02D099480E090E00895DC01ED91FC91FA
:1017F000DB0114964D915C9115976D917C9102805F
:10180000F381E02D09940C94DF0BDC01ED91FC9148
:101810000190F081E02D099468EF72E00C94DF0BE9
:101820000F931F93CF93DF93EC010E94DF0B8C018A
:10183000CE010E940C0C800F911FDF91CF911F9160
:101840000F9108958F929F92AF92BF92CF92DF92A5
:10185000EF92FF920F931F93CF93DF93CDB7DEB735
:10186000A1970FB6F894DEBF0FBECDBF7C01C42E8A
:10187000E52FCB01D22E19A221E02D1510F02AE080
:10188000D22E8E010F5D1F4F8D2C912CA12CB12CCF
:101890006C2D7E2FA50194010E94F00D8C2DD29EFF
:1018A00080191124015011098A3014F4805D01C09F
:1018B000895CF8018083211531054105510521F02E
:1018C000C22EE32FCA01E4CFB801C7010E94DF0B8B
:1018D000A1960FB6F894DEBF0FBECDBFDF91CF91BA
:1018E0001F910F91FF90EF90DF90CF90BF90AF903E
:1018F0009F908F9008952115310541F4DC01ED9101
:10190000FC910190F081E02D642F09940C94220C3D
:101910009A01462F50E060E070E00C947B0CFC01D3
:10192000808191810C94E30ECF93DF93EC01888149
:101930009981009711F00E94E30E198218821D828E
:101940001C821B821A82DF91CF9108950F931F93FF
:10195000CF93DF93EC018B016F5F7F4F888199817B
:101960000E94720F009731F0998388831B830A834A
:1019700081E001C080E0DF91CF911F910F91089528
:10198000CF93DF93EC0188819981892B29F08A819B
:101990009B818617970760F4CE010E94A60C8823CE
:1019A00041F08C819D81892B19F4E881F9811082A5
:1019B00081E0DF91CF910895EF92FF920F931F93F3
:1019C000CF93DF93EC017B018A01BA010E94C00C26
:1019D000811104C0CE010E94940C07C01D830C83AA
:1019E000B701888199810E945E10CE01DF91CF916D
:1019F0001F910F91FF90EF900895FC0111821082CA
:101A000013821282158214826115710559F0FB014F
:101A100001900020E9F7AF0141505109461B570BD7
:101A20000C94DC0C0895CF93DF93EC01FB01861737
:101A3000970761F0608171816115710529F044811A
:101A400055810E94DC0C02C00E94940CCE01DF91F3
:101A5000CF910895FC0111821082138212821582A7
:101A600014820C94130DEF92FF920F931F93CF9358
:101A7000DF93EC017B010C811D816115710511F46F
:101A800080E016C04115510591F0040F151FB801F3
:101A90000E94C00C8823A1F3288139818C819D810B
:101AA000B701820F931F0E945E101D830C8381E09B
:101AB000DF91CF911F910F91FF90EF900895CF93F9
:101AC000DF9300D0CDB7DEB769831A8241E050E0E2
:101AD000BE016F5F7F4F0E94330D0F900F90DF911B
:101AE000CF910895FC0124813581232B31F421E02D
:101AF00061157105A1F0FB0108C0FC018081918195
:101B00006115710531F421E0FC018081882339F0F1
:101B100005C00E94551021E0892B09F020E0822F9A
:101B200008950F931F93CF93DF93EB014115510558
:101B3000E9F02097D9F0FC016481758126173707F9
:101B4000A0F4621B730B8A01015011096017710721
:101B500008F48B01FC0160817181620F731FA80181
:101B6000CE010E946510C00FD11F1882DF91CF9166
:101B70001F910F910895CF93DF93FC01848195818C
:101B80004817590778F4C081D181FB0160817181C8
:101B9000CE01840F951F0E947410009719F08C1BC2
:101BA0009D0B02C08FEF9FEFDF91CF91089540E032
:101BB00050E00C94BB0D089597FB072E16F400948B
:101BC00007D077FD09D00E94310E07FC05D03EF406
:101BD000909581959F4F0895709561957F4F0895D9
:101BE000A1E21A2EAA1BBB1BFD010DC0AA1FBB1F21
:101BF000EE1FFF1FA217B307E407F50720F0A21B93
:101C0000B30BE40BF50B661F771F881F991F1A94FF
:101C100069F760957095809590959B01AC01BD0129
:101C2000CF010895052E97FB1EF400940E94290E03
:101C300057FD07D00E94F00D07FC03D04EF40C9422
:101C4000290E50954095309521953F4F4F4F5F4F4E
:101C5000089590958095709561957F4F8F4F9F4F18
:101C60000895AA1BBB1B51E107C0AA1FBB1FA617E3
:101C7000B70710F0A61BB70B881F991F5A95A9F735
:101C800080959095BC01CD010895EE0FFF1F059042
:101C9000F491E02D0994CF93DF938230910510F4F5
:101CA00082E090E0E0911805F091190520E030E025
:101CB000A0E0B0E0309739F14081518148175907D1
:101CC000B8F04817590771F482819381109729F071
:101CD00013969C938E9312972CC090931905809322
:101CE000180527C02115310531F04217530718F0A8
:101CF000A901DB0101C0EF019A01BD01DF010280F2
:101D0000F381E02DD7CF21153105F9F0281B390BD0
:101D10002430310580F48A819B816115710521F0A1
:101D2000FB019383828304C0909319058093180567
:101D3000FE01329644C0FE01E20FF31F819391939E
:101D400022503109398328833AC0209116053091F9
:101D50001705232B41F420910201309103013093A8
:101D600017052093160520910001309101012115DE
:101D7000310541F42DB73EB7409104015091050162
:101D8000241B350BE0911605F0911705E217F307B8
:101D9000A0F42E1B3F0B2817390778F0AC014E5FDB
:101DA0005F4F2417350748F04E0F5F1F50931705FC
:101DB000409316058193919302C0E0E0F0E0CF01DB
:101DC000DF91CF910895CF93DF93009709F487C0F7
:101DD000FC01329713821282C0911805D091190527
:101DE000209781F420813181280F391F80911605B9
:101DF000909117058217930779F5F0931705E093F3
:101E000016056DC0DE0120E030E0AE17BF0750F4CC
:101E100012964D915C9113979D014115510509F161
:101E2000DA01F3CFB383A28340815181840F951FE0
:101E30008A179B0771F48D919C911197840F951FC0
:101E400002969183808312968D919C911397938330
:101E500082832115310529F4F0931905E0931805C3
:101E60003EC0D9011396FC93EE9312974D915D916C
:101E7000A40FB51FEA17FB0779F480819181840FC5
:101E8000951F0296D90111969C938E93828193811E
:101E900013969C938E931297E0E0F0E08A819B81E9
:101EA000009719F0FE01EC01F9CFCE0102962881CE
:101EB0003981820F931F209116053091170528173D
:101EC000390769F4309729F4109219051092180512
:101ED00002C013821282D0931705C0931605DF91BA
:101EE000CF910895A0E0B0E0E8E7FFE00C94B910CE
:101EF000EC01CB01209719F40E944B0EB8C0FE01F3
:101F0000E60FF71F9E0122503109E217F30708F48C
:101F1000ACC0D9010D911C91119706171707B8F0A5
:101F20000530110508F49FC0A80144505109461717
:101F3000570708F498C002501109061B170B0193AC
:101F400011936D937C93CF010E94E30E8CC05B01D3
:101F5000A01AB10A4E01800E911EA0911805B091F1
:101F60001905612C712C60E070E0109709F449C0EC
:101F7000A815B905C9F5ED90FC901197670142E0ED
:101F8000C40ED11CCA14DB0478F147018A189B08DF
:101F9000640142E0C40ED11C1296BC9012971396B5
:101FA000AC91B5E0CB16D10440F0B282A38391820C
:101FB0008082D9018D939C9309C00E5F1F4F0E0D37
:101FC0001F1DF90111830083EB2DFA2F6115710597
:101FD00031F0DB011396FC93EE93129744C0F0931B
:101FE0001905E09318053FC06D917C911197661615
:101FF000770608F43B01BD0112960D90BC91A02D0F
:10200000B4CF609116057091170568157905E9F44C
:1020100068167906D0F440910001509101014115F4
:10202000510541F44DB75EB760910401709105010F
:10203000461B570BE417F507C0F4F0931705E09320
:102040001605F901918380830EC00E944B0E7C011E
:10205000009759F0A801BE010E944110CE010E94D4
:10206000E30EC70104C0CE0102C080E090E0CDB70E
:10207000DEB7EEE00C94D51042E653E00E948E10DD
:102080000895FB01DC0102C001900D9241505040C7
:10209000D8F70895FC018191861721F08823D9F79C
:1020A000992708953197CF010895FB01DC018D91A7
:1020B000019080190110D9F3990B0895FB01DC01FF
:1020C00001900D920020E1F70895FB01DC014150E1
:1020D000504048F001900D920020C9F701C01D92B8
:1020E00041505040E0F70895FB0151915523A9F06C
:1020F000BF01DC014D9145174111E1F759F4CD01C4
:102100000190002049F04D9140154111C9F3FB01A8
:102110004111EFCF81E090E001970895FA01A1917C
:10212000B081009719F41097E1F0CD01DC01CD01E9
:102130000D90002011F4C00113C0FB012191222356
:1021400019F02015D9F7F3CFFB012191201519F4CF
:102150001E92119606C02223C1F70D900020A1F710
:10216000D001FA01A193B08308952F923F924F922C
:102170005F926F927F928F929F92AF92BF92CF9217
:10218000DF92EF92FF920F931F93CF93DF93CDB720
:10219000DEB7CA1BDB0B0FB6F894DEBF0FBECDBF98
:1021A00009942A88398848885F846E847D848C8469
:1021B0009B84AA84B984C884DF80EE80FD800C8172
:1021C0001B81AA81B981CE0FD11D0FB6F894DEBF55
:1021D0000FBECDBFED01089510E0C6ECD0E004C005
:1021E000FE010E94470E2296C83CD107C9F7F89419
:0221F000FFCF1F
:1021F20000001A0580002C0041542B4854545050C2
:102202004152413D2255524C222C22003F707269AC
:10221200766174655F6B65793D002600696E746551
:10222200726E657400687474703A2F2F6461746101
:102232002E737061726B66756E2E636F6D2F696E91
:102242007075742F004E4A363552417247625255AC
:1022520064334138444E7861620035645265447299
:1022620059396D44684A59307042506137670042AB
:102272007065354C324E5A394C55616B4C52654142
:10228200344F570064617465006C617469747564DD
:1022920065006C6F6E67697475646500616C746962
:1022A2007475646500737065656400636F7572733D
:1022B200650041542B48545450494E4954004F4BE9
:1022C2000041542B485454505445524D0041542B14
:1022D20048545450504152413D22434944222C31EA
:1022E2000053656E642055524C3A20004D616B6577
:1022F2002047455420526571756573743A20004138
:10230200542B48545450414354494F4E3D3000558C
:10231200474E53494E463A20312C310041542B4905
:1023220050523D393630300041542B43474E5350C2
:1023320057523D310041542B43474E535345513D73
:10234200524D430041542B43474E535552433D3166
:102352003000415445300041542B434D47463D31F6
:102362000041542B43474154543D310041542B53B7
:10237200415042523D332C312C22434F4E5459503E
:1023820045222C2247505253220041542B53415094
:1023920042523D332C312C2241504E222C220041FC
:1023A200542B53415042523D312C3100564D445032
:1023B200565F317C315F564D4450560D0A005365CD
:1023C2007475702046696E6973680000000000220F
:1023D20005B70B8E0501057405A605564D445043FD
:1023E2005F005F564D4450430D0A004572726F7292
:1023F2003A20417474656D707420746F2073657433
:10240200206120726561642D6F6E6C792076617235
:102412006961626C65206F722064617461207479F5
:102422007065206E6F7420737570706F727465645E
:102432000D0A00000000003B0AB70BBD09D609C80F
:1024420009190A6E616E00696E66006F7666002E6B
:02245200000088
:00000001FF
