:100000000C94AF000C94D7000C94D7000C9470079C
:100010000C9470070C9470070C94D7000C94D700C4
:100020000C94D7000C94D7000C94D7000C94D700F4
:100030000C94D7000C94D7000C94D7000C94D700E4
:100040000C94C5090C94D7000C947E0C0C94B00C45
:100050000C94D7000C94D7000C94D7000C94D700C4
:100060000C94D7000C94D7003F7072697661746568
:100070005F6B65793D0041542B48545450504152B8
:10008000413D2255524C222C22004D616B65204788
:10009000455420526571756573743A200053656E3E
:1000A000642055524C3A200050726F75646C792070
:1000B0004D61646520696E20496E646F6E65736979
:1000C00061000000000000000000000000000000CF
:1000D0000000000000000000000000000000000020
:1000E0000000000000000000000000000000000010
:1000F0000000000000000000000000000000000000
:1001000000080002010000030407000000000000D6
:1001100000000102040810204080010204081020A1
:10012000010204081020040404040404040402026C
:100130000202020203030303030300000000230082
:100140002600290000000000250028002B000000E8
:100150000000240027002A004F02E00CAE02112408
:100160001FBECFEFD8E0DEBFCDBF13E0A0E0B1E00F
:10017000E0E6F7E202C005900D92AA36B107D9F782
:1001800024E0AAE6B3E001C01D92AC3EB207E1F75D
:1001900011E0CCE5D1E004C02297FE010E9482105C
:1001A000C835D107C9F70E94240D0C94A3130C94F1
:1001B0000000CF92DF92EF92FF920F931F93CF93A5
:1001C000DF93CDB7DEB7C65AD1090FB6F894DEBFBC
:1001D0000FBECDBF8E010F5F1F4F24E6F8011192B5
:1001E0002A95E9F720E030E044E650E0B8010E94AB
:1001F000C10F66E071E0C8010E949E127E01F5E623
:10020000EF0EF11C67018CE3C80ED11C870166E07C
:1002100071E080E090E00E949E12F701819391933B
:100220007F01EC15FD0599F7F801E280F38061E3A9
:1002300070E0C7010E94AC12892B09F478C0B701A5
:10024000CE018F559F4F0E94B00EBE016F557F4F5C
:1002500086E793E00E94C60ECE018F559F4F0E9405
:10026000420EF80164817581CE018F559F4F0E9427
:10027000B00EBE016F557F4F8CE793E00E94C60E13
:10028000CE018F559F4F0E94420EF8016681778103
:10029000CE018F559F4F0E94B00EBE016F557F4F0C
:1002A00082E893E00E94C60ECE018F559F4F0E94B8
:1002B000420EF80160857185CE018F559F4F0E94D7
:1002C000B00EBE016F557F4F88E893E00E94C60EC6
:1002D000CE018F559F4F0E94420EF80162857385B3
:1002E000CE018F559F4F0E94B00EBE016F557F4FBC
:1002F0008EE893E00E94C60ECE018F559F4F0E945C
:10030000420EF80164857585CE018F559F4F0E947E
:10031000B00EBE016F557F4F84E993E00E94C60E78
:10032000CE018F559F4F0E94420E81E001C080E0B8
:10033000CA55DF4F0FB6F894DEBF0FBECDBFDF91B9
:10034000CF911F910F91FF90EF90DF90CF90089584
:100350000F931F93CF93DF9368E071E080EA93E0FF
:100360000E94A40D66E770E08BE494E00E94710D9A
:1003700068EF70E080EA93E00E94960D68EF70E00D
:100380008BE494E00E94960D62EF70E080EA93E0C7
:100390000E94960D62EF70E08BE494E00E94960D4F
:1003A00060E070E08CEE90E00E94A20F882369F07C
:1003B0006CE171E080EA93E00E94A40D6CE171E0D1
:1003C0008BE494E00E94A40D18C06EE171E080EA15
:1003D00093E00E94A40D68E670E08BE494E00E9434
:1003E000710D6CEE70E080EA93E00E94960D6CEE69
:1003F00070E08BE494E00E94960DC0E0D0E06CE2E7
:1004000071E080EA93E00E94A40D6CE271E08BE45D
:1004100094E00E94A40D8E010E531F4FB80180EA94
:1004200093E00E94960DB8018BE494E00E94960D33
:100430006AEE71E080EA93E00E94A40D6AEE71E03A
:100440008BE494E00E94A40D8E010A581C4FB80161
:1004500080EA93E00E94960DB8018BE494E00E943C
:10046000960D2696C432D10551F66AE171E080EA14
:1004700093E00E94A40D6AE171E08BE494E00E9495
:10048000A40D80EA93E00E94AD0D8BE494E00E94FD
:10049000AD0D81E0DF91CF911F910F910895CF9322
:1004A000DF9320E042E063E080EA93E00E944308AB
:1004B0006EE271E08AE993E00E94B00E67E371E0BA
:1004C00088EF90E00E94B00E67E571E082EF90E067
:1004D0000E94B00E6CE671E08CEE90E00E94B00ECF
:1004E00061E871E086EE90E00E94B00E66E971E08E
:1004F00082EC90E00E94B00E6BE971E088EC90E035
:100500000E94B00E64EA71E08EEC90E00E94B00EA2
:100510006EEA71E084ED90E00E94B00E67EB71E04E
:100520008AED90E00E94B00E6DEB71E080EE90E0FD
:100530000E94B00EC6E7D3E062E073E0CE010E94F5
:10054000B00E269683E0CA39D807B1F762E073E0AF
:1005500080E793E0DF91CF910C94B00ECF93DF93BF
:1005600080E793E00E94420ECAE9D3E02697CE01CD
:100570000E94420E83E0C637D807C1F7C6EED0E02E
:100580002697CE010E94420E80E0C23CD807C1F7F8
:1005900086EE90E00E94420E8CEE90E00E94420EA9
:1005A00082EF90E00E94420E88EF90E00E94420E9F
:1005B0008AE993E00E94420E80EA93E0DF91CF91B6
:1005C0000C94EA07CF93CAE080EA93E00E940A07FE
:1005D000892B81F080EA93E00E947D06682F8BE4EE
:1005E00094E00E94A60D6AE070E080E090E00E9436
:1005F0003E0AEACFC15041F7CF91089580EA93E0D7
:100600000E940A07892B59F080EA93E00E947D0638
:100610006AE070E080E090E00E943E0AEFCF08952B
:10062000CF936DE970E08BE494E00E94710D0E941D
:10063000A80160EF7AE080E090E00E943E0A0E940C
:10064000FE026AE870E08BE494E00E94710D64ECB5
:1006500071E080EA93E00E94C30DC3E364E670E0BA
:1006600080E090E00E943E0A0E94E202C150B1F791
:1006700080916F03882389F064ED71E080EA93E054
:100680000E94C30DC8E064EF71E080E090E00E943A
:100690003E0A0E94E202C150B1F7CF9108958F92B5
:1006A0009F92AF92BF92CF92DF92EF92FF920F9301
:1006B0001F93CF93DF93EC018B016A0162E073E03B
:1006C0000E94B00EF8018081882359F0B80180EAB9
:1006D00093E00E94C30D64E670E080E090E00E9429
:1006E0003E0A0E940F0A4B015C01E12CF12C80EACA
:1006F00093E00E940A07892B41F080EA93E00E9470
:100700007D06BC01CE010E94700F0E940F0A68197D
:1007100079098A099B096C157D058E059F0538F3BB
:10072000CE01DF91CF911F910F91FF90EF90DF905D
:10073000CF90BF90AF909F908F9008950F931F938D
:10074000CF93DF93CDB7DEB7A5970FB6F894DEBF92
:100750000FBECDBF8C0160EE71E0CE0180960E948D
:10076000B00E44E650E06CEE71E0CE0101960E94BE
:100770004F03CE0101960E94420E44E650E068EF1E
:1007800071E0CE0101960E944F03CE0101960E94B6
:10079000420E44E650E065E072E0CE0101960E9410
:1007A0004F03CE0101960E94420E4AE0B801CE01ED
:1007B00001960E94FE0EBE016F5F7F4FCE018096B4
:1007C0000E94560FCE0101960E94420E20E030E0BA
:1007D00049E150E0BE016F5F7F4FCE0180960E94DD
:1007E000C10F44E650E0BE016F5F7F4FCE014A96D5
:1007F0000E944F03CE014A960E94420ECE0180967F
:100800000E94420EA5960FB6F894DEBF0FBECDBF74
:10081000DF91CF911F910F910895CF93DF9300D077
:1008200000D000D0CDB7DEB748EC50E064E172E014
:10083000CE0101960E944F03CE0101960E94420E06
:1008400048EC50E069E172E0CE0101960E944F034E
:10085000CE0101960E94420E48EC50E063E272E045
:10086000CE0101960E944F03CE0101960E94420ED6
:1008700048EC50E06EE272E0CE0101960E944F0318
:10088000CE0101960E94420E6CE472E080EA93E091
:100890000E94A40D6AE973E080EA93E00E94960D3D
:1008A0006AE171E080EA93E00E94A40D80EA93E09F
:1008B0000E94AD0D26960FB6F894DEBF0FBECDBFD9
:1008C000DF91CF9108951F93CF93DF9300D000D095
:1008D00000D0CDB7DEB740E951E061E672E0CE016D
:1008E00001960E944F03CE0101960E94420E1AEF1C
:1008F00080EA93E00E940A07892B41F46AE070E0E5
:1009000080E090E00E943E0A115091F744E650E0EA
:100910006EE672E0CE0101960E944F03CE01019671
:100920000E94420E44E650E06AE772E0CE01019672
:100930000E944F03CE0101960E94420E26960FB6EA
:10094000F894DEBF0FBECDBFDF91CF911F91089508
:10095000CF93DF9300D000D000D0CDB7DEB744E610
:1009600050E06EE872E0CE0101960E944F03CE0186
:1009700001960E94420E48EE53E06AE972E0CE0111
:1009800001960E944F03CE0101960E94420E2696C8
:100990000FB6F894DEBF0FBECDBFDF91CF910895A3
:1009A000CF93DF9300D000D000D0CDB7DEB740EDBD
:1009B00057E060E070E08BE094E00E942C0920E8B2
:1009C00035E240E050E06BE474E08BE094E00E949C
:1009D0003F098BE094E00E94290967EA72E0809168
:1009E0003C0490913D040E94A40D6AE070E080E018
:1009F00090E00E943E0A41E060E08BE094E00E94BB
:100A0000AA0926E040E855E260E070E08BE494E05B
:100A10000E941C0C40E855E260E070E080EA93E040
:100A20000E94730868E873E180E090E00E943E0A4B
:100A30008AE090E00E949E030E940D0468EE73E03D
:100A400080E090E00E943E0A0E94A80444E650E044
:100A500069EB72E0CE0101960E944F03CE01019630
:100A60000E94420E68EA70E08BE494E00E94B10DAF
:100A700026960FB6F894DEBF0FBECDBFDF91CF91A3
:100A80000895CF92DF92EF92FF920F931F93CF932F
:100A9000DF9300D000D000D0CDB7DEB70E940F0AA0
:100AA000672B682B692B41F40E940F0A6230710595
:100AB0008105910508F476C00E940F0A6093BF0378
:100AC0007093C0038093C1039093C2030091C3034A
:100AD0001091C4032091C5033091C60360177107BC
:100AE0008207930740F46093C3037093C403809319
:100AF000C5039093C6030091C3031091C4032091D2
:100B0000C5033091C6036B017C01C01AD10AE20A09
:100B1000F30A970186010A3F11052105310508F402
:100B200041C06093C3037093C4038093C503909343
:100B3000C6038BE094E00E94290963EC72E0809187
:100B40003C0490913D040E94A40D6BEC72E08091F6
:100B50003C0490913D040E94A40D0E940F0AAB0139
:100B6000BC012AE030E080913C0490913D040E9459
:100B70002E0E6DEC72E080913C0490913D040E9439
:100B8000A40D65E070E080E090E00E943E0A6AE01B
:100B900070E080E090E00E943E0A61E08BE094E02B
:100BA0000E946C0980EA93E00E940A07892B09F4ED
:100BB00095C080EA93E00E947D068A3019F08D305E
:100BC00009F087C066ED72E0CE0101960E94B00E7A
:100BD000BE016F5F7F4F80E793E00E9407108C019A
:100BE000CE0101960E94420E0130110509F05FC04E
:100BF00060E773E0CE0101960E94DD0ECE01019602
:100C00000E94D900182FCE0101960E94420E112396
:100C100009F44DC08EE893E00E940B109B016530F3
:100C200071058CF410926D0310926C0380916E0329
:100C30008F5F80936E038330A1F18630C0F186E030
:100C400080936E032EC0AB01455051094F305105C2
:100C500068F480916D038F5F80936D0310926E0333
:100C6000823028F182E080936D031BC064517109CA
:100C70006431710568F480916C038F5F80936C031D
:100C800010926E03882399F081E080936C0309C071
:100C90002832310564F010926E0310926D031092A9
:100CA0006C030E9463040E9410030E94A80462E087
:100CB00073E0CE0101960E94B00EBE016F5F7F4FC0
:100CC00080E793E00E94C60ECE0101960E94420E7C
:100CD00005C0682F80E793E00E945D0F26960FB64F
:100CE000F894DEBF0FBECDBFDF91CF911F910F9162
:100CF000FF90EF90DF90CF900895209109043091FC
:100D00000A0428173907B9F49091C7038091C803E2
:100D1000981789F0E091C703F0E0E753FC4F80811A
:100D20002091C70330E02F5F3F4F2F73332720936D
:100D3000C70390E008958FEF9FEF08951F93CF931F
:100D4000DF93DC015C968D919C915D97009749F44F
:100D500081E090E013969C938E93129780E090E050
:100D60003BC05196ED91FC91529750962C91509723
:100D7000322F30951FB75E964C915E9741FB7727D7
:100D800070F941FD6095F8944081772311F0422B72
:100D900001C043234083EC012197F1F748E05081E3
:100DA00060FF02C0522B01C053235083EC012197F6
:100DB000F1F76695415099F78081772311F08323ED
:100DC00001C0822B80831FBF5C968D919C915D97A3
:100DD0000197F1F781E090E0DF91CF911F910895A5
:100DE0002091090430910A042817390781F4909161
:100DF000C7038091C803981751F0E091C703F0E052
:100E0000E753FC4F8081992787FD909508958FEFD8
:100E10009FEF08952091090430910A04281739079B
:100E200071F48091C8032091C70390E0805C9F4FCC
:100E3000821B910960E470E00E941710089580E021
:100E400090E008952091090430910A042817390789
:100E500039F48FB7F8941092C8031092C7038FBF6C
:100E60000895E0910904F0910A04E817F90769F47C
:100E7000A389B4899C918589809589238C9310924C
:100E80000A041092090481E0089580E00895CF9348
:100E9000DF93EC018A8D9B8D892BF1F08091090401
:100EA00090910A048C179D07B9F0009711F00E94E9
:100EB00031078E8D8E7F8E8F1092C8031092C703DC
:100EC000D0930A04C0930904EB89FC8980819D8931
:100ED000892B808381E001C080E0DF91CF9108956C
:100EE0001F920F920FB60F9211242F933F934F939F
:100EF0005F936F937F938F939F93AF93BF93EF9382
:100F0000FF93E0910904F0910A04309709F451C06D
:100F1000868DA685B785958581FF04C08C91892330
:100F200029F447C08C91892309F043C0A389B4896F
:100F30009C918589809589238C93868997890197CF
:100F4000F1F7208D318DA685B785758558E040E095
:100F5000C9010197F1F7842F90E095958795482F67
:100F60006C91672309F04068515091F7868D81FD9F
:100F700040958091C80390E001968F739927209146
:100F8000C703281749F0A091C803B0E0A753BC4F8E
:100F90004C938093C80303C0868D8160868F828DB9
:100FA000938D0197F1F7A389B4898C919589892B49
:100FB0008C93FF91EF91BF91AF919F918F917F9112
:100FC0006F915F914F913F912F910F900FBE0F90B6
:100FD0001F90189527EE32E0FC01318320830C949A
:100FE00031071F93CF93DF93EC01162F6E8D66951B
:100FF000617081E06827812F0E94030B61E0812FDF
:101000000E94CA0A812F90E0FC01EE5EFE4FE4913F
:10101000E88BFC01EA5DFE4FE491F0E0EE0FFF1F6C
:10102000EC5BFE4F859194919A8B898BDF91CF91E8
:101030001F9108951F93CF93DF93EC01162F60E06B
:10104000812F0E94CA0A8E8D81FD04C061E0812F2C
:101050000E94030B1C87812F90E0FC01EE5EFE4F87
:10106000E491ED87FC01EA5DFE4FE491F0E0EE0FC4
:10107000FF1FE65CFE4F859194919F878E87DF91DD
:10108000CF911F910895FF920F931F93CF93DF93FA
:10109000EC01F62E522F1B821A8208EE13E020E09C
:1010A00030E00C831D832E833F8387EE92E099838B
:1010B00088831F8A1E8A198E188E1B8E1A8E1D8E8B
:1010C0001C8E8E8D8E7F50FB81F98E8F642FCE010A
:1010D0000E94F1076F2DCE01DF91CF911F910F91EB
:1010E000FF900C941A08CF93DF93EC019A01AB01A7
:1010F0001B8E1A8E198E188E1F8A1E8A60E079E068
:101100008DE390E00E944D10C9012430310520F09C
:10111000B9016350710902C061E070E07D8F6C8F8E
:10112000EC85E63108F068C0B901769567956431C1
:10113000710518F06351710902C061E070E07F8BA6
:101140006E8B069718F0C901059702C081E090E008
:10115000998F888FC901880F991F820F931F9695C9
:101160008795969587958D30910510F00C9702C064
:1011700081E090E09B8F8A8F20916800E83050F0EA
:1011800091E0EE3008F490E081E001C0880F9A957C
:10119000EAF701C084E0822B809368002C85283018
:1011A00038F02E3040F0263148F48CE690E008C04C
:1011B0008DE690E005C08BE690E002C080E090E014
:1011C0009C8B8B8B283030F481E001C0880F2A95EE
:1011D000EAF70DC0822F90E02E3010F4089701C07E
:1011E0000E9791E001C0990F8A95EAF7892F8D8BB0
:1011F0008C8D9D8D0197F1F7CE01DF91CF910C94ED
:1012000047070F931F93CF93DF93EC01662359F0A9
:101210000E940F0A69837A838B839C83DF91CF912D
:101220001F910F9108950E940F0A09811A812B8145
:101230003C81601B710B820B930B6233710581053E
:10124000910530F763E070E080E090E00E943E0A94
:10125000EACF60E00C940109FC0113AA14AA15AAB4
:1012600016AA11821282138214824115510561055A
:10127000710521F0CB01BA010C943E0A0895FB01DF
:10128000BA01A901DC01D296FC93EE93D19726E036
:10129000CF010C941C0C1F93CF93DF93EC01162FFE
:1012A00063EF72E089A99AA90E94A40D4AE050E078
:1012B000612F89A99AA90E943B0E6AEF72E089A961
:1012C0009AA90E94A40D62E370E080E090E0DF91B3
:1012D000CF911F910C943E0A1F93CF93DF93EC01A3
:1012E000162F8D81882389F189A99AA9DC01ED91B6
:1012F000FC910480F581E02D0995892BA9F307C0A5
:101300002637310519F12835310509F41D8289A9DF
:101310009AA9DC01ED91FC910480F581E02D0995FD
:101320001816190694F489A99AA9DC01ED91FC918B
:101330000680F781E02D09959C013327233631057E
:10134000F9F6612FCE010E944B0983E6DF91CF9120
:101350001F9108950F931F93CF93DF931F92CDB7E3
:10136000DEB78C01662349F081E0F801858360E0F7
:10137000C80149830E946C094981F80145830F9097
:10138000DF91CF911F910F9108951F920F920FB689
:101390000F9211242F933F938F939F93AF93BF93FB
:1013A0008091430490914404A0914504B091460477
:1013B0003091420423E0230F2D3720F40196A11D24
:1013C000B11D05C026E8230F0296A11DB11D209373
:1013D00042048093430490934404A0934504B09343
:1013E00046048091470490914804A0914904B0912B
:1013F0004A040196A11DB11D8093470490934804AF
:10140000A0934904B0934A04BF91AF919F918F91EB
:101410003F912F910F900FBE0F901F9018952FB7EF
:10142000F894609143047091440480914504909134
:1014300046042FBF08953FB7F894809147049091D8
:101440004804A0914904B0914A0426B5A89B05C060
:101450002F3F19F00196A11DB11D3FBF6627782FC0
:10146000892F9A2F620F711D811D911D42E0660F19
:10147000771F881F991F4A95D1F70895CF92DF9261
:10148000EF92FF92CF93DF936B017C010E941B0AC6
:10149000EB01C114D104E104F10489F00E9416109B
:1014A0000E941B0A6C1B7D0B683E734090F381E029
:1014B000C81AD108E108F108C851DC4FEACFDF9122
:1014C000CF91FF90EF90DF90CF900895789484B5FE
:1014D000826084BD84B5816084BD85B5826085BD30
:1014E00085B5816085BDEEE6F0E080818160808316
:1014F000E1E8F0E0108280818260808380818160F9
:101500008083E0E8F0E0808181608083E1EBF0E0BF
:10151000808184608083E0EBF0E080818160808363
:10152000EAE7F0E08081846080838081826080834C
:101530008081816080838081806880831092C10077
:101540000895833081F028F4813099F08230A1F041
:1015500008958730A9F08830B9F08430D1F48091B3
:1015600080008F7D03C0809180008F778093800002
:10157000089584B58F7702C084B58F7D84BD0895AA
:101580008091B0008F7703C08091B0008F7D8093F1
:10159000B0000895CF93DF9390E0FC01EE5EFE4F24
:1015A0002491FC01EA5DFE4F8491882349F190E08B
:1015B000880F991FFC01E25BFE4FA591B4918C5BF3
:1015C0009E4FFC01C591D4919FB7611108C0F8945A
:1015D0008C91209582238C93888182230AC062306B
:1015E00051F4F8948C91322F309583238C93888119
:1015F000822B888304C0F8948C91822B8C939FBF9C
:10160000DF91CF9108950F931F93CF93DF931F9294
:10161000CDB7DEB7282F30E0F901E250FF4F8491BB
:10162000F901EE5EFE4F1491F901EA5DFE4F04915F
:101630000023C9F0882321F069830E94A10A6981EF
:10164000E02FF0E0EE0FFF1FEC5BFE4FA591B49191
:101650009FB7F8948C91611103C01095812301C04C
:10166000812B8C939FBF0F90DF91CF911F910F9192
:101670000895FC01818D228D90E0805C9F4F821B3C
:1016800091098F7399270895FC01918D828D981788
:1016900031F0828DE80FF11D858D90E008958FEF78
:1016A0009FEF0895FC01918D828D981761F0828DD6
:1016B000DF01A80FB11D5D968C91928D9F5F9F7386
:1016C000928F90E008958FEF9FEF089586ED9CE054
:1016D000892B49F080E090E0892B29F00E94D60CFC
:1016E00081110C9400000895FC01848DDF01A80F86
:1016F000B11DA35ABF4F2C91848D90E001968F733A
:101700009927848FA689B7892C93A089B1898C9158
:1017100080648C93938D848D981306C00288F3891E
:10172000E02D80818F7D80830895CF93DF93EC013E
:10173000888D8823C9F0EA89FB89808185FD05C0F1
:10174000A889B9898C9186FD0FC00FB607FCF5CF2B
:10175000808185FFF2CFA889B9898C9185FFEDCF73
:10176000CE010E94740BE7CFDF91CF910895CF9205
:10177000DF92FF920F931F93CF93DF931F92CDB70A
:10178000DEB76C0181E0D60158968C9358975B9632
:101790009C915B975C968C915C97981307C05096D0
:1017A000ED91FC915197808185FD2EC0F601038D4E
:1017B00010E00F5F1F4F0F731127F02EF601848D7D
:1017C000F81211C00FB607FCF9CFD6015096ED9173
:1017D000FC915197808185FFF1CFC60169830E94FA
:1017E000740B6981EBCF838DE80FF11DE35AFF4F36
:1017F0006083D6015B960C935B975296ED91FC91BA
:101800005397808180620CC0D6015696ED91FC9171
:10181000579760835096ED91FC9151978081806439
:10182000808381E090E00F90DF91CF911F910F9125
:10183000FF90DF90CF900895BF92CF92DF92EF920A
:10184000FF92CF93DF93EC016A017B01B22EE8890E
:10185000F98982E08083411581EE580761057105A1
:10186000A1F060E079E08DE390E0A70196010E948D
:101870002B1021503109410951095695479537954B
:101880002795211580E1380798F0E889F9891082B9
:1018900060E874E88EE190E0A70196010E942B10A9
:1018A000215031094109510956954795379527959A
:1018B000EC85FD853083EE85FF852083188EEC89CD
:1018C000FD89B082EA89FB89808180618083EA8911
:1018D000FB89808188608083EA89FB8980818068B8
:1018E0008083EA89FB8980818F7D8083DF91CF911E
:1018F000FF90EF90DF90CF90BF9008951F920F92CE
:101900000FB60F9211242F938F939F93EF93FF9312
:10191000E0915B04F0915C048081E0916104F091BE
:10192000620482FD12C09081809164048F5F8F7386
:1019300020916504821751F0E0916404F0E0E55BCA
:10194000FB4F958F8093640401C08081FF91EF91DC
:101950009F918F912F910F900FBE0F901F90189510
:101960001F920F920FB60F9211242F933F934F9314
:101970005F936F937F938F939F93AF93BF93EF93F7
:10198000FF938BE494E00E94740BFF91EF91BF9161
:10199000AF919F918F917F916F915F914F913F9107
:1019A0002F910F900FBE0F901F9018958BE494E02D
:1019B0000E94390B21E0892B09F420E0822F089541
:1019C00010924E0410924D0488EE93E0A0E0B0E037
:1019D00080934F0490935004A0935104B093520409
:1019E0008FE493E090934C0480934B0485EC90E05B
:1019F000909358048093570484EC90E090935A0499
:101A00008093590480EC90E090935C0480935B0495
:101A100081EC90E090935E0480935D0482EC90E012
:101A20009093600480935F0486EC90E0909362044E
:101A3000809361041092640410926504109266040D
:101A400010926704089508950E94660A0E94230D6B
:101A50000E94D004C6E6DBE00E9441052097E1F336
:101A60000E94660BF9CFCF92DF92EF92FF920F9315
:101A70001F93CF93DF936C017A01EB01E60EF71E03
:101A800000E010E0CE15DF0561F06991D601ED911F
:101A9000FC910190F081E02DC6010995080F191FF6
:101AA000F1CFC801DF91CF911F910F91FF90EF907F
:101AB000DF90CF9008956115710581F0DB010D90E5
:101AC0000020E9F7AD0141505109461B570BDC01DD
:101AD000ED91FC910280F381E02D099480E090E08B
:101AE0000895EF92FF920F931F93CF93DF938C0192
:101AF000FB01C0E0D0E064917F018FEFE81AF80AA3
:101B0000662361F0D801ED91FC910190F081E02D08
:101B1000C8010995C80FD91FF701EDCFCE01DF919C
:101B2000CF911F910F91FF90EF900895DC01ED91FF
:101B3000FC91DB0114964D915C9115976D917C9110
:101B40000280F381E02D09940C945B0DDC01ED9192
:101B5000FC910190F081E02D099460E073E00C9419
:101B60005B0D0F931F93CF93DF93EC010E94710DD8
:101B70008C01CE010E94AD0D800F911FDF91CF919E
:101B80001F910F9108950F931F93CF93DF93EC0153
:101B90000E945B0D8C01CE010E94AD0D800F911F44
:101BA000DF91CF911F910F9108958F929F92AF92E5
:101BB000BF92CF92DF92EF92FF920F931F93CF933A
:101BC000DF93CDB7DEB7A1970FB6F894DEBF0FBE97
:101BD000CDBF7C01C42EE52FCB01D22E19A221E06E
:101BE0002D1510F02AE0D22E8E010F5D1F4F8D2C87
:101BF000912CA12CB12C6C2D7E2FA50194010E945B
:101C00002B108C2DD29E80191124015011098A307D
:101C100014F4805D01C0895CF801808321153105D1
:101C20004105510521F0C22EE32FCA01E4CFB801CE
:101C3000C7010E945B0DA1960FB6F894DEBF0FBEE0
:101C4000CDBFDF91CF911F910F91FF90EF90DF906B
:101C5000CF90BF90AF909F908F9008952115310540
:101C600041F4DC01ED91FC910190F081E02D642FB5
:101C700009940C94D50D9A01462F50E060E070E075
:101C80000C942E0EFC01808191810C941E11CF9337
:101C9000DF93EC0188819981009711F00E941E1159
:101CA000198218821D821C821B821A82DF91CF91B9
:101CB00008950F931F93CF93DF93EC018B016F5F18
:101CC0007F4F888199810E94AD11009731F09983EF
:101CD00088831B830A8381E001C080E0DF91CF917C
:101CE0001F910F910895CF93DF93EC018881998123
:101CF000892B29F08A819B818617970760F4CE0192
:101D00000E94590E882341F08C819D81892B19F402
:101D1000E881F981108281E0DF91CF910895EF92FF
:101D2000FF920F931F93CF93DF93EC017B018A0106
:101D3000BA010E94730E811104C0CE010E94470EA9
:101D400007C01D830C83B701888199810E94C0124E
:101D5000CE01DF91CF911F910F91FF90EF900895E9
:101D6000FC01118210821382128215821482611585
:101D7000710559F0FB0101900020E9F7AF014150D6
:101D80005109461B570B0C948F0E0895CF93DF9388
:101D9000EC01FB018617970761F060817181611585
:101DA000710529F0448155810E948F0E02C00E9466
:101DB000470ECE01DF91CF910895FC011182108270
:101DC00013821282158214820C94C60ECF93DF9375
:101DD000EC016115710561F0FB0101900020E9F74C
:101DE000AF0141505109461B570B0E948F0E02C094
:101DF0000E94470ECE01DF91CF9108950F931F935C
:101E0000CF93DF93CDB7DEB762970FB6F894DEBFFE
:101E10000FBECDBF8C01CB01F8011182108213825D
:101E200012821582148250E0BE016F5F7F4F0E94C4
:101E30001713BE016F5F7F4FC8010E94E60E6296C6
:101E40000FB6F894DEBF0FBECDBFDF91CF911F91CB
:101E50000F910895EF92FF920F931F93CF93DF930B
:101E6000EC017B010C811D816115710511F480E08D
:101E700016C04115510591F0040F151FB8010E94BD
:101E8000730E8823A1F3288139818C819D81B7014C
:101E9000820F931F0E94C0121D830C8381E0DF918B
:101EA000CF911F910F91FF90EF900895FB01448116
:101EB0005581608171810C942A0FCF93DF9300D0FC
:101EC000CDB7DEB769831A8241E050E0BE016F5F93
:101ED0007F4F0E942A0F0F900F90DF91CF910895AE
:101EE000EF92FF920F931F93CF93DF93CDB7DEB79F
:101EF00028970FB6F894DEBF0FBECDBF7C01CB0193
:101F00004AE050E08E010F5F1F4FB8010E94171387
:101F1000F80101900020E9F7AF0141505109401B41
:101F2000510BB801C7010E942A0F28960FB6F894EA
:101F3000DEBF0FBECDBFDF91CF911F910F91FF90FC
:101F4000EF900895FC0124813581232B31F421E0A9
:101F500061157105A1F0FB0108C0FC018081918130
:101F60006115710531F421E0FC018081882339F08D
:101F700005C00E94B71221E0892B09F020E0822FD2
:101F800008950F931F93CF93DF93EB0141155105F4
:101F9000E9F02097D9F0FC01648175812617370795
:101FA000A0F4621B730B8A010150110960177107BD
:101FB00008F48B01FC0160817181620F731FA8011D
:101FC000CE010E94C712C00FD11F1882DF91CF919E
:101FD0001F910F910895CF93DF93FC018481958128
:101FE0004817590778F4C081D181FB016081718164
:101FF000CE01840F951F0E94D612009719F08C1BFA
:102000009D0B02C08FEF9FEFDF91CF91089540E0CD
:1020100050E00C94EB0FFC0180819181009711F04E
:102020000C94771260E070E0CB010895089597FB5F
:10203000072E16F4009407D077FD09D00E946C108B
:1020400007FC05D03EF4909581959F4F08957095BB
:1020500061957F4F0895A1E21A2EAA1BBB1BFD01BB
:102060000DC0AA1FBB1FEE1FFF1FA217B307E40777
:10207000F50720F0A21BB30BE40BF50B661F771FCF
:10208000881F991F1A9469F76095709580959095AF
:102090009B01AC01BD01CF010895052E97FB1EF4F5
:1020A00000940E94641057FD07D00E942B1007FC7B
:1020B00003D04EF40C9464105095409530952195C2
:1020C0003F4F4F4F5F4F0895909580957095619564
:1020D0007F4F8F4F9F4F0895AA1BBB1B51E107C035
:1020E000AA1FBB1FA617B70710F0A61BB70B881FA8
:1020F000991F5A95A9F780959095BC01CD01089537
:10210000EE0FFF1F0590F491E02D0994CF93DF931C
:102110008230910510F482E090E0E091EA04F091C1
:10212000EB0420E030E0A0E0B0E0309739F14081EE
:10213000518148175907B8F04817590771F482813F
:102140009381109729F013969C938E9312972CC02D
:102150009093EB048093EA0427C02115310531F0F8
:102160004217530718F0A901DB0101C0EF019A01E2
:10217000BD01DF010280F381E02DD7CF21153105AC
:10218000F9F0281B390B2430310580F48A819B81BA
:102190006115710521F0FB019383828304C0909344
:1021A000EB048093EA04FE01329644C0FE01E20F84
:1021B000F31F8193919322503109398328833AC0C8
:1021C0002091E8043091E904232B41F4209102018D
:1021D000309103013093E9042093E8042091000139
:1021E000309101012115310541F42DB73EB74091E1
:1021F000040150910501241B350BE091E804F09196
:10220000E904E217F307A0F42E1B3F0B2817390748
:1022100078F0AC014E5F5F4F2417350748F04E0F42
:102220005F1F5093E9044093E8048193919302C0A7
:10223000E0E0F0E0CF01DF91CF910895CF93DF93FD
:10224000009709F487C0FC01329713821282C09173
:10225000EA04D091EB04209781F420813181280F8A
:10226000391F8091E8049091E9048217930779F56A
:10227000F093E904E093E8046DC0DE0120E030E073
:10228000AE17BF0750F412964D915C9113979D01C4
:102290004115510509F1DA01F3CFB383A2834081DF
:1022A0005181840F951F8A179B0771F48D919C9122
:1022B0001197840F951F02969183808312968D91BA
:1022C0009C911397938382832115310529F4F09310
:1022D000EB04E093EA043EC0D9011396FC93EE931D
:1022E00012974D915D91A40FB51FEA17FB0779F482
:1022F00080819181840F951F0296D90111969C933C
:102300008E938281938113969C938E931297E0E033
:10231000F0E08A819B81009719F0FE01EC01F9CF72
:10232000CE01029628813981820F931F2091E80403
:102330003091E9042817390769F4309729F410928D
:10234000EB041092EA0402C013821282D093E904D3
:10235000C093E804DF91CF910895A0E0B0E0E3EBF3
:10236000F1E10C947013EC01CB01209719F40E9459
:102370008610B8C0FE01E60FF71F9E0122503109FA
:10238000E217F30708F4ACC0D9010D911C91119725
:1023900006171707B8F00530110508F49FC0A8010B
:1023A000445051094617570708F498C002501109C4
:1023B000061B170B019311936D937C93CF010E9421
:1023C0001E118CC05B01A01AB10A4E01800E911E35
:1023D000A091EA04B091EB04612C712C60E070E0F4
:1023E000109709F449C0A815B905C9F5ED90FC90FE
:1023F0001197670142E0C40ED11CCA14DB0478F1C6
:1024000047018A189B08640142E0C40ED11C129651
:10241000BC9012971396AC91B5E0CB16D10440F066
:10242000B282A38391828082D9018D939C9309C04B
:102430000E5F1F4F0E0D1F1DF90111830083EB2D41
:10244000FA2F6115710531F0DB011396FC93EE93C1
:10245000129744C0F093EB04E093EA043FC06D91FF
:102460007C9111976616770608F43B01BD01129620
:102470000D90BC91A02DB4CF6091E8047091E90457
:1024800068157905E9F468167906D0F440910001E1
:10249000509101014115510541F44DB75EB760916E
:1024A000040170910501461B570BE417F507C0F4B2
:1024B000F093E904E093E804F901918380830EC06E
:1024C0000E9486107C01009759F0A801BE010E946D
:1024D000A312CE010E941E11C70104C0CE0102C08A
:1024E00080E090E0CDB7DEB7EEE00C948C131F9344
:1024F000FC0199278827BC01E89411911032E9F377
:10250000193010F01E30C8F31B3251F01D3249F45F
:10251000689406C00E942D13610F711D811D911DCD
:10252000119110531A30B0F33EF490958095709548
:1025300061957F4F8F4F9F4F1F9108954AE653E05B
:102540000E94F0120895FB01DC0102C001900D927F
:1025500041505040D8F70895FC018191861721F031
:102560008823D9F7992708953197CF010895FB0162
:10257000DC018D91019080190110D9F3990B089518
:10258000FB01DC0101900D920020E1F70895FB01B1
:10259000DC014150504048F001900D920020C9F7F5
:1025A00001C01D9241505040E0F70895FB01519148
:1025B0005523A9F0BF01DC014D9145174111E1F709
:1025C00059F4CD010190002049F04D914015411181
:1025D000C9F3FB014111EFCF81E090E0019708952D
:1025E000FA01A191B081009719F41097E1F0CD01A3
:1025F000DC01CD010D90002011F4C00113C0FB01DE
:102600002191222319F02015D9F7F3CFFB01219155
:10261000201519F41E92119606C02223C1F70D90C1
:102620000020A1F7D001FA01A193B08308954532AB
:10263000510520F4423010F00C942213FB0110825B
:10264000CB010895BB274A3031F4992322F4BDE22F
:10265000909581959F4F0C944313592F482F372FF6
:10266000262F660F771F881F991F660F771F881FF9
:10267000991F620F731F841F951F660F771F881F96
:10268000991F0895BB27FB015527AA27880F991F7B
:10269000AA1FA41710F0A41B83955051B9F7A05D91
:1026A000AA3308F0A95DA193009779F7B111B1930E
:1026B0001192CB010C945C13DC01FC01672F71912A
:1026C0007723E1F7329704C07C916D937083629118
:1026D000AE17BF07C8F308952F923F924F925F92B3
:1026E0006F927F928F929F92AF92BF92CF92DF9222
:1026F000EF92FF920F931F93CF93DF93CDB7DEB787
:10270000CA1BDB0B0FB6F894DEBF0FBECDBF09941A
:102710002A88398848885F846E847D848C849B8471
:10272000AA84B984C884DF80EE80FD800C811B817F
:10273000AA81B981CE0FD11D0FB6F894DEBF0FBEAE
:10274000CDBFED01089511E0CCE5D1E004C0FE015C
:102750000E9482102296CE35D107C9F7F894FFCF98
:102760000000EC0480002C0041542B48545450507D
:102770004152413D2255524C222C22003F003F70D5
:102780007269766174655F6B65793D002600696EDC
:102790007465726E657400687474703A2F2F64618A
:1027A00074612E737061726B66756E2E636F6D2F20
:1027B000696E7075742F004E4A3635524172476209
:1027C000525564334138444E786162003564526535
:1027D000447259396D44684A5930704250613767C4
:1027E00000427065354C324E5A394C55616B4C5233
:1027F0006541344F570064617465006C617469749D
:10280000756465006C6F6E67697475646500616CF2
:1028100074697475646500737065656400636F75D1
:102820007273650041542B48545450414354494FEE
:102830004E3D300041542B485454505245414400C1
:1028400041542B43474E535552433D0041542B496D
:1028500050523D393630300041542B43474E53508F
:1028600057523D310041542B43474E535345513D40
:10287000524D4300415445300041542B434D47468F
:102880003D310041542B43474154543D31004154A4
:102890002B53415042523D332C312C22434F4E5446
:1028A000595045222C2247505253220041542B5359
:1028B000415042523D332C312C2241504E222C2289
:1028C0000041542B53415042523D312C3100415470
:1028D0002B48545450494E49540041542B485454A9
:1028E00050504152413D22434944222C3100415431
:1028F0002B485454505445524D0041542B53415091
:1029000042523D302C3100564D4450565F317C319F
:102910005F564D4450560D0A0041542B434D4744D9
:102920003D3400564D4450455F31007C005F564DAC
:102930004450450D0A0055474E53494E463A203102
:102940002C3100000000009E06330D0A077D06F0C2
:10295000062207564D4450435F005F564D44504396
:102960000D0A004572726F723A20417474656D7081
:102970007420746F20736574206120726561642D0A
:102980006F6E6C79207661726961626C65206F721E
:1029900020646174612074797065206E6F74207397
:1029A0007570706F727465640D0A0000000000B7E6
:1029B0000B330D390B520B440B950B6E616E006996
:0A29C0006E66006F7666002E0000C0
:00000001FF
