:100000000C9464000C948C000C948C000C94A5054A
:100010000C94A5050C94A5050C948C000C948C00F4
:100020000C948C000C948C000C948C000C948C0020
:100030000C948C000C948C000C948C000C948C0010
:100040000C9436070C948C000C94EF090C94210A44
:100050000C948C000C948C000C948C000C948C00F0
:100060000C948C000C948C0000000008000201002D
:100070000003040700000000000000000102040863
:100080001020408001020408102001020408102002
:10009000040404040404040402020202020203032E
:1000A00003030303000000002300260029000000D2
:1000B0000000250028002B0000000000240027007D
:1000C0002A001E02510A830211241FBECFEFD8E07E
:1000D000DEBFCDBF12E0A0E0B1E0E0E7FFE102C08B
:1000E00005900D92AA3FB107D9F724E0AAEFB2E03C
:1000F00001C01D92AB37B207E1F710E0C6ECD0E0CB
:1001000004C02297FE010E94DA0CC23CD107C9F755
:100110000E94950A0C94AB0F0C940000CF92DF92D2
:10012000EF92FF920F931F93CF93DF93CDB7DEB77C
:10013000C65AD1090FB6F894DEBF0FBECDBF8E01EF
:100140000F5F1F4F24E6F80111922A95E9F720E08E
:1001500030E044E650E0B8010E94240C6AE071E00F
:10016000C8010E94CF0E7E01F5E6EF0EF11C67017B
:100170008CE3C80ED11C87016AE071E080E090E05A
:100180000E94CF0EF701819391937F01EC15FD053D
:1001900099F7F801E280F38061E370E0C7010E9403
:1001A000DD0E892B09F478C0B701CE018F559F4F22
:1001B0000E947D0BBE016F557F4F82E093E00E944D
:1001C000930BCE018F559F4F0E940F0BF801648156
:1001D0007581CE018F559F4F0E947D0BBE016F55DB
:1001E0007F4F88E093E00E94930BCE018F559F4F85
:1001F0000E940F0BF80166817781CE018F559F4FCA
:100200000E947D0BBE016F557F4F8EE093E00E94F0
:10021000930BCE018F559F4F0E940F0BF801608505
:100220007185CE018F559F4F0E947D0BBE016F558A
:100230007F4F84E193E00E94930BCE018F559F4F37
:100240000E940F0BF80162857385CE018F559F4F79
:100250000E947D0BBE016F557F4F8AE193E00E94A3
:10026000930BCE018F559F4F0E940F0BF8016485B1
:100270007585CE018F559F4F0E947D0BBE016F5536
:100280007F4F80E293E00E94930BCE018F559F4FEA
:100290000E940F0B81E001C080E0CA55DF4F0FB60E
:1002A000F894DEBF0FBECDBFDF91CF911F910F91AC
:1002B000FF90EF90DF90CF900895EF92FF920F9311
:1002C0001F93CF93DF9300D000D000D0CDB7DEB71F
:1002D0006BEE72E0CE0101960E947D0B0E948007BA
:1002E0006CE071E08EE693E00E94F00A6CE071E051
:1002F0008AED93E00E94F00A62E673E08EE693E0F6
:100300000E94E20A62E673E08AED93E00E94E20A4C
:1003100066E573E08EE693E00E94E20A66E573E02C
:100320008AED93E00E94E20A60E271E08EE693E0DB
:100330000E94F00A60E271E08AED93E00E94F00A08
:1003400060E573E08EE693E00E94E20A60E573E008
:100350008AED93E00E94E20A00E010E06EE271E0B4
:100360008EE693E00E94F00A6EE271E08AED93E07F
:100370000E94F00AC8018A5D9C4F7C01BC018EE698
:1003800093E00E94E20AB7018AED93E00E94E20A3C
:100390006EE172E08EE693E00E94F00A6EE172E098
:1003A0008AED93E00E94F00AC8018E5F9C4F7C01A9
:1003B000BC018EE693E00E94E20AB7018AED93E069
:1003C0000E94E20A0A5F1F4F0432110539F66EE1FE
:1003D00071E08EE693E00E94F00A6EE171E08AED32
:1003E00093E00E94F00A8EE693E00E94F90A8AEDFB
:1003F00093E00E94F90ACE0101960E940F0B81E062
:1004000026960FB6F894DEBF0FBECDBFDF91CF9119
:100410001F910F91FF90EF90089526E040E855E27C
:1004200060E070E08AED93E00E948D0940E855E2BB
:1004300060E070E08EE693E00C94A806CF93DF9323
:1004400020E042E063E08EE693E00E94780660E3FD
:1004500071E088E693E00E947D0B69E371E082E63B
:1004600093E00E947D0B6BEE72E08CE593E00E94BE
:100470007D0B69E571E086E593E00E947D0B6EE6F9
:1004800071E080E593E00E947D0B63E871E08AE40F
:1004900093E00E947D0B68E971E086E293E00E94A0
:1004A0007D0B6DE971E08CE293E00E947D0B66EAC2
:1004B00071E082E393E00E947D0B60EB71E088E3E2
:1004C00093E00E947D0B69EB71E08EE393E00E9464
:1004D0007D0B6FEB71E084E493E00E947D0BC2E042
:1004E000D3E06BEE72E0CE010E947D0B269683E096
:1004F000C632D807B1F76BEE72E08CEF92E0DF9175
:10050000CF910C947D0BCF93DF938CEF92E00E9400
:100510000F0BC6E2D3E02697CE010E940F0B83E0BB
:10052000C230D807C1F7CAE4D3E02697CE010E94B3
:100530000F0B83E0C632D807C1F78AE493E00E942C
:100540000F0B80E593E00E940F0B86E593E00E947D
:100550000F0B8CE593E00E940F0B82E693E00E9464
:100560000F0B88E693E00E940F0B8EE693E0DF917D
:10057000CF910C941F060F931F93CF93DF9300D05E
:1005800000D000D0CDB7DEB76BEE72E0CE010196A1
:100590000E947D0B0AE010E08EE693E00E943F058A
:1005A000892B81F08EE693E00E94B204682F8AEDD9
:1005B00093E00E94F20A6AE070E080E090E00E941E
:1005C000AF07EACF0150110939F7CE0101960E9419
:1005D0000F0B26960FB6F894DEBF0FBECDBFDF918E
:1005E000CF911F910F9108958EE693E00E943F05F1
:1005F000892B59F08EE693E00E94B2046AE070E025
:1006000080E090E00E94AF07EFCF08957F928F9235
:100610009F92AF92BF92CF92DF92EF92FF920F9391
:100620001F93CF93DF93CDB7DEB7C456D1090FB672
:10063000F894DEBF0FBECDBF6B018E010F5F1F4F61
:1006400024E6F80111922A95E9F7FC012081222382
:1006500059F0BC018EE693E00E94FD0A64E670E06A
:1006600080E090E00E94AF070E9480074B015C0190
:10067000712CE12CF12C8EE693E00E943F05892B32
:1006800049F08EE693E00E94B204F801E70DF11DF7
:10069000808373940E948007681979098A099B09ED
:1006A0006C157D058E059F0530F3CC59DF4F0FB6D5
:1006B000F894DEBF0FBECDBFDF91CF911F910F9198
:1006C000FF90EF90DF90CF90BF90AF909F908F9072
:1006D0007F900895CF93DF9364E670E086EC91E01D
:1006E0000E94060364E670E082ED91E00E9406033A
:1006F00066EE71E08AED93E00E94F00A0E945D01CF
:1007000068EE73E080E090E00E94AF070E94F40280
:1007100061EF71E08AED93E00E94F00A64E072E01C
:100720008EE693E00E94FD0ACBE0D0E064EF71E03A
:1007300080E090E00E94AF070E94BB022197B1F7D2
:10074000DF91CF910895CF93DF93CDB7DEB76F9749
:100750000FB6F894DEBF0FBECDBF64E172E0CE01EC
:100760004A960E947D0B64E670E080E292E00E946F
:10077000060364E670E08CE292E00E94060364E601
:1007800070E089E392E00E94060360910601709197
:100790000701CE014A960E94F20B20E030E049E1C9
:1007A00050E0BE016F5F7F4FCE014A960E94240C3D
:1007B00064E670E0CE0101960E940603CE014A96DF
:1007C0000E940F0B6F960FB6F894DEBF0FBECDBF21
:1007D000DF91CF910895CF93DF9300D000D000D068
:1007E000CDB7DEB768EC70E088E492E00E940603C3
:1007F00068EC70E08DE492E00E94060368EC70E023
:1008000087E592E00E94060368EC70E082E692E0E1
:100810000E9406036BEE72E0CE0101960E947D0BF2
:100820000E94800760E872E08EE693E00E94F00A82
:1008300068E673E08EE693E00E94E20A6EE171E002
:100840008EE693E00E94F00A8EE693E00E94F90A99
:1008500060ED77E085E992E00E940603CE01019603
:100860000E940F0B26960FB6F894DEBF0FBECDBFC9
:10087000DF91CF9108950E940D026091080170915F
:100880000901882777FD8095982F0E94AF070E9465
:10089000A3030E94EB0362EA72E08AED93E00C94FA
:1008A000FD0A0F931F93CF93DF9300D000D000D0A9
:1008B000CDB7DEB78EE693E00E943F05892B09F4A1
:1008C00046C08EE693E00E94B2048A3011F08D306B
:1008D000C9F56CEB72E0CE0101960E947D0BBE0162
:1008E0006F5F7F4F8CEF92E00E946A0C8C01CE010B
:1008F00001960E940F0B0130110591F46CEF72E02C
:10090000CE0101960E94AA0BCE0101960E948E0094
:10091000182FCE0101960E940F0B11110E946A033D
:100920006BEE72E0CE0101960E947D0BBE016F5FFF
:100930007F4F8CEF92E00E94930BCE0101960E94B4
:100940000F0B05C0682F8CEF92E00E94DF0B2696FC
:100950000FB6F894DEBF0FBECDBFDF91CF911F91D0
:100960000F9108952091CF033091D00328173907B4
:10097000B9F490918D0380918E03981789F0E091DE
:100980008D03F0E0E157FC4F808120918D0330E032
:100990002F5F3F4F2F73332720938D0390E00895EF
:1009A0008FEF9FEF08951F93CF93DF93DC015C9649
:1009B0008D919C915D97009749F481E090E01396AA
:1009C0009C938E93129780E090E03BC05196ED91FE
:1009D000FC91529750962C915097322F30951FB71B
:1009E0005E964C915E9741FB772770F941FD6095CB
:1009F000F8944081772311F0422B01C043234083B8
:100A0000EC012197F1F748E0508160FF02C0522BC2
:100A100001C053235083EC012197F1F766954150B3
:100A200099F78081772311F0832301C0822B808383
:100A30001FBF5C968D919C915D970197F1F781E0C6
:100A400090E0DF91CF911F9108952091CF033091D5
:100A5000D0032817390781F490918D0380918E037C
:100A6000981751F0E0918D03F0E0E157FC4F808141
:100A7000992787FD909508958FEF9FEF0895209116
:100A8000CF033091D0032817390771F480918E037A
:100A900020918D0390E0805C9F4F821B910960E460
:100AA00070E00E946F0C089580E090E0089520911E
:100AB000CF033091D0032817390739F48FB7F89452
:100AC00010928E0310928D038FBF0895E091CF0393
:100AD000F091D003E817F90769F4A389B4899C91D0
:100AE0008589809589238C931092D0031092CF032F
:100AF00081E0089580E00895CF93DF93EC018A8D23
:100B00009B8D892BF1F08091CF039091D0038C17AE
:100B10009D07B9F0009711F00E9466058E8D8E7FBB
:100B20008E8F10928E0310928D03D093D003C093BA
:100B3000CF03EB89FC8980819D89892B808381E0AB
:100B400001C080E0DF91CF9108951F920F920FB600
:100B50000F9211242F933F934F935F936F937F9343
:100B60008F939F93AF93BF93EF93FF93E091CF0346
:100B7000F091D003309709F451C0868DA685B785D2
:100B8000958581FF04C08C91892329F447C08C91FD
:100B9000892309F043C0A389B4899C9185898095F4
:100BA00089238C93868997890197F1F7208D318D60
:100BB000A685B785758558E040E0C9010197F1F732
:100BC000842F90E095958795482F6C91672309F0C5
:100BD0004068515091F7868D81FD409580918E033C
:100BE00090E001968F73992720918D03281749F083
:100BF000A0918E03B0E0A157BC4F4C9380938E031D
:100C000003C0868D8160868F828D938D0197F1F769
:100C1000A389B4898C919589892B8C93FF91EF914D
:100C2000BF91AF919F918F917F916F915F914F9104
:100C30003F912F910F900FBE0F901F9018952DECA4
:100C400032E0FC01318320830C9466051F93CF931F
:100C5000DF93EC01162F6E8D6695617081E0682739
:100C6000812F0E94740861E0812F0E943B08812F30
:100C700090E0FC01E458FF4FE491E88BFC01E05761
:100C8000FF4FE491F0E0EE0FFF1FE255FF4F85911B
:100C900094919A8B898BDF91CF911F9108951F9327
:100CA000CF93DF93EC01162F60E0812F0E943B0869
:100CB0008E8D81FD04C061E0812F0E9474081C8725
:100CC000812F90E0FC01E458FF4FE491ED87FC0197
:100CD000E057FF4FE491F0E0EE0FFF1FEC55FF4FA0
:100CE000859194919F878E87DF91CF911F91089571
:100CF000FF920F931F93CF93DF93EC01F62E522FA9
:100D00001B821A8208EE13E020E030E00C831D8382
:100D10002E833F838DEC92E0998388831F8A1E8AFD
:100D2000198E188E1B8E1A8E1D8E1C8E8E8D8E7FA8
:100D300050FB81F98E8F642FCE010E9426066F2D05
:100D4000CE01DF91CF911F910F91FF900C944F0630
:100D5000CF93DF93EC019A01AB011B8E1A8E198E93
:100D6000188E1F8A1E8A60E079E08DE390E00E9471
:100D7000A50CC9012430310520F0B9016350710977
:100D800002C061E070E07D8F6C8FEC85E63108F089
:100D900068C0B901769567956431710518F06351A3
:100DA000710902C061E070E07F8B6E8B069718F0CE
:100DB000C901059702C081E090E0998F888FC90131
:100DC000880F991F820F931F969587959695879503
:100DD0008D30910510F00C9702C081E090E09B8F60
:100DE0008A8F20916800E83050F091E0EE3008F4EE
:100DF00090E081E001C0880F9A95EAF701C084E095
:100E0000822B809368002C85283038F02E3040F0FB
:100E1000263148F48CE690E008C08DE690E005C0ED
:100E20008BE690E002C080E090E09C8B8B8B2830BA
:100E300030F481E001C0880F2A95EAF70DC0822FB7
:100E400090E02E3010F4089701C00E9791E001C099
:100E5000990F8A95EAF7892F8D8B8C8D9D8D01973F
:100E6000F1F7CE01DF91CF910C947C051F920F9288
:100E70000FB60F9211242F933F938F939F93AF93AD
:100E8000BF938091D2039091D303A091D403B091EA
:100E9000D5033091D10323E0230F2D3720F40196A1
:100EA000A11DB11D05C026E8230F0296A11DB11D8D
:100EB0002093D1038093D2039093D303A093D403C0
:100EC000B093D5038091D6039091D703A091D80316
:100ED000B091D9030196A11DB11D8093D6039093C3
:100EE000D703A093D803B093D903BF91AF919F913B
:100EF0008F913F912F910F900FBE0F901F901895DB
:100F00002FB7F8946091D2037091D3038091D403EA
:100F10009091D5032FBF08953FB7F8948091D603E1
:100F20009091D703A091D803B091D90326B5A89B7F
:100F300005C02F3F19F00196A11DB11D3FBF6627C7
:100F4000782F892F9A2F620F711D811D911D42E00C
:100F5000660F771F881F991F4A95D1F70895CF9282
:100F6000DF92EF92FF92CF93DF936B017C010E949F
:100F70008C07EB01C114D104E104F10489F00E9453
:100F80006E0C0E948C076C1B7D0B683E734090F3C7
:100F900081E0C81AD108E108F108C851DC4FEACF56
:100FA000DF91CF91FF90EF90DF90CF9008957894EC
:100FB00084B5826084BD84B5816084BD85B582605E
:100FC00085BD85B5816085BDEEE6F0E080818160FC
:100FD0008083E1E8F0E010828081826080838081FC
:100FE00081608083E0E8F0E0808181608083E1EBD4
:100FF000F0E0808184608083E0EBF0E080818160BC
:101000008083EAE7F0E08081846080838081826071
:10101000808380818160808380818068808310925A
:10102000C1000895833081F028F4813099F0823036
:10103000A1F008958730A9F08830B9F08430D1F458
:10104000809180008F7D03C0809180008F77809396
:101050008000089584B58F7702C084B58F7D84BDEC
:1010600008958091B0008F7703C08091B0008F7D8C
:101070008093B0000895CF93DF9390E0FC01E45893
:10108000FF4F2491FC01E057FF4F8491882349F1E1
:1010900090E0880F991FFC01E854FF4FA591B4918F
:1010A00082559F4FFC01C591D4919FB7611108C033
:1010B000F8948C91209582238C93888182230AC096
:1010C000623051F4F8948C91322F309583238C93B5
:1010D0008881822B888304C0F8948C91822B8C9316
:1010E0009FBFDF91CF9108950F931F93CF93DF930D
:1010F0001F92CDB7DEB7282F30E0F901E859FF4F36
:101100008491F901E458FF4F1491F901E057FF4F22
:1011100004910023C9F0882321F069830E941208FA
:101120006981E02FF0E0EE0FFF1FE255FF4FA59120
:10113000B4919FB7F8948C91611103C010958123ED
:1011400001C0812B8C939FBF0F90DF91CF911F9196
:101150000F910895FC01818D228D90E0805C9F4F5E
:10116000821B91098F7399270895FC01918D828DBF
:10117000981731F0828DE80FF11D858D90E008956C
:101180008FEF9FEF0895FC01918D828D981761F08C
:10119000828DDF01A80FB11D5D968C91928D9F5FAE
:1011A0009F73928F90E008958FEF9FEF089587E4EB
:1011B0009AE0892B49F080E090E0892B29F00E9489
:1011C000470A81110C9400000895FC01848DDF0111
:1011D000A80FB11DA35ABF4F2C91848D90E00196AA
:1011E0008F739927848FA689B7892C93A089B18999
:1011F0008C9180648C93938D848D981306C00288A3
:10120000F389E02D80818F7D80830895CF93DF93D4
:10121000EC01888D8823C9F0EA89FB89808185FDEE
:1012200005C0A889B9898C9186FD0FC00FB607FC4F
:10123000F5CF808185FFF2CFA889B9898C9185FF90
:10124000EDCFCE010E94E508E7CFDF91CF91089561
:10125000CF92DF92FF920F931F93CF93DF931F9252
:10126000CDB7DEB76C0181E0D60158968C935897C4
:101270005B969C915B975C968C915C97981307C0EA
:101280005096ED91FC915197808185FD2EC0F6011D
:10129000038D10E00F5F1F4F0F731127F02EF60123
:1012A000848DF81211C00FB607FCF9CFD601509605
:1012B000ED91FC915197808185FFF1CFC601698343
:1012C0000E94E5086981EBCF838DE80FF11DE35A99
:1012D000FF4F6083D6015B960C935B975296ED911E
:1012E000FC915397808180620CC0D6015696ED9197
:1012F000FC91579760835096ED91FC9151978081B6
:101300008064808381E090E00F90DF91CF911F9106
:101310000F91FF90DF90CF900895BF92CF92DF9210
:10132000EF92FF92CF93DF93EC016A017B01B22E23
:10133000E889F98982E08083411581EE58076105CB
:101340007105A1F060E079E08DE390E0A7019601DE
:101350000E94830C21503109410951095695479546
:1013600037952795211580E1380798F0E889F989A4
:10137000108260E874E88EE190E0A70196010E9477
:10138000830C2150310941095109569547953795EC
:101390002795EC85FD853083EE85FF852083188EAB
:1013A000EC89FD89B082EA89FB8980818061808334
:1013B000EA89FB89808188608083EA89FB89808152
:1013C00080688083EA89FB8980818F7D8083DF91BB
:1013D000CF91FF90EF90DF90CF90BF9008951F9234
:1013E0000F920FB60F9211242F938F939F93EF9329
:1013F000FF93E091EA03F091EB038081E091F00329
:10140000F091F10382FD12C090818091F3038F5F10
:101410008F732091F403821751F0E091F303F0E011
:10142000E652FC4F958F8093F30301C08081FF91BA
:10143000EF919F918F912F910F900FBE0F901F9062
:1014400018951F920F920FB60F9211242F933F936E
:101450004F935F936F937F938F939F93AF93BF93BC
:10146000EF93FF938AED93E00E94E508FF91EF91DF
:10147000BF91AF919F918F917F916F915F914F91AC
:101480003F912F910F900FBE0F901F9018958AEDEE
:1014900093E00E94AA0821E0892B09F420E0822F22
:1014A00008951092DD031092DC0388EE93E0A0E033
:1014B000B0E08093DE039093DF03A093E003B0934A
:1014C000E1038DED92E09093DB038093DA0385ECEA
:1014D00090E09093E7038093E60384EC90E0909390
:1014E000E9038093E80380EC90E09093EB03809312
:1014F000EA0381EC90E09093ED038093EC0382EC9F
:1015000090E09093EF038093EE0386EC90E090934D
:10151000F1038093F0031092F3031092F4031092FE
:10152000F5031092F603089508950E94D7070E94CC
:10153000940A0E943B04C7EDD8E00E945104209712
:10154000E1F30E94D708F9CFCF92DF92EF92FF929A
:101550000F931F93CF93DF936C017A01EB01E60E9B
:10156000F71E00E010E0CE15DF0561F06991D601AD
:10157000ED91FC910190F081E02DC6010995080FD5
:10158000191FF1CFC801DF91CF911F910F91FF90EB
:10159000EF90DF90CF9008956115710581F0DB0128
:1015A0000D900020E9F7AD0141505109461B570B42
:1015B000DC01ED91FC910280F381E02D099480E043
:1015C00090E00895DC01ED91FC91DB0114964D91C2
:1015D0005C9115976D917C910280F381E02D0994C7
:1015E0000C94CC0ADC01ED91FC910190F081E02D8E
:1015F000099469EE72E00C94CC0A0F931F93CF9379
:10160000DF93EC010E94CC0A8C01CE010E94F90A02
:10161000800F911FDF91CF911F910F910895FC01D1
:10162000808191810C94760DCF93DF93EC018881BA
:101630009981009711F00E94760D198218821D82FF
:101640001C821B821A82DF91CF9108950F931F9302
:10165000CF93DF93EC018B016F5F7F4F888199817E
:101660000E94050E009731F0998388831B830A83BB
:1016700081E001C080E0DF91CF911F910F9108952B
:10168000CF93DF93EC0188819981892B29F08A819E
:101690009B818617970760F4CE010E94260B882352
:1016A00041F08C819D81892B19F4E881F9811082A8
:1016B00081E0DF91CF910895EF92FF920F931F93F6
:1016C000CF93DF93EC017B018A01BA010E94400BAA
:1016D000811104C0CE010E94140B07C01D830C832E
:1016E000B701888199810E94E80ECE01DF91CF91E8
:1016F0001F910F91FF90EF900895FC0111821082CD
:1017000013821282158214826115710559F0FB0152
:1017100001900020E9F7AF0141505109461B570BDA
:101720000C945C0B0895CF93DF93EC01FB018617BB
:10173000970761F0608171816115710529F044811D
:1017400055810E945C0B02C00E94140BCE01DF91F8
:10175000CF910895FC0111821082138212821582AA
:1017600014820C94930BEF92FF920F931F93CF93DD
:10177000DF93EC017B010C811D816115710511F472
:1017800080E016C04115510591F0040F151FB801F6
:101790000E94400B8823A1F3288139818C819D818F
:1017A000B701820F931F0E94E80E1D830C8381E016
:1017B000DF91CF911F910F91FF90EF900895CF93FC
:1017C000DF9300D0CDB7DEB769831A8241E050E0E5
:1017D000BE016F5F7F4F0E94B30B0F900F90DF91A0
:1017E000CF910895EF92FF920F931F93CF93DF93C2
:1017F000CDB7DEB727970FB6F894DEBF0FBECDBFCB
:101800007C01CB014AE050E08E010F5F1F4FB80111
:101810000E943F0FF80101900020E9F7AF0141500D
:101820005109401B510BB801C7010E94B30B279609
:101830000FB6F894DEBF0FBECDBFDF91CF911F91E1
:101840000F91FF90EF9008950F931F93CF93DF9325
:10185000EB0141155105E9F02097D9F0FC016481B5
:10186000758126173707A0F4621B730B8A0101509C
:1018700011096017710708F48B01FC016081718107
:10188000620F731FA801CE010E94EF0EC00FD11F7F
:101890001882DF91CF911F910F910895CF93DF931D
:1018A000FC01848195814817590778F4C081D18162
:1018B000FB0160817181CE01840F951F0E94FE0E95
:1018C000009719F08C1B9D0B02C08FEF9FEFDF91EB
:1018D000CF91089540E050E00C944E0C089597FB92
:1018E000072E16F4009407D077FD09D00E94C40C8F
:1018F00007FC05D03EF4909581959F4F0895709513
:1019000061957F4F0895A1E21A2EAA1BBB1BFD0112
:101910000DC0AA1FBB1FEE1FFF1FA217B307E407CE
:10192000F50720F0A21BB30BE40BF50B661F771F26
:10193000881F991F1A9469F7609570958095909506
:101940009B01AC01BD01CF010895052E97FB1EF44C
:1019500000940E94BC0C57FD07D00E94830C07FC2A
:1019600003D04EF40C94BC0C5095409530952195C5
:101970003F4F4F4F5F4F08959095809570956195BB
:101980007F4F8F4F9F4F0895AA1BBB1B51E107C08C
:10199000AA1FBB1FA617B70710F0A61BB70B881FFF
:1019A000991F5A95A9F780959095BC01CD0108958E
:1019B000EE0FFF1F0590F491E02D0994CF93DF9374
:1019C0008230910510F482E090E0E0917904F0918A
:1019D0007A0420E030E0A0E0B0E0309739F14081B7
:1019E000518148175907B8F04817590771F4828197
:1019F0009381109729F013969C938E9312972CC085
:101A000090937A048093790427C02115310531F031
:101A10004217530718F0A901DB0101C0EF019A0139
:101A2000BD01DF010280F381E02DD7CF2115310503
:101A3000F9F0281B390B2430310580F48A819B8111
:101A40006115710521F0FB019383828304C090939B
:101A50007A0480937904FE01329644C0FE01E20FBD
:101A6000F31F8193919322503109398328833AC01F
:101A70002091770430917804232B41F420910201C6
:101A80003091030130937804209377042091000172
:101A9000309101012115310541F42DB73EB7409138
:101AA000040150910501241B350BE0917704F0915E
:101AB0007804E217F307A0F42E1B3F0B2817390711
:101AC00078F0AC014E5F5F4F2417350748F04E0F9A
:101AD0005F1F50937804409377048193919302C0E1
:101AE000E0E0F0E0CF01DF91CF910895CF93DF9355
:101AF000009709F487C0FC01329713821282C091CB
:101B00007904D0917A04209781F420813181280FC3
:101B1000391F80917704909178048217930779F5A3
:101B2000F0937804E09377046DC0DE0120E030E0AC
:101B3000AE17BF0750F412964D915C9113979D011B
:101B40004115510509F1DA01F3CFB383A283408136
:101B50005181840F951F8A179B0771F48D919C9179
:101B60001197840F951F02969183808312968D9111
:101B70009C911397938382832115310529F4F09367
:101B80007A04E09379043EC0D9011396FC93EE9356
:101B900012974D915D91A40FB51FEA17FB0779F4D9
:101BA00080819181840F951F0296D90111969C9393
:101BB0008E938281938113969C938E931297E0E08B
:101BC000F0E08A819B81009719F0FE01EC01F9CFCA
:101BD000CE01029628813981820F931F20917704CC
:101BE000309178042817390769F4309729F4109256
:101BF0007A041092790402C013821282D09378047E
:101C0000C0937704DF91CF910895A0E0B0E0EBE0BE
:101C1000FEE00C94780FEC01CB01209719F40E94A0
:101C2000DE0CB8C0FE01E60FF71F9E0122503109FD
:101C3000E217F30708F4ACC0D9010D911C9111977C
:101C400006171707B8F00530110508F49FC0A80162
:101C5000445051094617570708F498C0025011091B
:101C6000061B170B019311936D937C93CF010E9478
:101C7000760D8CC05B01A01AB10A4E01800E911E38
:101C8000A0917904B0917A04612C712C60E070E02D
:101C9000109709F449C0A815B905C9F5ED90FC9055
:101CA0001197670142E0C40ED11CCA14DB0478F11D
:101CB00047018A189B08640142E0C40ED11C1296A9
:101CC000BC9012971396AC91B5E0CB16D10440F0BE
:101CD000B282A38391828082D9018D939C9309C0A3
:101CE0000E5F1F4F0E0D1F1DF90111830083EB2D99
:101CF000FA2F6115710531F0DB011396FC93EE9319
:101D0000129744C0F0937A04E09379043FC06D9138
:101D10007C9111976616770608F43B01BD01129677
:101D20000D90BC91A02DB4CF609177047091780490
:101D300068157905E9F468167906D0F44091000138
:101D4000509101014115510541F44DB75EB76091C5
:101D5000040170910501461B570BE417F507C0F409
:101D6000F0937804E0937704F901918380830EC0A7
:101D70000E94DE0C7C01009759F0A801BE010E9470
:101D8000D40ECE010E94760DC70104C0CE0102C060
:101D900080E090E0CDB7DEB7EEE00C94940F4AEF10
:101DA00052E00E94180F0895FB01DC0102C001906F
:101DB0000D9241505040D8F70895FC01819186174B
:101DC00021F08823D9F7992708953197CF010895F5
:101DD000FB01DC0101900D920020E1F70895FB0169
:101DE000DC014150504048F001900D920020C9F7AD
:101DF00001C01D9241505040E0F70895FB01519100
:101E00005523A9F0BF01DC014D9145174111E1F7C0
:101E100059F4CD010190002049F04D914015411138
:101E2000C9F3FB014111EFCF81E090E001970895E4
:101E3000FA01A191B081009719F41097E1F0CD015A
:101E4000DC01CD010D90002011F4C00113C0FB0195
:101E50002191222319F02015D9F7F3CFFB0121910D
:101E6000201519F41E92119606C02223C1F70D9079
:101E70000020A1F7D001FA01A193B0830895453263
:101E8000510520F4423010F00C944A0FFB011082EF
:101E9000CB010895BB27FB015527AA27880F991F5F
:101EA000AA1FA41710F0A41B83955051B9F7A05D89
:101EB000AA3308F0A95DA193009779F7B111B19306
:101EC0001192CB010C94640FDC01FC01672F71911E
:101ED0007723E1F7329704C07C916D937083629110
:101EE000AE17BF07C8F308952F923F924F925F92AB
:101EF0006F927F928F929F92AF92BF92CF92DF921A
:101F0000EF92FF920F931F93CF93DF93CDB7DEB77E
:101F1000CA1BDB0B0FB6F894DEBF0FBECDBF099412
:101F20002A88398848885F846E847D848C849B8469
:101F3000AA84B984C884DF80EE80FD800C811B8177
:101F4000AA81B981CE0FD11D0FB6F894DEBF0FBEA6
:101F5000CDBFED01089510E0C6ECD0E004C0FE0155
:101F60000E94DA0C2296C83CD107C9F7F894FFCF3B
:101F700000007B0480001E0088132C0041542B4875
:101F8000545450504152413D2255524C222C220073
:101F90003F707269766174655F6B65793D002600FC
:101FA000696E7465726E657400687474703A2F2F70
:101FB000646174612E737061726B66756E2E636FEF
:101FC0006D2F696E7075742F004E4A36355241720E
:101FD0004762525564334138444E7861620035643B
:101FE0005265447259396D44684A593070425061A3
:101FF000376700427065354C324E5A394C55616B2B
:102000004C526541344F570064617465006C6174D3
:102010006974756465006C6F6E67697475646500DA
:10202000616C7469747564650073706565640063E0
:102030006F757273650041542B48545450494E4992
:10204000540041542B48545450504152413D224376
:102050004944222C310053656E642055524C3A207D
:10206000004D616B6520474554205265717565735D
:10207000743A200041542B48545450414354494F22
:102080004E3D300041542B43474E535552433D0083
:1020900041542B4950523D393630300041542B4386
:1020A000474E535057523D310041542B43474E53F6
:1020B0005345513D524D4300415445300041542B4E
:1020C000434D47463D310041542B43474154543D15
:1020D000310041542B53415042523D332C312C227C
:1020E000434F4E54595045222C2247505253220000
:1020F00041542B53415042523D332C312C224150FC
:102100004E222C220041542B53415042523D312C3F
:10211000310050726F75646C79204D61646520697F
:102120006E20496E646F6E657369610055474E534A
:10213000494E463A20312C310000000000D304A45F
:102140000A3F05B20425055705000000002809A430
:102150000AAA08C308B50806090D0A006E616E00D8
:0A216000696E66006F7666002E00BF
:00000001FF
