:100000000C9464000C948C000C948C000C94CA0525
:100010000C94CA050C94CA050C948C000C948C00AA
:100020000C948C000C948C000C948C000C948C0020
:100030000C948C000C948C000C948C000C948C0010
:100040000C945B070C948C000C94140A0C94460AD4
:100050000C948C000C948C000C948C000C948C00F0
:100060000C948C000C948C0000000008000201002D
:100070000003040700000000000000000102040863
:100080001020408001020408102001020408102002
:10009000040404040404040402020202020203032E
:1000A00003030303000000002300260029000000D2
:1000B0000000250028002B0000000000240027007D
:1000C0002A001E02760A830211241FBECFEFD8E059
:1000D000DEBFCDBF12E0A0E0B1E0ECE3FFE102C083
:1000E00005900D92AA3FB107D9F724E0AAEFB2E03C
:1000F00001C01D92AB37B207E1F710E0C6ECD0E0CB
:1001000004C02297FE010E94EC0CC23CD107C9F743
:100110000E94BA0A0C94910F0C940000CF92DF92C7
:10012000EF92FF920F931F93CF93DF93CDB7DEB77C
:10013000C65AD1090FB6F894DEBF0FBECDBF8E01EF
:100140000F5F1F4F24E6F80111922A95E9F720E08E
:1001500030E044E650E0B8010E94360C66E071E001
:10016000C8010E94E10E7E01F5E6EF0EF11C670169
:100170008CE3C80ED11C870166E071E080E090E05E
:100180000E94E10EF701819391937F01EC15FD052B
:1001900099F7F801E280F38061E370E0C7010E9403
:1001A000EF0E892B09F478C0B701CE018F559F4F10
:1001B0000E94A20BBE016F557F4F82E093E00E9428
:1001C000B80BCE018F559F4F0E94340BF80164810C
:1001D0007581CE018F559F4F0E94A20BBE016F55B6
:1001E0007F4F88E093E00E94B80BCE018F559F4F60
:1001F0000E94340BF80166817781CE018F559F4FA5
:100200000E94A20BBE016F557F4F8EE093E00E94CB
:10021000B80BCE018F559F4F0E94340BF8016085BB
:100220007185CE018F559F4F0E94A20BBE016F5565
:100230007F4F84E193E00E94B80BCE018F559F4F12
:100240000E94340BF80162857385CE018F559F4F54
:100250000E94A20BBE016F557F4F8AE193E00E947E
:10026000B80BCE018F559F4F0E94340BF801648567
:100270007585CE018F559F4F0E94A20BBE016F5511
:100280007F4F80E293E00E94B80BCE018F559F4FC5
:100290000E94340B81E001C080E0CA55DF4F0FB6E9
:1002A000F894DEBF0FBECDBFDF91CF911F910F91AC
:1002B000FF90EF90DF90CF900895EF92FF920F9311
:1002C0001F93CF93DF9300D000D000D0CDB7DEB71F
:1002D0006BEE72E0CE0101960E94A20B0E94A50770
:1002E00068E071E08EE693E00E94150B68E071E033
:1002F0008AED93E00E94150B62E673E08EE693E0D0
:100300000E94070B62E673E08AED93E00E94070B00
:1003100066E573E08EE693E00E94070B66E573E006
:100320008AED93E00E94070B6CE171E08EE693E0AA
:100330000E94150B6CE171E08AED93E00E94150BB1
:1003400060E573E08EE693E00E94070B60E573E0E2
:100350008AED93E00E94070B00E010E06AE271E092
:100360008EE693E00E94150B6AE271E08AED93E05D
:100370000E94150BC8018A5D9C4F7C01BC018EE672
:1003800093E00E94070BB7018AED93E00E94070BF0
:1003900068E271E08EE693E00E94150B68E271E07E
:1003A0008AED93E00E94150BC8018E5F9C4F7C0183
:1003B000BC018EE693E00E94070BB7018AED93E043
:1003C0000E94070B0A5F1F4F0432110539F66AE1DC
:1003D00071E08EE693E00E94150B6AE171E08AED10
:1003E00093E00E94150B8EE693E00E941E0B8AEDAF
:1003F00093E00E941E0BCE0101960E94340B81E017
:1004000026960FB6F894DEBF0FBECDBFDF91CF9119
:100410001F910F91FF90EF90089526E040E855E27C
:1004200060E070E08AED93E00E94B20940E855E296
:1004300060E070E08EE693E00C94CD06CF93DF93FE
:1004400020E042E063E08EE693E00E949D066CE2CD
:1004500071E088E693E00E94A20B65E371E082E61A
:1004600093E00E94A20B6BEE72E08CE593E00E9499
:10047000A20B65E571E086E593E00E94A20B6AE6B7
:1004800071E080E593E00E94A20B6FE771E08AE4DF
:1004900093E00E94A20B64E971E086E293E00E947F
:1004A000A20B69E971E08CE293E00E94A20B62EA80
:1004B00071E082E393E00E94A20B6CEA71E088E3B2
:1004C00093E00E94A20B65EB71E08EE393E00E9443
:1004D000A20B6BEB71E084E493E00E94A20BC2E0FC
:1004E000D3E06BEE72E0CE010E94A20B269683E071
:1004F000C632D807B1F76BEE72E08CEF92E0DF9175
:10050000CF910C94A20BCF93DF938CEF92E00E94DB
:10051000340BC6E2D3E02697CE010E94340B83E071
:10052000C230D807C1F7CAE4D3E02697CE010E94B3
:10053000340B83E0C632D807C1F78AE493E00E9407
:10054000340B80E593E00E94340B86E593E00E9433
:10055000340B8CE593E00E94340B82E693E00E941A
:10056000340B88E693E00E94340B8EE693E0DF9133
:10057000CF910C9444060F931F93CF93DF9300D039
:1005800000D000D0CDB7DEB76BEE72E0CE010196A1
:100590000E94A20B0AE010E08EE693E00E94640540
:1005A000892B81F08EE693E00E94D704682F8AEDB4
:1005B00093E00E94170B6AE070E080E090E00E94F8
:1005C000D407EACF0150110939F7CE0101960E94F4
:1005D000340B26960FB6F894DEBF0FBECDBFDF9169
:1005E000CF911F910F9108950F931F93CF93DF9396
:1005F00000D000D000D0CDB7DEB76BEE72E0CE01F8
:1006000001960E94A20B0AE010E08EE693E00E94A1
:100610006405892B59F08EE693E00E94D7046AE0C6
:1006200070E080E090E00E94D407EFCF0150110904
:1006300061F7CE0101960E94340B26960FB6F8940E
:10064000DEBF0FBECDBFDF91CF911F910F910895F7
:10065000CF93DF9362EC71E08EE693E00E94220B71
:10066000892BB1F06EEC71E08CE593E00E94170CE1
:1006700081110EC061ED71E08EE693E00E94220BC5
:10068000892B31F062EC71E08EE693E00E94220B40
:1006900068EE73E080E090E00E94D4076DED71E0B9
:1006A0008EE693E00E94220B64E670E080E090E02A
:1006B0000E94D40761EF71E08AED93E00E94150B70
:1006C0000E945D0160ED77E080E090E00E94D40739
:1006D0000E94F4026CEF71E08AED93E00E94150B2A
:1006E0006FE072E08EE693E00E94220BCBE0D0E058
:1006F00064EF71E080E090E00E94D4070E94BB02AA
:100700002197B1F7DF91CF9108950F931F93CF9366
:10071000DF9300D000D000D0CDB7DEB78EE693E0F7
:100720000E946405892B09F446C08EE693E00E947E
:10073000D7048A3011F08D30C9F56FE172E0CE0137
:1007400001960E94A20BBE016F5F7F4F8CEF92E07B
:100750000E947C0C8C01CE0101960E94340B01306A
:10076000110591F46CEF72E0CE0101960E94CF0B5F
:10077000CE0101960E948E00182FCE0101960E9494
:10078000340B11110E9428036BEE72E0CE0101962A
:100790000E94A20BBE016F5F7F4F8CEF92E00E9420
:1007A000B80BCE0101960E94340B05C0682F8CEF68
:1007B00092E00E94040C26960FB6F894DEBF0FBE9E
:1007C000CDBFDF91CF911F910F9108957F928F92AE
:1007D0009F92AF92BF92CF92DF92EF92FF920F93D0
:1007E0001F93CF93DF93CDB7DEB7C456D1090FB6B1
:1007F000F894DEBF0FBECDBF6B018E010F5F1F4FA0
:1008000024E6F80111922A95E9F7FC0120812223C0
:1008100059F0BC018EE693E00E94220B64E670E082
:1008200080E090E00E94D4070E94A5074B015C0184
:10083000712CE12CF12C8EE693E00E946405892B4B
:1008400049F08EE693E00E94D704F801E70DF11D10
:10085000808373940E94A507681979098A099B0906
:100860006C157D058E059F0530F380E0CC59DF4F78
:100870000FB6F894DEBF0FBECDBFDF91CF911F91B1
:100880000F91FF90EF90DF90CF90BF90AF909F902F
:100890008F907F90089564E670E08CE292E00E9471
:1008A000E60364E670E088E392E00E94E60364E613
:1008B00070E085E492E00E94E60364E670E084E57F
:1008C00092E00C94E603CF93DF9300D000D000D0E9
:1008D000CDB7DEB764E670E082E692E00E94E60300
:1008E00064E670E080E090E00E94D40764E670E087
:1008F00087E692E00E94E60364E670E080E090E024
:100900000E94D40764E670E081E792E00E94E6036B
:1009100064E670E080E090E00E94D40764E670E056
:100920008CE792E00E94E60364E670E080E090E0ED
:100930000E94D4076BEE72E0CE0101960E94A20BDA
:100940000E94A5076AE972E08EE693E00E94150B0B
:1009500068E673E08EE693E00E94070B6AE171E0BF
:100960008EE693E00E94150B8EE693E00E941E0B2C
:1009700060ED77E08FEA92E00E94E603CE010196F7
:100980000E94340B26960FB6F894DEBF0FBECDBF83
:10099000DF91CF9108950E940D020E944B040E94A6
:1009A00063046CEB72E08AED93E00C94220B2091CF
:1009B000CF033091D00328173907B9F490918D03F4
:1009C00080918E03981789F0E0918D03F0E0E15754
:1009D000FC4F808120918D0330E02F5F3F4F2F73BC
:1009E000332720938D0390E008958FEF9FEF0895B4
:1009F0001F93CF93DF93DC015C968D919C915D9763
:100A0000009749F481E090E013969C938E9312979F
:100A100080E090E03BC05196ED91FC91529750964A
:100A20002C915097322F30951FB75E964C915E9760
:100A300041FB772770F941FD6095F8944081772359
:100A400011F0422B01C043234083EC012197F1F7C1
:100A500048E0508160FF02C0522B01C053235083F5
:100A6000EC012197F1F76695415099F78081772342
:100A700011F0832301C0822B80831FBF5C968D9170
:100A80009C915D970197F1F781E090E0DF91CF9124
:100A90001F9108952091CF033091D0032817390773
:100AA00081F490918D0380918E03981751F0E0911D
:100AB0008D03F0E0E157FC4F8081992787FD9095E9
:100AC00008958FEF9FEF08952091CF033091D003C9
:100AD0002817390771F480918E0320918D0390E0DF
:100AE000805C9F4F821B910960E470E00E94810C42
:100AF000089580E090E008952091CF033091D003D5
:100B00002817390739F48FB7F89410928E03109292
:100B10008D038FBF0895E091CF03F091D003E817C4
:100B2000F90769F4A389B4899C9185898095892303
:100B30008C931092D0031092CF0381E0089580E04F
:100B40000895CF93DF93EC018A8D9B8D892BF1F073
:100B50008091CF039091D0038C179D07B9F0009737
:100B600011F00E948B058E8D8E7F8E8F10928E03DA
:100B700010928D03D093D003C093CF03EB89FC89EF
:100B800080819D89892B808381E001C080E0DF9195
:100B9000CF9108951F920F920FB60F9211242F93A9
:100BA0003F934F935F936F937F938F939F93AF93F5
:100BB000BF93EF93FF93E091CF03F091D003309771
:100BC00009F451C0868DA685B785958581FF04C03F
:100BD0008C91892329F447C08C91892309F043C063
:100BE000A389B4899C918589809589238C93868972
:100BF00097890197F1F7208D318DA685B785758589
:100C000058E040E0C9010197F1F7842F90E09595F5
:100C10008795482F6C91672309F04068515091F7F0
:100C2000868D81FD409580918E0390E001968F73B3
:100C3000992720918D03281749F0A0918E03B0E0E9
:100C4000A157BC4F4C9380938E0303C0868D816067
:100C5000868F828D938D0197F1F7A389B4898C914A
:100C60009589892B8C93FF91EF91BF91AF919F91C3
:100C70008F917F916F915F914F913F912F910F9045
:100C80000FBE0F901F9018952DEC32E0FC013183C0
:100C900020830C948B051F93CF93DF93EC01162FC9
:100CA0006E8D6695617081E06827812F0E9499089A
:100CB00061E0812F0E946008812F90E0FC01E458E0
:100CC000FF4FE491E88BFC01E057FF4FE491F0E027
:100CD000EE0FFF1FE255FF4F859194919A8B898B00
:100CE000DF91CF911F9108951F93CF93DF93EC0174
:100CF000162F60E0812F0E9460088E8D81FD04C058
:100D000061E0812F0E9499081C87812F90E0FC01EF
:100D1000E458FF4FE491ED87FC01E057FF4FE49169
:100D2000F0E0EE0FFF1FEC55FF4F859194919F87E8
:100D30008E87DF91CF911F910895FF920F931F939C
:100D4000CF93DF93EC01F62E522F1B821A8208EE0E
:100D500013E020E030E00C831D832E833F838DEC75
:100D600092E0998388831F8A1E8A198E188E1B8EA3
:100D70001A8E1D8E1C8E8E8D8E7F50FB81F98E8F6C
:100D8000642FCE010E944B066F2DCE01DF91CF91D3
:100D90001F910F91FF900C947406CF93DF93EC0199
:100DA0009A01AB011B8E1A8E198E188E1F8A1E8A0D
:100DB00060E079E08DE390E00E94B70CC901243037
:100DC000310520F0B9016350710902C061E070E0A3
:100DD0007D8F6C8FEC85E63108F068C0B90176959F
:100DE00067956431710518F06351710902C061E0C3
:100DF00070E07F8B6E8B069718F0C901059702C0D3
:100E000081E090E0998F888FC901880F991F820F28
:100E1000931F96958795969587958D30910510F03F
:100E20000C9702C081E090E09B8F8A8F2091680030
:100E3000E83050F091E0EE3008F490E081E001C03D
:100E4000880F9A95EAF701C084E0822B80936800AE
:100E50002C85283038F02E3040F0263148F48CE6CE
:100E600090E008C08DE690E005C08BE690E002C0FF
:100E700080E090E09C8B8B8B283030F481E001C0C7
:100E8000880F2A95EAF70DC0822F90E02E3010F4DB
:100E9000089701C00E9791E001C0990F8A95EAF773
:100EA000892F8D8B8C8D9D8D0197F1F7CE01DF9170
:100EB000CF910C94A1051F920F920FB60F9211249F
:100EC0002F933F938F939F93AF93BF938091D203C0
:100ED0009091D303A091D403B091D5033091D10365
:100EE00023E0230F2D3720F40196A11DB11D05C06D
:100EF00026E8230F0296A11DB11D2093D1038093F4
:100F0000D2039093D303A093D403B093D5038091DD
:100F1000D6039091D703A091D803B091D90301963D
:100F2000A11DB11D8093D6039093D703A093D8033E
:100F3000B093D903BF91AF919F918F913F912F9122
:100F40000F900FBE0F901F9018952FB7F8946091D7
:100F5000D2037091D3038091D4039091D5032FBF16
:100F600008953FB7F8948091D6039091D703A0914C
:100F7000D803B091D90326B5A89B05C02F3F19F01F
:100F80000196A11DB11D3FBF6627782F892F9A2F8B
:100F9000620F711D811D911D42E0660F771F881F32
:100FA000991F4A95D1F70895CF92DF92EF92FF9261
:100FB000CF93DF936B017C010E94B107EB01C11459
:100FC000D104E104F10489F00E94800C0E94B10771
:100FD0006C1B7D0B683E734090F381E0C81AD1080A
:100FE000E108F108C851DC4FEACFDF91CF91FF90C3
:100FF000EF90DF90CF900895789484B5826084BD9F
:1010000084B5816084BD85B5826085BD85B581600C
:1010100085BDEEE6F0E0808181608083E1E8F0E06C
:101020001082808182608083808181608083E0E89B
:10103000F0E0808181608083E1EBF0E0808184607A
:101040008083E0EBF0E0808181608083EAE7F0E07C
:1010500080818460808380818260808380818160E0
:1010600080838081806880831092C10008958330DE
:1010700081F028F4813099F08230A1F00895873012
:10108000A9F08830B9F08430D1F4809180008F7D50
:1010900003C0809180008F7780938000089584B58D
:1010A0008F7702C084B58F7D84BD08958091B00094
:1010B0008F7703C08091B0008F7D8093B00008953A
:1010C000CF93DF9390E0FC01E458FF4F2491FC01A3
:1010D000E057FF4F8491882349F190E0880F991FD2
:1010E000FC01E854FF4FA591B49182559F4FFC013C
:1010F000C591D4919FB7611108C0F8948C91209547
:1011000082238C93888182230AC0623051F4F89440
:101110008C91322F309583238C938881822B888306
:1011200004C0F8948C91822B8C939FBFDF91CF9158
:1011300008950F931F93CF93DF931F92CDB7DEB720
:10114000282F30E0F901E859FF4F8491F901E45864
:10115000FF4F1491F901E057FF4F04910023C9F0AC
:10116000882321F069830E9437086981E02FF0E02D
:10117000EE0FFF1FE255FF4FA591B4919FB7F89472
:101180008C91611103C01095812301C0812B8C9338
:101190009FBF0F90DF91CF911F910F910895FC0198
:1011A000818D228D90E0805C9F4F821B91098F730F
:1011B00099270895FC01918D828D981731F0828DC9
:1011C000E80FF11D858D90E008958FEF9FEF089552
:1011D000FC01918D828D981761F0828DDF01A80F3F
:1011E000B11D5D968C91928D9F5F9F73928F90E061
:1011F00008958FEF9FEF08958CE69AE0892B49F0D0
:1012000080E090E0892B29F00E946C0A81110C94F7
:1012100000000895FC01848DDF01A80FB11DA35AC1
:10122000BF4F2C91848D90E001968F739927848F06
:10123000A689B7892C93A089B1898C9180648C93FD
:10124000938D848D981306C00288F389E02D8081E8
:101250008F7D80830895CF93DF93EC01888D882361
:10126000C9F0EA89FB89808185FD05C0A889B98913
:101270008C9186FD0FC00FB607FCF5CF808185FFEE
:10128000F2CFA889B9898C9185FFEDCFCE010E945C
:101290000A09E7CFDF91CF910895CF92DF92FF92B5
:1012A0000F931F93CF93DF931F92CDB7DEB76C01DF
:1012B00081E0D60158968C9358975B969C915B97EA
:1012C0005C968C915C97981307C05096ED91FC91B9
:1012D0005197808185FD2EC0F601038D10E00F5FD0
:1012E0001F4F0F731127F02EF601848DF81211C0D5
:1012F0000FB607FCF9CFD6015096ED91FC915197AE
:10130000808185FFF1CFC60169830E940A09698146
:10131000EBCF838DE80FF11DE35AFF4F6083D601B9
:101320005B960C935B975296ED91FC91539780815D
:1013300080620CC0D6015696ED91FC915797608360
:101340005096ED91FC91519780818064808381E07B
:1013500090E00F90DF91CF911F910F91FF90DF9060
:10136000CF900895BF92CF92DF92EF92FF92CF93EA
:10137000DF93EC016A017B01B22EE889F98982E0F2
:101380008083411581EE580761057105A1F060E089
:1013900079E08DE390E0A70196010E94950C215021
:1013A00031094109510956954795379527952115DA
:1013B00080E1380798F0E889F989108260E874E8DC
:1013C0008EE190E0A70196010E94950C2150310911
:1013D000410951095695479537952795EC85FD8527
:1013E0003083EE85FF852083188EEC89FD89B082DD
:1013F000EA89FB89808180618083EA89FB89808119
:1014000088608083EA89FB89808180688083EA899B
:10141000FB8980818F7D8083DF91CF91FF90EF905A
:10142000DF90CF90BF9008951F920F920FB60F924A
:1014300011242F938F939F93EF93FF93E091EA03EF
:10144000F091EB038081E091F003F091F10382FDD4
:1014500012C090818091F3038F5F8F732091F4030A
:10146000821751F0E091F303F0E0E652FC4F958FC4
:101470008093F30301C08081FF91EF919F918F9141
:101480002F910F900FBE0F901F9018951F920F92E3
:101490000FB60F9211242F933F934F935F936F9347
:1014A0007F938F939F93AF93BF93EF93FF938AEDB7
:1014B00093E00E940A09FF91EF91BF91AF919F9134
:1014C0008F917F916F915F914F913F912F910F90ED
:1014D0000FBE0F901F9018958AED93E00E94CF08E1
:1014E00021E0892B09F420E0822F08951092DD037A
:1014F0001092DC0388EE93E0A0E0B0E08093DE037E
:101500009093DF03A093E003B093E1038DED92E0AD
:101510009093DB038093DA0385EC90E09093E703EC
:101520008093E60384EC90E09093E9038093E803D2
:1015300080EC90E09093EB038093EA0381EC90E0E1
:101540009093ED038093EC0382EC90E09093EF0393
:101550008093EE0386EC90E09093F1038093F00388
:101560001092F3031092F4031092F5031092F60315
:10157000089508950E94FC070E94B90A0E94CB04B6
:10158000CCEFD8E00E9485032097E1F30E94FC088D
:10159000F9CFCF92DF92EF92FF920F931F93CF93E9
:1015A000DF936C017A01EB01E60EF71E00E010E01C
:1015B000CE15DF0561F06991D601ED91FC910190A6
:1015C000F081E02DC6010995080F191FF1CFC80160
:1015D000DF91CF911F910F91FF90EF90DF90CF900F
:1015E00008956115710581F0DB010D900020E9F788
:1015F000AD0141505109461B570BDC01ED91FC91A7
:101600000280F381E02D099480E090E00895DC01F0
:10161000ED91FC91DB0114964D915C9115976D91C4
:101620007C910280F381E02D09940C94F10ADC0195
:10163000ED91FC910190F081E02D099469EE72E04A
:101640000C94F10A0F931F93CF93DF93EC010E9448
:10165000F10A8C01CE010E941E0B800F911FDF91B9
:10166000CF911F910F910895FC01808191810C947D
:10167000880DCF93DF93EC0188819981009711F059
:101680000E94880D198218821D821C821B821A8278
:10169000DF91CF9108950F931F93CF93DF93EC01C8
:1016A0008B016F5F7F4F888199810E94170E009791
:1016B00031F0998388831B830A8381E001C080E035
:1016C000DF91CF911F910F910895CF93DF93EC019C
:1016D00088819981892B29F08A819B8186179707B8
:1016E00060F4CE010E944B0B882341F08C819D81D8
:1016F000892B19F4E881F981108281E0DF91CF9183
:101700000895EF92FF920F931F93CF93DF93EC0115
:101710007B018A01BA010E94650B811104C0CE01D0
:101720000E94390B07C01D830C83B7018881998102
:101730000E94030FCE01DF91CF911F910F91FF9077
:10174000EF900895FC01118210821382128215829B
:1017500014826115710559F0FB0101900020E9F731
:10176000AF0141505109461B570B0C94810B089552
:10177000CF93DF93EC01FB018617970761F060813F
:1017800071816115710529F0448155810E94810B99
:1017900002C00E94390BCE01DF91CF910895FC0168
:1017A0001182108213821282158214820C94B80B5B
:1017B000EF92FF920F931F93CF93DF93EC017B0186
:1017C0000C811D816115710511F480E016C0411571
:1017D000510591F0040F151FB8010E94650B882375
:1017E000A1F3288139818C819D81B701820F931FDC
:1017F0000E94030F1D830C8381E0DF91CF911F9125
:101800000F91FF90EF900895CF93DF9300D0CDB765
:10181000DEB769831A8241E050E0BE016F5F7F4FFF
:101820000E94D80B0F900F90DF91CF910895FC018B
:1018300024813581232B31F421E061157105A1F05C
:10184000FB0108C0FC01808191816115710531F4B3
:1018500021E0FC018081882339F005C00E94FA0E46
:1018600021E0892B09F020E0822F08950F931F9328
:10187000CF93DF93EB0141155105E9F02097D9F0A3
:10188000FC016481758126173707A0F4621B730B76
:101890008A01015011096017710708F48B01FC01DE
:1018A00060817181620F731FA801CE010E940A0F2F
:1018B000C00FD11F1882DF91CF911F910F91089512
:1018C000CF93DF93FC01848195814817590778F401
:1018D000C081D181FB0160817181CE01840F951F90
:1018E0000E94190F009719F08C1B9D0B02C08FEFFF
:1018F0009FEFDF91CF91089540E050E00C94600C91
:10190000089597FB072E16F4009407D077FD09D0B1
:101910000E94D60C07FC05D03EF4909581959F4F10
:101920000895709561957F4F0895A1E21A2EAA1B24
:10193000BB1BFD010DC0AA1FBB1FEE1FFF1FA2177F
:10194000B307E407F50720F0A21BB30BE40BF50B7C
:10195000661F771F881F991F1A9469F76095709505
:10196000809590959B01AC01BD01CF010895052E96
:1019700097FB1EF400940E94CE0C57FD07D00E94E6
:10198000950C07FC03D04EF40C94CE0C509540956A
:10199000309521953F4F4F4F5F4F0895909580951B
:1019A000709561957F4F8F4F9F4F0895AA1BBB1B6A
:1019B00051E107C0AA1FBB1FA617B70710F0A61B4F
:1019C000B70B881F991F5A95A9F780959095BC0170
:1019D000CD010895EE0FFF1F0590F491E02D0994BD
:1019E000CF93DF938230910510F482E090E0E09194
:1019F0007904F0917A0420E030E0A0E0B0E0309784
:101A000039F14081518148175907B8F048175907F3
:101A100071F482819381109729F013969C938E9391
:101A200012972CC090937A048093790427C02115D3
:101A3000310531F04217530718F0A901DB0101C04D
:101A4000EF019A01BD01DF010280F381E02DD7CFC4
:101A500021153105F9F0281B390B2430310580F4AC
:101A60008A819B816115710521F0FB01938382833B
:101A700004C090937A0480937904FE01329644C0A6
:101A8000FE01E20FF31F81939193225031093983B4
:101A900028833AC02091770430917804232B41F4B5
:101AA0002091020130910301309378042093770450
:101AB00020910001309101012115310541F42DB72C
:101AC0003EB74091040150910501241B350BE09174
:101AD0007704F0917804E217F307A0F42E1B3F0B74
:101AE0002817390778F0AC014E5F5F4F2417350790
:101AF00048F04E0F5F1F5093780440937704819312
:101B0000919302C0E0E0F0E0CF01DF91CF91089522
:101B1000CF93DF93009709F487C0FC0132971382BB
:101B20001282C0917904D0917A04209781F42081A7
:101B30003181280F391F80917704909178048217A2
:101B4000930779F5F0937804E09377046DC0DE0194
:101B500020E030E0AE17BF0750F412964D915C9133
:101B600013979D014115510509F1DA01F3CFB383B4
:101B7000A28340815181840F951F8A179B0771F4BE
:101B80008D919C911197840F951F0296918380836C
:101B900012968D919C911397938382832115310521
:101BA00029F4F0937A04E09379043EC0D9011396A6
:101BB000FC93EE9312974D915D91A40FB51FEA1718
:101BC000FB0779F480819181840F951F0296D901DA
:101BD00011969C938E938281938113969C938E93FE
:101BE0001297E0E0F0E08A819B81009719F0FE01F6
:101BF000EC01F9CFCE01029628813981820F931F23
:101C000020917704309178042817390769F43097C8
:101C100029F410927A041092790402C0138212827D
:101C2000D0937804C0937704DF91CF910895A0E01A
:101C3000B0E0EDE1FEE00C945E0FEC01CB012097EB
:101C400019F40E94F00CB8C0FE01E60FF71F9E01C8
:101C500022503109E217F30708F4ACC0D9010D9105
:101C60001C91119706171707B8F00530110508F4F5
:101C70009FC0A801445051094617570708F498C05F
:101C800002501109061B170B019311936D937C935E
:101C9000CF010E94880D8CC05B01A01AB10A4E01D1
:101CA000800E911EA0917904B0917A04612C712C60
:101CB00060E070E0109709F449C0A815B905C9F5AE
:101CC000ED90FC901197670142E0C40ED11CCA143C
:101CD000DB0478F147018A189B08640142E0C40ED6
:101CE000D11C1296BC9012971396AC91B5E0CB160E
:101CF000D10440F0B282A38391828082D9018D9376
:101D00009C9309C00E5F1F4F0E0D1F1DF90111831B
:101D10000083EB2DFA2F6115710531F0DB0113966D
:101D2000FC93EE93129744C0F0937A04E093790405
:101D30003FC06D917C9111976616770608F43B01C0
:101D4000BD0112960D90BC91A02DB4CF6091770487
:101D50007091780468157905E9F468167906D0F46D
:101D600040910001509101014115510541F44DB7D9
:101D70005EB76091040170910501461B570BE41793
:101D8000F507C0F4F0937804E0937704F9019183A8
:101D900080830EC00E94F00C7C01009759F0A801CE
:101DA000BE010E94E60ECE010E94880DC70104C04C
:101DB000CE0102C080E090E0CDB7DEB7EEE00C943B
:101DC0007A0F4AEF52E00E94330F0895FB01DC01C5
:101DD00002C001900D9241505040D8F70895FC0187
:101DE0008191861721F08823D9F799270895319793
:101DF000CF010895FB01DC018D9101908019011044
:101E0000D9F3990B0895FB01DC0101900D9200209C
:101E1000E1F70895FB01DC014150504048F001908A
:101E20000D920020C9F701C01D9241505040E0F7CB
:101E30000895FB0151915523A9F0BF01DC014D919B
:101E400045174111E1F759F4CD010190002049F007
:101E50004D9140154111C9F3FB014111EFCF81E0D4
:101E600090E001970895FA01A191B081009719F4CB
:101E70001097E1F0CD01DC01CD010D90002011F4AF
:101E8000C00113C0FB012191222319F02015D9F7BD
:101E9000F3CFFB012191201519F41E92119606C073
:101EA0002223C1F70D900020A1F7D001FA01A193E0
:101EB000B08308952F923F924F925F926F927F92DC
:101EC0008F929F92AF92BF92CF92DF92EF92FF924A
:101ED0000F931F93CF93DF93CDB7DEB7CA1BDB0BF6
:101EE0000FB6F894DEBF0FBECDBF09942A8839889B
:101EF00048885F846E847D848C849B84AA84B984A2
:101F0000C884DF80EE80FD800C811B81AA81B981AD
:101F1000CE0FD11D0FB6F894DEBF0FBECDBFED01C1
:101F2000089510E0C6ECD0E004C0FE010E94EC0C65
:0C1F30002296C83CD107C9F7F894FFCFF7
:101F3C0000007B0480002C0041542B48545450501A
:101F4C004152413D2255524C222C22003F70726965
:101F5C00766174655F6B65793D002600696E74650A
:101F6C00726E657400687474703A2F2F64617461BA
:101F7C002E737061726B66756E2E636F6D2F696E4A
:101F8C007075742F004E4A36355241724762525565
:101F9C0064334138444E7861620035645265447252
:101FAC0059396D44684A5930704250613767004264
:101FBC007065354C324E5A394C55616B4C526541FB
:101FCC00344F570064617465006C61746974756496
:101FDC0065006C6F6E67697475646500616C74691B
:101FEC007475646500737065656400636F757273F6
:101FFC00650041542B48545450494E4954004F4BA2
:10200C000041542B485454505445524D0041542BCC
:10201C0048545450504152413D22434944222C31A2
:10202C000053656E642055524C3A20004D616B652F
:10203C002047455420526571756573743A200041F0
:10204C00542B48545450414354494F4E3D30005545
:10205C00474E53494E463A20312C310041542B49BE
:10206C0050523D393630300041542B43474E53507B
:10207C0057523D310041542B43474E535345513D2C
:10208C00524D430041542B43474E535552433D311F
:10209C003000415445300041542B434D47463D31AF
:1020AC000041542B43474154543D310041542B5370
:1020BC00415042523D332C312C22434F4E545950F7
:1020CC0045222C2247505253220041542B5341504D
:1020DC0042523D332C312C2241504E222C220041B5
:1020EC00542B53415042523D312C31005365747581
:1020FC00702046696E6973680000000000F804C91E
:10210C000A6405D7044A057C05000000004D09C986
:10211C000ACF08E808DA082B090D0A006E616E0078
:0A212C00696E66006F7666002E00F3
:00000001FF
