:100000000C9464000C948C000C948C000C94B2063C
:100010000C94B2060C94B2060C948C000C948C00D8
:100020000C948C000C948C000C948C000C948C0020
:100030000C948C000C948C000C948C000C948C0010
:100040000C9443080C948C000C94FC0A0C942E0B1A
:100050000C948C000C948C000C948C000C948C00F0
:100060000C948C000C948C0000000008000201002D
:100070000003040700000000000000000102040863
:100080001020408001020408102001020408102002
:10009000040404040404040402020202020203032E
:1000A00003030303000000002300260029000000D2
:1000B0000000250028002B0000000000240027007D
:1000C0002A0033025E0B980211241FBECFEFD8E046
:1000D000DEBFCDBF13E0A0E0B1E0E4E1F3E202C097
:1000E00005900D92A032B107D9F724E0A0E2B3E069
:1000F00001C01D92A43AB207E1F710E0C6ECD0E0CF
:1001000004C02297FE010E945C0EC23CD107C9F7D1
:100110000E94A20B0C947D110C940000CF92DF92F0
:10012000EF92FF920F931F93CF93DF93CDB7DEB77C
:10013000C65AD1090FB6F894DEBF0FBECDBF8E01EF
:100140000F5F1F4F24E6F80111922A95E9F720E08E
:1001500030E044E650E0B8010E949B0D68E071E099
:10016000C8010E9478107E01F5E6EF0EF11C6701D0
:100170008CE3C80ED11C870168E071E080E090E05C
:100180000E947810F701819391937F01EC15FD0592
:1001900099F7F801E280F38061E370E0C7010E9403
:1001A0008610892B09F478C0B701CE018F559F4F77
:1001B0000E948A0CBE016F557F4F8BE293E00E9434
:1001C000A00CCE018F559F4F0E941C0CF80164813A
:1001D0007581CE018F559F4F0E948A0CBE016F55CD
:1001E0007F4F81E393E00E94A00CCE018F559F4F7B
:1001F0000E941C0CF80166817781CE018F559F4FBC
:100200000E948A0CBE016F557F4F87E393E00E94E6
:10021000A00CCE018F559F4F0E941C0CF8016085E9
:100220007185CE018F559F4F0E948A0CBE016F557C
:100230007F4F8DE393E00E94A00CCE018F559F4F1E
:100240000E941C0CF80162857385CE018F559F4F6B
:100250000E948A0CBE016F557F4F83E493E00E9499
:10026000A00CCE018F559F4F0E941C0CF801648595
:100270007585CE018F559F4F0E948A0CBE016F5528
:100280007F4F89E493E00E94A00CCE018F559F4FD1
:100290000E941C0C81E001C080E0CA55DF4F0FB600
:1002A000F894DEBF0FBECDBFDF91CF911F910F91AC
:1002B000FF90EF90DF90CF900895EF92FF920F9311
:1002C0001F93CF93DF9300D000D000D0CDB7DEB71F
:1002D00060E173E0CE0101960E948A0C0E948D08B5
:1002E0006AE071E087E993E00E94FD0B6AE071E04B
:1002F00083E094E00E94FD0B65E873E087E993E0FA
:100300000E94EF0B65E873E083E094E00E94EF0B3E
:100310006FE773E087E993E00E94EF0B6FE773E00C
:1003200083E094E00E94EF0B60E070E089E793E0E7
:100330000E947C0D882369F06EE171E087E993E00B
:100340000E94FD0B6EE171E083E094E00E94FD0BE2
:1003500018C060E271E087E993E00E94FD0B60E263
:1003600071E083E094E00E94FD0B69E773E087E9A8
:1003700093E00E94EF0B69E773E083E094E00E9452
:10038000EF0B00E010E06EE271E087E993E00E947D
:10039000FD0B6EE271E083E094E00E94FD0BC8016A
:1003A000815B9C4F7C01BC0187E993E00E94EF0BCD
:1003B000B70183E094E00E94EF0B6AE072E087E906
:1003C00093E00E94FD0B6AE072E083E094E00E94FB
:1003D000FD0BC801855D9C4F7C01BC0187E993E062
:1003E0000E94EF0BB70183E094E00E94EF0B0A5FDD
:1003F0001F4F0432110539F66CE171E087E993E093
:100400000E94FD0B6CE171E083E094E00E94FD0B23
:1004100087E993E00E94060C83E094E00E94060CBA
:10042000CE0101960E941C0C81E026960FB6F8942E
:10043000DEBF0FBECDBFDF91CF911F910F91FF9017
:10044000EF90089526E040E855E260E070E083E038
:1004500094E00E949A0A40E855E260E070E087E983
:1004600093E00C94B507CF93DF9320E042E063E084
:1004700087E993E00E94850760E371E081E993E0FA
:100480000E948A0C60E173E08BE893E00E948A0C82
:1004900069E371E085E893E00E948A0C69E571E008
:1004A0008FE793E00E948A0C6EE671E089E793E0A3
:1004B0000E948A0C63E871E083E793E00E948A0C53
:1004C00068E971E08FE493E00E948A0C6DE971E0C5
:1004D00085E593E00E948A0C66EA71E08BE593E083
:1004E0000E948A0C60EB71E081E693E00E948A0C26
:1004F00069EB71E087E693E00E948A0C6FEB71E094
:100500008DE693E00E948A0CCBE2D3E060E173E0D9
:10051000CE010E948A0C269683E0CF34D807B1F72B
:1005200060E173E085E293E0DF91CF910C948A0C57
:10053000CF93DF9385E293E00E941C0CCFE4D3E0DD
:100540002697CE010E941C0C83E0CB32D807C1F75E
:10055000C3E7D3E02697CE010E941C0C83E0CF3482
:10056000D807C1F783E793E00E941C0C89E793E06A
:100570000E941C0C8FE793E00E941C0C85E893E01E
:100580000E941C0C8BE893E00E941C0C81E993E014
:100590000E941C0C87E993E0DF91CF910C942C070B
:1005A0000F931F93CF93DF9300D000D000D0CDB72F
:1005B000DEB760E173E0CE0101960E948A0C0AE08A
:1005C00010E087E993E00E944C06892B81F087E9CF
:1005D00093E00E94BF05682F83E094E00E94FF0B28
:1005E0006AE070E080E090E00E94BC08EACF015031
:1005F000110939F7CE0101960E941C0C26960FB600
:10060000F894DEBF0FBECDBFDF91CF911F910F9148
:10061000089587E993E00E944C06892B59F087E9F9
:1006200093E00E94BF056AE070E080E090E00E94E5
:10063000BC08EFCF0895CF93DF9366EC71E083E0C1
:1006400094E00E94FD0B0E945D0160EF7AE080E083
:1006500090E00E94BC080E94090361ED71E083E014
:1006600094E00E94FD0B64EE71E087E993E00E9444
:100670000A0CC3E3D0E064E670E080E090E00E9402
:10068000BC080E94D0022197B1F7809124038823EF
:1006900091F064EF71E087E993E00E940A0CC8E0F2
:1006A000D0E064EF71E080E090E00E94BC080E941E
:1006B000D0022197B1F7DF91CF9108958F929F9249
:1006C000AF92BF92CF92DF92EF92FF920F931F9360
:1006D000CF93DF93EC018B016A0160E173E00E942C
:1006E0008A0CF8018081882359F0B80187E993E0EA
:1006F0000E940A0C64E670E080E090E00E94BC0872
:100700000E948D084B015C01E12CF12C87E993E0FC
:100710000E944C06892B41F087E993E00E94BF05B7
:10072000BC01CE010E944A0D0E948D08681979090A
:100730008A099B096C157D058E059F0538F3CE014E
:10074000DF91CF911F910F91FF90EF90DF90CF90AD
:10075000BF90AF909F908F9008950F931F93CF936A
:10076000DF93CDB7DEB7A5970FB6F894DEBF0FBE07
:10077000CDBF8C0160E072E0CE0180960E948A0CB1
:1007800044E650E06CE072E0CE0101960E945E0308
:10079000CE0101960E941C0C44E650E068E172E034
:1007A000CE0101960E945E03CE0101960E941C0CB0
:1007B00044E650E065E272E0CE0101960E945E03DD
:1007C000CE0101960E941C0C4AE0B801CE010196B0
:1007D0000E94D80CBE016F5F7F4FCE0180960E94B1
:1007E000300DCE0101960E941C0C20E030E049E162
:1007F00050E0BE016F5F7F4FCE0180960E949B0D3F
:1008000044E650E0BE016F5F7F4FCE014A960E94E2
:100810005E03CE014A960E941C0CCE0180960E9477
:100820001C0CA5960FB6F894DEBF0FBECDBFDF91AE
:10083000CF911F910F910895CF93DF9300D000D0F7
:1008400000D0CDB7DEB748EC50E064E372E0CE01F3
:1008500001960E945E03CE0101960E941C0C48EC9A
:1008600050E069E372E0CE0101960E945E03CE0182
:1008700001960E941C0C48EC50E063E472E0CE014B
:1008800001960E945E03CE0101960E941C0C48EC6A
:1008900050E06EE472E0CE0101960E945E03CE014C
:1008A00001960E941C0C60E173E0CE0101960E944B
:1008B0008A0C0E948D086CE672E087E993E00E9442
:1008C000FD0B61E973E087E993E00E94EF0B6CE1B7
:1008D00071E087E993E00E94FD0B87E993E00E94B5
:1008E000060CCE0101960E941C0C26960FB6F894B9
:1008F000DEBF0FBECDBFDF91CF910895CF93DF93C1
:1009000000D000D000D0CDB7DEB740EF5AE061E8AC
:1009100072E0CE0101960E945E03CE0101960E9414
:100920001C0C44E650E06EE872E0CE0101960E9495
:100930005E03CE0101960E941C0C44E650E06AE979
:1009400072E0CE0101960E945E03CE0101960E94E4
:100950001C0C26960FB6F894DEBF0FBECDBFDF91FC
:10096000CF910895CF93DF9300D000D000D0CDB7C2
:10097000DEB744E650E06EEA72E0CE0101960E94D6
:100980005E03CE0101960E941C0C48EE53E06AEB18
:1009900072E0CE0101960E945E03CE0101960E9494
:1009A0001C0C26960FB6F894DEBF0FBECDBFDF91AC
:1009B000CF9108950E942202609106017091070173
:1009C000882777FD8095982F0E94BC0889E190E0E8
:1009D0000E94AD030E941C0468EE73E080E090E08A
:1009E0000E94BC080E94B20467EC72E083E094E0CD
:1009F0000C940A0C0F931F93CF93DF9300D000D079
:100A000000D0CDB7DEB787E993E00E944C06892B72
:100A100009F4AAC087E993E00E94BF058A3019F063
:100A20008D3009F09CC061EE72E0CE0101960E940B
:100A30008A0CBE016F5F7F4F85E293E00E94E10D5B
:100A40008C01CE0101960E941C0C0130110509F0A9
:100A500074C065E273E0CE0101960E94B70CCE012E
:100A600001960E948E00182FCE0101960E941C0C48
:100A7000112309F462C083E493E00E94E50D9B0119
:100A800065307105C4F5809122039091230301968E
:100A9000909323038093220383309105A1F040F4C7
:100AA0008130910569F00297A9F483E290E010C0CB
:100AB0008430910559F0059769F482E390E008C00D
:100AC0008EE190E005C088E290E002C08DE290E007
:100AD0000E94AD038091220390912303069738F181
:100AE00087E390E00E94AD0386E090E090932303BB
:100AF000809322031CC0AB01455051094F30510572
:100B000018F489E190E00DC06451710964317105F8
:100B100018F48FE090E005C02832310544F085E0FC
:100B200090E00E94AD0310922303109222030E94D2
:100B30007E040E941B030E94B20460E173E0CE01B8
:100B400001960E948A0CBE016F5F7F4F85E293E0A1
:100B50000E94A00CCE0101960E941C0C05C0682FBB
:100B600085E293E00E94370D26960FB6F894DEBF1B
:100B70000FBECDBFDF91CF911F910F9108952091AE
:100B8000F8033091F90328173907B9F49091B603A7
:100B90008091B703981789F0E091B603F0E0E8542C
:100BA000FC4F80812091B60330E02F5F3F4F2F73C1
:100BB00033272093B60390E008958FEF9FEF0895B9
:100BC0001F93CF93DF93DC015C968D919C915D9791
:100BD000009749F481E090E013969C938E931297CE
:100BE00080E090E03BC05196ED91FC915297509679
:100BF0002C915097322F30951FB75E964C915E978F
:100C000041FB772770F941FD6095F8944081772387
:100C100011F0422B01C043234083EC012197F1F7EF
:100C200048E0508160FF02C0522B01C05323508323
:100C3000EC012197F1F76695415099F78081772370
:100C400011F0832301C0822B80831FBF5C968D919E
:100C50009C915D970197F1F781E090E0DF91CF9152
:100C60001F9108952091F8033091F903281739074F
:100C700081F49091B6038091B703981751F0E091F9
:100C8000B603F0E0E854FC4F8081992787FD9095EA
:100C900008958FEF9FEF08952091F8033091F903A5
:100CA0002817390771F48091B7032091B60390E0BB
:100CB000805C9F4F821B910960E470E00E94F10DFF
:100CC000089580E090E008952091F8033091F903B1
:100CD0002817390739F48FB7F8941092B703109298
:100CE000B6038FBF0895E091F803F091F903E81778
:100CF000F90769F4A389B4899C9185898095892332
:100D00008C931092F9031092F80381E0089580E02B
:100D10000895CF93DF93EC018A8D9B8D892BF1F0A1
:100D20008091F8039091F9038C179D07B9F0009713
:100D300011F00E9473068E8D8E7F8E8F1092B703F6
:100D40001092B603D093F903C093F803EB89FC89A2
:100D500080819D89892B808381E001C080E0DF91C3
:100D6000CF9108951F920F920FB60F9211242F93D7
:100D70003F934F935F936F937F938F939F93AF9323
:100D8000BF93EF93FF93E091F803F091F90330974D
:100D900009F451C0868DA685B785958581FF04C06D
:100DA0008C91892329F447C08C91892309F043C091
:100DB000A389B4899C918589809589238C938689A0
:100DC00097890197F1F7208D318DA685B7857585B7
:100DD00058E040E0C9010197F1F7842F90E0959524
:100DE0008795482F6C91672309F04068515091F71F
:100DF000868D81FD40958091B70390E001968F73B9
:100E000099272091B603281749F0A091B703B0E0C5
:100E1000A854BC4F4C938093B70303C0868D816068
:100E2000868F828D938D0197F1F7A389B4898C9178
:100E30009589892B8C93FF91EF91BF91AF919F91F1
:100E40008F917F916F915F914F913F912F910F9073
:100E50000FBE0F901F90189522EF32E0FC013183F6
:100E600020830C9473061F93CF93DF93EC01162F0E
:100E70006E8D6695617081E06827812F0E948109DF
:100E800061E0812F0E944809812F90E0FC01E45825
:100E9000FF4FE491E88BFC01E057FF4FE491F0E055
:100EA000EE0FFF1FE255FF4F859194919A8B898B2E
:100EB000DF91CF911F9108951F93CF93DF93EC01A2
:100EC000162F60E0812F0E9448098E8D81FD04C09D
:100ED00061E0812F0E9481091C87812F90E0FC0135
:100EE000E458FF4FE491ED87FC01E057FF4FE49198
:100EF000F0E0EE0FFF1FEC55FF4F859194919F8717
:100F00008E87DF91CF911F910895FF920F931F93CA
:100F1000CF93DF93EC01F62E522F1B821A8208EE3C
:100F200013E020E030E00C831D832E833F8382EFAB
:100F300092E0998388831F8A1E8A198E188E1B8ED1
:100F40001A8E1D8E1C8E8E8D8E7F50FB81F98E8F9A
:100F5000642FCE010E9433076F2DCE01DF91CF9118
:100F60001F910F91FF900C945C07CF93DF93EC01DE
:100F70009A01AB011B8E1A8E198E188E1F8A1E8A3B
:100F800060E079E08DE390E00E94270EC9012430F3
:100F9000310520F0B9016350710902C061E070E0D1
:100FA0007D8F6C8FEC85E63108F068C0B9017695CD
:100FB00067956431710518F06351710902C061E0F1
:100FC00070E07F8B6E8B069718F0C901059702C001
:100FD00081E090E0998F888FC901880F991F820F57
:100FE000931F96958795969587958D30910510F06E
:100FF0000C9702C081E090E09B8F8A8F209168005F
:10100000E83050F091E0EE3008F490E081E001C06B
:10101000880F9A95EAF701C084E0822B80936800DC
:101020002C85283038F02E3040F0263148F48CE6FC
:1010300090E008C08DE690E005C08BE690E002C02D
:1010400080E090E09C8B8B8B283030F481E001C0F5
:10105000880F2A95EAF70DC0822F90E02E3010F409
:10106000089701C00E9791E001C0990F8A95EAF7A1
:10107000892F8D8B8C8D9D8D0197F1F7CE01DF919E
:10108000CF910C9489061F920F920FB60F921124E4
:101090002F933F938F939F93AF93BF938091FB03C5
:1010A0009091FC03A091FD03B091FE033091FA03EF
:1010B00023E0230F2D3720F40196A11DB11D05C09B
:1010C00026E8230F0296A11DB11D2093FA038093F9
:1010D000FB039093FC03A093FD03B093FE03809168
:1010E000FF0390910004A0910104B09102040196C5
:1010F000A11DB11D8093FF0390930004A0930104F0
:10110000B0930204BF91AF919F918F913F912F9126
:101110000F900FBE0F901F9018952FB7F894609105
:10112000FB037091FC038091FD039091FE032FBFA0
:1011300008953FB7F8948091FF0390910004A09127
:101140000104B091020426B5A89B05C02F3F19F0F9
:101150000196A11DB11D3FBF6627782F892F9A2FB9
:10116000620F711D811D911D42E0660F771F881F60
:10117000991F4A95D1F70895CF92DF92EF92FF928F
:10118000CF93DF936B017C010E949908EB01C1149E
:10119000D104E104F10489F00E94F00D0E94990845
:1011A0006C1B7D0B683E734090F381E0C81AD10838
:1011B000E108F108C851DC4FEACFDF91CF91FF90F1
:1011C000EF90DF90CF900895789484B5826084BDCD
:1011D00084B5816084BD85B5826085BD85B581603B
:1011E00085BDEEE6F0E0808181608083E1E8F0E09B
:1011F0001082808182608083808181608083E0E8CA
:10120000F0E0808181608083E1EBF0E080818460A8
:101210008083E0EBF0E0808181608083EAE7F0E0AA
:10122000808184608083808182608083808181600E
:1012300080838081806880831092C100089583300C
:1012400081F028F4813099F08230A1F00895873040
:10125000A9F08830B9F08430D1F4809180008F7D7E
:1012600003C0809180008F7780938000089584B5BB
:101270008F7702C084B58F7D84BD08958091B000C2
:101280008F7703C08091B0008F7D8093B000089568
:10129000CF93DF9390E0FC01E458FF4F2491FC01D1
:1012A000E057FF4F8491882349F190E0880F991F00
:1012B000FC01E854FF4FA591B49182559F4FFC016A
:1012C000C591D4919FB7611108C0F8948C91209575
:1012D00082238C93888182230AC0623051F4F8946F
:1012E0008C91322F309583238C938881822B888335
:1012F00004C0F8948C91822B8C939FBFDF91CF9187
:1013000008950F931F93CF93DF931F92CDB7DEB74E
:10131000282F30E0F901E859FF4F8491F901E45892
:10132000FF4F1491F901E057FF4F04910023C9F0DA
:10133000882321F069830E941F096981E02FF0E072
:10134000EE0FFF1FE255FF4FA591B4919FB7F894A0
:101350008C91611103C01095812301C0812B8C9366
:101360009FBF0F90DF91CF911F910F910895FC01C6
:10137000818D228D90E0805C9F4F821B91098F733D
:1013800099270895FC01918D828D981731F0828DF7
:10139000E80FF11D858D90E008958FEF9FEF089580
:1013A000FC01918D828D981761F0828DDF01A80F6D
:1013B000B11D5D968C91928D9F5F9F73928F90E08F
:1013C00008958FEF9FEF089584E59BE0892B49F006
:1013D00080E090E0892B29F00E94540B81110C943D
:1013E00000000895FC01848DDF01A80FB11DA35AF0
:1013F000BF4F2C91848D90E001968F739927848F35
:10140000A689B7892C93A089B1898C9180648C932B
:10141000938D848D981306C00288F389E02D808116
:101420008F7D80830895CF93DF93EC01888D88238F
:10143000C9F0EA89FB89808185FD05C0A889B98941
:101440008C9186FD0FC00FB607FCF5CF808185FF1C
:10145000F2CFA889B9898C9185FFEDCFCE010E948A
:10146000F209E7CFDF91CF910895CF92DF92FF92FB
:101470000F931F93CF93DF931F92CDB7DEB76C010D
:1014800081E0D60158968C9358975B969C915B9718
:101490005C968C915C97981307C05096ED91FC91E7
:1014A0005197808185FD2EC0F601038D10E00F5FFE
:1014B0001F4F0F731127F02EF601848DF81211C003
:1014C0000FB607FCF9CFD6015096ED91FC915197DC
:1014D000808185FFF1CFC60169830E94F20969818D
:1014E000EBCF838DE80FF11DE35AFF4F6083D601E8
:1014F0005B960C935B975296ED91FC91539780818C
:1015000080620CC0D6015696ED91FC91579760838E
:101510005096ED91FC91519780818064808381E0A9
:1015200090E00F90DF91CF911F910F91FF90DF908E
:10153000CF900895BF92CF92DF92EF92FF92CF9318
:10154000DF93EC016A017B01B22EE889F98982E020
:101550008083411581EE580761057105A1F060E0B7
:1015600079E08DE390E0A70196010E94050E2150DD
:101570003109410951095695479537952795211508
:1015800080E1380798F0E889F989108260E874E80A
:101590008EE190E0A70196010E94050E21503109CD
:1015A000410951095695479537952795EC85FD8555
:1015B0003083EE85FF852083188EEC89FD89B0820B
:1015C000EA89FB89808180618083EA89FB89808147
:1015D00088608083EA89FB89808180688083EA89CA
:1015E000FB8980818F7D8083DF91CF91FF90EF9089
:1015F000DF90CF90BF9008951F920F920FB60F9279
:1016000011242F938F939F93EF93FF93E0911304F3
:10161000F09114048081E0911904F0911A0482FD84
:1016200012C0908180911C048F5F8F7320911D04E4
:10163000821751F0E0911C04F0E0ED5FFB4F958FB5
:1016400080931C0401C08081FF91EF919F918F9145
:101650002F910F900FBE0F901F9018951F920F9211
:101660000FB60F9211242F933F934F935F936F9375
:101670007F938F939F93AF93BF93EF93FF9383E0F9
:1016800094E00E94F209FF91EF91BF91AF919F9179
:101690008F917F916F915F914F913F912F910F901B
:1016A0000FBE0F901F90189583E094E00E94B70939
:1016B00021E0892B09F420E0822F0895109206047E
:1016C0001092050488EE93E0A0E0B0E08093070458
:1016D00090930804A0930904B0930A0482E093E075
:1016E000909304048093030485EC90E0909310049D
:1016F00080930F0484EC90E0909312048093110483
:1017000080EC90E0909314048093130481EC90E0BB
:10171000909316048093150482EC90E09093180443
:101720008093170486EC90E090931A048093190438
:1017300010921C0410921D0410921E0410921F049B
:10174000089508950E94E4080E94A10B0E94DA0403
:10175000C4EED9E00E94FA042097E1F30E94E40964
:10176000F9CFCF92DF92EF92FF920F931F93CF9317
:10177000DF936C017A01EB01E60EF71E00E010E04A
:10178000CE15DF0561F06991D601ED91FC910190D4
:10179000F081E02DC6010995080F191FF1CFC8018E
:1017A000DF91CF911F910F91FF90EF90DF90CF903D
:1017B00008956115710581F0DB010D900020E9F7B6
:1017C000AD0141505109461B570BDC01ED91FC91D5
:1017D0000280F381E02D099480E090E00895DC011F
:1017E000ED91FC91DB0114964D915C9115976D91F3
:1017F0007C910280F381E02D09940C94D90BDC01DB
:10180000ED91FC910190F081E02D09946EE073E080
:101810000C94D90B0F931F93CF93DF93EC010E948D
:10182000D90B8C01CE010E94060C800F911FDF9115
:10183000CF911F910F910895FC01808191810C94AB
:10184000F80ECF93DF93EC0188819981009711F016
:101850000E94F80E198218821D821C821B821A8235
:10186000DF91CF9108950F931F93CF93DF93EC01F6
:101870008B016F5F7F4F888199810E94870F00974E
:1018800031F0998388831B830A8381E001C080E063
:10189000DF91CF911F910F910895CF93DF93EC01CA
:1018A00088819981892B29F08A819B8186179707E6
:1018B00060F4CE010E94330C882341F08C819D811D
:1018C000892B19F4E881F981108281E0DF91CF91B1
:1018D0000895EF92FF920F931F93CF93DF93EC0144
:1018E0007B018A01BA010E944D0C811104C0CE0116
:1018F0000E94210C07C01D830C83B7018881998148
:101900000E949A10CE01DF91CF911F910F91FF900D
:10191000EF900895FC0111821082138212821582C9
:1019200014826115710559F0FB0101900020E9F75F
:10193000AF0141505109461B570B0C94690C089597
:10194000CF93DF93EC01FB018617970761F060816D
:1019500071816115710529F0448155810E94690CDE
:1019600002C00E94210CCE01DF91CF910895FC01AD
:101970001182108213821282158214820C94A00CA0
:10198000CF93DF93EC016115710561F0FB010190CC
:101990000020E9F7AF0141505109461B570B0E9447
:1019A000690C02C00E94210CCE01DF91CF910895F5
:1019B0000F931F93CF93DF93CDB7DEB762970FB628
:1019C000F894DEBF0FBECDBF8C01CB01F8011182B0
:1019D0001082138212821582148250E0BE016F5F62
:1019E0007F4F0E94F110BE016F5F7F4FC8010E94C0
:1019F000C00C62960FB6F894DEBF0FBECDBFDF916C
:101A0000CF911F910F910895EF92FF920F931F9323
:101A1000CF93DF93EC017B010C811D816115710572
:101A200011F480E016C04115510591F0040F151F07
:101A3000B8010E944D0C8823A1F3288139818C8143
:101A40009D81B701820F931F0E949A101D830C8302
:101A500081E0DF91CF911F910F91FF90EF9008955A
:101A6000FB0144815581608171810C94040DCF93F9
:101A7000DF9300D0CDB7DEB769831A8241E050E032
:101A8000BE016F5F7F4F0E94040D0F900F90DF919A
:101A9000CF910895EF92FF920F931F93CF93DF930F
:101AA000CDB7DEB728970FB6F894DEBF0FBECDBF17
:101AB0007C01CB014AE050E08E010F5F1F4FB8015F
:101AC0000E94F110F80101900020E9F7AF014150A8
:101AD0005109401B510BB801C7010E94040D289603
:101AE0000FB6F894DEBF0FBECDBFDF91CF911F912F
:101AF0000F91FF90EF900895FC0124813581232BF5
:101B000031F421E061157105A1F0FB0108C0FC0171
:101B1000808191816115710531F421E0FC018081A2
:101B2000882339F005C00E94911021E0892B09F02B
:101B300020E0822F08950F931F93CF93DF93EB0143
:101B400041155105E9F02097D9F0FC0164817581B8
:101B500026173707A0F4621B730B8A010150110985
:101B60006017710708F48B01FC0160817181620FBD
:101B7000731FA801CE010E94A110C00FD11F1882AF
:101B8000DF91CF911F910F910895CF93DF93FC01C7
:101B9000848195814817590778F4C081D181FB0170
:101BA00060817181CE01840F951F0E94B010009753
:101BB00019F08C1B9D0B02C08FEF9FEFDF91CF912F
:101BC000089540E050E00C94C50DFC0180819181A6
:101BD000009711F00C94511060E070E0CB01089573
:101BE000089597FB072E16F4009407D077FD09D0CF
:101BF0000E94460E07FC05D03EF4909581959F4FBC
:101C00000895709561957F4F0895A1E21A2EAA1B41
:101C1000BB1BFD010DC0AA1FBB1FEE1FFF1FA2179C
:101C2000B307E407F50720F0A21BB30BE40BF50B99
:101C3000661F771F881F991F1A9469F76095709522
:101C4000809590959B01AC01BD01CF010895052EB3
:101C500097FB1EF400940E943E0E57FD07D00E9491
:101C6000050E07FC03D04EF40C943E0E50954095A3
:101C7000309521953F4F4F4F5F4F08959095809538
:101C8000709561957F4F8F4F9F4F0895AA1BBB1B87
:101C900051E107C0AA1FBB1FA617B70710F0A61B6C
:101CA000B70B881F991F5A95A9F780959095BC018D
:101CB000CD010895EE0FFF1F0590F491E02D0994DA
:101CC000CF93DF938230910510F482E090E0E091B1
:101CD000A204F091A30420E030E0A0E0B0E030974F
:101CE00039F14081518148175907B8F04817590711
:101CF00071F482819381109729F013969C938E93AF
:101D000012972CC09093A3048093A20427C021159E
:101D1000310531F04217530718F0A901DB0101C06A
:101D2000EF019A01BD01DF010280F381E02DD7CFE1
:101D300021153105F9F0281B390B2430310580F4C9
:101D40008A819B816115710521F0FB019383828358
:101D500004C09093A3048093A204FE01329644C071
:101D6000FE01E20FF31F81939193225031093983D1
:101D700028833AC02091A0043091A104232B41F480
:101D800020910201309103013093A1042093A0041B
:101D900020910001309101012115310541F42DB749
:101DA0003EB74091040150910501241B350BE09191
:101DB000A004F091A104E217F307A0F42E1B3F0B3F
:101DC0002817390778F0AC014E5F5F4F24173507AD
:101DD00048F04E0F5F1F5093A1044093A0048193DD
:101DE000919302C0E0E0F0E0CF01DF91CF91089540
:101DF000CF93DF93009709F487C0FC0132971382D9
:101E00001282C091A204D091A304209781F4208172
:101E10003181280F391F8091A0049091A10482176D
:101E2000930779F5F093A104E093A0046DC0DE015F
:101E300020E030E0AE17BF0750F412964D915C9150
:101E400013979D014115510509F1DA01F3CFB383D1
:101E5000A28340815181840F951F8A179B0771F4DB
:101E60008D919C911197840F951F02969183808389
:101E700012968D919C91139793838283211531053E
:101E800029F4F093A304E093A2043EC0D901139671
:101E9000FC93EE9312974D915D91A40FB51FEA1735
:101EA000FB0779F480819181840F951F0296D901F7
:101EB00011969C938E938281938113969C938E931B
:101EC0001297E0E0F0E08A819B81009719F0FE0113
:101ED000EC01F9CFCE01029628813981820F931F40
:101EE0002091A0043091A1042817390769F4309794
:101EF00029F41092A3041092A20402C01382128249
:101F0000D093A104C093A004DF91CF910895A0E0E5
:101F1000B0E0EDE8FFE00C944A11EC01CB01209712
:101F200019F40E94600EB8C0FE01E60FF71F9E0173
:101F300022503109E217F30708F4ACC0D9010D9122
:101F40001C91119706171707B8F00530110508F412
:101F50009FC0A801445051094617570708F498C07C
:101F600002501109061B170B019311936D937C937B
:101F7000CF010E94F80E8CC05B01A01AB10A4E017D
:101F8000800E911EA091A204B091A304612C712C2B
:101F900060E070E0109709F449C0A815B905C9F5CB
:101FA000ED90FC901197670142E0C40ED11CCA1459
:101FB000DB0478F147018A189B08640142E0C40EF3
:101FC000D11C1296BC9012971396AC91B5E0CB162B
:101FD000D10440F0B282A38391828082D9018D9393
:101FE0009C9309C00E5F1F4F0E0D1F1DF901118339
:101FF0000083EB2DFA2F6115710531F0DB0113968B
:10200000FC93EE93129744C0F093A304E093A204D0
:102010003FC06D917C9111976616770608F43B01DD
:10202000BD0112960D90BC91A02DB4CF6091A0047B
:102030007091A10468157905E9F468167906D0F461
:1020400040910001509101014115510541F44DB7F6
:102050005EB76091040170910501461B570BE417B0
:10206000F507C0F4F093A104E093A004F901918373
:1020700080830EC00E94600E7C01009759F0A80179
:10208000BE010E947D10CE010E94F80EC70104C05F
:10209000CE0102C080E090E0CDB7DEB7EEE00C9458
:1020A00066111F93FC0199278827BC01E8941191C0
:1020B0001032E9F3193010F01E30C8F31B3251F022
:1020C0001D3249F4689406C00E940711610F711D0A
:1020D000811D911D119110531A30B0F33EF490956B
:1020E0008095709561957F4F8F4F9F4F1F910895F9
:1020F00040E253E00E94CA100895FB01DC0102C0D7
:1021000001900D9241505040D8F70895FC01819103
:10211000861721F08823D9F7992708953197CF01A1
:102120000895FB01DC018D91019080190110D9F314
:10213000990B0895FB01DC0101900D920020E1F75D
:102140000895FB01DC014150504048F001900D9290
:102150000020C9F701C01D9241505040E0F708959A
:10216000FB0151915523A9F0BF01DC014D914517A9
:102170004111E1F759F4CD010190002049F04D9152
:1021800040154111C9F3FB014111EFCF81E090E00F
:1021900001970895FA01A191B081009719F4109761
:1021A000E1F0CD01DC01CD010D90002011F4C00162
:1021B00013C0FB012191222319F02015D9F7F3CF89
:1021C000FB012191201519F41E92119606C02223BD
:1021D000C1F70D900020A1F7D001FA01A193B083BF
:1021E00008954532510520F4423010F00C94FC1053
:1021F000FB011082CB010895BB274A3031F49923AB
:1022000022F4BDE2909581959F4F0C941D11592F9A
:10221000482F372F262F660F771F881F991F660FAD
:10222000771F881F991F620F731F841F951F660FEA
:10223000771F881F991F0895BB27FB015527AA27E1
:10224000880F991FAA1FA41710F0A41B8395505143
:10225000B9F7A05DAA3308F0A95DA193009779F7BB
:10226000B111B1931192CB010C943611DC01FC0138
:10227000672F71917723E1F7329704C07C916D93BA
:1022800070836291AE17BF07C8F308952F923F92F3
:102290004F925F926F927F928F929F92AF92BF9276
:1022A000CF92DF92EF92FF920F931F93CF93DF9322
:1022B000CDB7DEB7CA1BDB0B0FB6F894DEBF0FBE7F
:1022C000CDBF09942A88398848885F846E847D84CC
:1022D0008C849B84AA84B984C884DF80EE80FD80CE
:1022E0000C811B81AA81B981CE0FD11D0FB6F89444
:1022F000DEBF0FBECDBFED01089510E0C6ECD0E00B
:1023000004C0FE010E945C0E2296C83CD107C9F7AA
:04231000F894FFCF6F
:102314000000A404800088132C0041542B4854541A
:1023240050504152413D2255524C222C22003F0034
:102334003F707269766174655F6B65793D00260054
:10234400696E7465726E657400687474703A2F2FC8
:10235400646174612E737061726B66756E2E636F47
:102364006D2F696E7075742F004E4A363552417266
:102374004762525564334138444E78616200356493
:102384005265447259396D44684A593070425061FB
:10239400376700427065354C324E5A394C55616B83
:1023A4004C526541344F570064617465006C61742C
:1023B4006974756465006C6F6E6769747564650033
:1023C400616C746974756465007370656564006339
:1023D4006F757273650053656E642055524C3A20D4
:1023E400004D616B652047455420526571756573D6
:1023F400743A200041542B48545450414354494F9B
:102404004E3D300041542B485454505245414400F1
:1024140041542B43474E535552433D0041542B499D
:1024240050523D393630300041542B43474E5350BF
:1024340057523D310041542B43474E535345513D70
:10244400524D4300415445300041542B434D4746BF
:102454003D310041542B43474154543D31004154D4
:102464002B53415042523D332C312C22434F4E5476
:10247400595045222C2247505253220041542B5389
:10248400415042523D332C312C2241504E222C22B9
:102494000041542B53415042523D312C31004154A0
:1024A4002B48545450494E49540041542B485454D9
:1024B40050504152413D22434944222C3100415461
:1024C4002B485454505445524D0041542B534150C1
:1024D40042523D302C310050726F75646C79204D3E
:1024E40061646520696E20496E646F6E657369610D
:1024F4000055474E53494E463A20312C31000000D6
:102504000000E005B10B4C06BF053206640600006E
:102514000000350AB10BB709D009C209130A0D0A24
:10252400006E616E00696E66006F7666002E0000B4
:00000001FF
