:100000000C9464000C948C000C948C000C94BE0531
:100010000C94BE050C94BE050C948C000C948C00C2
:100020000C948C000C948C000C948C000C948C0020
:100030000C948C000C948C000C948C000C948C0010
:100040000C944F070C948C000C94080A0C943A0AF8
:100050000C948C000C948C000C948C000C948C00F0
:100060000C948C000C948C0000000008000201002D
:100070000003040700000000000000000102040863
:100080001020408001020408102001020408102002
:10009000040404040404040402020202020203032E
:1000A00003030303000000002300260029000000D2
:1000B0000000250028002B0000000000240027007D
:1000C0002A001E026A0A830211241FBECFEFD8E065
:1000D000DEBFCDBF13E0A0E0B1E0E2EAFFE102C085
:1000E00005900D92A431B107D9F724E0A4E1B3E063
:1000F00001C01D92A539B207E1F710E0C6ECD0E0CF
:1001000004C02297FE010E94F30CC23CD107C9F73C
:100110000E94AE0A0C94C40F0C940000CF92DF92A0
:10012000EF92FF920F931F93CF93DF93CDB7DEB77C
:10013000C65AD1090FB6F894DEBF0FBECDBF8E01EF
:100140000F5F1F4F24E6F80111922A95E9F720E08E
:1001500030E044E650E0B8010E943D0C6AE071E0F6
:10016000C8010E94E80E7E01F5E6EF0EF11C670162
:100170008CE3C80ED11C87016AE071E080E090E05A
:100180000E94E80EF701819391937F01EC15FD0524
:1001900099F7F801E280F38061E370E0C7010E9403
:1001A000F60E892B09F478C0B701CE018F559F4F09
:1001B0000E94960BBE016F557F4F8CE193E00E9429
:1001C000AC0BCE018F559F4F0E94280BF801648124
:1001D0007581CE018F559F4F0E94960BBE016F55C2
:1001E0007F4F82E293E00E94AC0BCE018F559F4F70
:1001F0000E94280BF80166817781CE018F559F4FB1
:100200000E94960BBE016F557F4F88E293E00E94DB
:10021000AC0BCE018F559F4F0E94280BF8016085D3
:100220007185CE018F559F4F0E94960BBE016F5571
:100230007F4F8EE293E00E94AC0BCE018F559F4F13
:100240000E94280BF80162857385CE018F559F4F60
:100250000E94960BBE016F557F4F84E393E00E948E
:10026000AC0BCE018F559F4F0E94280BF80164857F
:100270007585CE018F559F4F0E94960BBE016F551D
:100280007F4F8AE393E00E94AC0BCE018F559F4FC6
:100290000E94280B81E001C080E0CA55DF4F0FB6F5
:1002A000F894DEBF0FBECDBFDF91CF911F910F91AC
:1002B000FF90EF90DF90CF900895EF92FF920F9311
:1002C0001F93CF93DF9300D000D000D0CDB7DEB71F
:1002D00064E073E0CE0101960E94960B0E9499079C
:1002E0006CE071E088E893E00E94090B6CE071E03B
:1002F00084EF93E00E94090B6CE773E088E893E0D9
:100300000E94FB0A6CE773E084EF93E00E94FB0A13
:1003100060E773E088E893E00E94FB0A60E773E01F
:1003200084EF93E00E94FB0A60E271E088E893E0CA
:100330000E94090B60E271E084EF93E00E94090BD8
:100340006AE673E088E893E00E94FB0A6AE673E0DD
:1003500084EF93E00E94FB0A00E010E06EE271E09F
:1003600088E893E00E94090B6EE271E084EF93E06D
:100370000E94090BC801805C9C4F7C01BC0188E88D
:1003800093E00E94FB0AB70184EF93E00E94FB0A0E
:100390006EEF71E088E893E00E94090B6EEF71E068
:1003A00084EF93E00E94090BC801845E9C4F7C019E
:1003B000BC0188E893E00E94FB0AB70184EF93E058
:1003C0000E94FB0A0A5F1F4F0432110539F66EE1E5
:1003D00071E088E893E00E94090B6EE171E084EF20
:1003E00093E00E94090B88E893E00E94120B84EFCF
:1003F00093E00E94120BCE0101960E94280B81E02F
:1004000026960FB6F894DEBF0FBECDBFDF91CF9119
:100410001F910F91FF90EF90089526E040E855E27C
:1004200060E070E084EF93E00E94A60940E855E2A6
:1004300060E070E088E893E00C94C106CF93DF930E
:1004400020E042E063E088E893E00E94910660E3E8
:1004500071E082E893E00E94960B69E371E08CE71B
:1004600093E00E94960B64E073E086E793E00E94BD
:10047000960B69E571E080E793E00E94960B6EE6CB
:1004800071E08AE693E00E94960B63E871E084E6EF
:1004900093E00E94960B68E971E080E493E00E948B
:1004A000960B6DE971E086E493E00E94960B66EA94
:1004B00071E08CE493E00E94960B60EB71E082E5C2
:1004C00093E00E94960B69EB71E088E593E00E944F
:1004D000960B6FEB71E08EE593E00E94960BCCE1FA
:1004E000D3E064E073E0CE010E94960B269683E091
:1004F000C034D807B1F764E073E086E193E0DF91A0
:10050000CF910C94960BCF93DF9386E193E00E94FA
:10051000280BC0E4D3E02697CE010E94280B83E08D
:10052000CC31D807C1F7C4E6D3E02697CE010E94AC
:10053000280B83E0C034D807C1F784E693E00E941B
:10054000280B8AE693E00E94280B80E793E00E9444
:10055000280B86E793E00E94280B8CE793E00E942B
:10056000280B82E893E00E94280B88E893E0DF9153
:10057000CF910C9438060F931F93CF93DF9300D045
:1005800000D000D0CDB7DEB764E073E0CE010196B5
:100590000E94960B0AE010E088E893E00E9458055C
:1005A000892B81F088E893E00E94CB04682F84EFC8
:1005B00093E00E940B0B6AE070E080E090E00E9404
:1005C000C807EACF0150110939F7CE0101960E9400
:1005D000280B26960FB6F894DEBF0FBECDBFDF9175
:1005E000CF911F910F91089588E893E00E945805DC
:1005F000892B59F088E893E00E94CB046AE070E010
:1006000080E090E00E94C807EFCF0895CF93DF937A
:1006100066EC71E084EF93E00E94090B0E945D019B
:1006200068EE73E080E090E00E94C8070E94F40248
:1006300061ED71E084EF93E00E94090B64EE71E0DC
:1006400088E893E00E94160BCBE0D0E064EF71E005
:1006500080E090E00E94C8070E94BB022197B1F79A
:10066000DF91CF9108957F928F929F92AF92BF9228
:10067000CF92DF92EF92FF920F931F93CF93DF936E
:10068000CDB7DEB7C456D1090FB6F894DEBF0FBEA2
:10069000CDBF6B018E010F5F1F4F24E6F801119251
:1006A0002A95E9F7FC012081222359F0BC0188E852
:1006B00093E00E94160B64E670E080E090E00E94F8
:1006C000C8070E9499074B015C01712CE12CF12CA9
:1006D00088E893E00E945805892B49F088E893E068
:1006E0000E94CB04F801E70DF11D808373940E94F2
:1006F0009907681979098A099B096C157D058E058A
:100700009F0530F3CC59DF4F0FB6F894DEBF0FBE14
:10071000CDBFDF91CF911F910F91FF90EF90DF90B0
:10072000CF90BF90AF909F908F907F900895CF9380
:10073000DF93CDB7DEB76F970FB6F894DEBF0FBE6D
:10074000CDBF64EF71E0CE014A960E94960B64E63D
:1007500070E080E092E00E94330364E670E08CE099
:1007600092E00E94330364E670E089E192E00E9427
:1007700033036091060170910701CE014A960E94F1
:100780000B0C20E030E049E150E0BE016F5F7F4F8D
:10079000CE014A960E943D0C64E670E0CE010196BF
:1007A0000E943303CE014A960E94280B6F960FB623
:1007B000F894DEBF0FBECDBFDF91CF910895CF93E8
:1007C000DF9300D000D000D0CDB7DEB768EC70E08A
:1007D00088E292E00E94330368EC70E08DE292E0E0
:1007E0000E94330368EC70E087E392E00E943303D9
:1007F00068EC70E082E492E00E94330364E073E00E
:10080000CE0101960E94960B0E94990760E672E065
:1008100088E893E00E94090B62E873E088E893E0BF
:100820000E94FB0A6EE171E088E893E00E94090BE8
:1008300088E893E00E94120BCE0101960E94280BDB
:1008400026960FB6F894DEBF0FBECDBFDF91CF91D5
:10085000089560ED77E085E792E00E94330364E657
:1008600070E082E892E00E94330364E670E08EE874
:1008700092E00C94330364E670E082EA92E00E9416
:10088000330364EF71E08EEA92E00C9433030E942C
:100890000D026091080170910901882777FD80950C
:1008A000982F0E94C8070E9497030E94DF0368EEFA
:1008B00073E080E090E00E94C8070E943B046BEB6D
:1008C00072E084EF93E00C94160B0F931F93CF9379
:1008D000DF9300D000D000D0CDB7DEB788E893E03A
:1008E0000E945805892B09F44BC088E893E00E94C8
:1008F000CB048A3011F08D30F1F565ED72E0CE0158
:1009000001960E94960BBE016F5F7F4F86E193E0D8
:100910000E94830C8C01CE0101960E94280B0130AD
:100920001105B9F466E173E0CE0101960E94C30B94
:10093000CE0101960E948E00182FCE0101960E94D2
:10094000280B112331F00E9429040E9406030E9403
:100950003B0464E073E0CE0101960E94960BBE0159
:100960006F5F7F4F86E193E00E94AC0BCE01019652
:100970000E94280B05C0682F86E193E00E94F80BC7
:1009800026960FB6F894DEBF0FBECDBFDF91CF9194
:100990001F910F9108952091E9033091EA032817E0
:1009A0003907B9F49091A7038091A803981789F0AB
:1009B000E091A703F0E0E755FC4F80812091A70369
:1009C00030E02F5F3F4F2F7333272093A70390E032
:1009D00008958FEF9FEF08951F93CF93DF93DC016E
:1009E0005C968D919C915D97009749F481E090E031
:1009F00013969C938E93129780E090E03BC05196A3
:100A0000ED91FC91529750962C915097322F309542
:100A10001FB75E964C915E9741FB772770F941FDB9
:100A20006095F8944081772311F0422B01C0432355
:100A30004083EC012197F1F748E0508160FF02C04C
:100A4000522B01C053235083EC012197F1F7669597
:100A5000415099F78081772311F0832301C0822BC5
:100A600080831FBF5C968D919C915D970197F1F7F4
:100A700081E090E0DF91CF911F9108952091E903EB
:100A80003091EA032817390781F49091A7038091E8
:100A9000A803981751F0E091A703F0E0E755FC4F49
:100AA0008081992787FD909508958FEF9FEF089596
:100AB0002091E9033091EA032817390771F48091F6
:100AC000A8032091A70390E0805C9F4F821B9109AF
:100AD00060E470E00E94880C089580E090E0089542
:100AE0002091E9033091EA032817390739F48FB7C9
:100AF000F8941092A8031092A7038FBF0895E09175
:100B0000E903F091EA03E817F90769F4A389B489C6
:100B10009C918589809589238C931092EA03109289
:100B2000E90381E0089580E00895CF93DF93EC011D
:100B30008A8D9B8D892BF1F08091E9039091EA03D6
:100B40008C179D07B9F0009711F00E947F058E8DDC
:100B50008E7F8E8F1092A8031092A703D093EA0382
:100B6000C093E903EB89FC8980819D89892B80836F
:100B700081E001C080E0DF91CF9108951F920F9234
:100B80000FB60F9211242F933F934F935F936F9360
:100B90007F938F939F93AF93BF93EF93FF93E091D6
:100BA000E903F091EA03309709F451C0868DA685D8
:100BB000B785958581FF04C08C91892329F447C0AE
:100BC0008C91892309F043C0A389B4899C918589BC
:100BD000809589238C93868997890197F1F7208DD9
:100BE000318DA685B785758558E040E0C90101972C
:100BF000F1F7842F90E095958795482F6C916723A6
:100C000009F04068515091F7868D81FD40958091A3
:100C1000A80390E001968F7399272091A7032817C6
:100C200049F0A091A803B0E0A755BC4F4C93809326
:100C3000A80303C0868D8160868F828D938D019776
:100C4000F1F7A389B4898C919589892B8C93FF91B5
:100C5000EF91BF91AF919F918F917F916F915F9134
:100C60004F913F912F910F900FBE0F901F901895AD
:100C700026EE32E0FC01318320830C947F051F9324
:100C8000CF93DF93EC01162F6E8D6695617081E036
:100C90006827812F0E948D0861E0812F0E945408EF
:100CA000812F90E0FC01E458FF4FE491E88BFC01B8
:100CB000E057FF4FE491F0E0EE0FFF1FE255FF4FCA
:100CC000859194919A8B898BDF91CF911F91089593
:100CD0001F93CF93DF93EC01162F60E0812F0E94CA
:100CE00054088E8D81FD04C061E0812F0E948D0823
:100CF0001C87812F90E0FC01E458FF4FE491ED87C1
:100D0000FC01E057FF4FE491F0E0EE0FFF1FEC55C0
:100D1000FF4F859194919F878E87DF91CF911F918F
:100D20000895FF920F931F93CF93DF93EC01F62E5C
:100D3000522F1B821A8208EE13E020E030E00C8371
:100D40001D832E833F8386EE92E0998388831F8ADA
:100D50001E8A198E188E1B8E1A8E1D8E1C8E8E8DDD
:100D60008E7F50FB81F98E8F642FCE010E943F064B
:100D70006F2DCE01DF91CF911F910F91FF900C94B9
:100D80006806CF93DF93EC019A01AB011B8E1A8E9C
:100D9000198E188E1F8A1E8A60E079E08DE390E03C
:100DA0000E94BE0CC9012430310520F0B901635006
:100DB000710902C061E070E07D8F6C8FEC85E631D7
:100DC00008F068C0B901769567956431710518F02F
:100DD0006351710902C061E070E07F8B6E8B0697F2
:100DE00018F0C901059702C081E090E0998F888FC3
:100DF000C901880F991F820F931F96958795969525
:100E000087958D30910510F00C9702C081E090E03D
:100E10009B8F8A8F20916800E83050F091E0EE308F
:100E200008F490E081E001C0880F9A95EAF701C0CC
:100E300084E0822B809368002C85283038F02E3097
:100E400040F0263148F48CE690E008C08DE690E052
:100E500005C08BE690E002C080E090E09C8B8B8B1D
:100E6000283030F481E001C0880F2A95EAF70DC0E0
:100E7000822F90E02E3010F4089701C00E9791E079
:100E800001C0990F8A95EAF7892F8D8B8C8D9D8DE6
:100E90000197F1F7CE01DF91CF910C9495051F9248
:100EA0000F920FB60F9211242F933F938F939F931E
:100EB000AF93BF938091EC039091ED03A091EE036B
:100EC000B091EF033091EB0323E0230F2D3720F493
:100ED0000196A11DB11D05C026E8230F0296A11D94
:100EE000B11D2093EB038093EC039093ED03A0934B
:100EF000EE03B093EF038091F0039091F103A09182
:100F0000F203B091F3030196A11DB11D8093F0038C
:100F10009093F103A093F203B093F303BF91AF91C9
:100F20009F918F913F912F910F900FBE0F901F9027
:100F300018952FB7F8946091EC037091ED038091B0
:100F4000EE039091EF032FBF08953FB7F89480917F
:100F5000F0039091F103A091F203B091F30326B551
:100F6000A89B05C02F3F19F00196A11DB11D3FBFE1
:100F70006627782F892F9A2F620F711D811D911D71
:100F800042E0660F771F881F991F4A95D1F7089591
:100F9000CF92DF92EF92FF92CF93DF936B017C01B0
:100FA0000E94A507EB01C114D104E104F10489F00A
:100FB0000E94870C0E94A5076C1B7D0B683E734046
:100FC00090F381E0C81AD108E108F108C851DC4F5C
:100FD000EACFDF91CF91FF90EF90DF90CF9008950F
:100FE000789484B5826084BD84B5816084BD85B504
:100FF000826085BD85B5816085BDEEE6F0E08081CB
:1010000081608083E1E8F0E01082808182608083EB
:10101000808181608083E0E8F0E08081816080836E
:10102000E1EBF0E0808184608083E0EBF0E08081A0
:1010300081608083EAE7F0E0808184608083808142
:1010400082608083808181608083808180688083EA
:101050001092C1000895833081F028F4813099F016
:101060008230A1F008958730A9F08830B9F084303B
:10107000D1F4809180008F7D03C0809180008F77B4
:1010800080938000089584B58F7702C084B58F7DEA
:1010900084BD08958091B0008F7703C08091B00027
:1010A0008F7D8093B0000895CF93DF9390E0FC0193
:1010B000E458FF4F2491FC01E057FF4F84918823AF
:1010C00049F190E0880F991FFC01E854FF4FA5916A
:1010D000B49182559F4FFC01C591D4919FB7611186
:1010E00008C0F8948C91209582238C938881822368
:1010F0000AC0623051F4F8948C91322F30958323DA
:101100008C938881822B888304C0F8948C91822BE5
:101110008C939FBFDF91CF9108950F931F93CF932F
:10112000DF931F92CDB7DEB7282F30E0F901E859E1
:10113000FF4F8491F901E458FF4F1491F901E057F2
:10114000FF4F04910023C9F0882321F069830E9496
:101150002B086981E02FF0E0EE0FFF1FE255FF4FF3
:10116000A591B4919FB7F8948C91611103C010952B
:10117000812301C0812B8C939FBF0F90DF91CF9172
:101180001F910F910895FC01818D228D90E0805C6C
:101190009F4F821B91098F7399270895FC01918DB0
:1011A000828D981731F0828DE80FF11D858D90E0CA
:1011B00008958FEF9FEF0895FC01918D828D981710
:1011C00061F0828DDF01A80FB11D5D968C91928D2B
:1011D0009F5F9F73928F90E008958FEF9FEF089528
:1011E00080E69AE0892B49F080E090E0892B29F095
:1011F0000E94600A81110C9400000895FC01848D06
:10120000DF01A80FB11DA35ABF4F2C91848D90E030
:1012100001968F739927848FA689B7892C93A0890B
:10122000B1898C9180648C93938D848D981306C0C2
:101230000288F389E02D80818F7D80830895CF938C
:10124000DF93EC01888D8823C9F0EA89FB898081CE
:1012500085FD05C0A889B9898C9186FD0FC00FB6A0
:1012600007FCF5CF808185FFF2CFA889B9898C91E1
:1012700085FFEDCFCE010E94FE08E7CFDF91CF9131
:101280000895CF92DF92FF920F931F93CF93DF9336
:101290001F92CDB7DEB76C0181E0D60158968C93D2
:1012A00058975B969C915B975C968C915C97981392
:1012B00007C05096ED91FC915197808185FD2EC01D
:1012C000F601038D10E00F5F1F4F0F731127F02EF3
:1012D000F601848DF81211C00FB607FCF9CFD601C4
:1012E0005096ED91FC915197808185FFF1CFC60119
:1012F00069830E94FE086981EBCF838DE80FF11DA1
:10130000E35AFF4F6083D6015B960C935B9752962E
:10131000ED91FC915397808180620CC0D601569666
:10132000ED91FC91579760835096ED91FC91519708
:1013300080818064808381E090E00F90DF91CF9185
:101340001F910F91FF90DF90CF900895BF92CF92A1
:10135000DF92EF92FF92CF93DF93EC016A017B0162
:10136000B22EE889F98982E08083411581EE580721
:1013700061057105A1F060E079E08DE390E0A701DF
:1013800096010E949C0C2150310941095109569542
:10139000479537952795211580E1380798F0E8891A
:1013A000F989108260E874E88EE190E0A701960167
:1013B0000E949C0C215031094109510956954795CD
:1013C00037952795EC85FD853083EE85FF85208355
:1013D000188EEC89FD89B082EA89FB898081806161
:1013E0008083EA89FB89808188608083EA89FB8920
:1013F000808180688083EA89FB8980818F7D8083FA
:10140000DF91CF91FF90EF90DF90CF90BF90089544
:101410001F920F920FB60F9211242F938F939F93C9
:10142000EF93FF93E0910404F09105048081E09133
:101430000A04F0910B0482FD12C0908180910D048A
:101440008F5F8F7320910E04821751F0E0910D048D
:10145000F0E0EC50FC4F958F80930D0401C080812B
:10146000FF91EF919F918F912F910F900FBE0F9051
:101470001F9018951F920F920FB60F9211242F9361
:101480003F934F935F936F937F938F939F93AF930C
:10149000BF93EF93FF9384EF93E00E94FE08FF91C8
:1014A000EF91BF91AF919F918F917F916F915F91DC
:1014B0004F913F912F910F900FBE0F901F90189555
:1014C00084EF93E00E94C30821E0892B09F420E017
:1014D000822F08951092F7031092F60388EE93E09E
:1014E000A0E0B0E08093F8039093F903A093FA038F
:1014F000B093FB0386EF92E09093F5038093F4039F
:1015000085EC90E0909301048093000484EC90E0DB
:10151000909303048093020480EC90E09093050480
:101520008093040481EC90E0909307048093060478
:1015300082EC90E0909309048093080486EC90E09C
:1015400090930B0480930A0410920D0410920E04E1
:1015500010920F0410921004089508950E94F0074D
:101560000E94AD0A0E944704C0EFD8E00E946504C3
:101570002097E1F30E94F008F9CFCF92DF92EF922B
:10158000FF920F931F93CF93DF936C017A01EB01CE
:10159000E60EF71E00E010E0CE15DF0561F0699160
:1015A000D601ED91FC910190F081E02DC6010995E5
:1015B000080F191FF1CFC801DF91CF911F910F9133
:1015C000FF90EF90DF90CF9008956115710581F045
:1015D000DB010D900020E9F7AD0141505109461B98
:1015E000570BDC01ED91FC910280F381E02D099411
:1015F00080E090E00895DC01ED91FC91DB01149610
:101600004D915C9115976D917C910280F381E02D55
:1016100009940C94E50ADC01ED91FC910190F081B4
:10162000E02D099462E073E00C94E50A0F931F9398
:10163000CF93DF93EC010E94E50A8C01CE010E945A
:10164000120B800F911FDF91CF911F910F91089581
:10165000FC01808191810C948F0DCF93DF93EC017D
:1016600088819981009711F00E948F0D198218824C
:101670001D821C821B821A82DF91CF9108950F93E5
:101680001F93CF93DF93EC018B016F5F7F4F8881B6
:1016900099810E941E0E009731F0998388831B83E5
:1016A0000A8381E001C080E0DF91CF911F910F910B
:1016B0000895CF93DF93EC0188819981892B29F0DC
:1016C0008A819B818617970760F4CE010E943F0BA9
:1016D000882341F08C819D81892B19F4E881F9815F
:1016E000108281E0DF91CF910895EF92FF920F93E6
:1016F0001F93CF93DF93EC017B018A01BA010E9413
:10170000590B811104C0CE010E942D0B07C01D830F
:101710000C83B701888199810E94010FCE01DF916E
:10172000CF911F910F91FF90EF900895FC011182CE
:10173000108213821282158214826115710559F08C
:10174000FB0101900020E9F7AF0141505109461B10
:10175000570B0C94750B0895CF93DF93EC01FB01AD
:101760008617970761F0608171816115710529F015
:10177000448155810E94750B02C00E942D0BCE0141
:10178000DF91CF910895FC011182108213821282A1
:10179000158214820C94AC0BEF92FF920F931F935F
:1017A000CF93DF93EC017B010C811D8161157105E5
:1017B00011F480E016C04115510591F0040F151F7A
:1017C000B8010E94590B8823A1F3288139818C81AB
:1017D0009D81B701820F931F0E94010F1D830C830F
:1017E00081E0DF91CF911F910F91FF90EF900895CD
:1017F000CF93DF9300D0CDB7DEB769831A8241E083
:1018000050E0BE016F5F7F4F0E94CC0B0F900F9096
:10181000DF91CF910895EF92FF920F931F93CF9393
:10182000DF93CDB7DEB727970FB6F894DEBF0FBEB4
:10183000CDBF7C01CB014AE050E08E010F5F1F4F0E
:10184000B8010E94580FF80101900020E9F7AF019C
:1018500041505109401B510BB801C7010E94CC0BEC
:1018600027960FB6F894DEBF0FBECDBFDF91CF91A4
:101870001F910F91FF90EF9008950F931F93CF93B7
:10188000DF93EB0141155105E9F02097D9F0FC01F8
:101890006481758126173707A0F4621B730B8A01D8
:1018A000015011096017710708F48B01FC01608178
:1018B0007181620F731FA801CE010E94080FC00F33
:1018C000D11F1882DF91CF911F910F910895CF936F
:1018D000DF93FC01848195814817590778F4C08112
:1018E000D181FB0160817181CE01840F951F0E941F
:1018F000170F009719F08C1B9D0B02C08FEF9FEF05
:10190000DF91CF91089540E050E00C94670C08956A
:1019100097FB072E16F4009407D077FD09D00E949C
:10192000DD0C07FC05D03EF4909581959F4F0895FE
:10193000709561957F4F0895A1E21A2EAA1BBB1BDB
:10194000FD010DC0AA1FBB1FEE1FFF1FA217B3078B
:10195000E407F50720F0A21BB30BE40BF50B661FA1
:10196000771F881F991F1A9469F760957095809565
:1019700090959B01AC01BD01CF010895052E97FB09
:101980001EF400940E94D50C57FD07D00E949C0CB9
:1019900007FC03D04EF40C94D50C5095409530952F
:1019A00021953F4F4F4F5F4F0895909580957095CB
:1019B00061957F4F8F4F9F4F0895AA1BBB1B51E12D
:1019C00007C0AA1FBB1FA617B70710F0A61BB70BAF
:1019D000881F991F5A95A9F780959095BC01CD0154
:1019E0000895EE0FFF1F0590F491E02D0994CF9319
:1019F000DF938230910510F482E090E0E09193044F
:101A0000F091940420E030E0A0E0B0E0309739F1AC
:101A10004081518148175907B8F04817590771F4A8
:101A200082819381109729F013969C938E9312973D
:101A30002CC0909394048093930427C02115310502
:101A400031F04217530718F0A901DB0101C0EF0183
:101A50009A01BD01DF010280F381E02DD7CF21156E
:101A60003105F9F0281B390B2430310580F48A81C7
:101A70009B816115710521F0FB019383828304C072
:101A80009093940480939304FE01329644C0FE0127
:101A9000E20FF31F819391932250310939832883F8
:101AA0003AC02091910430919204232B41F420916B
:101AB000020130910301309392042093910420910C
:101AC0000001309101012115310541F42DB73EB7D8
:101AD0004091040150910501241B350BE0919104C4
:101AE000F0919204E217F307A0F42E1B3F0B281786
:101AF000390778F0AC014E5F5F4F2417350748F087
:101B00004E0F5F1F509392044093910481939193E1
:101B100002C0E0E0F0E0CF01DF91CF910895CF93D4
:101B2000DF93009709F487C0FC0132971382128279
:101B3000C0919304D0919404209781F42081318145
:101B4000280F391F80919104909192048217930776
:101B500079F5F0939204E09391046DC0DE0120E0EA
:101B600030E0AE17BF0750F412964D915C91139779
:101B70009D014115510509F1DA01F3CFB383A28329
:101B800040815181840F951F8A179B0771F48D91B5
:101B90009C911197840F951F0296918380831296D2
:101BA0008D919C911397938382832115310529F49C
:101BB000F0939404E09393043EC0D9011396FC93F0
:101BC000EE9312974D915D91A40FB51FEA17FB0795
:101BD00079F480819181840F951F0296D901119625
:101BE0009C938E938281938113969C938E931297EC
:101BF000E0E0F0E08A819B81009719F0FE01EC01A2
:101C0000F9CFCE01029628813981820F931F20914E
:101C10009104309192042817390769F4309729F418
:101C2000109294041092930402C013821282D093F3
:101C30009204C0939104DF91CF910895A0E0B0E0A9
:101C4000E4E2FEE00C94910FEC01CB01209719F433
:101C50000E94F70CB8C0FE01E60FF71F9E0122504C
:101C60003109E217F30708F4ACC0D9010D911C91BA
:101C7000119706171707B8F00530110508F49FC033
:101C8000A801445051094617570708F498C002505C
:101C90001109061B170B019311936D937C93CF01D0
:101CA0000E948F0D8CC05B01A01AB10A4E01800EFC
:101CB000911EA0919304B0919404612C712C60E06A
:101CC00070E0109709F449C0A815B905C9F5ED9061
:101CD000FC901197670142E0C40ED11CCA14DB04CA
:101CE00078F147018A189B08640142E0C40ED11CB8
:101CF0001296BC9012971396AC91B5E0CB16D10416
:101D000040F0B282A38391828082D9018D939C930B
:101D100009C00E5F1F4F0E0D1F1DF90111830083B7
:101D2000EB2DFA2F6115710531F0DB011396FC9351
:101D3000EE93129744C0F0939404E09393043FC051
:101D40006D917C9111976616770608F43B01BD01F1
:101D500012960D90BC91A02DB4CF6091910470911A
:101D6000920468157905E9F468167906D0F4409173
:101D70000001509101014115510541F44DB75EB785
:101D80006091040170910501461B570BE417F5079C
:101D9000C0F4F0939204E0939104F901918380835D
:101DA0000EC00E94F70C7C01009759F0A801BE01FB
:101DB0000E94ED0ECE010E948F0DC70104C0CE011E
:101DC00002C080E090E0CDB7DEB7EEE00C94AD0F3E
:101DD00044E153E00E94310F0895FB01DC0102C091
:101DE00001900D9241505040D8F70895FC01819127
:101DF000861721F08823D9F7992708953197CF01C5
:101E00000895FB01DC0101900D920020E1F7089597
:101E1000FB01DC014150504048F001900D92002040
:101E2000C9F701C01D9241505040E0F70895FB01F1
:101E300051915523A9F0BF01DC014D914517411186
:101E4000E1F759F4CD010190002049F04D91401582
:101E50004111C9F3FB014111EFCF81E090E00197FF
:101E60000895FA01A191B081009719F41097E1F05B
:101E7000CD01DC01CD010D90002011F4C00113C093
:101E8000FB012191222319F02015D9F7F3CFFB0193
:101E90002191201519F41E92119606C02223C1F734
:101EA0000D900020A1F7D001FA01A193B08308950D
:101EB0004532510520F4423010F00C94630FFB01C1
:101EC0001082CB010895BB27FB015527AA27880F55
:101ED000991FAA1FA41710F0A41B83955051B9F79E
:101EE000A05DAA3308F0A95DA193009779F7B1111D
:101EF000B1931192CB010C947D0FDC01FC01672F93
:101F000071917723E1F7329704C07C916D937083D0
:101F10006291AE17BF07C8F308952F923F924F9278
:101F20005F926F927F928F929F92AF92BF92CF9269
:101F3000DF92EF92FF920F931F93CF93DF93CDB772
:101F4000DEB7CA1BDB0B0FB6F894DEBF0FBECDBFEA
:101F500009942A88398848885F846E847D848C84BB
:101F60009B84AA84B984C884DF80EE80FD800C81C4
:101F70001B81AA81B981CE0FD11D0FB6F894DEBFA7
:101F80000FBECDBFED01089510E0C6ECD0E004C057
:101F9000FE010E94F30C2296C83CD107C9F7F894C1
:021FA000FFCF71
:101FA2000000950480001E0088132C0041542B4829
:101FB200545450504152413D2255524C222C220041
:101FC2003F707269766174655F6B65793D002600CA
:101FD200696E7465726E657400687474703A2F2F3E
:101FE200646174612E737061726B66756E2E636FBD
:101FF2006D2F696E7075742F004E4A3635524172DC
:102002004762525564334138444E78616200356408
:102012005265447259396D44684A59307042506170
:10202200376700427065354C324E5A394C55616BF8
:102032004C526541344F570064617465006C6174A1
:102042006974756465006C6F6E67697475646500A8
:10205200616C7469747564650073706565640063AE
:102062006F757273650053656E642055524C3A2049
:10207200004D616B6520474554205265717565734B
:10208200743A200041542B48545450414354494F10
:102092004E3D300041542B43474E535552433D0071
:1020A20041542B4950523D393630300041542B4374
:1020B200474E535057523D310041542B43474E53E4
:1020C2005345513D524D4300415445300041542B3C
:1020D200434D47463D310041542B43474154543D03
:1020E200310041542B53415042523D332C312C226A
:1020F200434F4E54595045222C22475052532200EE
:1021020041542B53415042523D332C312C224150E9
:102112004E222C220041542B53415042523D312C2D
:10212200310041542B48545450494E4954004154B3
:102132002B48545450504152413D22434944222C91
:10214200310041542B485454505445524D0041548F
:102152002B53415042523D302C310050726F756406
:102162006C79204D61646520696E20496E646F6EE2
:10217200657369610055474E53494E463A20312CEA
:10218200310000000000EC04BD0A5805CB043E05F6
:102192007005000000004109BD0AC308DC08CE0832
:1021A2001F090D0A006E616E00696E66006F766629
:0421B200002E0000FB
:00000001FF
