:100000000C9464000C948C000C948C000C947B0673
:100010000C947B060C947B060C948C000C948C0046
:100020000C948C000C948C000C948C000C948C0020
:100030000C948C000C948C000C948C000C948C0010
:100040000C940C080C948C000C94C50A0C94F70AC0
:100050000C948C000C948C000C948C000C948C00F0
:100060000C948C000C948C0000000008000201002D
:100070000003040700000000000000000102040863
:100080001020408001020408102001020408102002
:10009000040404040404040402020202020203032E
:1000A00003030303000000002300260029000000D2
:1000B0000000250028002B0000000000240027007D
:1000C0002A000402270B690211241FBECFEFD8E0DB
:1000D000DEBFCDBF13E0A0E0B1E0E6EAF2E202C08D
:1000E00005900D92AA32B107D9F724E0AAE2B3E055
:1000F00001C01D92AF3AB207E1F710E0C6ECD0E0C4
:1001000004C02297FE010E94250EC23CD107C9F708
:100110000E946B0B0C9446110C940000CF92DF925E
:10012000EF92FF920F931F93CF93DF93CDB7DEB77C
:10013000C65AD1090FB6F894DEBF0FBECDBF8E01EF
:100140000F5F1F4F24E6F80111922A95E9F720E08E
:1001500030E044E650E0B8010E94640D68E071E0D0
:10016000C8010E9441107E01F5E6EF0EF11C670107
:100170008CE3C80ED11C870168E071E080E090E05C
:100180000E944110F701819391937F01EC15FD05C9
:1001900099F7F801E280F38061E370E0C7010E9403
:1001A0004F10892B09F478C0B701CE018F559F4FAE
:1001B0000E94530CBE016F557F4F86E393E00E946F
:1001C000690CCE018F559F4F0E94E50BF8016481A9
:1001D0007581CE018F559F4F0E94530CBE016F5504
:1001E0007F4F8CE393E00E94690CCE018F559F4FA7
:1001F0000E94E50BF80166817781CE018F559F4FF4
:100200000E94530CBE016F557F4F82E493E00E9421
:10021000690CCE018F559F4F0E94E50BF801608558
:100220007185CE018F559F4F0E94530CBE016F55B3
:100230007F4F88E493E00E94690CCE018F559F4F59
:100240000E94E50BF80162857385CE018F559F4FA3
:100250000E94530CBE016F557F4F8EE493E00E94C5
:10026000690CCE018F559F4F0E94E50BF801648504
:100270007585CE018F559F4F0E94530CBE016F555F
:100280007F4F84E593E00E94690CCE018F559F4F0C
:100290000E94E50B81E001C080E0CA55DF4F0FB638
:1002A000F894DEBF0FBECDBFDF91CF911F910F91AC
:1002B000FF90EF90DF90CF9008950F931F93CF930F
:1002C000DF936AE071E082EA93E00E94C60B6AE085
:1002D00071E08EE094E00E94C60B60E973E082EA70
:1002E00093E00E94B80B60E973E08EE094E00E9416
:1002F000B80B6AE873E082EA93E00E94B80B6AE800
:1003000073E08EE094E00E94B80B60E070E084E857
:1003100093E00E94450D882369F06EE171E082EA66
:1003200093E00E94C60B6EE171E08EE094E00E94C3
:10033000C60B18C060E271E082EA93E00E94C60B2F
:1003400060E271E08EE094E00E94C60B64E873E026
:1003500082EA93E00E94B80B64E873E08EE094E0D8
:100360000E94B80BC0E0D0E06EE271E082EA93E058
:100370000E94C60B6EE271E08EE094E00E94C60B14
:100380008E01065A1C4FB80182EA93E00E94B80B16
:10039000B8018EE094E00E94B80B6AE072E082EA55
:1003A00093E00E94C60B6AE072E08EE094E00E9447
:1003B000C60B8E010A5C1C4FB80182EA93E00E94D2
:1003C000B80BB8018EE094E00E94B80B2696C432B8
:1003D000D10551F66CE171E082EA93E00E94C60B10
:1003E0006CE171E08EE094E00E94C60B82EA93E03B
:1003F0000E94CF0B8EE094E00E94CF0B81E0DF9152
:10040000CF911F910F910895CF93DF9320E042E0A9
:1004100063E082EA93E00E944E0760E371E08CE9BA
:1004200093E00E94530C6AE173E086E993E00E9436
:10043000530C69E371E080E993E00E94530C69E595
:1004400071E08AE893E00E94530C6EE671E084E864
:1004500093E00E94530C63E871E08EE793E00E9402
:10046000530C68E971E08AE593E00E94530C6DE952
:1004700071E080E693E00E94530C66EA71E086E644
:1004800093E00E94530C60EB71E08CE693E00E94D5
:10049000530C69EB71E082E793E00E94530C6FEB21
:1004A00071E088E793E00E94530CC6E3D3E06AE171
:1004B00073E0CE010E94530C269683E0CA35D8071C
:1004C000B1F76AE173E080E393E0DF91CF910C94A0
:1004D000530CCF93DF9380E393E00E94E50BCAE5D2
:1004E000D3E02697CE010E94E50B83E0C633D80700
:1004F000C1F7CEE7D3E02697CE010E94E50B83E05B
:10050000CA35D807C1F78EE793E00E94E50B84E86F
:1005100093E00E94E50B8AE893E00E94E50B80E9F6
:1005200093E00E94E50B86E993E00E94E50B8CE9DD
:1005300093E00E94E50B82EA93E0DF91CF910C9467
:10054000F506CF93CAE082EA93E00E941506892B54
:1005500081F082EA93E00E948805682F8EE094E0A3
:100560000E94C80B6AE070E080E090E00E9485087D
:10057000EACFC15041F7CF91089582EA93E00E94FB
:100580001506892B59F082EA93E00E9488056AE0FB
:1005900070E080E090E00E948508EFCF0895CF934F
:1005A00066EC71E08EE094E00E94C60B0E945D0153
:1005B00060EF7AE080E090E00E9485080E94BD0232
:1005C00061ED71E08EE094E00E94C60B64EE71E094
:1005D00082EA93E00E94D30BC3E364E670E080E01C
:1005E00090E00E9485080E94A102C150B1F780915D
:1005F0002F03882389F064EF71E082EA93E00E9480
:10060000D30BC8E064EF71E080E090E00E948508C1
:100610000E94A102C150B1F7CF9108958F929F928D
:10062000AF92BF92CF92DF92EF92FF920F931F9300
:10063000CF93DF93EC018B016A016AE173E00E94C2
:10064000530CF8018081882359F0B80182EA93E0C5
:100650000E94D30B64E670E080E090E00E94850881
:100660000E9456084B015C01E12CF12C82EA93E0D8
:100670000E941506892B41F082EA93E00E948805CA
:10068000BC01CE010E94130D0E9456086819790919
:100690008A099B096C157D058E059F0538F3CE01EF
:1006A000DF91CF911F910F91FF90EF90DF90CF904E
:1006B000BF90AF909F908F9008950F931F93CF930B
:1006C000DF93CDB7DEB7A5970FB6F894DEBF0FBEA8
:1006D000CDBF8C0160E072E0CE0180960E94530C89
:1006E00044E650E06CE072E0CE0101960E940E03F9
:1006F000CE0101960E94E50B44E650E068E172E00D
:10070000CE0101960E940E03CE0101960E94E50BD8
:1007100044E650E065E272E0CE0101960E940E03CD
:10072000CE0101960E94E50B4AE0B801CE01019688
:100730000E94A10CBE016F5F7F4FCE0180960E9488
:10074000F90CCE0101960E94E50B20E030E049E172
:1007500050E0BE016F5F7F4FCE0180960E94640D16
:1007600044E650E0BE016F5F7F4FCE014A960E9483
:100770000E03CE014A960E94E50BCE0180960E94A0
:10078000E50BA5960FB6F894DEBF0FBECDBFDF9187
:10079000CF911F910F910895CF93DF9300D000D098
:1007A00000D0CDB7DEB748EC50E064E372E0CE0194
:1007B00001960E940E03CE0101960E94E50B48ECC3
:1007C00050E069E372E0CE0101960E940E03CE0173
:1007D00001960E94E50B48EC50E063E472E0CE0124
:1007E00001960E940E03CE0101960E94E50B48EC93
:1007F00050E06EE472E0CE0101960E940E03CE013D
:1008000001960E94E50B6CE672E082EA93E00E949A
:10081000C60B6CE973E082EA93E00E94B80B6CE1CE
:1008200071E082EA93E00E94C60B82EA93E00E94A4
:10083000CF0B26960FB6F894DEBF0FBECDBFDF916B
:10084000CF9108951F93CF93DF9300D000D000D0B5
:10085000CDB7DEB740E951E061E872E0CE01019624
:100860000E940E03CE0101960E94E50B1AEF82EA68
:1008700093E00E941506892B41F46AE070E080E065
:1008800090E00E948508115091F744E650E06EE830
:1008900072E0CE0101960E940E03CE0101960E94E5
:1008A000E50B44E650E06AE972E0CE0101960E9451
:1008B0000E03CE0101960E94E50B26960FB6F89422
:1008C000DEBF0FBECDBFDF91CF911F910895CF93B3
:1008D000DF9300D000D000D0CDB7DEB744E650E0C3
:1008E0006EEA72E0CE0101960E940E03CE010196DF
:1008F0000E94E50B48EE53E06AEB72E0CE010196F0
:100900000E940E03CE0101960E94E50B26960FB6BB
:10091000F894DEBF0FBECDBFDF91CF910895CF9386
:10092000DF9300D000D000D0CDB7DEB726E040E89E
:1009300055E260E070E08EE094E00E94630A40E8D7
:1009400055E260E070E082EA93E00E947E076091E9
:1009500006017091070180E090E00E9485088AE01E
:1009600090E00E945D030E94CC0368EE73E080E09B
:1009700090E00E9485080E94670444E650E067EC1E
:1009800072E0CE0101960E940E03CE0101960E94F4
:10099000E50B61ED72E08EE094E00E94D30B2696A9
:1009A0000FB6F894DEBF0FBECDBFDF91CF91089593
:1009B0000F931F93CF93DF9300D000D000D0CDB71B
:1009C000DEB782EA93E00E941506892B09F495C0F0
:1009D00082EA93E00E9488058A3019F08D3009F090
:1009E00087C06BEE72E0CE0101960E94530CBE01EF
:1009F0006F5F7F4F80E393E00E94AA0D8C01CE01D0
:100A000001960E94E50B0130110509F05FC060E31B
:100A100073E0CE0101960E94800CCE0101960E94E7
:100A20008E00182FCE0101960E94E50B112309F4C8
:100A30004DC08EE493E00E94AE0D9B0165307105C0
:100A40008CF410922D0310922C0380912E038F5F53
:100A500080932E038330A1F18630C0F186E080932D
:100A60002E032EC0AB01455051094F30510568F49B
:100A700080912D038F5F80932D0310922E0382307F
:100A800028F182E080932D031BC064517109643109
:100A9000710568F480912C038F5F80932C03109272
:100AA0002E03882399F081E080932C0309C028321B
:100AB000310564F010922E0310922D0310922C0336
:100AC0000E9422040E94CF020E9467046AE173E040
:100AD000CE0101960E94530CBE016F5F7F4F80E3F1
:100AE00093E00E94690CCE0101960E94E50B05C0BF
:100AF000682F80E393E00E94000D26960FB6F894CD
:100B0000DEBF0FBECDBFDF91CF911F910F91089532
:100B1000209103043091040428173907B9F4909107
:100B2000C1038091C203981789F0E091C103F0E0FE
:100B3000ED53FC4F80812091C10330E02F5F3F4F88
:100B40002F7333272093C10390E008958FEF9FEF19
:100B500008951F93CF93DF93DC015C968D919C9158
:100B60005D97009749F481E090E013969C938E93F3
:100B7000129780E090E03BC05196ED91FC91529726
:100B800050962C915097322F30951FB75E964C910E
:100B90005E9741FB772770F941FD6095F89440819D
:100BA000772311F0422B01C043234083EC012197AE
:100BB000F1F748E0508160FF02C0522B01C053237F
:100BC0005083EC012197F1F76695415099F78081A8
:100BD000772311F0832301C0822B80831FBF5C9693
:100BE0008D919C915D970197F1F781E090E0DF9105
:100BF000CF911F9108952091030430910404281788
:100C0000390781F49091C1038091C203981751F084
:100C1000E091C103F0E0ED53FC4F8081992787FDFF
:100C2000909508958FEF9FEF0895209103043091E0
:100C300004042817390771F48091C2032091C1037D
:100C400090E0805C9F4F821B910960E470E00E94FD
:100C5000BA0D089580E090E008952091030430914A
:100C600004042817390739F48FB7F8941092C20397
:100C70001092C1038FBF0895E0910304F091040422
:100C8000E817F90769F4A389B4899C91858980954F
:100C900089238C93109204041092030481E0089538
:100CA00080E00895CF93DF93EC018A8D9B8D892B93
:100CB000F1F080910304909104048C179D07B9F022
:100CC000009711F00E943C068E8D8E7F8E8F1092C1
:100CD000C2031092C103D0930404C0930304EB89B0
:100CE000FC8980819D89892B808381E001C080E01F
:100CF000DF91CF9108951F920F920FB60F9211249A
:100D00002F933F934F935F936F937F938F939F9313
:100D1000AF93BF93EF93FF93E0910304F09104042A
:100D2000309709F451C0868DA685B785958581FFDA
:100D300004C08C91892329F447C08C91892309F040
:100D400043C0A389B4899C918589809589238C931C
:100D5000868997890197F1F7208D318DA685B78512
:100D6000758558E040E0C9010197F1F7842F90E0C4
:100D700095958795482F6C91672309F040685150ED
:100D800091F7868D81FD40958091C20390E0019698
:100D90008F7399272091C103281749F0A091C203AE
:100DA000B0E0AD53BC4F4C938093C20303C0868D1B
:100DB0008160868F828D938D0197F1F7A389B48925
:100DC0008C919589892B8C93FF91EF91BF91AF9175
:100DD0009F918F917F916F915F914F913F912F9153
:100DE0000F900FBE0F901F9018952CEF32E0FC0172
:100DF000318320830C943C061F93CF93DF93EC0147
:100E0000162F6E8D6695617081E06827812F0E9494
:100E10004A0961E0812F0E941109812F90E0FC01B5
:100E2000E458FF4FE491E88BFC01E057FF4FE49159
:100E3000F0E0EE0FFF1FE255FF4F859194919A8BE2
:100E4000898BDF91CF911F9108951F93CF93DF93EB
:100E5000EC01162F60E0812F0E9411098E8D81FD1B
:100E600004C061E0812F0E944A091C87812F90E015
:100E7000FC01E458FF4FE491ED87FC01E057FF4F80
:100E8000E491F0E0EE0FFF1FEC55FF4F8591949138
:100E90009F878E87DF91CF911F910895FF920F93C7
:100EA0001F93CF93DF93EC01F62E522F1B821A82F1
:100EB00008EE13E020E030E00C831D832E833F8397
:100EC0008CEF92E0998388831F8A1E8A198E188E70
:100ED0001B8E1A8E1D8E1C8E8E8D8E7F50FB81F97F
:100EE0008E8F642FCE010E94FC066F2DCE01DF9104
:100EF000CF911F910F91FF900C942507CF93DF9313
:100F0000EC019A01AB011B8E1A8E198E188E1F8A66
:100F10001E8A60E079E08DE390E00E94F00DC90147
:100F20002430310520F0B9016350710902C061E03D
:100F300070E07D8F6C8FEC85E63108F068C0B901F8
:100F4000769567956431710518F06351710902C097
:100F500061E070E07F8B6E8B069718F0C9010597F2
:100F600002C081E090E0998F888FC901880F991F96
:100F7000820F931F96958795969587958D3091054D
:100F800010F00C9702C081E090E09B8F8A8F209137
:100F90006800E83050F091E0EE3008F490E081E035
:100FA00001C0880F9A95EAF701C084E0822B8093F4
:100FB00068002C85283038F02E3040F0263148F477
:100FC0008CE690E008C08DE690E005C08BE690E0EE
:100FD00002C080E090E09C8B8B8B283030F481E065
:100FE00001C0880F2A95EAF70DC0822F90E02E30BD
:100FF00010F4089701C00E9791E001C0990F8A95EF
:10100000EAF7892F8D8B8C8D9D8D0197F1F7CE019D
:10101000DF91CF910C9452061F920F920FB60F9250
:1010200011242F933F938F939F93AF93BF938091FE
:10103000060490910704A0910804B091090430912E
:10104000050423E0230F2D3720F40196A11DB11DC7
:1010500005C026E8230F0296A11DB11D20930504AB
:101060008093060490930704A0930804B0930904A6
:1010700080910A0490910B04A0910C04B0910D048E
:101080000196A11DB11D80930A0490930B04A093B7
:101090000C04B0930D04BF91AF919F918F913F913C
:1010A0002F910F900FBE0F901F9018952FB7F894A7
:1010B00060910604709107048091080490910904DE
:1010C0002FBF08953FB7F89480910A0490910B04C4
:1010D000A0910C04B0910D0426B5A89B05C02F3F2C
:1010E00019F00196A11DB11D3FBF6627782F892FEA
:1010F0009A2F620F711D811D911D42E0660F771FAF
:10110000881F991F4A95D1F70895CF92DF92EF92E9
:10111000FF92CF93DF936B017C010E946208EB0189
:10112000C114D104E104F10489F00E94B90D0E94B8
:1011300062086C1B7D0B683E734090F381E0C81A17
:10114000D108E108F108C851DC4FEACFDF91CF9117
:10115000FF90EF90DF90CF900895789484B58260EF
:1011600084BD84B5816084BD85B5826085BD85B54B
:10117000816085BDEEE6F0E0808181608083E1E8FA
:10118000F0E0108280818260808380818160808332
:10119000E0E8F0E0808181608083E1EBF0E0808135
:1011A00084608083E0EBF0E0808181608083EAE707
:1011B000F0E0808184608083808182608083808190
:1011C000816080838081806880831092C10008954F
:1011D000833081F028F4813099F08230A1F00895B5
:1011E0008730A9F08830B9F08430D1F48091800044
:1011F0008F7D03C0809180008F7780938000089559
:1012000084B58F7702C084B58F7D84BD08958091A9
:10121000B0008F7703C08091B0008F7D8093B000C5
:101220000895CF93DF9390E0FC01E458FF4F2491A1
:10123000FC01E057FF4F8491882349F190E0880F2B
:10124000991FFC01E854FF4FA591B49182559F4F1F
:10125000FC01C591D4919FB7611108C0F8948C919D
:10126000209582238C93888182230AC0623051F4B6
:10127000F8948C91322F309583238C938881822B24
:10128000888304C0F8948C91822B8C939FBFDF914C
:10129000CF9108950F931F93CF93DF931F92CDB7F4
:1012A000DEB7282F30E0F901E859FF4F8491F901AA
:1012B000E458FF4F1491F901E057FF4F04910023C8
:1012C000C9F0882321F069830E94E8086981E02F32
:1012D000F0E0EE0FFF1FE255FF4FA591B4919FB7CD
:1012E000F8948C91611103C01095812301C0812B6A
:1012F0008C939FBF0F90DF91CF911F910F91089515
:10130000FC01818D228D90E0805C9F4F821B9109B2
:101310008F7399270895FC01918D828D981731F074
:10132000828DE80FF11D858D90E008958FEF9FEF7E
:101330000895FC01918D828D981761F0828DDF01F7
:10134000A80FB11D5D968C91928D9F5F9F73928FB8
:1013500090E008958FEF9FEF08958DE19BE0892B3A
:1013600049F080E090E0892B29F00E941D0B81114B
:101370000C9400000895FC01848DDF01A80FB11DBD
:10138000A35ABF4F2C91848D90E001968F739927BB
:10139000848FA689B7892C93A089B1898C918064A8
:1013A0008C93938D848D981306C00288F389E02D69
:1013B00080818F7D80830895CF93DF93EC01888DAA
:1013C0008823C9F0EA89FB89808185FD05C0A88949
:1013D000B9898C9186FD0FC00FB607FCF5CF8081CF
:1013E00085FFF2CFA889B9898C9185FFEDCFCE0119
:1013F0000E94BB09E7CFDF91CF910895CF92DF9292
:10140000FF920F931F93CF93DF931F92CDB7DEB759
:101410006C0181E0D60158968C9358975B969C910D
:101420005B975C968C915C97981307C05096ED91F2
:10143000FC915197808185FD2EC0F601038D10E04F
:101440000F5F1F4F0F731127F02EF601848DF812D6
:1014500011C00FB607FCF9CFD6015096ED91FC9163
:101460005197808185FFF1CFC60169830E94BB0936
:101470006981EBCF838DE80FF11DE35AFF4F608345
:10148000D6015B960C935B975296ED91FC91539726
:10149000808180620CC0D6015696ED91FC915797E1
:1014A00060835096ED91FC91519780818064808398
:1014B00081E090E00F90DF91CF911F910F91FF900D
:1014C000DF90CF900895BF92CF92DF92EF92FF927C
:1014D000CF93DF93EC016A017B01B22EE889F98991
:1014E00082E08083411581EE580761057105A1F006
:1014F00060E079E08DE390E0A70196010E94CE0DB7
:10150000215031094109510956954795379527953D
:10151000211580E1380798F0E889F989108260E8A0
:1015200074E88EE190E0A70196010E94CE0D215053
:101530003109410951095695479537952795EC850D
:10154000FD853083EE85FF852083188EEC89FD892B
:10155000B082EA89FB89808180618083EA89FB8986
:10156000808188608083EA89FB89808180688083AC
:10157000EA89FB8980818F7D8083DF91CF91FF9005
:10158000EF90DF90CF90BF9008951F920F920FB60B
:101590000F9211242F938F939F93EF93FF93E091DA
:1015A0001E04F0911F048081E0912404F091250431
:1015B00082FD12C09081809127048F5F8F732091EC
:1015C0002804821751F0E0912704F0E0E25FFB4F1E
:1015D000958F8093270401C08081FF91EF919F91A7
:1015E0008F912F910F900FBE0F901F9018951F9203
:1015F0000F920FB60F9211242F933F934F935F9347
:101600006F937F938F939F93AF93BF93EF93FF93CA
:101610008EE094E00E94BB09FF91EF91BF91AF91E2
:101620009F918F917F916F915F914F913F912F91FA
:101630000F900FBE0F901F9018958EE094E00E94BF
:10164000800921E0892B09F420E0822F089510926F
:1016500011041092100488EE93E0A0E0B0E08093B3
:10166000120490931304A0931404B09315048CE017
:1016700093E090930F0480930E0485EC90E0909398
:101680001B0480931A0484EC90E090931D048093D3
:101690001C0480EC90E090931F0480931E0481EC66
:1016A00090E0909321048093200482EC90E090934A
:1016B00023048093220486EC90E090932504809389
:1016C00024041092270410922804109229041092E6
:1016D0002A04089508950E94AD080E946A0B0E9492
:1016E0008F04CDEAD9E00E94D8042097E1F30E944C
:1016F000AD09F9CFCF92DF92EF92FF920F931F9334
:10170000CF93DF936C017A01EB01E60EF71E00E048
:1017100010E0CE15DF0561F06991D601ED91FC91E5
:101720000190F081E02DC6010995080F191FF1CF36
:10173000C801DF91CF911F910F91FF90EF90DF9043
:10174000CF9008956115710581F0DB010D900020A7
:10175000E9F7AD0141505109461B570BDC01ED91F2
:10176000FC910280F381E02D099480E090E00895DF
:10177000DC01ED91FC91DB0114964D915C91159784
:101780006D917C910280F381E02D09940C94A20B61
:10179000DC01ED91FC910190F081E02D099468E16C
:1017A00073E00C94A20B0F931F93CF93DF93EC0184
:1017B0000E94A20B8C01CE010E94CF0B800F911FC3
:1017C000DF91CF911F910F910895FC01808191814C
:1017D0000C94C10ECF93DF93EC018881998100971F
:1017E00011F00E94C10E198218821D821C821B8278
:1017F0001A82DF91CF9108950F931F93CF93DF93B8
:10180000EC018B016F5F7F4F888199810E94500F9F
:10181000009731F0998388831B830A8381E001C09C
:1018200080E0DF91CF911F910F910895CF93DF93C7
:10183000EC0188819981892B29F08A819B81861707
:10184000970760F4CE010E94FC0B882341F08C8145
:101850009D81892B19F4E881F981108281E0DF9163
:10186000CF910895EF92FF920F931F93CF93DF9341
:10187000EC017B018A01BA010E94160C811104C09F
:10188000CE010E94EA0B07C01D830C83B70188813B
:1018900099810E946310CE01DF91CF911F910F912A
:1018A000FF90EF900895FC01118210821382128242
:1018B000158214826115710559F0FB010190002019
:1018C000E9F7AF0141505109461B570B0C94320CFC
:1018D0000895CF93DF93EC01FB018617970761F022
:1018E000608171816115710529F0448155810E94E3
:1018F000320C02C00E94EA0BCE01DF91CF91089515
:10190000FC011182108213821282158214820C94BF
:10191000690CCF93DF93EC016115710561F0FB0158
:1019200001900020E9F7AF0141505109461B570BC8
:101930000E94320C02C00E94EA0BCE01DF91CF91CF
:1019400008950F931F93CF93DF93CDB7DEB76297C0
:101950000FB6F894DEBF0FBECDBF8C01CB01F801EE
:1019600011821082138212821582148250E0BE010D
:101970006F5F7F4F0E94BA10BE016F5F7F4FC8013B
:101980000E94890C62960FB6F894DEBF0FBECDBFE1
:10199000DF91CF911F910F910895EF92FF920F93D6
:1019A0001F93CF93DF93EC017B010C811D816115A7
:1019B000710511F480E016C04115510591F0040F36
:1019C000151FB8010E94160C8823A1F328813981C4
:1019D0008C819D81B701820F931F0E9463101D832C
:1019E0000C8381E0DF91CF911F910F91FF90EF90D9
:1019F0000895FB0144815581608171810C94CD0C67
:101A0000CF93DF9300D0CDB7DEB769831A8241E070
:101A100050E0BE016F5F7F4F0E94CD0C0F900F9082
:101A2000DF91CF910895EF92FF920F931F93CF9381
:101A3000DF93CDB7DEB728970FB6F894DEBF0FBEA1
:101A4000CDBF7C01CB014AE050E08E010F5F1F4FFC
:101A5000B8010E94BA10F80101900020E9F7AF0127
:101A600041505109401B510BB801C7010E94CD0CD8
:101A700028960FB6F894DEBF0FBECDBFDF91CF9191
:101A80001F910F91FF90EF900895FC012481358103
:101A9000232B31F421E061157105A1F0FB0108C091
:101AA000FC01808191816115710531F421E0FC0117
:101AB0008081882339F005C00E945A1021E0892BCB
:101AC00009F020E0822F08950F931F93CF93DF93A7
:101AD000EB0141155105E9F02097D9F0FC01648133
:101AE000758126173707A0F4621B730B8A0101501A
:101AF00011096017710708F48B01FC016081718185
:101B0000620F731FA801CE010E946A10C00FD11F7F
:101B10001882DF91CF911F910F910895CF93DF939A
:101B2000FC01848195814817590778F4C081D181DF
:101B3000FB0160817181CE01840F951F0E94791095
:101B4000009719F08C1B9D0B02C08FEF9FEFDF9168
:101B5000CF91089540E050E00C948E0DFC018081FF
:101B60009181009711F00C941A1060E070E0CB01A5
:101B70000895089597FB072E16F4009407D077FD7B
:101B800009D00E940F0E07FC05D03EF49095819578
:101B90009F4F0895709561957F4F0895A1E21A2E89
:101BA000AA1BBB1BFD010DC0AA1FBB1FEE1FFF1F01
:101BB000A217B307E407F50720F0A21BB30BE40B51
:101BC000F50B661F771F881F991F1A9469F7609598
:101BD0007095809590959B01AC01BD01CF01089552
:101BE000052E97FB1EF400940E94070E57FD07D0A8
:101BF0000E94CE0D07FC03D04EF40C94070E5095B6
:101C00004095309521953F4F4F4F5F4F08959095E8
:101C10008095709561957F4F8F4F9F4F0895AA1BB8
:101C2000BB1B51E107C0AA1FBB1FA617B70710F0C7
:101C3000A61BB70B881F991F5A95A9F780959095F9
:101C4000BC01CD010895EE0FFF1F0590F491E02D2A
:101C50000994CF93DF938230910510F482E090E0F5
:101C6000E091AD04F091AE0420E030E0A0E0B0E0FF
:101C7000309739F14081518148175907B8F048171A
:101C8000590771F482819381109729F013969C93E0
:101C90008E9312972CC09093AE048093AD0427C00E
:101CA0002115310531F04217530718F0A901DB0166
:101CB00001C0EF019A01BD01DF010280F381E02D37
:101CC000D7CF21153105F9F0281B390B2430310508
:101CD00080F48A819B816115710521F0FB0193835A
:101CE000828304C09093AE048093AD04FE013296CB
:101CF00044C0FE01E20FF31F8193919322503109FA
:101D0000398328833AC02091AB043091AC04232B53
:101D100041F420910201309103013093AC042093EF
:101D2000AB0420910001309101012115310541F4EE
:101D30002DB73EB74091040150910501241B350B8E
:101D4000E091AB04F091AC04E217F307A0F42E1B72
:101D50003F0B2817390778F0AC014E5F5F4F24170F
:101D6000350748F04E0F5F1F5093AC044093AB040F
:101D70008193919302C0E0E0F0E0CF01DF91CF9139
:101D80000895CF93DF93009709F487C0FC01329741
:101D900013821282C091AD04D091AE04209781F4D9
:101DA00020813181280F391F8091AB049091AC04C0
:101DB0008217930779F5F093AC04E093AB046DC000
:101DC000DE0120E030E0AE17BF0750F412964D91CF
:101DD0005C9113979D014115510509F1DA01F3CF8B
:101DE000B383A28340815181840F951F8A179B077B
:101DF00071F48D919C911197840F951F0296918398
:101E0000808312968D919C911397938382832115E1
:101E1000310529F4F093AE04E093AD043EC0D9013E
:101E20001396FC93EE9312974D915D91A40FB51FFD
:101E3000EA17FB0779F480819181840F951F029640
:101E4000D90111969C938E938281938113969C93D2
:101E50008E931297E0E0F0E08A819B81009719F061
:101E6000FE01EC01F9CFCE01029628813981820F63
:101E7000931F2091AB043091AC042817390769F403
:101E8000309729F41092AE041092AD0402C0138270
:101E90001282D093AC04C093AB04DF91CF9108952C
:101EA000A0E0B0E0E6E5FFE00C941311EC01CB01FB
:101EB000209719F40E94290EB8C0FE01E60FF71F03
:101EC0009E0122503109E217F30708F4ACC0D90192
:101ED0000D911C91119706171707B8F005301105E1
:101EE00008F49FC0A801445051094617570708F449
:101EF00098C002501109061B170B019311936D93A3
:101F00007C93CF010E94C10E8CC05B01A01AB10A64
:101F10004E01800E911EA091AD04B091AE04612CD3
:101F2000712C60E070E0109709F449C0A815B9055C
:101F3000C9F5ED90FC901197670142E0C40ED11CE9
:101F4000CA14DB0478F147018A189B08640142E057
:101F5000C40ED11C1296BC9012971396AC91B5E0AA
:101F6000CB16D10440F0B282A38391828082D90142
:101F70008D939C9309C00E5F1F4F0E0D1F1DF9011D
:101F800011830083EB2DFA2F6115710531F0DB0110
:101F90001396FC93EE93129744C0F093AE04E09333
:101FA000AD043FC06D917C9111976616770608F4D9
:101FB0003B01BD0112960D90BC91A02DB4CF609154
:101FC000AB047091AC0468157905E9F468167906DC
:101FD000D0F440910001509101014115510541F4A7
:101FE0004DB75EB76091040170910501461B570B18
:101FF000E417F507C0F4F093AC04E093AB04F901E7
:10200000918380830EC00E94290E7C01009759F0B5
:10201000A801BE010E944610CE010E94C10EC70158
:1020200004C0CE0102C080E090E0CDB7DEB7EEE0A4
:102030000C942F111F93FC0199278827BC01E89469
:1020400011911032E9F3193010F01E30C8F31B3231
:1020500051F01D3249F4689406C00E94D010610FFF
:10206000711D811D911D119110531A30B0F33EF472
:1020700090958095709561957F4F8F4F9F4F1F91E1
:1020800008954AE253E00E9493100895FB01DC0199
:1020900002C001900D9241505040D8F70895FC01C4
:1020A0008191861721F08823D9F7992708953197D0
:1020B000CF010895FB01DC018D9101908019011081
:1020C000D9F3990B0895FB01DC0101900D920020DA
:1020D000E1F70895FB01DC014150504048F00190C8
:1020E0000D920020C9F701C01D9241505040E0F709
:1020F0000895FB0151915523A9F0BF01DC014D91D9
:1021000045174111E1F759F4CD010190002049F044
:102110004D9140154111C9F3FB014111EFCF81E011
:1021200090E001970895FA01A191B081009719F408
:102130001097E1F0CD01DC01CD010D90002011F4EC
:10214000C00113C0FB012191222319F02015D9F7FA
:10215000F3CFFB012191201519F41E92119606C0B0
:102160002223C1F70D900020A1F7D001FA01A1931D
:10217000B08308954532510520F4423010F00C949C
:10218000C510FB011082CB010895BB274A3031F402
:10219000992322F4BDE2909581959F4F0C94E6100F
:1021A000592F482F372F262F660F771F881F991F0B
:1021B000660F771F881F991F620F731F841F951F5B
:1021C000660F771F881F991F0895BB27FB015527AE
:1021D000AA27880F991FAA1FA41710F0A41B839584
:1021E0005051B9F7A05DAA3308F0A95DA1930097FB
:1021F00079F7B111B1931192CB010C94FF10DC016E
:10220000FC01672F71917723E1F7329704C07C912D
:102210006D9370836291AE17BF07C8F308952F9234
:102220003F924F925F926F927F928F929F92AF9266
:10223000BF92CF92DF92EF92FF920F931F93CF93B3
:10224000DF93CDB7DEB7CA1BDB0B0FB6F894DEBF4A
:102250000FBECDBF09942A88398848885F846E8470
:102260007D848C849B84AA84B984C884DF80EE80BA
:10227000FD800C811B81AA81B981CE0FD11D0FB6C3
:10228000F894DEBF0FBECDBFED01089510E0C6EC9F
:10229000D0E004C0FE010E94250E2296C83CD10762
:0622A000C9F7F894FFCF1E
:1022A6000000AF04800088132C0041542B4854547E
:1022B60050504152413D2255524C222C22003F00A3
:1022C6003F707269766174655F6B65793D002600C3
:1022D600696E7465726E657400687474703A2F2F37
:1022E600646174612E737061726B66756E2E636FB6
:1022F6006D2F696E7075742F004E4A3635524172D5
:102306004762525564334138444E78616200356401
:102316005265447259396D44684A59307042506169
:10232600376700427065354C324E5A394C55616BF1
:102336004C526541344F570064617465006C61749A
:102346006974756465006C6F6E67697475646500A1
:10235600616C7469747564650073706565640063A7
:102366006F757273650053656E642055524C3A2042
:10237600004D616B65204745542052657175657344
:10238600743A200041542B48545450414354494F09
:102396004E3D300041542B48545450524541440060
:1023A60041542B43474E535552433D0041542B490C
:1023B60050523D393630300041542B43474E53502E
:1023C60057523D310041542B43474E535345513DDF
:1023D600524D4300415445300041542B434D47462E
:1023E6003D310041542B43474154543D3100415443
:1023F6002B53415042523D332C312C22434F4E54E5
:10240600595045222C2247505253220041542B53F7
:10241600415042523D332C312C2241504E222C2227
:102426000041542B53415042523D312C310041540E
:102436002B48545450494E49540041542B48545447
:1024460050504152413D22434944222C31004154CF
:102456002B485454505445524D0041542B5341502F
:1024660042523D302C310041542B434D47443D34BC
:102476000050726F75646C79204D61646520696ED9
:1024860020496E646F6E657369610055474E534906
:102496004E463A20312C310000000000A9057A0B87
:1024A60015068805FB052D0600000000FE097A0BBF
:1024B600800999098B09DC090D0A006E616E0069B5
:0A24C6006E66006F7666002E0000BF
:00000001FF
