:100000000C9464000C948C000C948C000C947F066F
:100010000C947F060C947F060C948C000C948C003E
:100020000C948C000C948C000C948C000C948C0020
:100030000C948C000C948C000C948C000C948C0010
:100040000C9410080C948C000C94C90A0C94FB0AB4
:100050000C948C000C948C000C948C000C948C00F0
:100060000C948C000C948C0000000008000201002D
:100070000003040700000000000000000102040863
:100080001020408001020408102001020408102002
:10009000040404040404040402020202020203032E
:1000A00003030303000000002300260029000000D2
:1000B0000000250028002B0000000000240027007D
:1000C0002A0033022B0B980211241FBECFEFD8E079
:1000D000DEBFCDBF13E0A0E0B1E0EEEAF2E202C085
:1000E00005900D92AA32B107D9F724E0AAE2B3E055
:1000F00001C01D92AD3AB207E1F710E0C6ECD0E0C6
:1001000004C02297FE010E94290EC23CD107C9F704
:100110000E946F0B0C944A110C940000CF92DF9256
:10012000EF92FF920F931F93CF93DF93CDB7DEB77C
:10013000C65AD1090FB6F894DEBF0FBECDBF8E01EF
:100140000F5F1F4F24E6F80111922A95E9F720E08E
:1001500030E044E650E0B8010E94680D68E071E0CC
:10016000C8010E9445107E01F5E6EF0EF11C670103
:100170008CE3C80ED11C870168E071E080E090E05C
:100180000E944510F701819391937F01EC15FD05C5
:1001900099F7F801E280F38061E370E0C7010E9403
:1001A0005310892B09F478C0B701CE018F559F4FAA
:1001B0000E94570CBE016F557F4F84E393E00E946D
:1001C0006D0CCE018F559F4F0E94E90BF8016481A1
:1001D0007581CE018F559F4F0E94570CBE016F5500
:1001E0007F4F8AE393E00E946D0CCE018F559F4FA5
:1001F0000E94E90BF80166817781CE018F559F4FF0
:100200000E94570CBE016F557F4F80E493E00E941F
:100210006D0CCE018F559F4F0E94E90BF801608550
:100220007185CE018F559F4F0E94570CBE016F55AF
:100230007F4F86E493E00E946D0CCE018F559F4F57
:100240000E94E90BF80162857385CE018F559F4F9F
:100250000E94570CBE016F557F4F8CE493E00E94C3
:100260006D0CCE018F559F4F0E94E90BF8016485FC
:100270007585CE018F559F4F0E94570CBE016F555B
:100280007F4F82E593E00E946D0CCE018F559F4F0A
:100290000E94E90B81E001C080E0CA55DF4F0FB634
:1002A000F894DEBF0FBECDBFDF91CF911F910F91AC
:1002B000FF90EF90DF90CF900895EF92FF920F9311
:1002C0001F93CF93DF9300D000D000D0CDB7DEB71F
:1002D0006AE173E0CE0101960E94570C0E945A0811
:1002E0006AE071E080EA93E00E94CA0B6AE071E084
:1002F0008CE094E00E94CA0B6EE873E080EA93E021
:100300000E94BC0B6EE873E08CE094E00E94BC0B92
:1003100068E873E080EA93E00E94BC0B68E873E051
:100320008CE094E00E94BC0B60E070E082E893E017
:100330000E94490D882369F06EE171E080EA93E044
:100340000E94CA0B6EE171E08CE094E00E94CA0B3F
:1003500018C060E271E080EA93E00E94CA0B60E29C
:1003600071E08CE094E00E94CA0B62E873E080EADE
:1003700093E00E94BC0B62E873E08CE094E00E9482
:10038000BC0B00E010E06EE271E080EA93E00E94B6
:10039000CA0B6EE271E08CE094E00E94CA0BC801C7
:1003A000885A9C4F7C01BC0180EA93E00E94BC0B00
:1003B000B7018CE094E00E94BC0B6AE072E080EA36
:1003C00093E00E94CA0B6AE072E08CE094E00E9425
:1003D000CA0BC8018C5C9C4F7C01BC0180EA93E095
:1003E0000E94BC0BB7018CE094E00E94BC0B0A5F3A
:1003F0001F4F0432110539F66CE171E080EA93E099
:100400000E94CA0B6CE171E08CE094E00E94CA0B80
:1004100080EA93E00E94D30B8CE094E00E94D30B1F
:10042000CE0101960E94E90B81E026960FB6F89462
:10043000DEBF0FBECDBFDF91CF911F910F91FF9017
:10044000EF90089526E040E855E260E070E08CE02F
:1004500094E00E94670A40E855E260E070E080EABC
:1004600093E00C948207CF93DF9320E042E063E0B7
:1004700080EA93E00E94520760E371E08AE993E02A
:100480000E94570C6AE173E084E993E00E94570CE4
:1004900069E371E08EE893E00E94570C69E571E032
:1004A00088E893E00E94570C6EE671E082E893E0E2
:1004B0000E94570C63E871E08CE793E00E94570CB0
:1004C00068E971E088E593E00E94570C6DE971E0FE
:1004D0008EE593E00E94570C66EA71E084E693E0B3
:1004E0000E94570C60EB71E08AE693E00E94570C83
:1004F00069EB71E080E793E00E94570C6FEB71E0CD
:1005000086E793E00E94570CC4E3D3E06AE173E00E
:10051000CE010E94570C269683E0C835D807B1F764
:100520006AE173E08EE293E0DF91CF910C94570C77
:10053000CF93DF938EE293E00E94E90BC8E5D3E00E
:100540002697CE010E94E90B83E0C433D807C1F798
:10055000CCE7D3E02697CE010E94E90B83E0C835B3
:10056000D807C1F78CE793E00E94E90B82E893E09B
:100570000E94E90B88E893E00E94E90B8EE893E083
:100580000E94E90B84E993E00E94E90B8AE993E079
:100590000E94E90B80EA93E0DF91CF910C94F90679
:1005A0001F93CF93DF9300D000D000D0CDB7DEB73C
:1005B0006AE173E0CE0101960E94570C1AE080EACE
:1005C00093E00E941906892B81F080EA93E00E9453
:1005D0008C05682F8CE094E00E94CC0B6AE070E000
:1005E00080E090E00E948908EACF115041F7CE01E7
:1005F00001960E94E90B26960FB6F894DEBF0FBE57
:10060000CDBFDF91CF911F91089580EA93E00E94C2
:100610001906892B59F080EA93E00E948C056AE064
:1006200070E080E090E00E948908EFCF0895CF93BA
:10063000DF9366EC71E08CE094E00E94CA0B0E94AC
:100640005D0160EF7AE080E090E00E9489080E94FE
:10065000050361ED71E08CE094E00E94CA0B64EE4A
:1006600071E080EA93E00E94D70BC3E3D0E064E638
:1006700070E080E090E00E9489080E94D0022197FB
:10068000B1F780912D03882391F064EF71E080EA47
:1006900093E00E94D70BC8E0D0E064EF71E080E007
:1006A00090E00E9489080E94D0022197B1F7DF9163
:1006B000CF9108958F929F92AF92BF92CF92DF9287
:1006C000EF92FF920F931F93CF93DF93EC018B0177
:1006D0006A016AE173E00E94570CF8018081882367
:1006E00059F0B80180EA93E00E94D70B64E670E00D
:1006F00080E090E00E9489080E945A084B015C014A
:10070000E12CF12C80EA93E00E941906892B41F03C
:1007100080EA93E00E948C05BC01CE010E94170D77
:100720000E945A08681979098A099B096C157D0588
:100730008E059F0538F3CE01DF91CF911F910F9168
:10074000FF90EF90DF90CF90BF90AF909F908F90F1
:1007500008950F931F93CF93DF93CDB7DEB7A5977F
:100760000FB6F894DEBF0FBECDBF8C0160E072E023
:10077000CE0180960E94570C44E650E06CE072E097
:10078000CE0101960E945A03CE0101960E94E90B08
:1007900044E650E068E172E0CE0101960E945A03FF
:1007A000CE0101960E94E90B44E650E065E272E05A
:1007B000CE0101960E945A03CE0101960E94E90BD8
:1007C0004AE0B801CE0101960E94A50CBE016F5F00
:1007D0007F4FCE0180960E94FD0CCE0101960E94B3
:1007E000E90B20E030E049E150E0BE016F5F7F4F50
:1007F000CE0180960E94680D44E650E0BE016F5F16
:100800007F4FCE014A960E945A03CE014A960E941B
:10081000E90BCE0180960E94E90BA5960FB6F894DD
:10082000DEBF0FBECDBFDF91CF911F910F91089515
:10083000CF93DF9300D000D000D0CDB7DEB748EC27
:1008400050E064E372E0CE0101960E945A03CE01AB
:1008500001960E94E90B48EC50E069E372E0CE019A
:1008600001960E945A03CE0101960E94E90B48ECC2
:1008700050E063E472E0CE0101960E945A03CE017B
:1008800001960E94E90B48EC50E06EE472E0CE0164
:1008900001960E945A03CE0101960E94E90B6CE674
:1008A00072E080EA93E00E94CA0B6AE973E080EA92
:1008B00093E00E94BC0B6CE171E080EA93E00E943F
:1008C000CA0B80EA93E00E94D30B26960FB6F894E9
:1008D000DEBF0FBECDBFDF91CF910895CF93DF93E1
:1008E00000D000D000D0CDB7DEB740EF5AE061E8CD
:1008F00072E0CE0101960E945A03CE0101960E9439
:10090000E90B44E650E06EE872E0CE0101960E94E9
:100910005A03CE0101960E94E90B44E650E06AE9D1
:1009200072E0CE0101960E945A03CE0101960E9408
:10093000E90B26960FB6F894DEBF0FBECDBFDF9150
:10094000CF910895CF93DF9300D000D000D0CDB7E2
:10095000DEB744E650E06EEA72E0CE0101960E94F6
:100960005A03CE0101960E94E90B48EE53E06AEB70
:1009700072E0CE0101960E945A03CE0101960E94B8
:10098000E90B26960FB6F894DEBF0FBECDBFDF9100
:10099000CF9108950E942202609106017091070193
:1009A00080E090E00E9489088AE090E00E94A9031C
:1009B0000E94180468EE73E080E090E00E948908CD
:1009C0000E94A20467EC72E08CE094E00C94D70BD8
:1009D0000F931F93CF93DF9300D000D000D0CDB7FB
:1009E000DEB780EA93E00E941906892B09F489C0DA
:1009F00080EA93E00E948C058A3019F08D3009F06E
:100A00007BC061EE72E0CE0101960E94570CBE01E0
:100A10006F5F7F4F8EE293E00E94AE0D8C01CE019E
:100A200001960E94E90B0130110509F053C06EE2F6
:100A300073E0CE0101960E94840CCE0101960E94C3
:100A40008E00182FCE0101960E94E90B112309F4A4
:100A500041C08CE493E00E94B20D9B0165307105AA
:100A60006CF480912C038F5F80932C03833001F111
:100A7000863080F186E080932C031AC0AB0145508C
:100A800051094F30510518F489E190E007C06451D5
:100A900071096431710538F48FE090E00E94A90378
:100AA00010922C0317C028323105A4F010922C03A9
:100AB0000E946E040E9417030E94A20444E650E0C4
:100AC0006EEE72E0CE0101960E945A03CE010196AD
:100AD0000E94E90B6AE173E0CE0101960E94570C77
:100AE000BE016F5F7F4F8EE293E00E946D0CCE01DE
:100AF00001960E94E90B05C0682F8EE293E00E94E8
:100B0000040D26960FB6F894DEBF0FBECDBFDF9161
:100B1000CF911F910F91089520910104309102040B
:100B200028173907B9F49091BF038091C003981733
:100B300089F0E091BF03F0E0EF53FC4F80812091FA
:100B4000BF0330E02F5F3F4F2F7333272093BF0346
:100B500090E008958FEF9FEF08951F93CF93DF9359
:100B6000DC015C968D919C915D97009749F481E042
:100B700090E013969C938E93129780E090E03BC098
:100B80005196ED91FC91529750962C915097322F9F
:100B900030951FB75E964C915E9741FB772770F9B1
:100BA00041FD6095F8944081772311F0422B01C0FC
:100BB00043234083EC012197F1F748E0508160FF27
:100BC00002C0522B01C053235083EC012197F1F74F
:100BD0006695415099F78081772311F0832301C0F6
:100BE000822B80831FBF5C968D919C915D970197AE
:100BF000F1F781E090E0DF91CF911F91089520916E
:100C00000104309102042817390781F49091BF0341
:100C10008091C003981751F0E091BF03F0E0EF53CB
:100C2000FC4F8081992787FD909508958FEF9FEF66
:100C3000089520910104309102042817390771F4B6
:100C40008091C0032091BF0390E0805C9F4F821B86
:100C5000910960E470E00E94BE0D089580E090E08C
:100C6000089520910104309102042817390739F4BE
:100C70008FB7F8941092C0031092BF038FBF0895EE
:100C8000E0910104F0910204E817F90769F4A389DF
:100C9000B4899C918589809589238C931092020454
:100CA0001092010481E0089580E00895CF93DF93CE
:100CB000EC018A8D9B8D892BF1F08091010490913C
:100CC00002048C179D07B9F0009711F00E944006AE
:100CD0008E8D8E7F8E8F1092C0031092BF03D093A3
:100CE0000204C0930104EB89FC8980819D89892BD2
:100CF000808381E001C080E0DF91CF9108951F9251
:100D00000F920FB60F9211242F933F934F935F933F
:100D10006F937F938F939F93AF93BF93EF93FF93C3
:100D2000E0910104F0910204309709F451C0868DDE
:100D3000A685B785958581FF04C08C91892329F408
:100D400047C08C91892309F043C0A389B4899C9141
:100D50008589809589238C93868997890197F1F7F6
:100D6000208D318DA685B785758558E040E0C90195
:100D70000197F1F7842F90E095958795482F6C9116
:100D8000672309F04068515091F7868D81FD4095A9
:100D90008091C00390E001968F7399272091BF0343
:100DA000281749F0A091C003B0E0AF53BC4F4C935B
:100DB0008093C00303C0868D8160868F828D938D62
:100DC0000197F1F7A389B4898C919589892B8C932C
:100DD000FF91EF91BF91AF919F918F917F916F9113
:100DE0005F914F913F912F910F900FBE0F901F90E9
:100DF00018952CEF32E0FC01318320830C944006DF
:100E00001F93CF93DF93EC01162F6E8D6695617063
:100E100081E06827812F0E944E0961E0812F0E94A6
:100E20001509812F90E0FC01E458FF4FE491E88B15
:100E3000FC01E057FF4FE491F0E0EE0FFF1FE25599
:100E4000FF4F859194919A8B898BDF91CF911F9160
:100E500008951F93CF93DF93EC01162F60E0812F4D
:100E60000E9415098E8D81FD04C061E0812F0E94D2
:100E70004E091C87812F90E0FC01E458FF4FE4915C
:100E8000ED87FC01E057FF4FE491F0E0EE0FFF1F0C
:100E9000EC55FF4F859194919F878E87DF91CF917D
:100EA0001F910895FF920F931F93CF93DF93EC014F
:100EB000F62E522F1B821A8208EE13E020E030E05B
:100EC0000C831D832E833F838CEF92E0998388836C
:100ED0001F8A1E8A198E188E1B8E1A8E1D8E1C8ECE
:100EE0008E8D8E7F50FB81F98E8F642FCE010E94F4
:100EF00000076F2DCE01DF91CF911F910F91FF90D1
:100F00000C942907CF93DF93EC019A01AB011B8E60
:100F10001A8E198E188E1F8A1E8A60E079E08DE382
:100F200090E00E94F40DC9012430310520F0B90190
:100F30006350710902C061E070E07D8F6C8FEC85B9
:100F4000E63108F068C0B90176956795643171059E
:100F500018F06351710902C061E070E07F8B6E8B05
:100F6000069718F0C901059702C081E090E0998FBB
:100F7000888FC901880F991F820F931F96958795B7
:100F8000969587958D30910510F00C9702C081E001
:100F900090E09B8F8A8F20916800E83050F091E0BC
:100FA000EE3008F490E081E001C0880F9A95EAF7EE
:100FB00001C084E0822B809368002C85283038F0B3
:100FC0002E3040F0263148F48CE690E008C08DE6E3
:100FD00090E005C08BE690E002C080E090E09C8B42
:100FE0008B8B283030F481E001C0880F2A95EAF716
:100FF0000DC0822F90E02E3010F4089701C00E979C
:1010000091E001C0990F8A95EAF7892F8D8B8C8D1D
:101010009D8D0197F1F7CE01DF91CF910C9456068B
:101020001F920F920FB60F9211242F933F938F931D
:101030009F93AF93BF938091040490910504A09176
:101040000604B09107043091030423E0230F2D37E9
:1010500020F40196A11DB11D05C026E8230F0296BC
:10106000A11DB11D209303048093040490930504F3
:10107000A0930604B093070480910804909109049A
:10108000A0910A04B0910B040196A11DB11D80939B
:10109000080490930904A0930A04B0930B04BF9131
:1010A000AF919F918F913F912F910F900FBE0F9015
:1010B0001F9018952FB7F89460910404709105045F
:1010C00080910604909107042FBF08953FB7F894CC
:1010D0008091080490910904A0910A04B0910B0436
:1010E00026B5A89B05C02F3F19F00196A11DB11D83
:1010F0003FBF6627782F892F9A2F620F711D811DA0
:10110000911D42E0660F771F881F991F4A95D1F7FE
:101110000895CF92DF92EF92FF92CF93DF936B010E
:101120007C010E946608EB01C114D104E104F104C2
:1011300089F00E94BD0D0E9466086C1B7D0B683E05
:10114000734090F381E0C81AD108E108F108C85152
:10115000DC4FEACFDF91CF91FF90EF90DF90CF90FF
:101160000895789484B5826084BD84B5816084BD1F
:1011700085B5826085BD85B5816085BDEEE6F0E010
:10118000808181608083E1E8F0E01082808182606C
:101190008083808181608083E0E8F0E080818160ED
:1011A0008083E1EBF0E0808184608083E0EBF0E01D
:1011B000808181608083EAE7F0E0808184608083C1
:1011C000808182608083808181608083808180686B
:1011D00080831092C1000895833081F028F481301B
:1011E00099F08230A1F008958730A9F08830B9F0E5
:1011F0008430D1F4809180008F7D03C08091800085
:101200008F7780938000089584B58F7702C084B56E
:101210008F7D84BD08958091B0008F7703C0809149
:10122000B0008F7D8093B0000895CF93DF9390E05E
:10123000FC01E458FF4F2491FC01E057FF4F8491DB
:10124000882349F190E0880F991FFC01E854FF4F73
:10125000A591B49182559F4FFC01C591D4919FB740
:10126000611108C0F8948C91209582238C93888119
:1012700082230AC0623051F4F8948C91322F309559
:1012800083238C938881822B888304C0F8948C916B
:10129000822B8C939FBFDF91CF9108950F931F9363
:1012A000CF93DF931F92CDB7DEB7282F30E0F9013F
:1012B000E859FF4F8491F901E458FF4F1491F90167
:1012C000E057FF4F04910023C9F0882321F0698380
:1012D0000E94EC086981E02FF0E0EE0FFF1FE2555D
:1012E000FF4FA591B4919FB7F8948C91611103C001
:1012F0001095812301C0812B8C939FBF0F90DF91AC
:10130000CF911F910F910895FC01818D228D90E066
:10131000805C9F4F821B91098F7399270895FC0170
:10132000918D828D981731F0828DE80FF11D858D9A
:1013300090E008958FEF9FEF0895FC01918D828DCD
:10134000981761F0828DDF01A80FB11D5D968C9119
:10135000928D9F5F9F73928F90E008958FEF9FEF24
:10136000089581E29BE0892B49F080E090E0892B91
:1013700029F00E94210B81110C9400000895FC01BA
:10138000848DDF01A80FB11DA35ABF4F2C91848D0E
:1013900090E001968F739927848FA689B7892C9343
:1013A000A089B1898C9180648C93938D848D9813DE
:1013B00006C00288F389E02D80818F7D80830895A7
:1013C000CF93DF93EC01888D8823C9F0EA89FB89EC
:1013D000808185FD05C0A889B9898C9186FD0FC0E3
:1013E0000FB607FCF5CF808185FFF2CFA889B989B8
:1013F0008C9185FFEDCFCE010E94BF09E7CFDF9131
:10140000CF910895CF92DF92FF920F931F93CF93C6
:10141000DF931F92CDB7DEB76C0181E0D6015896FD
:101420008C9358975B969C915B975C968C915C979C
:10143000981307C05096ED91FC915197808185FDDE
:101440002EC0F601038D10E00F5F1F4F0F731127A1
:10145000F02EF601848DF81211C00FB607FCF9CFFB
:10146000D6015096ED91FC915197808185FFF1CF87
:10147000C60169830E94BF096981EBCF838DE80FA4
:10148000F11DE35AFF4F6083D6015B960C935B9787
:101490005296ED91FC915397808180620CC0D601E9
:1014A0005696ED91FC91579760835096ED91FC9183
:1014B000519780818064808381E090E00F90DF917C
:1014C000CF911F910F91FF90DF90CF900895BF9221
:1014D000CF92DF92EF92FF92CF93DF93EC016A01FC
:1014E0007B01B22EE889F98982E08083411581EE83
:1014F000580761057105A1F060E079E08DE390E0A7
:10150000A70196010E94D20D2150310941095109CC
:101510005695479537952795211580E1380798F01E
:10152000E889F989108260E874E88EE190E0A7010B
:1015300096010E94D20D2150310941095109569559
:10154000479537952795EC85FD853083EE85FF859A
:101550002083188EEC89FD89B082EA89FB8980811D
:1015600080618083EA89FB89808188608083EA8941
:10157000FB89808180688083EA89FB8980818F7DF7
:101580008083DF91CF91FF90EF90DF90CF90BF905D
:1015900008951F920F920FB60F9211242F938F93DD
:1015A0009F93EF93FF93E0911C04F0911D048081C1
:1015B000E0912204F091230482FD12C09081809179
:1015C00025048F5F8F7320912604821751F0E091DC
:1015D0002504F0E0E45FFB4F958F8093250401C064
:1015E0008081FF91EF919F918F912F910F900FBE6E
:1015F0000F901F9018951F920F920FB60F92112403
:101600002F933F934F935F936F937F938F939F930A
:10161000AF93BF93EF93FF938CE094E00E94BF09D8
:10162000FF91EF91BF91AF919F918F917F916F91BA
:101630005F914F913F912F910F900FBE0F901F9090
:1016400018958CE094E00E94840921E0892B09F42C
:1016500020E0822F089510920F0410920E0488EE5D
:1016600093E0A0E0B0E08093100490931104A09365
:101670001204B09313048CE093E090930D048093D4
:101680000C0485EC90E0909319048093180484EC8A
:1016900090E090931B0480931A0480EC90E0909368
:1016A0001D0480931C0481EC90E090931F048093B0
:1016B0001E0482EC90E0909321048093200486EC39
:1016C00090E09093230480932204109225041092BA
:1016D00026041092270410922804089508950E9469
:1016E000B1080E946E0B0E94CA04C1EBD9E00E94AF
:1016F000E8042097E1F30E94B109F9CFCF92DF927D
:10170000EF92FF920F931F93CF93DF936C017A01B7
:10171000EB01E60EF71E00E010E0CE15DF0561F0EC
:101720006991D601ED91FC910190F081E02DC60107
:101730000995080F191FF1CFC801DF91CF911F91B3
:101740000F91FF90EF90DF90CF9008956115710594
:1017500081F0DB010D900020E9F7AD014150510906
:10176000461B570BDC01ED91FC910280F381E02DCB
:10177000099480E090E00895DC01ED91FC91DB019B
:1017800014964D915C9115976D917C910280F38137
:10179000E02D09940C94A60BDC01ED91FC910190D5
:1017A000F081E02D099468E173E00C94A60B0F938F
:1017B0001F93CF93DF93EC010E94A60B8C01CE0107
:1017C0000E94D30B800F911FDF91CF911F910F913A
:1017D0000895FC01808191810C94C50ECF93DF9315
:1017E000EC0188819981009711F00E94C50E198241
:1017F00018821D821C821B821A82DF91CF9108956C
:101800000F931F93CF93DF93EC018B016F5F7F4F9B
:10181000888199810E94540F009731F099838883C1
:101820001B830A8381E001C080E0DF91CF911F918B
:101830000F910895CF93DF93EC0188819981892BD3
:1018400029F08A819B818617970760F4CE010E9458
:10185000000C882341F08C819D81892B19F4E8814B
:10186000F981108281E0DF91CF910895EF92FF928C
:101870000F931F93CF93DF93EC017B018A01BA0191
:101880000E941A0C811104C0CE010E94EE0B07C009
:101890001D830C83B701888199810E946710CE0156
:1018A000DF91CF911F910F91FF90EF900895FC0170
:1018B00011821082138212821582148261157105C1
:1018C00059F0FB0101900020E9F7AF0141505109A7
:1018D000461B570B0C94360C0895CF93DF93EC0105
:1018E000FB018617970761F06081718161157105B1
:1018F00029F0448155810E94360C02C00E94EE0BF3
:10190000CE01DF91CF910895FC01118210821382E4
:101910001282158214820C946D0CCF93DF93EC012C
:101920006115710561F0FB0101900020E9F7AF013D
:1019300041505109461B570B0E94360C02C00E94B1
:10194000EE0BCE01DF91CF9108950F931F93CF93AC
:10195000DF93CDB7DEB762970FB6F894DEBF0FBE48
:10196000CDBF8C01CB01F80111821082138212824B
:101970001582148250E0BE016F5F7F4F0E94BE103F
:10198000BE016F5F7F4FC8010E948D0C62960FB63B
:10199000F894DEBF0FBECDBFDF91CF911F910F91A5
:1019A0000895EF92FF920F931F93CF93DF93EC0173
:1019B0007B010C811D816115710511F480E016C059
:1019C0004115510591F0040F151FB8010E941A0C22
:1019D0008823A1F3288139818C819D81B701820FF1
:1019E000931F0E9467101D830C8381E0DF91CF91CC
:1019F0001F910F91FF90EF900895FB014481558155
:101A0000608171810C94D10CCF93DF9300D0CDB75E
:101A1000DEB769831A8241E050E0BE016F5F7F4FFD
:101A20000E94D10C0F900F90DF91CF910895EF920B
:101A3000FF920F931F93CF93DF93CDB7DEB7289715
:101A40000FB6F894DEBF0FBECDBF7C01CB014AE0DC
:101A500050E08E010F5F1F4FB8010E94BE10F801C9
:101A600001900020E9F7AF0141505109401B510B93
:101A7000B801C7010E94D10C28960FB6F894DEBFBA
:101A80000FBECDBFDF91CF911F910F91FF90EF90CF
:101A90000895FC0124813581232B31F421E0611567
:101AA0007105A1F0FB0108C0FC01808191816115E5
:101AB000710531F421E0FC018081882339F005C0F3
:101AC0000E945E1021E0892B09F020E0822F08950A
:101AD0000F931F93CF93DF93EB0141155105E9F06D
:101AE0002097D9F0FC016481758126173707A0F48F
:101AF000621B730B8A01015011096017710708F40A
:101B00008B01FC0160817181620F731FA801CE01FE
:101B10000E946E10C00FD11F1882DF91CF911F91CC
:101B20000F910895CF93DF93FC018481958148172D
:101B3000590778F4C081D181FB0160817181CE01A8
:101B4000840F951F0E947D10009719F08C1B9D0B30
:101B500002C08FEF9FEFDF91CF91089540E050E0FA
:101B60000C94920DFC0180819181009711F00C94EE
:101B70001E1060E070E0CB010895089597FB072EDA
:101B800016F4009407D077FD09D00E94130E07FCCD
:101B900005D03EF4909581959F4F0895709561957D
:101BA0007F4F0895A1E21A2EAA1BBB1BFD010DC099
:101BB000AA1FBB1FEE1FFF1FA217B307E407F507FD
:101BC00020F0A21BB30BE40BF50B661F771F881FD9
:101BD000991F1A9469F760957095809590959B016F
:101BE000AC01BD01CF010895052E97FB1EF40094B2
:101BF0000E940B0E57FD07D00E94D20D07FC03D0A8
:101C00004EF40C940B0E50954095309521953F4F16
:101C10004F4F5F4F089590958095709561957F4FD8
:101C20008F4F9F4F0895AA1BBB1B51E107C0AA1FEE
:101C3000BB1FA617B70710F0A61BB70B881F991F6D
:101C40005A95A9F780959095BC01CD010895EE0FA6
:101C5000FF1F0590F491E02D0994CF93DF9382301C
:101C6000910510F482E090E0E091AB04F091AC04B7
:101C700020E030E0A0E0B0E0309739F140815181C0
:101C800048175907B8F04817590771F482819381B2
:101C9000109729F013969C938E9312972CC09093D3
:101CA000AC048093AB0427C02115310531F04217F5
:101CB000530718F0A901DB0101C0EF019A01BD0132
:101CC000DF010280F381E02DD7CF21153105F9F036
:101CD000281B390B2430310580F48A819B816115E2
:101CE000710521F0FB019383828304C09093AC04BF
:101CF0008093AB04FE01329644C0FE01E20FF31F55
:101D00008193919322503109398328833AC02091DD
:101D1000A9043091AA04232B41F4209102013091AF
:101D200003013093AA042093A9042091000130916B
:101D300001012115310541F42DB73EB74091040151
:101D400050910501241B350BE091A904F091AA04E0
:101D5000E217F307A0F42E1B3F0B2817390778F082
:101D6000AC014E5F5F4F2417350748F04E0F5F1FE1
:101D70005093AA044093A9048193919302C0E0E098
:101D8000F0E0CF01DF91CF910895CF93DF930097DB
:101D900009F487C0FC01329713821282C091AB0410
:101DA000D091AC04209781F420813181280F391F14
:101DB0008091A9049091AA048217930779F5F09372
:101DC000AA04E093A9046DC0DE0120E030E0AE1764
:101DD000BF0750F412964D915C9113979D014115E8
:101DE000510509F1DA01F3CFB383A2834081518118
:101DF000840F951F8A179B0771F48D919C91119701
:101E0000840F951F02969183808312968D919C91E9
:101E10001397938382832115310529F4F093AC0441
:101E2000E093AB043EC0D9011396FC93EE93129756
:101E30004D915D91A40FB51FEA17FB0779F48081DE
:101E40009181840F951F0296D90111969C938E93D0
:101E50008281938113969C938E931297E0E0F0E039
:101E60008A819B81009719F0FE01EC01F9CFCE0128
:101E7000029628813981820F931F2091A904309105
:101E8000AA042817390769F4309729F41092AC0492
:101E90001092AB0402C013821282D093AA04C093A2
:101EA000A904DF91CF910895A0E0B0E0EAE5FFE05A
:101EB0000C941711EC01CB01209719F40E942D0E00
:101EC000B8C0FE01E60FF71F9E0122503109E2174C
:101ED000F30708F4ACC0D9010D911C9111970617B6
:101EE0001707B8F00530110508F49FC0A801445049
:101EF00051094617570708F498C002501109061BEC
:101F0000170B019311936D937C93CF010E94C50E23
:101F10008CC05B01A01AB10A4E01800E911EA091E7
:101F2000AB04B091AC04612C712C60E070E01097B0
:101F300009F449C0A815B905C9F5ED90FC901197B1
:101F4000670142E0C40ED11CCA14DB0478F14701DA
:101F50008A189B08640142E0C40ED11C1296BC9002
:101F600012971396AC91B5E0CB16D10440F0B28233
:101F7000A38391828082D9018D939C9309C00E5FC7
:101F80001F4F0E0D1F1DF90111830083EB2DFA2F3A
:101F90006115710531F0DB011396FC93EE931297F6
:101FA00044C0F093AC04E093AB043FC06D917C91CE
:101FB00011976616770608F43B01BD0112960D9045
:101FC000BC91A02DB4CF6091A9047091AA046815AA
:101FD0007905E9F468167906D0F440910001509132
:101FE00001014115510541F44DB75EB760910401FF
:101FF00070910501461B570BE417F507C0F4F093E9
:10200000AA04E093A904F901918380830EC00E9481
:102010002D0E7C01009759F0A801BE010E944A10C4
:10202000CE010E94C50EC70104C0CE0102C080E0EF
:1020300090E0CDB7DEB7EEE00C9433111F93FC01B6
:1020400099278827BC01E89411911032E9F31930DF
:1020500010F01E30C8F31B3251F01D3249F4689461
:1020600006C00E94D410610F711D811D911D119138
:1020700010531A30B0F33EF49095809570956195A9
:102080007F4F8F4F9F4F1F9108954AE253E00E9468
:1020900097100895FB01DC0102C001900D924150A0
:1020A0005040D8F70895FC018191861721F08823CC
:1020B000D9F7992708953197CF010895FB01DC01E5
:1020C0008D91019080190110D9F3990B0895FB01AE
:1020D000DC0101900D920020E1F70895FB01DC0185
:1020E0004150504048F001900D920020C9F701C0C6
:1020F0001D9241505040E0F70895FB015191552346
:10210000A9F0BF01DC014D9145174111E1F759F4E8
:10211000CD010190002049F04D9140154111C9F3C6
:10212000FB014111EFCF81E090E001970895FA01A2
:10213000A191B081009719F41097E1F0CD01DC0175
:10214000CD010D90002011F4C00113C0FB012191BD
:10215000222319F02015D9F7F3CFFB012191201587
:1021600019F41E92119606C02223C1F70D9000208B
:10217000A1F7D001FA01A193B0830895453251052A
:1021800020F4423010F00C94C910FB011082CB01F6
:102190000895BB274A3031F4992322F4BDE290958B
:1021A00081959F4F0C94EA10592F482F372F262FD7
:1021B000660F771F881F991F660F771F881F991F4B
:1021C000620F731F841F951F660F771F881F991F4B
:1021D0000895BB27FB015527AA27880F991FAA1F1F
:1021E000A41710F0A41B83955051B9F7A05DAA3332
:1021F00008F0A95DA193009779F7B111B1931192FD
:10220000CB010C940311DC01FC01672F7191772342
:10221000E1F7329704C07C916D9370836291AE17A1
:10222000BF07C8F308952F923F924F925F926F922B
:102230007F928F929F92AF92BF92CF92DF92EF9256
:10224000FF920F931F93CF93DF93CDB7DEB7CA1BD7
:10225000DB0B0FB6F894DEBF0FBECDBF09942A8802
:10226000398848885F846E847D848C849B84AA84AA
:10227000B984C884DF80EE80FD800C811B81AA8137
:10228000B981CE0FD11D0FB6F894DEBF0FBECDBF02
:10229000ED01089510E0C6ECD0E004C0FE010E94FC
:0E22A000290E2296C83CD107C9F7F894FFCF4B
:1022AE000000AD04800088132C0041542B48545478
:1022BE0050504152413D2255524C222C22003F009B
:1022CE003F707269766174655F6B65793D002600BB
:1022DE00696E7465726E657400687474703A2F2F2F
:1022EE00646174612E737061726B66756E2E636FAE
:1022FE006D2F696E7075742F004E4A3635524172CD
:10230E004762525564334138444E786162003564F9
:10231E005265447259396D44684A59307042506161
:10232E00376700427065354C324E5A394C55616BE9
:10233E004C526541344F570064617465006C617492
:10234E006974756465006C6F6E6769747564650099
:10235E00616C74697475646500737065656400639F
:10236E006F757273650053656E642055524C3A203A
:10237E00004D616B6520474554205265717565733C
:10238E00743A200041542B48545450414354494F01
:10239E004E3D300041542B48545450524541440058
:1023AE0041542B43474E535552433D0041542B4904
:1023BE0050523D393630300041542B43474E535026
:1023CE0057523D310041542B43474E535345513DD7
:1023DE00524D4300415445300041542B434D474626
:1023EE003D310041542B43474154543D310041543B
:1023FE002B53415042523D332C312C22434F4E54DD
:10240E00595045222C2247505253220041542B53EF
:10241E00415042523D332C312C2241504E222C221F
:10242E000041542B53415042523D312C3100415406
:10243E002B48545450494E49540041542B4854543F
:10244E0050504152413D22434944222C31004154C7
:10245E002B485454505445524D0041542B53415027
:10246E0042523D302C310050726F75646C79204DA4
:10247E0061646520696E20496E646F6E6573696173
:10248E000055474E53494E463A20312C31004154A7
:10249E002B434D47443D340000000000AD057E0B3C
:1024AE0019068C05FF05310600000000020A7E0B9E
:1024BE0084099D098F09E0090D0A006E616E00699D
:0A24CE006E66006F7666002E0000B7
:00000001FF
