:100000000C9496000C94BE000C94BE000C94B207A5
:100010000C94B2070C94B2070C94BE000C94BE0072
:100020000C94BE000C94BE000C94BE000C94BE0058
:100030000C94BE000C94BE000C94BE000C94BE0048
:100040000C9443090C94BE000C94FC0B0C942E0CE5
:100050000C94BE000C94BE000C94BE000C94BE0028
:100060000C94BE000C94BE003F707269766174659A
:100070005F6B65793D0041542B48545450504152B8
:10008000413D2255524C222C22004D616B65204788
:10009000455420526571756573743A200053656E3E
:1000A000642055524C3A200044544435393430359C
:1000B000330050726F75646C79204D6164652069FE
:1000C0006E20496E646F6E65736961000000000800
:1000D000000201000003040700000000000000000F
:1000E00001020408102040800102040810200102CF
:1000F000040810200404040404040404020202029C
:100100000202030303030303000000002300260090
:10011000290000000000250028002B00000000003E
:10012000240027002A00CA025E0C290311241FBEE6
:10013000CFEFD8E0DEBFCDBF13E0A0E0B1E0ECEC44
:10014000F5E202C005900D92A033B107D9F724E083
:10015000A0E3B3E001C01D92A43BB207E1F711E0B8
:10016000CAE2D1E004C02297FE010E94B80FC63255
:10017000D107C9F70E94A20C0C94D9120C9400006C
:10018000CF92DF92EF92FF920F931F93CF93DF9363
:10019000CDB7DEB7C65AD1090FB6F894DEBF0FBE91
:1001A000CDBF8E010F5F1F4F24E6F80111922A95F3
:1001B000E9F720E030E044E650E0B8010E94F70E95
:1001C00066E071E0C8010E94D4117E01F5E6EF0EF1
:1001D000F11C67018CE3C80ED11C870166E071E059
:1001E00080E090E00E94D411F701819391937F0108
:1001F000EC15FD0599F7F801E280F38061E370E00A
:10020000C7010E94E211892B09F40CC1B701CE018C
:100210008F559F4F0E94D30DBE016F557F4F81E4D4
:1002200093E00E94E90DCE018F559F4F0E94650D0E
:10023000F80164817581CE018F559F4F0E94D30DC7
:10024000BE016F557F4F87E493E00E94E90DCE0118
:100250008F559F4F0E94650DF80166817781CE0111
:100260008F559F4F0E94D30DBE016F557F4F8DE478
:1002700093E00E94E90DCE018F559F4F0E94650DBE
:10028000F80160857185CE018F559F4F0E94D30D77
:10029000BE016F557F4F83E593E00E94E90DCE01CB
:1002A0008F559F4F0E94650DF80162857385CE01C1
:1002B0008F559F4F0E94D30DBE016F557F4F89E52B
:1002C00093E00E94E90DCE018F559F4F0E94650D6E
:1002D000F80164857585CE018F559F4F0E94D30D1F
:1002E000BE016F557F4F8FE593E00E94E90DCE016F
:1002F0008F559F4F0E94650D83E194E00E942B0D66
:1003000068E071E0CE018F559F4F0E94D30D61E4EC
:1003100073E0CE018F559F4F0E94C50EBC0183E153
:1003200094E00E94410DCE018F559F4F0E94650DB4
:1003300060E171E0CE018F559F4F0E94D30D67E4BD
:1003400073E0CE018F559F4F0E94C50EBC0183E123
:1003500094E00E94410DCE018F559F4F0E94650D84
:100360006CE171E0CE018F559F4F0E94D30D6DE47B
:1003700073E0CE018F559F4F0E94C50EBC0183E1F3
:1003800094E00E94410DCE018F559F4F0E94650D54
:1003900069E271E0CE018F559F4F0E94D30D63E556
:1003A00073E0CE018F559F4F0E94C50EBC0183E1C3
:1003B00094E00E94410DCE018F559F4F0E94650D24
:1003C00065E371E0CE018F559F4F0E94D30D69E523
:1003D00073E0CE018F559F4F0E94C50EBC0183E193
:1003E00094E00E94410DCE018F559F4F0E94650DF4
:1003F0006EE371E0CE018F559F4F0E94D30D6FE5E4
:1004000073E0CE018F559F4F0E94C50EBC0183E162
:1004100094E00E94410DCE018F559F4F0E94650DC3
:1004200081E001C080E0CA55DF4F0FB6F894DEBF0F
:100430000FBECDBFDF91CF911F910F91FF90EF9035
:10044000DF90CF9008950F931F93CF93DF9368E4CD
:1004500071E087EA93E00E94220D66E770E083E195
:1004600094E00E94EF0C6BE973E087EA93E00E944E
:10047000140D6BE973E083E194E00E94140D65E9CB
:1004800073E087EA93E00E94140D65E973E083E16D
:1004900094E00E94140D60E070E08FE893E00E9409
:1004A000D80E882369F06CE571E087EA93E00E943A
:1004B000220D6CE571E083E194E00E94220D18C0EA
:1004C0006EE571E087EA93E00E94220D68E670E035
:1004D00083E194E00E94EF0C6FE873E087EA93E019
:1004E0000E94140D6FE873E083E194E00E94140D04
:1004F000C0E0D0E06CE671E087EA93E00E94220D54
:100500006CE671E083E194E00E94220D8E010B59AC
:100510001C4FB80187EA93E00E94140DB80183E1F3
:1005200094E00E94140D6AE272E087EA93E00E9470
:10053000220D6AE272E083E194E00E94220D8E01B6
:100540000F5B1C4FB80187EA93E00E94140DB801BD
:1005500083E194E00E94140D2696C432D10551F631
:100560006AE571E087EA93E00E94220D6AE571E096
:1005700083E194E00E94220D87EA93E00E942B0D14
:1005800083E194E00E942B0D81E0DF91CF911F91D8
:100590000F910895CF93DF9320E042E063E087EA74
:1005A00093E00E9485086EE671E081EA93E00E9484
:1005B000D30D67E771E08BE993E00E94D30D67E903
:1005C00071E085E993E00E94D30D6CEA71E08FE859
:1005D00093E00E94D30D61EC71E089E893E00E9402
:1005E000D30D66ED71E085E693E00E94D30D6BEDCF
:1005F00071E08BE693E00E94D30D64EE71E081E739
:1006000093E00E94D30D6EEE71E087E793E00E94C5
:10061000D30D67EF71E08DE793E00E94D30D6DEF8E
:1006200071E083E893E00E94D30DC1E4D3E060E27F
:1006300073E0CE010E94D30D269683E0C536D8071D
:10064000B1F760E273E08BE393E0DF91CF910C941C
:10065000D30DCF93DF938BE393E00E94650DC5E646
:10066000D3E02697CE010E94650D83E0C134D80700
:10067000C1F7C9E8D3E02697CE010E94650D83E05B
:10068000C536D807C1F789E893E00E94650D8FE869
:1006900093E00E94650D85E993E00E94650D8BE96A
:1006A00093E00E94650D81EA93E00E94650D87EA60
:1006B00093E0DF91CF910C942C08CF93CAE087EAA6
:1006C00093E00E944C07892B81F087EA93E00E9417
:1006D000BF06682F83E194E00E94240D6AE070E079
:1006E00080E090E00E94BC09EACFC15041F7CF9171
:1006F000089587EA93E00E944C07892B59F087EA16
:1007000093E00E94BF066AE070E080E090E00E9403
:10071000BC09EFCF0895CF93DF936DE970E083E1DB
:1007200094E00E94EF0C0E942302CEE5D1E087EA1C
:1007300093E00E944C07892B41F46AE070E080E06E
:1007400090E00E94BC09219791F70E9479036AE822
:1007500070E083E194E00E94EF0C64E072E087EACD
:1007600093E00E94530DC3E364E670E080E090E004
:100770000E94BC090E945D03C150B1F780913A0309
:10078000882389F064E172E087EA93E00E94530DC8
:10079000C8E064EF71E080E090E00E94BC090E9434
:1007A0005D03C150B1F7DF91CF9108958F929F9271
:1007B000AF92BF92CF92DF92EF92FF920F931F936F
:1007C000CF93DF93EC018B016A0160E273E00E943A
:1007D000D30DF8018081882359F0B80187EA93E0AE
:1007E0000E94530D64E170E080E090E00E94BC093B
:1007F0000E948D094B015C01E12CF12C87EA93E00A
:100800000E944C07892B41F087EA93E00E94BF06C3
:10081000BC01CE010E94930E0E948D0968197909CE
:100820008A099B096C157D058E059F0538F3CE015D
:10083000DF91CF911F910F91FF90EF90DF90CF90BC
:10084000BF90AF909F908F9008950F931F93CF9379
:10085000DF93CDB7DEB7A5970FB6F894DEBF0FBE16
:10086000CDBF8C0160E272E0CE0180960E94D30D74
:1008700044E650E06CE272E0CE0101960E94D6039D
:10088000CE0101960E94650D44E650E068E372E0F7
:10089000CE0101960E94D603CE0101960E94650DFD
:1008A00044E650E065E472E0CE0101960E94D60372
:1008B000CE0101960E94650D4AE0B801CE01019675
:1008C0000E94210EBE016F5F7F4FCE0180960E9475
:1008D000790ECE0101960E94650D20E030E049E1DD
:1008E00050E0BE016F5F7F4FCE0180960E94F70EF1
:1008F00044E650E0BE016F5F7F4FCE014A960E94F2
:10090000D603CE014A960E94650DCE0180960E94C4
:10091000650DA5960FB6F894DEBF0FBECDBFDF9173
:10092000CF911F910F910895CF93DF9300D000D006
:1009300000D0CDB7DEB744E650E064E572E0CE010A
:1009400001960E94D603CE0101960E94650D44E6F1
:1009500050E069E572E0CE0101960E94D603CE0117
:1009600001960E94650D44E650E063E672E0CE0118
:1009700001960E94D603CE0101960E94650D44E6C1
:1009800050E06EE672E0CE0101960E94D603CE01E1
:1009900001960E94650D6CE872E087EA93E00E9480
:1009A000220D61EA73E087EA93E00E94140D6AE584
:1009B00071E087EA93E00E94220D87EA93E00E94AB
:1009C0002B0D26960FB6F894DEBF0FBECDBFDF917C
:1009D000CF9108950F931F93CF93DF9300D000D052
:1009E00000D0CDB7DEB744E650E061EA72E0CE0158
:1009F00001960E94D603CE0101960E94650D0EE578
:100A000011E087EA93E00E944C07892B49F46AE0E1
:100A100070E080E090E00E94BC090150110989F764
:100A200042E350E06EEA72E0CE0101960E94D603E6
:100A3000CE0101960E94650D42E350E06AEB72E040
:100A4000CE0101960E94D603CE0101960E94650D4B
:100A500026960FB6F894DEBF0FBECDBFDF91CF91C3
:100A60001F910F910895CF93DF9300D000D000D055
:100A7000CDB7DEB744E650E06EEC72E0CE010196F1
:100A80000E94D603CE0101960E94650D40E951E017
:100A90006AED72E0CE0101960E94D603CE01019666
:100AA0000E94650D26960FB6F894DEBF0FBECDBF2F
:100AB000DF91CF910895CF93DF9300D000D000D085
:100AC000CDB7DEB726E040E855E260E070E083E1B4
:100AD00094E00E949A0B40E855E260E070E087EAFB
:100AE00093E00E94B50868E873E180E090E00E941E
:100AF000BC0985E090E00E9425040E94940468EE01
:100B000073E080E090E00E94BC090E94330544E657
:100B100050E067EE72E0CE0101960E94D603CE014E
:100B200001960E94650D62EB70E083E194E00E9403
:100B30002F0D0E948D0960933203709333038093CD
:100B400034039093350326960FB6F894DEBF0FBE9C
:100B5000CDBFDF91CF9108950F931F93CF93DF9374
:100B600000D000D000D0CDB7DEB787EA93E00E9476
:100B70004C07892B09F4BDC087EA93E00E94BF06A9
:100B80008A3019F08D3009F0AFC061EF72E0CE010C
:100B900001960E94D30DBE016F5F7F4F8BE393E000
:100BA0000E943D0F8C01CE0101960E94650D01301F
:100BB000110509F087C06BE373E0CE0101960E9436
:100BC000000ECE0101960E94C000182FCE010196A2
:100BD0000E94650D112309F475C089E593E00E9418
:100BE000410F9B0163307105ACF4109238031092F1
:100BF000370310923603809139038F5F8093390356
:100C0000853B20F081E08093390356C0813009F0A4
:100C100059C052C0AB01435051094830510588F4C6
:100C200010923903109237031092360380913803E3
:100C30008F5F809338038D3088F181E08093380393
:100C40003BC0AB014B5051094A30510588F410921A
:100C500039031092380310923603809137038F5F67
:100C6000809337038730D0F081E08093370324C02E
:100C70006551710963317105A0F410923903109226
:100C8000380310923703809136038F5F80933603C9
:100C9000853020F081E0809336030EC0823091F4DD
:100CA0000BC02832310574F01092390310923803CA
:100CB00010923703109236030E94EA040E948B03BD
:100CC0000E94330560E273E0CE0101960E94D30DCD
:100CD000BE016F5F7F4F8BE393E00E94E90DCE0171
:100CE00001960E94650D05C0682F8BE393E00E947A
:100CF000800E0E948D0900913203109133032091E0
:100D0000340330913503601B710B820B930B6036FB
:100D10007A4E8105910540F185E090E00E9425041E
:100D20000E9494040E94330544E650E067EE72E0AE
:100D3000CE0101960E94D603CE0101960E94650D58
:100D400083E194E00E942B0D68EA70E083E194E077
:100D50000E942F0D0E948D0960933203709333031C
:100D6000809334039093350326960FB6F894DEBF34
:100D70000FBECDBFDF91CF911F910F9108952091AC
:100D800008043091090428173907B9F49091C60373
:100D90008091C703981789F0E091C603F0E0E8530B
:100DA000FC4F80812091C60330E02F5F3F4F2F73AF
:100DB00033272093C60390E008958FEF9FEF0895A7
:100DC0001F93CF93DF93DC015C968D919C915D978F
:100DD000009749F481E090E013969C938E931297CC
:100DE00080E090E03BC05196ED91FC915297509677
:100DF0002C915097322F30951FB75E964C915E978D
:100E000041FB772770F941FD6095F8944081772385
:100E100011F0422B01C043234083EC012197F1F7ED
:100E200048E0508160FF02C0522B01C05323508321
:100E3000EC012197F1F76695415099F7808177236E
:100E400011F0832301C0822B80831FBF5C968D919C
:100E50009C915D970197F1F781E090E0DF91CF9150
:100E60001F9108952091080430910904281739072B
:100E700081F49091C6038091C703981751F0E091D7
:100E8000C603F0E0E853FC4F8081992787FD9095D9
:100E900008958FEF9FEF0895209108043091090481
:100EA0002817390771F48091C7032091C60390E099
:100EB000805C9F4F821B910960E470E00E944D0F9F
:100EC000089580E090E0089520910804309109048D
:100ED0002817390739F48FB7F8941092C703109286
:100EE000C6038FBF0895E0910804F0910904E81744
:100EF000F90769F4A389B4899C9185898095892330
:100F00008C93109209041092080481E0089580E007
:100F10000895CF93DF93EC018A8D9B8D892BF1F09F
:100F200080910804909109048C179D07B9F00097EF
:100F300011F00E9473078E8D8E7F8E8F1092C703E3
:100F40001092C603D0930904C0930804EB89FC896E
:100F500080819D89892B808381E001C080E0DF91C1
:100F6000CF9108951F920F920FB60F9211242F93D5
:100F70003F934F935F936F937F938F939F93AF9321
:100F8000BF93EF93FF93E0910804F0910904309729
:100F900009F451C0868DA685B785958581FF04C06B
:100FA0008C91892329F447C08C91892309F043C08F
:100FB000A389B4899C918589809589238C9386899E
:100FC00097890197F1F7208D318DA685B7857585B5
:100FD00058E040E0C9010197F1F7842F90E0959522
:100FE0008795482F6C91672309F04068515091F71D
:100FF000868D81FD40958091C70390E001968F73A7
:1010000099272091C603281749F0A091C703B0E0A3
:10101000A853BC4F4C938093C70303C0868D816057
:10102000868F828D938D0197F1F7A389B4898C9176
:101030009589892B8C93FF91EF91BF91AF919F91EF
:101040008F917F916F915F914F913F912F910F9071
:101050000FBE0F901F90189522E033E0FC01318302
:1010600020830C9473071F93CF93DF93EC01162F0B
:101070006E8D6695617081E06827812F0E94810ADC
:1010800061E0812F0E94480A812F90E0FC01E0522C
:10109000FF4FE491E88BFC01EC50FF4FE491F0E04E
:1010A000EE0FFF1FEE5EFE4F859194919A8B898B18
:1010B000DF91CF911F9108951F93CF93DF93EC01A0
:1010C000162F60E0812F0E94480A8E8D81FD04C09A
:1010D00061E0812F0E94810A1C87812F90E0FC0132
:1010E000E052FF4FE491ED87FC01EC50FF4FE4919B
:1010F000F0E0EE0FFF1FE85FFE4F859194919F8710
:101100008E87DF91CF911F910895FF920F931F93C8
:10111000CF93DF93EC01F62E522F1B821A8208EE3A
:1011200013E020E030E00C831D832E833F8382E0B8
:1011300093E0998388831F8A1E8A198E188E1B8ECE
:101140001A8E1D8E1C8E8E8D8E7F50FB81F98E8F98
:10115000642FCE010E9433086F2DCE01DF91CF9115
:101160001F910F91FF900C945C08CF93DF93EC01DB
:101170009A01AB011B8E1A8E198E188E1F8A1E8A39
:1011800060E079E08DE390E00E94830FC901243094
:10119000310520F0B9016350710902C061E070E0CF
:1011A0007D8F6C8FEC85E63108F068C0B9017695CB
:1011B00067956431710518F06351710902C061E0EF
:1011C00070E07F8B6E8B069718F0C901059702C0FF
:1011D00081E090E0998F888FC901880F991F820F55
:1011E000931F96958795969587958D30910510F06C
:1011F0000C9702C081E090E09B8F8A8F209168005D
:10120000E83050F091E0EE3008F490E081E001C069
:10121000880F9A95EAF701C084E0822B80936800DA
:101220002C85283038F02E3040F0263148F48CE6FA
:1012300090E008C08DE690E005C08BE690E002C02B
:1012400080E090E09C8B8B8B283030F481E001C0F3
:10125000880F2A95EAF70DC0822F90E02E3010F407
:10126000089701C00E9791E001C0990F8A95EAF79F
:10127000892F8D8B8C8D9D8D0197F1F7CE01DF919C
:10128000CF910C9489071F920F920FB60F921124E1
:101290002F933F938F939F93AF93BF9380910B04B2
:1012A00090910C04A0910D04B0910E0430910A04A9
:1012B00023E0230F2D3720F40196A11DB11D05C099
:1012C00026E8230F0296A11DB11D20930A048093E6
:1012D0000B0490930C04A0930D04B0930E04809122
:1012E0000F0490911004A0911104B0911204019682
:1012F000A11DB11D80930F0490931004A0931104BD
:10130000B0931204BF91AF919F918F913F912F9114
:101310000F900FBE0F901F9018952FB7F894609103
:101320000B0470910C0480910D0490910E042FBF5A
:1013300008953FB7F89480910F0490911004A09104
:101340001104B091120426B5A89B05C02F3F19F0D7
:101350000196A11DB11D3FBF6627782F892F9A2FB7
:10136000620F711D811D911D42E0660F771F881F5E
:10137000991F4A95D1F70895CF92DF92EF92FF928D
:10138000CF93DF936B017C010E949909EB01C1149B
:10139000D104E104F10489F00E944C0F0E949909E4
:1013A0006C1B7D0B683E734090F381E0C81AD10836
:1013B000E108F108C851DC4FEACFDF91CF91FF90EF
:1013C000EF90DF90CF900895789484B5826084BDCB
:1013D00084B5816084BD85B5826085BD85B5816039
:1013E00085BDEEE6F0E0808181608083E1E8F0E099
:1013F0001082808182608083808181608083E0E8C8
:10140000F0E0808181608083E1EBF0E080818460A6
:101410008083E0EBF0E0808181608083EAE7F0E0A8
:10142000808184608083808182608083808181600C
:1014300080838081806880831092C100089583300A
:1014400081F028F4813099F08230A1F0089587303E
:10145000A9F08830B9F08430D1F4809180008F7D7C
:1014600003C0809180008F7780938000089584B5B9
:101470008F7702C084B58F7D84BD08958091B000C0
:101480008F7703C08091B0008F7D8093B000089566
:10149000CF93DF9390E0FC01E052FF4F2491FC01D9
:1014A000EC50FF4F8491882349F190E0880F991FF9
:1014B000FC01E45EFE4FA591B4918E5E9E4FFC014F
:1014C000C591D4919FB7611108C0F8948C91209573
:1014D00082238C93888182230AC0623051F4F8946D
:1014E0008C91322F309583238C938881822B888333
:1014F00004C0F8948C91822B8C939FBFDF91CF9185
:1015000008950F931F93CF93DF931F92CDB7DEB74C
:10151000282F30E0F901E453FF4F8491F901E052A4
:10152000FF4F1491F901EC50FF4F04910023C9F0D3
:10153000882321F069830E941F0A6981E02FF0E06F
:10154000EE0FFF1FEE5EFE4FA591B4919FB7F8948A
:101550008C91611103C01095812301C0812B8C9364
:101560009FBF0F90DF91CF911F910F910895FC01C4
:10157000818D228D90E0805C9F4F821B91098F733B
:1015800099270895FC01918D828D981731F0828DF5
:10159000E80FF11D858D90E008958FEF9FEF08957E
:1015A000FC01918D828D981761F0828DDF01A80F6B
:1015B000B11D5D968C91928D9F5F9F73928F90E08D
:1015C00008958FEF9FEF089584E59CE0892B49F003
:1015D00080E090E0892B29F00E94540C81110C943A
:1015E00000000895FC01848DDF01A80FB11DA35AEE
:1015F000BF4F2C91848D90E001968F739927848F33
:10160000A689B7892C93A089B1898C9180648C9329
:10161000938D848D981306C00288F389E02D808114
:101620008F7D80830895CF93DF93EC01888D88238D
:10163000C9F0EA89FB89808185FD05C0A889B9893F
:101640008C9186FD0FC00FB607FCF5CF808185FF1A
:10165000F2CFA889B9898C9185FFEDCFCE010E9488
:10166000F20AE7CFDF91CF910895CF92DF92FF92F8
:101670000F931F93CF93DF931F92CDB7DEB76C010B
:1016800081E0D60158968C9358975B969C915B9716
:101690005C968C915C97981307C05096ED91FC91E5
:1016A0005197808185FD2EC0F601038D10E00F5FFC
:1016B0001F4F0F731127F02EF601848DF81211C001
:1016C0000FB607FCF9CFD6015096ED91FC915197DA
:1016D000808185FFF1CFC60169830E94F20A69818A
:1016E000EBCF838DE80FF11DE35AFF4F6083D601E6
:1016F0005B960C935B975296ED91FC91539780818A
:1017000080620CC0D6015696ED91FC91579760838C
:101710005096ED91FC91519780818064808381E0A7
:1017200090E00F90DF91CF911F910F91FF90DF908C
:10173000CF900895BF92CF92DF92EF92FF92CF9316
:10174000DF93EC016A017B01B22EE889F98982E01E
:101750008083411581EE580761057105A1F060E0B5
:1017600079E08DE390E0A70196010E94610F21507E
:101770003109410951095695479537952795211506
:1017800080E1380798F0E889F989108260E874E808
:101790008EE190E0A70196010E94610F215031096E
:1017A000410951095695479537952795EC85FD8553
:1017B0003083EE85FF852083188EEC89FD89B08209
:1017C000EA89FB89808180618083EA89FB89808145
:1017D00088608083EA89FB89808180688083EA89C8
:1017E000FB8980818F7D8083DF91CF91FF90EF9087
:1017F000DF90CF90BF9008951F920F920FB60F9277
:1018000011242F938F939F93EF93FF93E0912304E1
:10181000F09124048081E0912904F0912A0482FD52
:1018200012C0908180912C048F5F8F7320912D04C2
:10183000821751F0E0912C04F0E0ED5EFB4F958FA4
:1018400080932C0401C08081FF91EF919F918F9133
:101850002F910F900FBE0F901F9018951F920F920F
:101860000FB60F9211242F933F934F935F936F9373
:101870007F938F939F93AF93BF93EF93FF9383E1F6
:1018800094E00E94F20AFF91EF91BF91AF919F9176
:101890008F917F916F915F914F913F912F910F9019
:1018A0000FBE0F901F90189583E194E00E94B70A35
:1018B00021E0892B09F420E0822F0895109216046C
:1018C0001092150488EE93E0A0E0B0E08093170436
:1018D00090931804A0931904B0931A0482E193E042
:1018E000909314048093130485EC90E0909320046B
:1018F00080931F0484EC90E0909322048093210451
:1019000080EC90E0909324048093230481EC90E099
:10191000909326048093250482EC90E09093280411
:101920008093270486EC90E090932A048093290406
:1019300010922C0410922D0410922E0410922F0459
:10194000089508950E94E4090E94A10C0E945B057D
:10195000C4EEDAE00E94AC052097E1F30E94E40AAD
:10196000F9CFCF92DF92EF92FF920F931F93CF9315
:10197000DF936C017A01EB01E60EF71E00E010E048
:10198000CE15DF0561F06991D601ED91FC910190D2
:10199000F081E02DC6010995080F191FF1CFC8018C
:1019A000DF91CF911F910F91FF90EF90DF90CF903B
:1019B00008956115710581F0DB010D900020E9F7B4
:1019C000AD0141505109461B570BDC01ED91FC91D3
:1019D0000280F381E02D099480E090E00895EF9279
:1019E000FF920F931F93CF93DF938C01FB01C0E015
:1019F000D0E064917F018FEFE81AF80A662361F066
:101A0000D801ED91FC910190F081E02DC80109957C
:101A1000C80FD91FF701EDCFCE01DF91CF911F91F4
:101A20000F91FF90EF900895DC01ED91FC91DB01A7
:101A300014964D915C9115976D917C910280F38184
:101A4000E02D09940C94D90CDC01ED91FC910190EE
:101A5000F081E02D09946EE173E00C94D90C0F93A2
:101A60001F93CF93DF93EC010E94EF0C8C01CE010A
:101A70000E942B0D800F911FDF91CF911F910F912D
:101A800008950F931F93CF93DF93EC010E94140DE1
:101A90008C01CE010E942B0D800F911FDF91CF9101
:101AA0001F910F9108950F931F93CF93DF93EC0134
:101AB0000E94D90C8C01CE010E942B0D800F911F2A
:101AC000DF91CF911F910F910895FC018081918149
:101AD0000C945410CF93DF93EC0188819981009787
:101AE00011F00E945410198218821D821C821B82E0
:101AF0001A82DF91CF9108950F931F93CF93DF93B5
:101B0000EC018B016F5F7F4F888199810E94E31008
:101B1000009731F0998388831B830A8381E001C099
:101B200080E0DF91CF911F910F910895CF93DF93C4
:101B3000EC0188819981892B29F08A819B81861704
:101B4000970760F4CE010E947C0D882341F08C81C0
:101B50009D81892B19F4E881F981108281E0DF9160
:101B6000CF910895EF92FF920F931F93CF93DF933E
:101B7000EC017B018A01BA010E94960D811104C01B
:101B8000CE010E946A0D07C01D830C83B7018881B6
:101B900099810E94F611CE01DF91CF911F910F9193
:101BA000FF90EF900895FC0111821082138212823F
:101BB000158214826115710559F0FB010190002016
:101BC000E9F7AF0141505109461B570B0C94B20D78
:101BD0000895CF93DF93EC01FB018617970761F01F
:101BE000608171816115710529F0448155810E94E0
:101BF000B20D02C00E946A0DCE01DF91CF9108950F
:101C0000FC011182108213821282158214820C94BC
:101C1000E90DCF93DF93EC016115710561F0FB01D4
:101C200001900020E9F7AF0141505109461B570BC5
:101C30000E94B20D02C00E946A0DCE01DF91CF91C9
:101C400008950F931F93CF93DF93CDB7DEB76297BD
:101C50000FB6F894DEBF0FBECDBF8C01CB01F801EB
:101C600011821082138212821582148250E0BE010A
:101C70006F5F7F4F0E944D12BE016F5F7F4FC801A3
:101C80000E94090E62960FB6F894DEBF0FBECDBF5C
:101C9000DF91CF911F910F910895EF92FF920F93D3
:101CA0001F93CF93DF93EC017B010C811D816115A4
:101CB000710511F480E016C04115510591F0040F33
:101CC000151FB8010E94960D8823A1F32881398140
:101CD0008C819D81B701820F931F0E94F6111D8395
:101CE0000C8381E0DF91CF911F910F91FF90EF90D6
:101CF0000895FB0144815581608171810C944D0EE2
:101D0000CF93DF9300D0CDB7DEB769831A8241E06D
:101D100050E0BE016F5F7F4F0E944D0E0F900F90FD
:101D2000DF91CF910895EF92FF920F931F93CF937E
:101D3000DF93CDB7DEB728970FB6F894DEBF0FBE9E
:101D4000CDBF7C01CB014AE050E08E010F5F1F4FF9
:101D5000B8010E944D12F80101900020E9F7AF018F
:101D600041505109401B510BB801C7010E944D0E53
:101D700028960FB6F894DEBF0FBECDBFDF91CF918E
:101D80001F910F91FF90EF900895CF93DF93EC0197
:101D9000FB0144815581608171810E944D0E81114A
:101DA00003C0CE010E946A0DCE01DF91CF9108954C
:101DB000FC0124813581232B31F421E0611571056B
:101DC000A1F0FB0108C0FC018081918161157105C2
:101DD00031F421E0FC018081882339F005C00E94A4
:101DE000ED1121E0892B09F020E0822F08950F9357
:101DF0001F93CF93DF93EB0141155105E9F0209735
:101E0000D9F0FC016481758126173707A0F4621BA5
:101E1000730B8A01015011096017710708F48B01D7
:101E2000FC0160817181620F731FA801CE010E94C5
:101E3000FD11C00FD11F1882DF91CF911F910F911B
:101E40000895CF93DF93FC0184819581481759074A
:101E500078F4C081D181FB0160817181CE01840F52
:101E6000951F0E940C12009719F08C1B9D0B02C04D
:101E70008FEF9FEFDF91CF91089540E050E00C94F9
:101E8000210FFC0180819181009711F00C94AD111C
:101E900060E070E0CB010895089597FB072E16F4DB
:101EA000009407D077FD09D00E94A20F07FC05D04F
:101EB0003EF4909581959F4F0895709561957F4F61
:101EC0000895A1E21A2EAA1BBB1BFD010DC0AA1F7B
:101ED000BB1FEE1FFF1FA217B307E407F50720F093
:101EE000A21BB30BE40BF50B661F771F881F991F0E
:101EF0001A9469F760957095809590959B01AC0157
:101F0000BD01CF010895052E97FB1EF400940E9499
:101F10009A0F57FD07D00E94610F07FC03D04EF4C3
:101F20000C949A0F50954095309521953F4F4F4F07
:101F30005F4F089590958095709561957F4F8F4F75
:101F40009F4F0895AA1BBB1B51E107C0AA1FBB1FCF
:101F5000A617B70710F0A61BB70B881F991F5A9535
:101F6000A9F780959095BC01CD010895EE0FFF1F54
:101F70000590F491E02D0994CF93DF938230910581
:101F800010F482E090E0E091B204F091B30420E01C
:101F900030E0A0E0B0E0309739F14081518148173E
:101FA0005907B8F04817590771F482819381109747
:101FB00029F013969C938E9312972CC09093B304A0
:101FC0008093B20427C02115310531F04217530721
:101FD00018F0A901DB0101C0EF019A01BD01DF0189
:101FE0000280F381E02DD7CF21153105F9F0281BB0
:101FF000390B2430310580F48A819B81611571058C
:1020000021F0FB019383828304C09093B3048093F7
:10201000B204FE01329644C0FE01E20FF31F819329
:10202000919322503109398328833AC02091B0041A
:102030003091B104232B41F420910201309103012E
:102040003093B1042093B00420910001309101013C
:102050002115310541F42DB73EB74091040150914F
:102060000501241B350BE091B004F091B104E21797
:10207000F307A0F42E1B3F0B2817390778F0AC01AB
:102080004E5F5F4F2417350748F04E0F5F1F509388
:10209000B1044093B0048193919302C0E0E0F0E07A
:1020A000CF01DF91CF910895CF93DF93009709F48B
:1020B00087C0FC01329713821282C091B204D09182
:1020C000B304209781F420813181280F391F80913A
:1020D000B0049091B1048217930779F5F093B1049D
:1020E000E093B0046DC0DE0120E030E0AE17BF0722
:1020F00050F412964D915C9113979D014115510535
:1021000009F1DA01F3CFB383A28340815181840FB7
:10211000951F8A179B0771F48D919C911197840FDD
:10212000951F02969183808312968D919C911397AF
:10213000938382832115310529F4F093B304E0934E
:10214000B2043EC0D9011396FC93EE9312974D91C1
:102150005D91A40FB51FEA17FB0779F48081918187
:10216000840F951F0296D90111969C938E938281BC
:10217000938113969C938E931297E0E0F0E08A810E
:102180009B81009719F0FE01EC01F9CFCE01029678
:1021900028813981820F931F2091B0043091B104BE
:1021A0002817390769F4309729F41092B304109274
:1021B000B20402C013821282D093B104C093B0045F
:1021C000DF91CF910895A0E0B0E0E9EEF0E10C944A
:1021D000A612EC01CB01209719F40E94BC0FB8C0E5
:1021E000FE01E60FF71F9E0122503109E217F307A7
:1021F00008F4ACC0D9010D911C911197061717076F
:10220000B8F00530110508F49FC0A80144505109E9
:102210004617570708F498C002501109061B170B00
:10222000019311936D937C93CF010E9454108CC045
:102230005B01A01AB10A4E01800E911EA091B2045A
:10224000B091B304612C712C60E070E0109709F438
:1022500049C0A815B905C9F5ED90FC901197670123
:1022600042E0C40ED11CCA14DB0478F147018A187D
:102270009B08640142E0C40ED11C1296BC901297D8
:102280001396AC91B5E0CB16D10440F0B282A38393
:1022900091828082D9018D939C9309C00E5F1F4F5C
:1022A0000E0D1F1DF90111830083EB2DFA2F61150F
:1022B000710531F0DB011396FC93EE93129744C045
:1022C000F093B304E093B2043FC06D917C911197F9
:1022D0006616770608F43B01BD0112960D90BC917D
:1022E000A02DB4CF6091B0047091B1046815790548
:1022F000E9F468167906D0F440910001509101018B
:102300004115510541F44DB75EB7609104017091DC
:102310000501461B570BE417F507C0F4F093B10411
:10232000E093B004F901918380830EC00E94BC0F3A
:102330007C01009759F0A801BE010E94D911CE017D
:102340000E945410C70104C0CE0102C080E090E09A
:10235000CDB7DEB7EEE00C94C2121F93FC019927B3
:102360008827BC01E89411911032E9F3193010F07C
:102370001E30C8F31B3251F01D3249F4689406C078
:102380000E946312610F711D811D911D11911053E7
:102390001A30B0F33EF490958095709561957F4F1B
:1023A0008F4F9F4F1F91089540E353E00E942612E4
:1023B0000895FB01DC0102C001900D924150504094
:1023C000D8F70895FC018191861721F08823D9F769
:1023D000992708953197CF010895FB01DC018D9174
:1023E000019080190110D9F3990B0895FB01DC01CC
:1023F00001900D920020E1F70895FB01DC014150AE
:10240000504048F001900D920020C9F701C01D9284
:1024100041505040E0F70895FB0151915523A9F038
:10242000BF01DC014D9145174111E1F759F4CD0190
:102430000190002049F04D9140154111C9F3FB0175
:102440004111EFCF81E090E001970895FA01A19149
:10245000B081009719F41097E1F0CD01DC01CD01B6
:102460000D90002011F4C00113C0FB012191222323
:1024700019F02015D9F7F3CFFB012191201519F49C
:102480001E92119606C02223C1F70D900020A1F7DD
:10249000D001FA01A193B08308954532510520F48B
:1024A000423010F00C945812FB011082CB010895B9
:1024B000BB274A3031F4992322F4BDE290958195EF
:1024C0009F4F0C947912592F482F372F262F660FC4
:1024D000771F881F991F660F771F881F991F620F2C
:1024E000731F841F951F660F771F881F991F0895FC
:1024F000BB27FB015527AA27880F991FAA1FA417DE
:1025000010F0A41B83955051B9F7A05DAA3308F0D1
:10251000A95DA193009779F7B111B1931192CB0105
:102520000C949212DC01FC01672F71917723E1F783
:10253000329704C07C916D9370836291AE17BF0790
:10254000C8F308952F923F924F925F926F927F92BD
:102550008F929F92AF92BF92CF92DF92EF92FF92B3
:102560000F931F93CF93DF93CDB7DEB7CA1BDB0B5F
:102570000FB6F894DEBF0FBECDBF09942A88398804
:1025800048885F846E847D848C849B84AA84B9840B
:10259000C884DF80EE80FD800C811B81AA81B98117
:1025A000CE0FD11D0FB6F894DEBF0FBECDBFED012B
:1025B000089511E0CAE2D1E004C0FE010E94B80F04
:0C25C0002296CC32D107C9F7F894FFCF67
:1025CC000000B40480002C0044617465203A2000A3
:1025DC004C61746974756465203A20004C6F6E67A9
:1025EC006974756465203A2000416C746974756473
:1025FC0065203A20005370656564203A2000436FD3
:10260C0075727365203A200041542B485454505035
:10261C004152413D2255524C222C22003F003F702A
:10262C007269766174655F6B65793D002600696E31
:10263C007465726E657400687474703A2F2F6461DF
:10264C0074612E737061726B66756E2E636F6D2F75
:10265C00696E7075742F004E4A363552417247625E
:10266C00525564334138444E78616200356452658A
:10267C00447259396D44684A593070425061376719
:10268C0000427065354C324E5A394C55616B4C5288
:10269C006541344F570064617465006C61746974F2
:1026AC00756465006C6F6E67697475646500616C48
:1026BC0074697475646500737065656400636F7527
:1026CC007273650041542B48545450414354494F44
:1026DC004E3D300041542B48545450524541440017
:1026EC0041542B43474E535552433D0041542B49C3
:1026FC0050523D393630300041542B43474E5350E5
:10270C0057523D310041542B43474E535345513D95
:10271C00524D4300415445300041542B434D4746E4
:10272C003D310041542B43474154543D31004154F9
:10273C002B53415042523D332C312C22434F4E549B
:10274C00595045222C2247505253220041542B53AE
:10275C00415042523D332C312C2241504E222C22DE
:10276C000041542B53415042523D312C31004154C5
:10277C002B48545450494E49540041542B485454FE
:10278C0050504152413D22434944222C3100415486
:10279C002B485454505445524D0041542B534150E6
:1027AC0042523D302C310041542B434D47443D3473
:1027BC000055474E53494E463A20312C310000000B
:1027CC000000E006B10C4C07BF063207640700009E
:1027DC000000350BB10CB70AD00AC20A130B0D0A54
:1027EC00006E616E00696E66006F7666002E0000EA
:00000001FF
