:100000000C9491000C94B9000C94B9000C94B307B3
:100010000C94B3070C94B3070C94B9000C94B9007A
:100020000C94B9000C94B9000C94B9000C94B9006C
:100030000C94B9000C94B9000C94B9000C94B9005C
:100040000C9444090C94B9000C94FD0B0C942F0CE7
:100050000C94B9000C94B9000C94B9000C94B9003C
:100060000C94B9000C94B9003F70726976617465A4
:100070005F6B65793D0041542B48545450504152B8
:10008000413D2255524C222C22004D616B65204788
:10009000455420526571756573743A200053656E3E
:1000A000642055524C3A200050726F75646C792070
:1000B0004D61646520696E20496E646F6E65736979
:1000C00061000000000800020100000304070000B6
:1000D000000000000000010204081020408001021E
:1000E000040810200102040810200404040404047D
:1000F00004040202020202020303030303030000DA
:100100000000230026002900000000002500280030
:100110002B0000000000240027002A00C5025F0C0D
:10012000240311241FBECFEFD8E0DEBFCDBF13E004
:10013000A0E0B1E0EEECF5E202C005900D92AC3328
:10014000B107D9F724E0ACE3B3E001C01D92AC3BAA
:10015000B207E1F711E0C0E2D1E004C02297FE014E
:100160000E94B90FCC31D107C9F70E94A30C0C949F
:10017000DA120C940000CF92DF92EF92FF920F936D
:100180001F93CF93DF93CDB7DEB7C65AD1090FB611
:10019000F894DEBF0FBECDBF8E010F5F1F4F24E668
:1001A000F80111922A95E9F720E030E044E650E0AA
:1001B000B8010E94F80E66E071E0C8010E94D511F6
:1001C0007E01F5E6EF0EF11C67018CE3C80ED11C31
:1001D000870166E071E080E090E00E94D511F701B0
:1001E000819391937F01EC15FD0599F7F801E28069
:1001F000F38061E370E0C7010E94E311892B09F4E9
:100200000CC1B701CE018F559F4F0E94D40DBE0186
:100210006F557F4F89E493E00E94EA0DCE018F5520
:100220009F4F0E94660DF80164817581CE018F5544
:100230009F4F0E94D40DBE016F557F4F8FE493E016
:100240000E94EA0DCE018F559F4F0E94660DF80166
:1002500066817781CE018F559F4F0E94D40DBE01DC
:100260006F557F4F85E593E00E94EA0DCE018F55D3
:100270009F4F0E94660DF80160857185CE018F55F4
:100280009F4F0E94D40DBE016F557F4F8BE593E0C9
:100290000E94EA0DCE018F559F4F0E94660DF80116
:1002A00062857385CE018F559F4F0E94D40DBE018C
:1002B0006F557F4F81E693E00E94EA0DCE018F5586
:1002C0009F4F0E94660DF80164857585CE018F559C
:1002D0009F4F0E94D40DBE016F557F4F87E693E07C
:1002E0000E94EA0DCE018F559F4F0E94660D8BE153
:1002F00094E00E942C0D68E071E0CE018F559F4F75
:100300000E94D40D69E473E0CE018F559F4F0E9487
:10031000C60EBC018BE194E00E94420DCE018F55C8
:100320009F4F0E94660D60E171E0CE018F559F4F97
:100330000E94D40D6FE473E0CE018F559F4F0E9451
:10034000C60EBC018BE194E00E94420DCE018F5598
:100350009F4F0E94660D6CE171E0CE018F559F4F5B
:100360000E94D40D65E573E0CE018F559F4F0E942A
:10037000C60EBC018BE194E00E94420DCE018F5568
:100380009F4F0E94660D69E271E0CE018F559F4F2D
:100390000E94D40D6BE573E0CE018F559F4F0E94F4
:1003A000C60EBC018BE194E00E94420DCE018F5538
:1003B0009F4F0E94660D65E371E0CE018F559F4F00
:1003C0000E94D40D61E673E0CE018F559F4F0E94CD
:1003D000C60EBC018BE194E00E94420DCE018F5508
:1003E0009F4F0E94660D6EE371E0CE018F559F4FC7
:1003F0000E94D40D67E673E0CE018F559F4F0E9497
:10040000C60EBC018BE194E00E94420DCE018F55D7
:100410009F4F0E94660D81E001C080E0CA55DF4F0A
:100420000FB6F894DEBF0FBECDBFDF91CF911F9105
:100430000F91FF90EF90DF90CF9008950F931F934F
:10044000CF93DF9368E471E08FEA93E00E94230D7D
:1004500066E770E08BE194E00E94F00C63EA73E0E1
:100460008FEA93E00E94150D63EA73E08BE194E05C
:100470000E94150D6DE973E08FEA93E00E94150D5F
:100480006DE973E08BE194E00E94150D60E070E08F
:1004900087E993E00E94D90E882369F06CE571E04A
:1004A0008FEA93E00E94230D6CE571E08BE194E00C
:1004B0000E94230D18C06EE571E08FEA93E00E9460
:1004C000230D68E670E08BE194E00E94F00C67E990
:1004D00073E08FEA93E00E94150D67E973E08BE10A
:1004E00094E00E94150DC0E0D0E06CE671E08FEA68
:1004F00093E00E94230D6CE671E08BE194E00E9492
:10050000230D8E0103591C4FB8018FEA93E00E941E
:10051000150DB8018BE194E00E94150D6AE272E0BE
:100520008FEA93E00E94230D6AE272E08BE194E08F
:100530000E94230D8E01075B1C4FB8018FEA93E0E8
:100540000E94150DB8018BE194E00E94150D2696CE
:10055000C432D10551F66AE571E08FEA93E00E945A
:10056000230D6AE571E08BE194E00E94230D8FEA90
:1005700093E00E942C0D8BE194E00E942C0D81E011
:10058000DF91CF911F910F910895CF93DF9320E0DA
:1005900042E063E08FEA93E00E9486086EE671E035
:1005A00089EA93E00E94D40D67E771E083EA93E063
:1005B0000E94D40D67E971E08DE993E00E94D40DAB
:1005C0006CEA71E087E993E00E94D40D61EC71E080
:1005D00081E993E00E94D40D66ED71E08DE693E031
:1005E0000E94D40D6BED71E083E793E00E94D40D7F
:1005F00064EE71E089E793E00E94D40D6EEE71E045
:100600008FE793E00E94D40D67EF71E085E893E0F7
:100610000E94D40D6DEF71E08BE893E00E94D40D41
:10062000C9E4D3E06DE273E0CE010E94D40D2696BA
:1006300083E0CD36D807B1F76DE273E083E493E051
:10064000DF91CF910C94D40DCF93DF9383E493E0AB
:100650000E94660DCDE6D3E02697CE010E94660D7E
:1006600083E0C934D807C1F7C1E9D3E02697CE01AA
:100670000E94660D83E0CD36D807C1F781E993E08B
:100680000E94660D87E993E00E94660D8DE993E074
:100690000E94660D83EA93E00E94660D89EA93E06A
:1006A0000E94660D8FEA93E0DF91CF910C942D08A4
:1006B000CF93CAE08FEA93E00E944D07892B81F027
:1006C0008FEA93E00E94C006682F8BE194E00E94BD
:1006D000250D6AE070E080E090E00E94BD09EACF5D
:1006E000C15041F7CF9108958FEA93E00E944D07E2
:1006F000892B59F08FEA93E00E94C0066AE070E00F
:1007000080E090E00E94BD09EFCF0895CF93DF9382
:100710006DE970E08BE194E00E94F00C0E941E02F3
:10072000CEE5D1E08FEA93E00E944D07892B41F49A
:100730006AE070E080E090E00E94BD09219791F7A7
:100740000E9474036AE870E08BE194E00E94F00C70
:1007500064E072E08FEA93E00E94540DC3E364E624
:1007600070E080E090E00E94BD090E945803C150F3
:10077000B1F780914203882389F064E172E08FEA47
:1007800093E00E94540DC8E064EF71E080E090E0D7
:100790000E94BD090E945803C150B1F7DF91CF916B
:1007A00008958F929F92AF92BF92CF92DF92EF9275
:1007B000FF920F931F93CF93DF93EC018B016A019C
:1007C0006DE273E00E94D40DF8018081882359F016
:1007D000B8018FEA93E00E94540D64E170E080E07C
:1007E00090E00E94BD090E948E094B015C01E12C42
:1007F000F12C8FEA93E00E944D07892B41F08FEA9C
:1008000093E00E94C006BC01CE010E94940E0E949B
:100810008E09681979098A099B096C157D058E0571
:100820009F0538F3CE01DF91CF911F910F91FF907B
:10083000EF90DF90CF90BF90AF909F908F900895F2
:100840000F931F93CF93DF93CDB7DEB7A5970FB666
:10085000F894DEBF0FBECDBF8C0160E272E0CE0126
:1008600080960E94D40D44E650E06CE272E0CE0126
:1008700001960E94D103CE0101960E94660D44E6C6
:1008800050E068E372E0CE0101960E94D103CE01F0
:1008900001960E94660D44E650E065E472E0CE01E8
:1008A00001960E94D103CE0101960E94660D4AE096
:1008B000B801CE0101960E94220EBE016F5F7F4FEC
:1008C000CE0180960E947A0ECE0101960E94660D9E
:1008D00020E030E049E150E0BE016F5F7F4FCE0184
:1008E00080960E94F80E44E650E0BE016F5F7F4F95
:1008F000CE014A960E94D103CE014A960E94660D0F
:10090000CE0180960E94660DA5960FB6F894DEBFC4
:100910000FBECDBFDF91CF911F910F910895CF935F
:10092000DF9300D000D000D0CDB7DEB744E650E072
:1009300064E572E0CE0101960E94D103CE010196DA
:100940000E94660D44E650E069E572E0CE01019632
:100950000E94D103CE0101960E94660D44E650E04C
:1009600063E672E0CE0101960E94D103CE010196AA
:100970000E94660D44E650E06EE672E0CE010196FC
:100980000E94D103CE0101960E94660D6CE872E0D0
:100990008FEA93E00E94230D69EA73E08FEA93E007
:1009A0000E94150D6AE571E08FEA93E00E94230D25
:1009B0008FEA93E00E942C0D26960FB6F894DEBFC6
:1009C0000FBECDBFDF91CF9108950F931F93CF93AB
:1009D000DF9300D000D000D0CDB7DEB744E650E0C2
:1009E00061EA72E0CE0101960E94D103CE01019628
:1009F0000E94660D0EE511E08FEA93E00E944D071C
:100A0000892B49F46AE070E080E090E00E94BD0923
:100A10000150110989F742E350E06EEA72E0CE011D
:100A200001960E94D103CE0101960E94660D42E319
:100A300050E06AEB72E0CE0101960E94D103CE0134
:100A400001960E94660D26960FB6F894DEBF0FBE83
:100A5000CDBFDF91CF911F910F910895CF93DF9379
:100A600000D000D000D0CDB7DEB744E650E06EEC49
:100A700072E0CE0101960E94D103CE0101960E9440
:100A8000660D40E951E06AED72E0CE0101960E94E8
:100A9000D103CE0101960E94660D26960FB6F894FA
:100AA000DEBF0FBECDBFDF91CF910895CF93DF930F
:100AB00000D000D000D0CDB7DEB726E040E855E248
:100AC00060E070E08BE194E00E949B0B40E855E20F
:100AD00060E070E08FEA93E00E94B60868E873E196
:100AE00080E090E00E94BD0985E090E00E94200433
:100AF0000E948F0468EE73E080E090E00E94BD09E0
:100B00000E942E0544E650E067EE72E0CE010196A9
:100B10000E94D103CE0101960E94660D68EA70E042
:100B20008BE194E00E94300D26960FB6F894DEBF5C
:100B30000FBECDBFDF91CF9108950F931F93CF9339
:100B4000DF9300D000D000D0CDB7DEB78FEA93E0BE
:100B50000E944D07892B09F408C18FEA93E00E9497
:100B6000C0068A3019F08D3009F0F2C061EF72E0F2
:100B7000CE0101960E94D40DBE016F5F7F4F83E4CA
:100B800093E00E943E0F8C01CE0101960E94660DFB
:100B90000130110509F084C063E473E0CE010196D1
:100BA0000E94010ECE0101960E94BB00182FCE01BB
:100BB00001960E94660D112309F4B8C081E693E006
:100BC0000E94420F9B0163307105ACF41092400308
:100BD00010923F0310923E03809141038F5F8093F8
:100BE0004103853B20F081E080934103B7C0813011
:100BF00009F09CC0B3C0AB014350510948305105C6
:100C000088F41092410310923F0310923E038091AA
:100C100040038F5F809340038D3088F181E08093A3
:100C200040039CC0AB014B5051094A30510588F438
:100C3000109241031092400310923E0380913F03B3
:100C40008F5F80933F038730D0F081E080933F0334
:100C500085C06551710963317105A8F41092410393
:100C60001092400310923F0380913E038F5F809368
:100C70003E03853020F081E080933E036FC08230D8
:100C800009F054C06BC0283231050CF44FC01092EB
:100C900041031092400310923F0310923E035EC046
:100CA0006EEF72E0CE0101960E94D40DBE016F5F1F
:100CB0007F4F83E493E00E943E0F8C01CE010196AA
:100CC0000E94660D0130110589F526E040E855E2E5
:100CD00060E070E08BE194E00E949B0B40E855E2FD
:100CE00060E070E08FEA93E00E94B60868E873E184
:100CF00080E090E00E94BD0985E090E00E94200421
:100D00000E948F0468EE73E080E090E00E94BD09CD
:100D10000E942E0544E650E067EE72E0CE01019697
:100D20000E94D103CE0101960E94660D6DE273E030
:100D3000CE0101960E94D40DBE016F5F7F4F83E408
:100D400093E00E94EA0DCE0101960E94660D0DC04F
:100D5000682F83E493E00E94810E07C00E94E5049F
:100D60000E9486030E942E05E1CF26960FB6F894C6
:100D7000DEBF0FBECDBFDF91CF911F910F910895C0
:100D8000209110043091110428173907B9F490917B
:100D9000CE038091CF03981789F0E091CE03F0E065
:100DA000E053FC4F80812091CE0330E02F5F3F4F16
:100DB0002F7333272093CE0390E008958FEF9FEF9A
:100DC00008951F93CF93DF93DC015C968D919C91E6
:100DD0005D97009749F481E090E013969C938E9381
:100DE000129780E090E03BC05196ED91FC915297B4
:100DF00050962C915097322F30951FB75E964C919C
:100E00005E9741FB772770F941FD6095F89440812A
:100E1000772311F0422B01C043234083EC0121973B
:100E2000F1F748E0508160FF02C0522B01C053230C
:100E30005083EC012197F1F76695415099F7808135
:100E4000772311F0832301C0822B80831FBF5C9620
:100E50008D919C915D970197F1F781E090E0DF9192
:100E6000CF911F91089520911004309111042817FB
:100E7000390781F49091CE038091CF03981751F0F8
:100E8000E091CE03F0E0E053FC4F8081992787FD8D
:100E9000909508958FEF9FEF089520911004309161
:100EA00011042817390771F48091CF032091CE03E4
:100EB00090E0805C9F4F821B910960E470E00E948B
:100EC0004E0F089580E090E0089520911004309135
:100ED00011042817390739F48FB7F8941092CF030B
:100EE0001092CE038FBF0895E0911004F091110489
:100EF000E817F90769F4A389B4899C9185898095DD
:100F000089238C93109211041092100481E00895AB
:100F100080E00895CF93DF93EC018A8D9B8D892B20
:100F2000F1F080911004909111048C179D07B9F095
:100F3000009711F00E9474078E8D8E7F8E8F109215
:100F4000CF031092CE03D0931104C0931004EB8909
:100F5000FC8980819D89892B808381E001C080E0AC
:100F6000DF91CF9108951F920F920FB60F92112427
:100F70002F933F934F935F936F937F938F939F93A1
:100F8000AF93BF93EF93FF93E0911004F09111049E
:100F9000309709F451C0868DA685B785958581FF68
:100FA00004C08C91892329F447C08C91892309F0CE
:100FB00043C0A389B4899C918589809589238C93AA
:100FC000868997890197F1F7208D318DA685B785A0
:100FD000758558E040E0C9010197F1F7842F90E052
:100FE00095958795482F6C91672309F0406851507B
:100FF00091F7868D81FD40958091CF0390E0019619
:101000008F7399272091CE03281749F0A091CF0321
:10101000B0E0A053BC4F4C938093CF0303C0868DA8
:101020008160868F828D938D0197F1F7A389B489B2
:101030008C919589892B8C93FF91EF91BF91AF9102
:101040009F918F917F916F915F914F913F912F91E0
:101050000F900FBE0F901F9018952FE033E0FC010A
:10106000318320830C9474071F93CF93DF93EC019B
:10107000162F6E8D6695617081E06827812F0E9422
:10108000820A61E0812F0E94490A812F90E0FC01D1
:10109000EA52FF4FE491E88BFC01E651FF4FE491E7
:1010A000F0E0EE0FFF1FE85FFE4F859194919A8B61
:1010B000898BDF91CF911F9108951F93CF93DF9379
:1010C000EC01162F60E0812F0E94490A8E8D81FD70
:1010D00004C061E0812F0E94820A1C87812F90E06A
:1010E000FC01EA52FF4FE491ED87FC01E651FF4F0E
:1010F000E491F0E0EE0FFF1FE250FF4F85919491D5
:101100009F878E87DF91CF911F910895FF920F9354
:101110001F93CF93DF93EC01F62E522F1B821A827E
:1011200008EE13E020E030E00C831D832E833F8324
:101130008FE093E0998388831F8A1E8A198E188E08
:101140001B8E1A8E1D8E1C8E8E8D8E7F50FB81F90C
:101150008E8F642FCE010E9434086F2DCE01DF9157
:10116000CF911F910F91FF900C945D08CF93DF9367
:10117000EC019A01AB011B8E1A8E198E188E1F8AF4
:101180001E8A60E079E08DE390E00E94840FC9013F
:101190002430310520F0B9016350710902C061E0CB
:1011A00070E07D8F6C8FEC85E63108F068C0B90186
:1011B000769567956431710518F06351710902C025
:1011C00061E070E07F8B6E8B069718F0C901059780
:1011D00002C081E090E0998F888FC901880F991F24
:1011E000820F931F96958795969587958D309105DB
:1011F00010F00C9702C081E090E09B8F8A8F2091C5
:101200006800E83050F091E0EE3008F490E081E0C2
:1012100001C0880F9A95EAF701C084E0822B809381
:1012200068002C85283038F02E3040F0263148F404
:101230008CE690E008C08DE690E005C08BE690E07B
:1012400002C080E090E09C8B8B8B283030F481E0F2
:1012500001C0880F2A95EAF70DC0822F90E02E304A
:1012600010F4089701C00E9791E001C0990F8A957C
:10127000EAF7892F8D8B8C8D9D8D0197F1F7CE012B
:10128000DF91CF910C948A071F920F920FB60F92A5
:1012900011242F933F938F939F93AF93BF9380918C
:1012A000130490911404A0911504B0911604309188
:1012B000120423E0230F2D3720F40196A11DB11D48
:1012C00005C026E8230F0296A11DB11D209312042C
:1012D0008093130490931404A0931504B093160400
:1012E0008091170490911804A0911904B0911A04E8
:1012F0000196A11DB11D8093170490931804A0932B
:101300001904B0931A04BF91AF919F918F913F91AF
:101310002F910F900FBE0F901F9018952FB7F89434
:101320006091130470911404809115049091160437
:101330002FBF08953FB7F894809117049091180437
:10134000A0911904B0911A0426B5A89B05C02F3F9F
:1013500019F00196A11DB11D3FBF6627782F892F77
:101360009A2F620F711D811D911D42E0660F771F3C
:10137000881F991F4A95D1F70895CF92DF92EF9277
:10138000FF92CF93DF936B017C010E949A09EB01DE
:10139000C114D104E104F10489F00E944D0F0E94B0
:1013A0009A096C1B7D0B683E734090F381E0C81A6C
:1013B000D108E108F108C851DC4FEACFDF91CF91A5
:1013C000FF90EF90DF90CF900895789484B582607D
:1013D00084BD84B5816084BD85B5826085BD85B5D9
:1013E000816085BDEEE6F0E0808181608083E1E888
:1013F000F0E01082808182608083808181608083C0
:10140000E0E8F0E0808181608083E1EBF0E08081C2
:1014100084608083E0EBF0E0808181608083EAE794
:10142000F0E080818460808380818260808380811D
:10143000816080838081806880831092C1000895DC
:10144000833081F028F4813099F08230A1F0089542
:101450008730A9F08830B9F08430D1F480918000D1
:101460008F7D03C0809180008F77809380000895E6
:1014700084B58F7702C084B58F7D84BD0895809137
:10148000B0008F7703C08091B0008F7D8093B00053
:101490000895CF93DF9390E0FC01EA52FF4F24912F
:1014A000FC01E651FF4F8491882349F190E0880FB9
:1014B000991FFC01EE5EFE4FA591B491885F9E4F8F
:1014C000FC01C591D4919FB7611108C0F8948C912B
:1014D000209582238C93888182230AC0623051F444
:1014E000F8948C91322F309583238C938881822BB2
:1014F000888304C0F8948C91822B8C939FBFDF91DA
:10150000CF9108950F931F93CF93DF931F92CDB781
:10151000DEB7282F30E0F901EE53FF4F8491F90137
:10152000EA52FF4F1491F901E651FF4F0491002355
:10153000C9F0882321F069830E94200A6981E02F85
:10154000F0E0EE0FFF1FE85FFE4FA591B4919FB74B
:10155000F8948C91611103C01095812301C0812BF7
:101560008C939FBF0F90DF91CF911F910F910895A2
:10157000FC01818D228D90E0805C9F4F821B910940
:101580008F7399270895FC01918D828D981731F002
:10159000828DE80FF11D858D90E008958FEF9FEF0C
:1015A0000895FC01918D828D981761F0828DDF0185
:1015B000A80FB11D5D968C91928D9F5F9F73928F46
:1015C00090E008958FEF9FEF089585E59CE0892BCB
:1015D00049F080E090E0892B29F00E94550C8111A0
:1015E0000C9400000895FC01848DDF01A80FB11D4B
:1015F000A35ABF4F2C91848D90E001968F73992749
:10160000848FA689B7892C93A089B1898C91806435
:101610008C93938D848D981306C00288F389E02DF6
:1016200080818F7D80830895CF93DF93EC01888D37
:101630008823C9F0EA89FB89808185FD05C0A889D6
:10164000B9898C9186FD0FC00FB607FCF5CF80815C
:1016500085FFF2CFA889B9898C9185FFEDCFCE01A6
:101660000E94F30AE7CFDF91CF910895CF92DF92E6
:10167000FF920F931F93CF93DF931F92CDB7DEB7E7
:101680006C0181E0D60158968C9358975B969C919B
:101690005B975C968C915C97981307C05096ED9180
:1016A000FC915197808185FD2EC0F601038D10E0DD
:1016B0000F5F1F4F0F731127F02EF601848DF81264
:1016C00011C00FB607FCF9CFD6015096ED91FC91F1
:1016D0005197808185FFF1CFC60169830E94F30A8B
:1016E0006981EBCF838DE80FF11DE35AFF4F6083D3
:1016F000D6015B960C935B975296ED91FC915397B4
:10170000808180620CC0D6015696ED91FC9157976E
:1017100060835096ED91FC91519780818064808325
:1017200081E090E00F90DF91CF911F910F91FF909A
:10173000DF90CF900895BF92CF92DF92EF92FF9209
:10174000CF93DF93EC016A017B01B22EE889F9891E
:1017500082E08083411581EE580761057105A1F093
:1017600060E079E08DE390E0A70196010E94620FAE
:1017700021503109410951095695479537952795CB
:10178000211580E1380798F0E889F989108260E82E
:1017900074E88EE190E0A70196010E94620F21504B
:1017A0003109410951095695479537952795EC859B
:1017B000FD853083EE85FF852083188EEC89FD89B9
:1017C000B082EA89FB89808180618083EA89FB8914
:1017D000808188608083EA89FB898081806880833A
:1017E000EA89FB8980818F7D8083DF91CF91FF9093
:1017F000EF90DF90CF90BF9008951F920F920FB699
:101800000F9211242F938F939F93EF93FF93E09167
:101810002B04F0912C048081E0913104F09132048A
:1018200082FD12C09081809134048F5F8F7320916C
:101830003504821751F0E0913404F0E0E55EFB4F8F
:10184000958F8093340401C08081FF91EF919F9127
:101850008F912F910F900FBE0F901F9018951F9290
:101860000F920FB60F9211242F933F934F935F93D4
:101870006F937F938F939F93AF93BF93EF93FF9358
:101880008BE194E00E94F30AFF91EF91BF91AF9139
:101890009F918F917F916F915F914F913F912F9188
:1018A0000F900FBE0F901F9018958BE194E00E944F
:1018B000B80A21E0892B09F420E0822F08951092C4
:1018C0001E0410921D0488EE93E0A0E0B0E0809327
:1018D0001F0490932004A0932104B09322048FE16D
:1018E00093E090931C0480931B0485EC90E090930C
:1018F00028048093270484EC90E090932A0480933A
:10190000290480EC90E090932C0480932B0481ECCC
:1019100090E090932E0480932D0482EC90E09093BD
:10192000300480932F0486EC90E0909332048093EF
:10193000310410923404109235041092360410923F
:101940003704089508950E94E5090E94A20C0E94A0
:101950005605C5EEDAE00E949D052097E1F30E944E
:10196000E50AF9CFCF92DF92EF92FF920F931F9388
:10197000CF93DF936C017A01EB01E60EF71E00E0D6
:1019800010E0CE15DF0561F06991D601ED91FC9173
:101990000190F081E02DC6010995080F191FF1CFC4
:1019A000C801DF91CF911F910F91FF90EF90DF90D1
:1019B000CF9008956115710581F0DB010D90002035
:1019C000E9F7AD0141505109461B570BDC01ED9180
:1019D000FC910280F381E02D099480E090E008956D
:1019E000EF92FF920F931F93CF93DF938C01FB0134
:1019F000C0E0D0E064917F018FEFE81AF80A662317
:101A000061F0D801ED91FC910190F081E02DC801C9
:101A10000995C80FD91FF701EDCFCE01DF91CF9106
:101A20001F910F91FF90EF900895DC01ED91FC91D3
:101A3000DB0114964D915C9115976D917C9102801C
:101A4000F381E02D09940C94DA0CDC01ED91FC910A
:101A50000190F081E02D09946BE273E00C94DA0CB4
:101A60000F931F93CF93DF93EC010E94F00C8C0136
:101A7000CE010E942C0D800F911FDF91CF911F91FD
:101A80000F9108950F931F93CF93DF93EC010E9462
:101A9000150D8C01CE010E942C0D800F911FDF913E
:101AA000CF911F910F9108950F931F93CF93DF93C1
:101AB000EC010E94DA0C8C01CE010E942C0D800FEB
:101AC000911FDF91CF911F910F910895FC018081AB
:101AD00091810C945510CF93DF93EC01888199810B
:101AE000009711F00E945510198218821D821C82E5
:101AF0001B821A82DF91CF9108950F931F93CF938A
:101B0000DF93EC018B016F5F7F4F888199810E9489
:101B1000E410009731F0998388831B830A8381E066
:101B200001C080E0DF91CF911F910F910895CF9375
:101B3000DF93EC0188819981892B29F08A819B812F
:101B40008617970760F4CE010E947D0D882341F02F
:101B50008C819D81892B19F4E881F981108281E0C3
:101B6000DF91CF910895EF92FF920F931F93CF9340
:101B7000DF93EC017B018A01BA010E94970D81116C
:101B800004C0CE010E946B0D07C01D830C83B701FA
:101B9000888199810E94F711CE01DF91CF911F9129
:101BA0000F91FF90EF900895FC0111821082138233
:101BB0001282158214826115710559F0FB010190A2
:101BC0000020E9F7AF0141505109461B570B0C9417
:101BD000B30D0895CF93DF93EC01FB0186179707B0
:101BE00061F0608171816115710529F04481558131
:101BF0000E94B30D02C00E946B0DCE01DF91CF9108
:101C00000895FC01118210821382128215821482BF
:101C10000C94EA0DCF93DF93EC016115710561F02F
:101C2000FB0101900020E9F7AF0141505109461B2B
:101C3000570B0E94B30D02C00E946B0DCE01DF91C5
:101C4000CF9108950F931F93CF93DF93CDB7DEB756
:101C500062970FB6F894DEBF0FBECDBF8C01CB01EB
:101C6000F80111821082138212821582148250E0D0
:101C7000BE016F5F7F4F0E944E12BE016F5F7F4FAC
:101C8000C8010E940A0E62960FB6F894DEBF0FBE1E
:101C9000CDBFDF91CF911F910F910895EF92FF92E9
:101CA0000F931F93CF93DF93EC017B010C811D8178
:101CB0006115710511F480E016C04115510591F0D0
:101CC000040F151FB8010E94970D8823A1F32881E6
:101CD00039818C819D81B701820F931F0E94F7117A
:101CE0001D830C8381E0DF91CF911F910F91FF90B5
:101CF000EF900895FB0144815581608171810C94BE
:101D00004E0ECF93DF9300D0CDB7DEB769831A8232
:101D100041E050E0BE016F5F7F4F0E944E0E0F907A
:101D20000F90DF91CF910895EF92FF920F931F9341
:101D3000CF93DF93CDB7DEB728970FB6F894DEBF09
:101D40000FBECDBF7C01CB014AE050E08E010F5F9A
:101D50001F4FB8010E944E12F80101900020E9F7D0
:101D6000AF0141505109401B510BB801C7010E94FE
:101D70004E0E28960FB6F894DEBF0FBECDBFDF9192
:101D8000CF911F910F91FF90EF900895CF93DF9324
:101D9000EC01FB0144815581608171810E944E0EEE
:101DA000811103C0CE010E946B0DCE01DF91CF9156
:101DB0000895FC0124813581232B31F421E0611544
:101DC0007105A1F0FB0108C0FC01808191816115C2
:101DD000710531F421E0FC018081882339F005C0D0
:101DE0000E94EE1121E0892B09F020E0822F089556
:101DF0000F931F93CF93DF93EB0141155105E9F04A
:101E00002097D9F0FC016481758126173707A0F46B
:101E1000621B730B8A01015011096017710708F4E6
:101E20008B01FC0160817181620F731FA801CE01DB
:101E30000E94FE11C00FD11F1882DF91CF911F9118
:101E40000F910895CF93DF93FC018481958148170A
:101E5000590778F4C081D181FB0160817181CE0185
:101E6000840F951F0E940D12009719F08C1B9D0B7B
:101E700002C08FEF9FEFDF91CF91089540E050E0D7
:101E80000C94220FFC0180819181009711F00C9439
:101E9000AE1160E070E0CB010895089597FB072E26
:101EA00016F4009407D077FD09D00E94A30F07FC19
:101EB00005D03EF4909581959F4F0895709561955A
:101EC0007F4F0895A1E21A2EAA1BBB1BFD010DC076
:101ED000AA1FBB1FEE1FFF1FA217B307E407F507DA
:101EE00020F0A21BB30BE40BF50B661F771F881FB6
:101EF000991F1A9469F760957095809590959B014C
:101F0000AC01BD01CF010895052E97FB1EF400948E
:101F10000E949B0F57FD07D00E94620F07FC03D061
:101F20004EF40C949B0F50954095309521953F4F62
:101F30004F4F5F4F089590958095709561957F4FB5
:101F40008F4F9F4F0895AA1BBB1B51E107C0AA1FCB
:101F5000BB1FA617B70710F0A61BB70B881F991F4A
:101F60005A95A9F780959095BC01CD010895EE0F83
:101F7000FF1F0590F491E02D0994CF93DF938230F9
:101F8000910510F482E090E0E091BA04F091BB0476
:101F900020E030E0A0E0B0E0309739F1408151819D
:101FA00048175907B8F04817590771F4828193818F
:101FB000109729F013969C938E9312972CC09093B0
:101FC000BB048093BA0427C02115310531F04217B4
:101FD000530718F0A901DB0101C0EF019A01BD010F
:101FE000DF010280F381E02DD7CF21153105F9F013
:101FF000281B390B2430310580F48A819B816115BF
:10200000710521F0FB019383828304C09093BB048C
:102010008093BA04FE01329644C0FE01E20FF31F22
:102020008193919322503109398328833AC02091BA
:10203000B8043091B904232B41F42091020130916E
:1020400003013093B9042093B8042091000130912A
:1020500001012115310541F42DB73EB7409104012E
:1020600050910501241B350BE091B804F091B9049F
:10207000E217F307A0F42E1B3F0B2817390778F05F
:10208000AC014E5F5F4F2417350748F04E0F5F1FBE
:102090005093B9044093B8048193919302C0E0E057
:1020A000F0E0CF01DF91CF910895CF93DF930097B8
:1020B00009F487C0FC01329713821282C091BA04DE
:1020C000D091BB04209781F420813181280F391FE2
:1020D0008091B8049091B9048217930779F5F09331
:1020E000B904E093B8046DC0DE0120E030E0AE1723
:1020F000BF0750F412964D915C9113979D014115C5
:10210000510509F1DA01F3CFB383A28340815181F4
:10211000840F951F8A179B0771F48D919C911197DD
:10212000840F951F02969183808312968D919C91C6
:102130001397938382832115310529F4F093BB040F
:10214000E093BA043EC0D9011396FC93EE93129724
:102150004D915D91A40FB51FEA17FB0779F48081BB
:102160009181840F951F0296D90111969C938E93AD
:102170008281938113969C938E931297E0E0F0E016
:102180008A819B81009719F0FE01EC01F9CFCE0105
:10219000029628813981820F931F2091B8043091D3
:1021A000B9042817390769F4309729F41092BB0451
:1021B0001092BA0402C013821282D093B904C09361
:1021C000B804DF91CF910895A0E0B0E0EAEEF0E12D
:1021D0000C94A712EC01CB01209719F40E94BD0FBB
:1021E000B8C0FE01E60FF71F9E0122503109E21729
:1021F000F30708F4ACC0D9010D911C911197061793
:102200001707B8F00530110508F49FC0A801445025
:1022100051094617570708F498C002501109061BC8
:10222000170B019311936D937C93CF010E9455106E
:102230008CC05B01A01AB10A4E01800E911EA091C4
:10224000BA04B091BB04612C712C60E070E010976F
:1022500009F449C0A815B905C9F5ED90FC9011978E
:10226000670142E0C40ED11CCA14DB0478F14701B7
:102270008A189B08640142E0C40ED11C1296BC90DF
:1022800012971396AC91B5E0CB16D10440F0B28210
:10229000A38391828082D9018D939C9309C00E5FA4
:1022A0001F4F0E0D1F1DF90111830083EB2DFA2F17
:1022B0006115710531F0DB011396FC93EE931297D3
:1022C00044C0F093BB04E093BA043FC06D917C918D
:1022D00011976616770608F43B01BD0112960D9022
:1022E000BC91A02DB4CF6091B8047091B904681569
:1022F0007905E9F468167906D0F44091000150910F
:1023000001014115510541F44DB75EB760910401DB
:1023100070910501461B570BE417F507C0F4F093C5
:10232000B904E093B804F901918380830EC00E9440
:10233000BD0F7C01009759F0A801BE010E94DA117F
:10234000CE010E945510C70104C0CE0102C080E03A
:1023500090E0CDB7DEB7EEE00C94C3121F93FC0102
:1023600099278827BC01E89411911032E9F31930BC
:1023700010F01E30C8F31B3251F01D3249F468943E
:1023800006C00E946412610F711D811D911D119183
:1023900010531A30B0F33EF4909580957095619586
:1023A0007F4F8F4F9F4F1F9108954CE353E00E9442
:1023B00027120895FB01DC0102C001900D924150EB
:1023C0005040D8F70895FC018191861721F08823A9
:1023D000D9F7992708953197CF010895FB01DC01C2
:1023E0008D91019080190110D9F3990B0895FB018B
:1023F000DC0101900D920020E1F70895FB01DC0162
:102400004150504048F001900D920020C9F701C0A2
:102410001D9241505040E0F70895FB015191552322
:10242000A9F0BF01DC014D9145174111E1F759F4C5
:10243000CD010190002049F04D9140154111C9F3A3
:10244000FB014111EFCF81E090E001970895FA017F
:10245000A191B081009719F41097E1F0CD01DC0152
:10246000CD010D90002011F4C00113C0FB0121919A
:10247000222319F02015D9F7F3CFFB012191201564
:1024800019F41E92119606C02223C1F70D90002068
:10249000A1F7D001FA01A193B08308954532510507
:1024A00020F4423010F00C945912FB011082CB0141
:1024B0000895BB274A3031F4992322F4BDE2909568
:1024C00081959F4F0C947A12592F482F372F262F22
:1024D000660F771F881F991F660F771F881F991F28
:1024E000620F731F841F951F660F771F881F991F28
:1024F0000895BB27FB015527AA27880F991FAA1FFC
:10250000A41710F0A41B83955051B9F7A05DAA330E
:1025100008F0A95DA193009779F7B111B1931192D9
:10252000CB010C949312DC01FC01672F719177238E
:10253000E1F7329704C07C916D9370836291AE177E
:10254000BF07C8F308952F923F924F925F926F9208
:102550007F928F929F92AF92BF92CF92DF92EF9233
:10256000FF920F931F93CF93DF93CDB7DEB7CA1BB4
:10257000DB0B0FB6F894DEBF0FBECDBF09942A88DF
:10258000398848885F846E847D848C849B84AA8487
:10259000B984C884DF80EE80FD800C811B81AA8114
:1025A000B981CE0FD11D0FB6F894DEBF0FBECDBFDF
:1025B000ED01089511E0C0E2D1E004C0FE010E94E7
:0E25C000B90F2296C232D107C9F7F894FFCFA7
:1025CE000000BC0480002C0044617465203A200099
:1025DE004C61746974756465203A20004C6F6E67A7
:1025EE006974756465203A2000416C746974756471
:1025FE0065203A20005370656564203A2000436FD1
:10260E0075727365203A200041542B485454505033
:10261E004152413D2255524C222C22003F003F7028
:10262E007269766174655F6B65793D002600696E2F
:10263E007465726E657400687474703A2F2F6461DD
:10264E0074612E737061726B66756E2E636F6D2F73
:10265E00696E7075742F004E4A363552417247625C
:10266E00525564334138444E786162003564526588
:10267E00447259396D44684A593070425061376717
:10268E0000427065354C324E5A394C55616B4C5286
:10269E006541344F570064617465006C61746974F0
:1026AE00756465006C6F6E67697475646500616C46
:1026BE0074697475646500737065656400636F7525
:1026CE007273650041542B48545450414354494F42
:1026DE004E3D300041542B48545450524541440015
:1026EE0041542B43474E535552433D0041542B49C1
:1026FE0050523D393630300041542B43474E5350E3
:10270E0057523D310041542B43474E535345513D93
:10271E00524D4300415445300041542B434D4746E2
:10272E003D310041542B43474154543D31004154F7
:10273E002B53415042523D332C312C22434F4E5499
:10274E00595045222C2247505253220041542B53AC
:10275E00415042523D332C312C2241504E222C22DC
:10276E000041542B53415042523D312C31004154C3
:10277E002B48545450494E49540041542B485454FC
:10278E0050504152413D22434944222C3100415484
:10279E002B485454505445524D0041542B534150E4
:1027AE0042523D302C310041542B434D47443D3471
:1027BE000055474E53494E463A20312C31002B439B
:1027CE0050494E3A2052454144590000000000E164
:1027DE0006B20C4D07C00633076507000000003631
:1027EE000BB20CB80AD10AC30A140B0D0A006E61A3
:0C27FE006E00696E66006F7666002E00AB
:00000001FF
