:100000000C9491000C94B9000C94B9000C946807FE
:100010000C9468070C9468070C94B9000C94B90010
:100020000C94B9000C94B9000C94B9000C94B9006C
:100030000C94B9000C94B9000C94B9000C94B9005C
:100040000C94F9080C94B9000C94B20B0C94E40BCA
:100050000C94B9000C94B9000C94B9000C94B9003C
:100060000C94B9000C94B9003F70726976617465A4
:100070005F6B65793D0041542B48545450504152B8
:10008000413D2255524C222C22004D616B65204788
:10009000455420526571756573743A200053656E3E
:1000A000642055524C3A200050726F75646C792070
:1000B0004D61646520696E20496E646F6E65736979
:1000C00061000000000800020100000304070000B6
:1000D000000000000000010204081020408001021E
:1000E000040810200102040810200404040404047D
:1000F00004040202020202020303030303030000DA
:100100000000230026002900000000002500280030
:100110002B0000000000240027002A00C502140C58
:10012000240311241FBECFEFD8E0DEBFCDBF13E004
:10013000A0E0B1E0E8E3F5E202C005900D92A03343
:10014000B107D9F724E0A0E3B3E001C01D92A03BC2
:10015000B207E1F711E0C0E2D1E004C02297FE014E
:100160000E946E0FCC31D107C9F70E94580C0C9435
:100170008F120C940000CF92DF92EF92FF920F93B8
:100180001F93CF93DF93CDB7DEB7C65AD1090FB611
:10019000F894DEBF0FBECDBF8E010F5F1F4F24E668
:1001A000F80111922A95E9F720E030E044E650E0AA
:1001B000B8010E94AD0E66E071E0C8010E948A118C
:1001C0007E01F5E6EF0EF11C67018CE3C80ED11C31
:1001D000870166E071E080E090E00E948A11F701FB
:1001E000819391937F01EC15FD0599F7F801E28069
:1001F000F38061E370E0C7010E949811892B09F434
:100200000CC1B701CE018F559F4F0E94890DBE01D1
:100210006F557F4F8DE393E00E949F0DCE018F5568
:100220009F4F0E941B0DF80164817581CE018F558F
:100230009F4F0E94890DBE016F557F4F83E493E06D
:100240000E949F0DCE018F559F4F0E941B0DF801FC
:1002500066817781CE018F559F4F0E94890DBE0127
:100260006F557F4F89E493E00E949F0DCE018F551B
:100270009F4F0E941B0DF80160857185CE018F553F
:100280009F4F0E94890DBE016F557F4F8FE493E011
:100290000E949F0DCE018F559F4F0E941B0DF801AC
:1002A00062857385CE018F559F4F0E94890DBE01D7
:1002B0006F557F4F85E593E00E949F0DCE018F55CE
:1002C0009F4F0E941B0DF80164857585CE018F55E7
:1002D0009F4F0E94890DBE016F557F4F8BE593E0C4
:1002E0000E949F0DCE018F559F4F0E941B0D8FE0E6
:1002F00094E00E94E10C68E071E0CE018F559F4FC1
:100300000E94890D6DE373E0CE018F559F4F0E94CF
:100310007B0EBC018FE094E00E94F70CCE018F555C
:100320009F4F0E941B0D60E171E0CE018F559F4FE2
:100330000E94890D63E473E0CE018F559F4F0E94A8
:100340007B0EBC018FE094E00E94F70CCE018F552C
:100350009F4F0E941B0D6CE171E0CE018F559F4FA6
:100360000E94890D69E473E0CE018F559F4F0E9472
:100370007B0EBC018FE094E00E94F70CCE018F55FC
:100380009F4F0E941B0D69E271E0CE018F559F4F78
:100390000E94890D6FE473E0CE018F559F4F0E943C
:1003A0007B0EBC018FE094E00E94F70CCE018F55CC
:1003B0009F4F0E941B0D65E371E0CE018F559F4F4B
:1003C0000E94890D65E573E0CE018F559F4F0E9415
:1003D0007B0EBC018FE094E00E94F70CCE018F559C
:1003E0009F4F0E941B0D6EE371E0CE018F559F4F12
:1003F0000E94890D6BE573E0CE018F559F4F0E94DF
:100400007B0EBC018FE094E00E94F70CCE018F556B
:100410009F4F0E941B0D81E001C080E0CA55DF4F55
:100420000FB6F894DEBF0FBECDBFDF91CF911F9105
:100430000F91FF90EF90DF90CF9008950F931F934F
:10044000CF93DF9368E471E083EA93E00E94D80CD5
:1004500066E770E08FE094E00E94A50C67E973E026
:1004600083EA93E00E94CA0C67E973E08FE094E0AE
:100470000E94CA0C61E973E083EA93E00E94CA0C0F
:1004800061E973E08FE094E00E94CA0C60E070E0E4
:100490008BE893E00E948E0E882369F06CE571E092
:1004A00083EA93E00E94D80C6CE571E08FE094E061
:1004B0000E94D80C18C06EE571E083EA93E00E94B8
:1004C000D80C68E670E08FE094E00E94A50C6BE821
:1004D00073E083EA93E00E94CA0C6BE873E08FE05C
:1004E00094E00E94CA0CC0E0D0E06CE671E083EAC0
:1004F00093E00E94D80C6CE671E08FE094E00E94DB
:10050000D80C8E010F591C4FB80183EA93E00E946A
:10051000CA0CB8018FE094E00E94CA0C6AE272E053
:1005200083EA93E00E94D80C6AE272E08FE094E0E4
:100530000E94D80C8E01035C1C4FB80183EA93E043
:100540000E94CA0CB8018FE094E00E94CA0C269663
:10055000C432D10551F66AE571E083EA93E00E9466
:10056000D80C6AE571E08FE094E00E94D80C83EA31
:1005700093E00E94E10C8FE094E00E94E10C81E0A6
:10058000DF91CF911F910F910895CF93DF9320E0DA
:1005900042E063E083EA93E00E943B086EE671E08C
:1005A0008DE993E00E94890D67E771E087E993E0A8
:1005B0000E94890D67E971E081E993E00E94890D4D
:1005C0006CEA71E08BE893E00E94890D61EC71E0C8
:1005D00085E893E00E94890D66ED71E081E693E085
:1005E0000E94890D6BED71E087E693E00E94890D12
:1005F00064EE71E08DE693E00E94890D6EEE71E08D
:1006000083E793E00E94890D67EF71E089E793E04B
:100610000E94890D6DEF71E08FE793E00E94890DD4
:10062000CDE3D3E060E273E0CE010E94890D26960F
:1006300083E0C136D807B1F760E273E087E393E067
:10064000DF91CF910C94890DCF93DF9387E393E0F3
:100650000E941B0DC1E6D3E02697CE010E941B0D20
:1006600083E0CD33D807C1F7C5E8D3E02697CE01A4
:100670000E941B0D83E0C136D807C1F785E893E0DF
:100680000E941B0D8BE893E00E941B0D81E993E013
:100690000E941B0D87E993E00E941B0D8DE993E0FA
:1006A0000E941B0D83EA93E0DF91CF910C94E20747
:1006B000CF93CAE083EA93E00E940207892B81F07E
:1006C00083EA93E00E947506682F8FE094E00E9411
:1006D000DA0C6AE070E080E090E00E947209EACFF4
:1006E000C15041F7CF91089583EA93E00E94020739
:1006F000892B59F083EA93E00E9475066AE070E066
:1007000080E090E00E947209EFCF0895CF93DF93CD
:100710006DE970E08FE094E00E94A50C0E941E023B
:10072000CEE5D1E083EA93E00E940207892B41F4F1
:100730006AE070E080E090E00E947209219791F7F2
:100740000E9474036AE870E08FE094E00E94A50CB8
:1007500064E072E083EA93E00E94090DC3E364E67B
:1007600070E080E090E00E9472090E945803C1503E
:10077000B1F780913603882389F064E172E083EA5F
:1007800093E00E94090DC8E064EF71E080E090E022
:100790000E9472090E945803C150B1F7DF91CF91B6
:1007A00008958F929F92AF92BF92CF92DF92EF9275
:1007B000FF920F931F93CF93DF93EC018B016A019C
:1007C00060E273E00E94890DF8018081882359F06E
:1007D000B80183EA93E00E94090D64E170E080E0D3
:1007E00090E00E9472090E9443094B015C01E12CD8
:1007F000F12C83EA93E00E940207892B41F083EAFF
:1008000093E00E947506BC01CE010E94490E0E9431
:100810004309681979098A099B096C157D058E05BC
:100820009F0538F3CE01DF91CF911F910F91FF907B
:10083000EF90DF90CF90BF90AF909F908F900895F2
:100840000F931F93CF93DF93CDB7DEB7A5970FB666
:10085000F894DEBF0FBECDBF8C0160E272E0CE0126
:1008600080960E94890D44E650E06CE272E0CE0171
:1008700001960E94D103CE0101960E941B0D44E611
:1008800050E068E372E0CE0101960E94D103CE01F0
:1008900001960E941B0D44E650E065E472E0CE0133
:1008A00001960E94D103CE0101960E941B0D4AE0E1
:1008B000B801CE0101960E94D70DBE016F5F7F4F38
:1008C000CE0180960E942F0ECE0101960E941B0D34
:1008D00020E030E049E150E0BE016F5F7F4FCE0184
:1008E00080960E94AD0E44E650E0BE016F5F7F4FE0
:1008F000CE014A960E94D103CE014A960E941B0D5A
:10090000CE0180960E941B0DA5960FB6F894DEBF0F
:100910000FBECDBFDF91CF911F910F910895CF935F
:10092000DF9300D000D000D0CDB7DEB744E650E072
:1009300064E572E0CE0101960E94D103CE010196DA
:100940000E941B0D44E650E069E572E0CE0101967D
:100950000E94D103CE0101960E941B0D44E650E097
:1009600063E672E0CE0101960E94D103CE010196AA
:100970000E941B0D44E650E06EE672E0CE01019647
:100980000E94D103CE0101960E941B0D6CE872E01B
:1009900083EA93E00E94D80C6DE973E083EA93E068
:1009A0000E94CA0C6AE571E083EA93E00E94D80CC9
:1009B00083EA93E00E94E10C26960FB6F894DEBF1E
:1009C0000FBECDBFDF91CF9108950F931F93CF93AB
:1009D000DF9300D000D000D0CDB7DEB744E650E0C2
:1009E00061EA72E0CE0101960E94D103CE01019628
:1009F0000E941B0D0EE511E083EA93E00E940207BE
:100A0000892B49F46AE070E080E090E00E9472096E
:100A10000150110989F742E350E06EEA72E0CE011D
:100A200001960E94D103CE0101960E941B0D42E364
:100A300050E06AEB72E0CE0101960E94D103CE0134
:100A400001960E941B0D26960FB6F894DEBF0FBECE
:100A5000CDBFDF91CF911F910F910895CF93DF9379
:100A600000D000D000D0CDB7DEB744E650E06EEC49
:100A700072E0CE0101960E94D103CE0101960E9440
:100A80001B0D40E951E06AED72E0CE0101960E9433
:100A9000D103CE0101960E941B0D26960FB6F89445
:100AA000DEBF0FBECDBFDF91CF910895CF93DF930F
:100AB00000D000D000D0CDB7DEB726E040E855E248
:100AC00060E070E08FE094E00E94500B40E855E257
:100AD00060E070E083EA93E00E946B0868E873E1ED
:100AE00080E090E00E94720985E090E00E9420047E
:100AF0000E948F0468EE73E080E090E00E9472092B
:100B00000E942E0544E650E067EE72E0CE010196A9
:100B10000E94D103CE0101960E941B0D68EA70E08D
:100B20008FE094E00E94E50C26960FB6F894DEBFA5
:100B30000FBECDBFDF91CF9108950F931F93CF9339
:100B4000DF9300D000D000D0CDB7DEB783EA93E0CA
:100B50000E940207892B09F4BDC083EA93E00E943A
:100B600075068A3019F08D3009F0AFC061EF72E080
:100B7000CE0101960E94890DBE016F5F7F4F87E312
:100B800093E00E94F30E8C01CE0101960E941B0D92
:100B90000130110509F087C067E373E0CE010196CB
:100BA0000E94B60DCE0101960E94BB00182FCE0107
:100BB00001960E941B0D112309F475C085E593E091
:100BC0000E94F70E9B0163307105ACF41092340360
:100BD0001092330310923203809135038F5F80931C
:100BE0003503853B20F081E08093350356C081308A
:100BF00009F059C052C0AB0143505109483051056A
:100C000088F41092350310923303109232038091CE
:100C100034038F5F809334038D3088F181E08093BB
:100C200034033BC0AB014B5051094A30510588F4A5
:100C300010923503109234031092320380913303E3
:100C40008F5F809333038730D0F081E0809333034C
:100C500024C06551710963317105A0F41092350308
:100C60001092340310923303809132038F5F80938C
:100C70003203853020F081E0809332030EC0823051
:100C800091F40BC02832310574F0109235031092A4
:100C9000340310923303109232030E94E5040E9441
:100CA00086030E942E0560E273E0CE0101960E9449
:100CB000890DBE016F5F7F4F87E393E00E949F0D18
:100CC000CE0101960E941B0D05C0682F87E393E0BB
:100CD0000E94360E26960FB6F894DEBF0FBECDBF2B
:100CE000DF91CF911F910F910895209104043091CD
:100CF000050428173907B9F49091C2038091C30302
:100D0000981789F0E091C203F0E0EC53FC4F80812A
:100D10002091C20330E02F5F3F4F2F733327209382
:100D2000C20390E008958FEF9FEF08951F93CF9334
:100D3000DF93DC015C968D919C915D97009749F45F
:100D400081E090E013969C938E93129780E090E060
:100D50003BC05196ED91FC91529750962C91509733
:100D6000322F30951FB75E964C915E9741FB7727E7
:100D700070F941FD6095F8944081772311F0422B82
:100D800001C043234083EC012197F1F748E05081F3
:100D900060FF02C0522B01C053235083EC01219706
:100DA000F1F76695415099F78081772311F08323FD
:100DB00001C0822B80831FBF5C968D919C915D97B3
:100DC0000197F1F781E090E0DF91CF911F910895B5
:100DD00020910404309105042817390781F490917B
:100DE000C2038091C303981751F0E091C203F0E071
:100DF000EC53FC4F8081992787FD909508958FEFE4
:100E00009FEF0895209104043091050428173907B5
:100E100071F48091C3032091C20390E0805C9F4FE6
:100E2000821B910960E470E00E94030F089580E046
:100E300090E00895209104043091050428173907A3
:100E400039F48FB7F8941092C3031092C2038FBF86
:100E50000895E0910404F0910504E817F90769F496
:100E6000A389B4899C918589809589238C9310925C
:100E700005041092040481E0089580E00895CF9362
:100E8000DF93EC018A8D9B8D892BF1F08091040416
:100E9000909105048C179D07B9F0009711F00E94FE
:100EA00029078E8D8E7F8E8F1092C3031092C203FE
:100EB000D0930504C0930404EB89FC8980819D894B
:100EC000892B808381E001C080E0DF91CF9108957C
:100ED0001F920F920FB60F9211242F933F934F93AF
:100EE0005F936F937F938F939F93AF93BF93EF9392
:100EF000FF93E0910404F0910504309709F451C088
:100F0000868DA685B785958581FF04C08C91892340
:100F100029F447C08C91892309F043C0A389B4897F
:100F20009C918589809589238C93868997890197DF
:100F3000F1F7208D318DA685B785758558E040E0A5
:100F4000C9010197F1F7842F90E095958795482F77
:100F50006C91672309F04068515091F7868D81FDAF
:100F600040958091C30390E001968F73992720915B
:100F7000C203281749F0A091C303B0E0AC53BC4FA3
:100F80004C938093C30303C0868D8160868F828DCE
:100F9000938D0197F1F7A389B4898C919589892B59
:100FA0008C93FF91EF91BF91AF919F918F917F9122
:100FB0006F915F914F913F912F910F900FBE0F90C6
:100FC0001F90189522E033E0FC01318320830C94BC
:100FD00029071F93CF93DF93EC01162F6E8D669533
:100FE000617081E06827812F0E94370A61E0812FBC
:100FF0000E94FE09812F90E0FC01EA52FF4FE4912C
:10100000E88BFC01E651FF4FE491F0E0EE0FFF1F8B
:10101000E85FFE4F859194919A8B898BDF91CF91F8
:101020001F9108951F93CF93DF93EC01162F60E07B
:10103000812F0E94FE098E8D81FD04C061E0812F09
:101040000E94370A1C87812F90E0FC01EA52FF4F73
:10105000E491ED87FC01E651FF4FE491F0E0EE0FE3
:10106000FF1FE250FF4F859194919F878E87DF91FC
:10107000CF911F910895FF920F931F93CF93DF930A
:10108000EC01F62E522F1B821A8208EE13E020E0AC
:1010900030E00C831D832E833F8382E093E09983AD
:1010A00088831F8A1E8A198E188E1B8E1A8E1D8E9B
:1010B0001C8E8E8D8E7F50FB81F98E8F642FCE011A
:1010C0000E94E9076F2DCE01DF91CF911F910F9103
:1010D000FF900C941208CF93DF93EC019A01AB01BF
:1010E0001B8E1A8E198E188E1F8A1E8A60E079E078
:1010F0008DE390E00E94390FC9012430310520F0C2
:10110000B9016350710902C061E070E07D8F6C8F9E
:10111000EC85E63108F068C0B901769567956431D1
:10112000710518F06351710902C061E070E07F8BB6
:101130006E8B069718F0C901059702C081E090E018
:10114000998F888FC901880F991F820F931F9695D9
:101150008795969587958D30910510F00C9702C074
:1011600081E090E09B8F8A8F20916800E83050F0FA
:1011700091E0EE3008F490E081E001C0880F9A958C
:10118000EAF701C084E0822B809368002C85283028
:1011900038F02E3040F0263148F48CE690E008C05C
:1011A0008DE690E005C08BE690E002C080E090E024
:1011B0009C8B8B8B283030F481E001C0880F2A95FE
:1011C000EAF70DC0822F90E02E3010F4089701C08E
:1011D0000E9791E001C0990F8A95EAF7892F8D8BC0
:1011E0008C8D9D8D0197F1F7CE01DF91CF910C94FD
:1011F0003F071F920F920FB60F9211242F933F9328
:101200008F939F93AF93BF938091070490910804AD
:10121000A0910904B0910A043091060423E0230F41
:101220002D3720F40196A11DB11D05C026E8230F1E
:101230000296A11DB11D209306048093070490938C
:101240000804A0930904B0930A0480910B049091C0
:101250000C04A0910D04B0910E040196A11DB11DC6
:1012600080930B0490930C04A0930D04B0930E0490
:10127000BF91AF919F918F913F912F910F900FBE92
:101280000F901F9018952FB7F894609107047091F4
:1012900008048091090490910A042FBF08953FB774
:1012A000F89480910B0490910C04A0910D04B091DE
:1012B0000E0426B5A89B05C02F3F19F00196A11D6D
:1012C000B11D3FBF6627782F892F9A2F620F711D9E
:1012D000811D911D42E0660F771F881F991F4A9557
:1012E000D1F70895CF92DF92EF92FF92CF93DF93E1
:1012F0006B017C010E944F09EB01C114D104E10490
:10130000F10489F00E94020F0E944F096C1B7D0BB3
:10131000683E734090F381E0C81AD108E108F108F3
:10132000C851DC4FEACFDF91CF91FF90EF90DF9073
:10133000CF900895789484B5826084BD84B581602F
:1013400084BD85B5826085BD85B5816085BDEEE6CD
:10135000F0E0808181608083E1E8F0E010828081AC
:1013600082608083808181608083E0E8F0E080811A
:1013700081608083E1EBF0E0808184608083E0EB3A
:10138000F0E0808181608083EAE7F0E08081846022
:10139000808380818260808380818160808380817E
:1013A000806880831092C1000895833081F028F412
:1013B000813099F08230A1F008958730A9F088300B
:1013C000B9F08430D1F4809180008F7D03C080918A
:1013D00080008F7780938000089584B58F7702C056
:1013E00084B58F7D84BD08958091B0008F7703C050
:1013F0008091B0008F7D8093B0000895CF93DF93EC
:1014000090E0FC01EA52FF4F2491FC01E651FF4FAE
:101410008491882349F190E0880F991FFC01EE5ECA
:10142000FE4FA591B491885F9E4FFC01C591D49168
:101430009FB7611108C0F8948C91209582238C93FA
:10144000888182230AC0623051F4F8948C91322F43
:10145000309583238C938881822B888304C0F894F1
:101460008C91822B8C939FBFDF91CF9108950F9326
:101470001F93CF93DF931F92CDB7DEB7282F30E0B5
:10148000F901EE53FF4F8491F901EA52FF4F149195
:10149000F901E651FF4F04910023C9F0882321F0A0
:1014A00069830E94D5096981E02FF0E0EE0FFF1FEC
:1014B000E85FFE4FA591B4919FB7F8948C916111AC
:1014C00003C01095812301C0812B8C939FBF0F9087
:1014D000DF91CF911F910F910895FC01818D228D95
:1014E00090E0805C9F4F821B91098F73992708952C
:1014F000FC01918D828D981731F0828DE80FF11DDE
:10150000858D90E008958FEF9FEF0895FC01918DF8
:10151000828D981761F0828DDF01A80FB11D5D9655
:101520008C91928D9F5F9F73928F90E008958FEFC3
:101530009FEF08958AE09CE0892B49F080E090E0DD
:10154000892B29F00E940A0C81110C940000089547
:10155000FC01848DDF01A80FB11DA35ABF4F2C9150
:10156000848D90E001968F739927848FA689B7891F
:101570002C93A089B1898C9180648C93938D848DF8
:10158000981306C00288F389E02D80818F7D8083C7
:101590000895CF93DF93EC01888D8823C9F0EA8901
:1015A000FB89808185FD05C0A889B9898C9186FD5C
:1015B0000FC00FB607FCF5CF808185FFF2CFA88959
:1015C000B9898C9185FFEDCFCE010E94A80AE7CFA3
:1015D000DF91CF910895CF92DF92FF920F931F93E7
:1015E000CF93DF931F92CDB7DEB76C0181E0D601B8
:1015F00058968C9358975B969C915B975C968C91D0
:101600005C97981307C05096ED91FC91519780819B
:1016100085FD2EC0F601038D10E00F5F1F4F0F7385
:101620001127F02EF601848DF81211C00FB607FCB9
:10163000F9CFD6015096ED91FC915197808185FFAD
:10164000F1CFC60169830E94A80A6981EBCF838D1F
:10165000E80FF11DE35AFF4F6083D6015B960C93B0
:101660005B975296ED91FC915397808180620CC0FC
:10167000D6015696ED91FC91579760835096ED9167
:10168000FC91519780818064808381E090E00F908D
:10169000DF91CF911F910F91FF90DF90CF90089530
:1016A000BF92CF92DF92EF92FF92CF93DF93EC0144
:1016B0006A017B01B22EE889F98982E080834115B5
:1016C00081EE580761057105A1F060E079E08DE3D6
:1016D00090E0A70196010E94170F2150310941099E
:1016E00051095695479537952795211580E138077B
:1016F00098F0E889F989108260E874E88EE190E05A
:10170000A70196010E94170F215031094109510983
:101710005695479537952795EC85FD853083EE8561
:10172000FF852083188EEC89FD89B082EA89FB89C8
:10173000808180618083EA89FB89808188608083E1
:10174000EA89FB89808180688083EA89FB898081BE
:101750008F7D8083DF91CF91FF90EF90DF90CF90CE
:10176000BF9008951F920F920FB60F9211242F93DE
:101770008F939F93EF93FF93E0911F04F0912004C8
:101780008081E0912504F091260482FD12C09081B1
:10179000809128048F5F8F7320912904821751F064
:1017A000E0912804F0E0E15FFB4F958F80932804DF
:1017B00001C08081FF91EF919F918F912F910F90A8
:1017C0000FBE0F901F9018951F920F920FB60F9299
:1017D00011242F933F934F935F936F937F938F9336
:1017E0009F93AF93BF93EF93FF938FE094E00E949A
:1017F000A80AFF91EF91BF91AF919F918F917F9137
:101800006F915F914F913F912F910F900FBE0F906D
:101810001F9018958FE094E00E946D0A21E0892BBB
:1018200009F420E0822F08951092120410921104FE
:1018300088EE93E0A0E0B0E080931304909314044A
:10184000A0931504B093160482E193E090931004E2
:1018500080930F0485EC90E090931C0480931B040C
:1018600084EC90E090931E0480931D0480EC90E043
:101870009093200480931F0481EC90E090932204C5
:101880008093210482EC90E09093240480932304BD
:1018900086EC90E09093260480932504109228040F
:1018A0001092290410922A0410922B04089508958E
:1018B0000E949A090E94570C0E945605CAE9DAE074
:1018C0000E949D052097E1F30E949A0AF9CFCF92DA
:1018D000DF92EF92FF920F931F93CF93DF936C01F0
:1018E0007A01EB01E60EF71E00E010E0CE15DF05F1
:1018F00061F06991D601ED91FC910190F081E02DAC
:10190000C6010995080F191FF1CFC801DF91CF91CA
:101910001F910F91FF90EF90DF90CF900895611588
:10192000710581F0DB010D900020E9F7AD01415018
:101930005109461B570BDC01ED91FC910280F381AC
:10194000E02D099480E090E00895EF92FF920F93CC
:101950001F93CF93DF938C01FB01C0E0D0E0649133
:101960007F018FEFE81AF80A662361F0D801ED9144
:10197000FC910190F081E02DC8010995C80FD91F95
:10198000F701EDCFCE01DF91CF911F910F91FF9025
:10199000EF900895DC01ED91FC91DB0114964D91DF
:1019A0005C9115976D917C910280F381E02D0994F3
:1019B0000C948F0CDC01ED91FC910190F081E02DF5
:1019C00009946EE173E00C948F0C0F931F93CF93E7
:1019D000DF93EC010E94A50C8C01CE010E94E10C6A
:1019E000800F911FDF91CF911F910F9108950F9359
:1019F0001F93CF93DF93EC010E94CA0C8C01CE01A0
:101A00000E94E10C800F911FDF91CF911F910F91E8
:101A100008950F931F93CF93DF93EC010E948F0CD7
:101A20008C01CE010E94E10C800F911FDF91CF91BC
:101A30001F910F910895FC01808191810C940A10EF
:101A4000CF93DF93EC0188819981009711F00E9478
:101A50000A10198218821D821C821B821A82DF9151
:101A6000CF9108950F931F93CF93DF93EC018B01D8
:101A70006F5F7F4F888199810E949910009731F0A4
:101A8000998388831B830A8381E001C080E0DF9112
:101A9000CF911F910F910895CF93DF93EC0188812F
:101AA0009981892B29F08A819B818617970760F499
:101AB000CE010E94320D882341F08C819D81892BBB
:101AC00019F4E881F981108281E0DF91CF910895C6
:101AD000EF92FF920F931F93CF93DF93EC017B0163
:101AE0008A01BA010E944C0D811104C0CE010E94EE
:101AF000200D07C01D830C83B701888199810E9446
:101B0000AC11CE01DF91CF911F910F91FF90EF901B
:101B10000895FC01118210821382128215821482B0
:101B20006115710559F0FB0101900020E9F7AF0143
:101B300041505109461B570B0C94680D0895CF93E3
:101B4000DF93EC01FB018617970761F060817181DB
:101B50006115710529F0448155810E94680D02C00C
:101B60000E94200DCE01DF91CF910895FC011182DA
:101B7000108213821282158214820C949F0DCF93CF
:101B8000DF93EC016115710561F0FB01019000200C
:101B9000E9F7AF0141505109461B570B0E94680DF0
:101BA00002C00E94200DCE01DF91CF9108950F93C6
:101BB0001F93CF93DF93CDB7DEB762970FB6F8943C
:101BC000DEBF0FBECDBF8C01CB01F80111821082A8
:101BD000138212821582148250E0BE016F5F7F4F24
:101BE0000E940312BE016F5F7F4FC8010E94BF0DAC
:101BF00062960FB6F894DEBF0FBECDBFDF91CF91D6
:101C00001F910F910895EF92FF920F931F93CF931F
:101C1000DF93EC017B010C811D816115710511F4CD
:101C200080E016C04115510591F0040F151FB80151
:101C30000E944C0D8823A1F3288139818C819D81DC
:101C4000B701820F931F0E94AC111D830C8381E0AA
:101C5000DF91CF911F910F91FF90EF900895FB01BD
:101C600044815581608171810C94030ECF93DF9381
:101C700000D0CDB7DEB769831A8241E050E0BE01E3
:101C80006F5F7F4F0E94030E0F900F90DF91CF91F7
:101C90000895EF92FF920F931F93CF93DF93CDB7E9
:101CA000DEB728970FB6F894DEBF0FBECDBF7C011C
:101CB000CB014AE050E08E010F5F1F4FB8010E9438
:101CC0000312F80101900020E9F7AF0141505109DA
:101CD000401B510BB801C7010E94030E28960FB696
:101CE000F894DEBF0FBECDBFDF91CF911F910F9152
:101CF000FF90EF900895CF93DF93EC01FB014481B7
:101D00005581608171810E94030E811103C0CE0153
:101D10000E94200DCE01DF91CF910895FC01248116
:101D20003581232B31F421E061157105A1F0FB0110
:101D300008C0FC01808191816115710531F421E0B9
:101D4000FC018081882339F005C00E94A31121E0A5
:101D5000892B09F020E0822F08950F931F93CF93D2
:101D6000DF93EB0141155105E9F02097D9F0FC0113
:101D70006481758126173707A0F4621B730B8A01F3
:101D8000015011096017710708F48B01FC01608193
:101D90007181620F731FA801CE010E94B311C00FA1
:101DA000D11F1882DF91CF911F910F910895CF938A
:101DB000DF93FC01848195814817590778F4C0812D
:101DC000D181FB0160817181CE01840F951F0E943A
:101DD000C211009719F08C1B9D0B02C08FEF9FEF73
:101DE000DF91CF91089540E050E00C94D70EFC01B4
:101DF00080819181009711F00C94631160E070E094
:101E0000CB010895089597FB072E16F4009407D090
:101E100077FD09D00E94580F07FC05D03EF490953D
:101E200081959F4F0895709561957F4F0895A1E228
:101E30001A2EAA1BBB1BFD010DC0AA1FBB1FEE1F44
:101E4000FF1FA217B307E407F50720F0A21BB30B8F
:101E5000E40BF50B661F771F881F991F1A9469F70B
:101E600060957095809590959B01AC01BD01CF0167
:101E70000895052E97FB1EF400940E94500F57FD05
:101E800007D00E94170F07FC03D04EF40C94500F9C
:101E900050954095309521953F4F4F4F5F4F089596
:101EA00090958095709561957F4F8F4F9F4F0895C6
:101EB000AA1BBB1B51E107C0AA1FBB1FA617B70770
:101EC00010F0A61BB70B881F991F5A95A9F780958C
:101ED0009095BC01CD010895EE0FFF1F0590F49180
:101EE000E02D0994CF93DF938230910510F482E0C6
:101EF00090E0E091AE04F091AF0420E030E0A0E08B
:101F0000B0E0309739F14081518148175907B8F056
:101F10004817590771F482819381109729F013961D
:101F20009C938E9312972CC09093AF048093AE0431
:101F300027C02115310531F04217530718F0A901C8
:101F4000DB0101C0EF019A01BD01DF010280F381D5
:101F5000E02DD7CF21153105F9F0281B390B24309E
:101F6000310580F48A819B816115710521F0FB01A7
:101F70009383828304C09093AF048093AE04FE01E8
:101F8000329644C0FE01E20FF31F819391932250D9
:101F90003109398328833AC02091AC043091AD04D3
:101FA000232B41F420910201309103013093AD04C1
:101FB0002093AC04209100013091010121153105DD
:101FC00041F42DB73EB74091040150910501241B07
:101FD000350BE091AC04F091AD04E217F307A0F4E7
:101FE0002E1B3F0B2817390778F0AC014E5F5F4F6F
:101FF0002417350748F04E0F5F1F5093AD044093F0
:10200000AC048193919302C0E0E0F0E0CF01DF9156
:10201000CF910895CF93DF93009709F487C0FC0117
:10202000329713821282C091AE04D091AF042097F0
:1020300081F420813181280F391F8091AC04909167
:10204000AD048217930779F5F093AD04E093AC04E7
:102050006DC0DE0120E030E0AE17BF0750F41296ED
:102060004D915C9113979D014115510509F1DA01DC
:10207000F3CFB383A28340815181840F951F8A17C8
:102080009B0771F48D919C911197840F951F029677
:102090009183808312968D919C9113979383828371
:1020A0002115310529F4F093AF04E093AE043EC04E
:1020B000D9011396FC93EE9312974D915D91A40F65
:1020C000B51FEA17FB0779F480819181840F951F72
:1020D0000296D90111969C938E93828193811396D7
:1020E0009C938E931297E0E0F0E08A819B810097A9
:1020F00019F0FE01EC01F9CFCE0102962881398159
:10210000820F931F2091AC043091AD04281739073A
:1021100069F4309729F41092AF041092AE0402C013
:1021200013821282D093AD04C093AC04DF91CF919F
:102130000895A0E0B0E0EFE9F0E10C945C12EC014E
:10214000CB01209719F40E94720FB8C0FE01E60F70
:10215000F71F9E0122503109E217F30708F4ACC0C3
:10216000D9010D911C91119706171707B8F005308A
:10217000110508F49FC0A80144505109461757079C
:1021800008F498C002501109061B170B0193119314
:102190006D937C93CF010E940A108CC05B01A01A42
:1021A000B10A4E01800E911EA091AE04B091AF0411
:1021B000612C712C60E070E0109709F449C0A815FB
:1021C000B905C9F5ED90FC901197670142E0C40E86
:1021D000D11CCA14DB0478F147018A189B086401FA
:1021E00042E0C40ED11C1296BC9012971396AC918B
:1021F000B5E0CB16D10440F0B282A38391828082F5
:10220000D9018D939C9309C00E5F1F4F0E0D1F1DAA
:10221000F90111830083EB2DFA2F6115710531F05F
:10222000DB011396FC93EE93129744C0F093AF0436
:10223000E093AE043FC06D917C91119766167706CE
:1022400008F43B01BD0112960D90BC91A02DB4CFB6
:102250006091AC047091AD0468157905E9F46816D5
:102260007906D0F4409100015091010141155105CA
:1022700041F44DB75EB76091040170910501461BB2
:10228000570BE417F507C0F4F093AD04E093AC04EA
:10229000F901918380830EC00E94720F7C01009728
:1022A00059F0A801BE010E948F11CE010E940A10B0
:1022B000C70104C0CE0102C080E090E0CDB7DEB718
:1022C000EEE00C9478121F93FC0199278827BC013B
:1022D000E89411911032E9F3193010F01E30C8F370
:1022E0001B3251F01D3249F4689406C00E94191245
:1022F000610F711D811D911D119110531A30B0F3A2
:102300003EF490958095709561957F4F8F4F9F4FCC
:102310001F91089540E353E00E94DC110895FB01F2
:10232000DC0102C001900D9241505040D8F7089551
:10233000FC018191861721F08823D9F79927089508
:102340003197CF010895FB01DC018D910190801937
:102350000110D9F3990B0895FB01DC0101900D9256
:102360000020E1F70895FB01DC014150504048F0A6
:1023700001900D920020C9F701C01D9241505040BC
:10238000E0F70895FB0151915523A9F0BF01DC014D
:102390004D9145174111E1F759F4CD01019000200D
:1023A00049F04D9140154111C9F3FB014111EFCFA7
:1023B00081E090E001970895FA01A191B081009722
:1023C00019F41097E1F0CD01DC01CD010D90002052
:1023D00011F4C00113C0FB012191222319F0201533
:1023E000D9F7F3CFFB012191201519F41E92119614
:1023F00006C02223C1F70D900020A1F7D001FA01F9
:10240000A193B08308954532510520F4423010F075
:102410000C940E12FB011082CB010895BB274A30A9
:1024200031F4992322F4BDE2909581959F4F0C944D
:102430002F12592F482F372F262F660F771F881FEF
:10244000991F660F771F881F991F620F731F841FC4
:10245000951F660F771F881F991F0895BB27FB01E3
:102460005527AA27880F991FAA1FA41710F0A41B8D
:1024700083955051B9F7A05DAA3308F0A95DA193E7
:10248000009779F7B111B1931192CB010C944812D6
:10249000DC01FC01672F71917723E1F7329704C0CB
:1024A0007C916D9370836291AE17BF07C8F3089556
:1024B0002F923F924F925F926F927F928F929F9254
:1024C000AF92BF92CF92DF92EF92FF920F931F9342
:1024D000CF93DF93CDB7DEB7CA1BDB0B0FB6F894F3
:1024E000DEBF0FBECDBF09942A88398848885F8433
:1024F0006E847D848C849B84AA84B984C884DF80A4
:10250000EE80FD800C811B81AA81B981CE0FD11D87
:102510000FB6F894DEBF0FBECDBFED01089511E0F8
:10252000C0E2D1E004C0FE010E946E0F2296C232CA
:08253000D107C9F7F894FFCFB1
:102538000000B00480002C0044617465203A20003B
:102548004C61746974756465203A20004C6F6E673D
:102558006974756465203A2000416C746974756407
:1025680065203A20005370656564203A2000436F67
:1025780075727365203A200041542B4854545050CA
:102588004152413D2255524C222C22003F003F70BF
:102598007269766174655F6B65793D002600696EC6
:1025A8007465726E657400687474703A2F2F646174
:1025B80074612E737061726B66756E2E636F6D2F0A
:1025C800696E7075742F004E4A36355241724762F3
:1025D800525564334138444E78616200356452651F
:1025E800447259396D44684A5930704250613767AE
:1025F80000427065354C324E5A394C55616B4C521D
:102608006541344F570064617465006C6174697486
:10261800756465006C6F6E67697475646500616CDC
:1026280074697475646500737065656400636F75BB
:102638007273650041542B48545450414354494FD8
:102648004E3D300041542B485454505245414400AB
:1026580041542B43474E535552433D0041542B4957
:1026680050523D393630300041542B43474E535079
:1026780057523D310041542B43474E535345513D2A
:10268800524D4300415445300041542B434D474679
:102698003D310041542B43474154543D310041548E
:1026A8002B53415042523D332C312C22434F4E5430
:1026B800595045222C2247505253220041542B5343
:1026C800415042523D332C312C2241504E222C2273
:1026D8000041542B53415042523D312C310041545A
:1026E8002B48545450494E49540041542B48545493
:1026F80050504152413D22434944222C310041541B
:102708002B485454505445524D0041542B5341507A
:1027180042523D302C310041542B434D47443D3407
:102728000055474E53494E463A20312C310000009F
:1027380000009606670C02077506E8061A070000EF
:102748000000EB0A670C6D0A860A780AC90A0D0AA6
:10275800006E616E00696E66006F7666002E00007E
:00000001FF
