:100000000C94AF000C94D7000C94D7000C94BA0653
:100010000C94BA060C94BA060C94D7000C94D70032
:100020000C94D7000C94D7000C94D7000C94D700F4
:100030000C94D7000C94D7000C94D7000C94D700E4
:100040000C944B080C94D7000C94040B0C94360BB6
:100050000C94D7000C94D7000C94D7000C94D700C4
:100060000C94D7000C94D7003F7072697661746568
:100070005F6B65793D0041542B48545450504152B8
:10008000413D2255524C222C22004D616B65204788
:10009000455420526571756573743A200053656E3E
:1000A000642055524C3A200050726F75646C792070
:1000B0004D61646520696E20496E646F6E65736979
:1000C00061000000000000000000000000000000CF
:1000D0000000000000000000000000000000000020
:1000E0000000000000000000000000000000000010
:1000F0000000000000000000000000000000000000
:1001000000080002010000030407000000000000D6
:1001100000000102040810204080010204081020A1
:10012000010204081020040404040404040402026C
:100130000202020203030303030300000000230082
:100140002600290000000000250028002B000000E8
:100150000000240027002A004F02660BAE02112483
:100160001FBECFEFD8E0DEBFCDBF12E0A0E0B1E010
:10017000E2E9F3E202C005900D92A03FB107D9F782
:1001800024E0A0EFB2E001C01D92A333B207E1F773
:1001900011E0CCE5D1E004C02297FE010E949B0E45
:1001A000C835D107C9F70E94AA0B0C94BC110C9456
:1001B0000000CF92DF92EF92FF920F931F93CF93A5
:1001C000DF93CDB7DEB7C65AD1090FB6F894DEBFBC
:1001D0000FBECDBF8E010F5F1F4F24E6F8011192B5
:1001E0002A95E9F720E030E044E650E0B8010E94AB
:1001F000DA0D66E071E0C8010E94B7107E01F5E6F5
:10020000EF0EF11C67018CE3C80ED11C870166E07C
:1002100071E080E090E00E94B710F7018193919324
:100220007F01EC15FD0599F7F801E280F38061E3A9
:1002300070E0C7010E94C510892B09F478C0B7018E
:10024000CE018F559F4F0E94C90CBE016F557F4F45
:100250008CEF92E00E94DF0CCE018F559F4F0E94E1
:100260005B0CF80164817581CE018F559F4F0E9410
:10027000C90CBE016F557F4F82E093E00E94DF0CF6
:10028000CE018F559F4F0E945B0CF80166817781EC
:10029000CE018F559F4F0E94C90CBE016F557F4FF5
:1002A00088E093E00E94DF0CCE018F559F4F0E94A3
:1002B0005B0CF80160857185CE018F559F4F0E94C0
:1002C000C90CBE016F557F4F8EE093E00E94DF0C9A
:1002D000CE018F559F4F0E945B0CF801628573859C
:1002E000CE018F559F4F0E94C90CBE016F557F4FA5
:1002F00084E193E00E94DF0CCE018F559F4F0E9456
:100300005B0CF80164857585CE018F559F4F0E9467
:10031000C90CBE016F557F4F8AE193E00E94DF0C4C
:10032000CE018F559F4F0E945B0C81E001C080E0A1
:10033000CA55DF4F0FB6F894DEBF0FBECDBFDF91B9
:10034000CF911F910F91FF90EF90DF90CF90089584
:100350000F931F93CF93DF9368E071E086E293E001
:100360000E942A0C66E770E082E993E00E94F70B96
:1003700068EF70E086E293E00E941C0C68EF70E08A
:1003800082E993E00E941C0C62EF70E086E293E049
:100390000E941C0C62EF70E082E993E00E941C0C4A
:1003A00060E070E08CEE90E00E94BB0D882369F065
:1003B0006CE171E086E293E00E942A0C6CE171E04E
:1003C00082E993E00E942A0C18C06EE171E086E297
:1003D00093E00E942A0C68E670E082E993E00E94B4
:1003E000F70B6CEE70E086E293E00E941C0C6CEE62
:1003F00070E082E993E00E941C0CC0E0D0E06CE267
:1004000071E086E293E00E942A0C6CE271E082E9DE
:1004100093E00E942A0C8E010E531F4FB80186E212
:1004200093E00E941C0CB80182E993E00E941C0C2E
:100430006AEE71E086E293E00E942A0C6AEE71E0B7
:1004400082E993E00E942A0C8E0104501D4FB801EE
:1004500086E293E00E941C0CB80182E993E00E94BE
:100460001C0C2696C432D10551F66AE171E086E291
:1004700093E00E942A0C6AE171E082E993E00E9415
:100480002A0C86E293E00E94330C82E993E00E94FA
:10049000330C81E0DF91CF911F910F910895CF939D
:1004A000DF9320E042E063E086E293E00E948D0764
:1004B0006EE271E080E293E00E94C90C67E371E0B4
:1004C00088EF90E00E94C90C67E571E082EF90E050
:1004D0000E94C90C6CE671E08CEE90E00E94C90CA1
:1004E00061E871E086EE90E00E94C90C66E971E077
:1004F00082EC90E00E94C90C6BE971E088EC90E01E
:100500000E94C90C64EA71E08EEC90E00E94C90C74
:100510006EEA71E084ED90E00E94C90C67EB71E037
:100520008AED90E00E94C90C6DEB71E080EE90E0E6
:100530000E94C90CCCEFD2E060EE72E0CE010E94C6
:10054000C90C269683E0C032D807B1F760EE72E09E
:1005500086EF92E0DF91CF910C94C90CCF93DF939B
:1005600086EF92E00E945B0CC0E2D3E02697CE01BA
:100570000E945B0C82E0CC3FD807C1F7C6EED0E00A
:100580002697CE010E945B0C80E0C23CD807C1F7E1
:1005900086EE90E00E945B0C8CEE90E00E945B0C7B
:1005A00082EF90E00E945B0C88EF90E00E945B0C71
:1005B00080E293E00E945B0C86E293E0DF91CF91B2
:1005C0000C943407CF93CAE086E293E00E9454066D
:1005D000892B81F086E293E00E94C705682F82E9AB
:1005E00093E00E942C0C6AE070E080E090E00E94B2
:1005F000C408EACFC15041F7CF91089586E293E055
:100600000E945406892B59F086E293E00E94C705A8
:100610006AE070E080E090E00E94C408EFCF0895A7
:10062000CF936DE970E082E993E00E94F70B0E949E
:10063000A80160EF7AE080E090E00E94C4080E9488
:10064000FE026AE870E082E993E00E94F70B64EC36
:1006500071E086E293E00E94490CC3E364E670E037
:1006600080E090E00E94C4080E94E202C150B1F70D
:100670008091F502882389F064ED71E086E293E0D1
:100680000E94490CC8E064EF71E080E090E00E94B5
:10069000C4080E94E202C150B1F7CF9108958F9231
:1006A0009F92AF92BF92CF92DF92EF92FF920F9301
:1006B0001F93CF93DF93EC018B016A0160EE72E030
:1006C0000E94C90CF8018081882359F0B80186E2A4
:1006D00093E00E94490C64E670E080E090E00E94A4
:1006E000C4080E9495084B015C01E12CF12C86E2C4
:1006F00093E00E945406892B41F086E293E00E9429
:10070000C705BC01CE010E94890D0E949508681999
:1007100079098A099B096C157D058E059F0538F3BB
:10072000CE01DF91CF911F910F91FF90EF90DF905D
:10073000CF90BF90AF909F908F9008950F931F938D
:10074000CF93DF93CDB7DEB7A5970FB6F894DEBF92
:100750000FBECDBF8C0160EE71E0CE0180960E948D
:10076000C90C44E650E06CEE71E0CE0101960E94A7
:100770004F03CE0101960E945B0C44E650E068EF07
:1007800071E0CE0101960E944F03CE0101960E94B6
:100790005B0C44E650E065E072E0CE0101960E94F9
:1007A0004F03CE0101960E945B0C4AE0B801CE01D6
:1007B00001960E94170DBE016F5F7F4FCE0180969C
:1007C0000E946F0DCE0101960E945B0C20E030E08C
:1007D00049E150E0BE016F5F7F4FCE0180960E94DD
:1007E000DA0D44E650E0BE016F5F7F4FCE014A96BE
:1007F0000E944F03CE014A960E945B0CCE01809668
:100800000E945B0CA5960FB6F894DEBF0FBECDBF5D
:10081000DF91CF911F910F910895CF93DF9300D077
:1008200000D000D0CDB7DEB748EC50E064E172E014
:10083000CE0101960E944F03CE0101960E945B0CEF
:1008400048EC50E069E172E0CE0101960E944F034E
:10085000CE0101960E945B0C48EC50E063E272E02E
:10086000CE0101960E944F03CE0101960E945B0CBF
:1008700048EC50E06EE272E0CE0101960E944F0318
:10088000CE0101960E945B0C6CE472E086E293E07C
:100890000E942A0C60E273E086E293E00E941C0C46
:1008A0006AE171E086E293E00E942A0C86E293E01E
:1008B0000E94330C26960FB6F894DEBF0FBECDBF54
:1008C000DF91CF9108951F93CF93DF9300D000D095
:1008D00000D0CDB7DEB740E951E061E672E0CE016D
:1008E00001960E944F03CE0101960E945B0C1AEF05
:1008F00086E293E00E945406892B41F46AE070E09E
:1009000080E090E00E94C408115091F744E650E066
:100910006EE672E0CE0101960E944F03CE01019671
:100920000E945B0C44E650E06AE772E0CE0101965B
:100930000E944F03CE0101960E945B0C26960FB6D3
:10094000F894DEBF0FBECDBFDF91CF911F91089508
:10095000CF93DF9300D000D000D0CDB7DEB744E610
:1009600050E06EE872E0CE0101960E944F03CE0186
:1009700001960E945B0C48EE53E06AE972E0CE01FA
:1009800001960E944F03CE0101960E945B0C2696B1
:100990000FB6F894DEBF0FBECDBFDF91CF910895A3
:1009A000CF93DF9300D000D000D0CDB7DEB726E0E4
:1009B00040E855E260E070E082E993E00E94A20A1C
:1009C00040E855E260E070E086E293E00E94BD07F7
:1009D00068E873E180E090E00E94C4088AE090E05B
:1009E0000E949E030E940D0468EE73E080E090E098
:1009F0000E94C4080E94A80444E650E067EA72E03E
:100A0000CE0101960E944F03CE0101960E945B0C1D
:100A100068EA70E082E993E00E94370C26960FB6F0
:100A2000F894DEBF0FBECDBFDF91CF9108950F9335
:100A30001F93CF93DF9300D000D000D0CDB7DEB7A7
:100A400086E293E00E945406892B09F495C086E261
:100A500093E00E94C7058A3019F08D3009F087C0F5
:100A600061EB72E0CE0101960E94C90CBE016F5F7E
:100A70007F4F86EF92E00E94200E8C01CE010196FE
:100A80000E945B0C0130110509F05FC066EF72E057
:100A9000CE0101960E94F60CCE0101960E94D9006B
:100AA000182FCE0101960E945B0C112309F44DC052
:100AB00084E193E00E94240E9B01653071058CF463
:100AC0001092F3021092F2028091F4028F5F8093F1
:100AD000F4028330A1F18630C0F186E08093F40205
:100AE0002EC0AB01455051094F30510568F480913B
:100AF000F3028F5F8093F3021092F402823028F1A8
:100B000082E08093F3021BC0645171096431710566
:100B100068F48091F2028F5F8093F2021092F402E7
:100B2000882399F081E08093F20209C028323105D0
:100B300064F01092F4021092F3021092F2020E94FA
:100B400063040E9410030E94A80460EE72E0CE01CC
:100B500001960E94C90CBE016F5F7F4F86EF92E045
:100B60000E94DF0CCE0101960E945B0C05C0682F2D
:100B700086EF92E00E94760D26960FB6F894DEBFBF
:100B80000FBECDBFDF91CF911F910F91089520919E
:100B900087033091880328173907B9F490914503EA
:100BA00080914603981789F0E0914503F0E0E95BF6
:100BB000FC4F80812091450330E02F5F3F4F2F7322
:100BC00033272093450390E008958FEF9FEF08951A
:100BD0001F93CF93DF93DC015C968D919C915D9781
:100BE000009749F481E090E013969C938E931297BE
:100BF00080E090E03BC05196ED91FC915297509669
:100C00002C915097322F30951FB75E964C915E977E
:100C100041FB772770F941FD6095F8944081772377
:100C200011F0422B01C043234083EC012197F1F7DF
:100C300048E0508160FF02C0522B01C05323508313
:100C4000EC012197F1F76695415099F78081772360
:100C500011F0832301C0822B80831FBF5C968D918E
:100C60009C915D970197F1F781E090E0DF91CF9142
:100C70001F91089520918703309188032817390721
:100C800081F49091450380914603981751F0E091CB
:100C90004503F0E0E95BFC4F8081992787FD909543
:100CA00008958FEF9FEF0895209187033091880377
:100CB0002817390771F4809146032091450390E08D
:100CC000805C9F4F821B910960E470E00E94300EAF
:100CD000089580E090E00895209187033091880383
:100CE0002817390739F48FB7F894109246031092F9
:100CF00045038FBF0895E0918703F0918803E817BB
:100D0000F90769F4A389B4899C9185898095892321
:100D10008C93109288031092870381E0089580E0FD
:100D20000895CF93DF93EC018A8D9B8D892BF1F091
:100D300080918703909188038C179D07B9F00097E5
:100D400011F00E947B068E8D8E7F8E8F109246034F
:100D500010924503D0938803C0938703EB89FC89E5
:100D600080819D89892B808381E001C080E0DF91B3
:100D7000CF9108951F920F920FB60F9211242F93C7
:100D80003F934F935F936F937F938F939F93AF9313
:100D9000BF93EF93FF93E0918703F091880330971F
:100DA00009F451C0868DA685B785958581FF04C05D
:100DB0008C91892329F447C08C91892309F043C081
:100DC000A389B4899C918589809589238C93868990
:100DD00097890197F1F7208D318DA685B7857585A7
:100DE00058E040E0C9010197F1F7842F90E0959514
:100DF0008795482F6C91672309F04068515091F70F
:100E0000868D81FD40958091460390E001968F7319
:100E1000992720914503281749F0A0914603B0E097
:100E2000A95BBC4F4C938093460303C0868D8160C1
:100E3000868F828D938D0197F1F7A389B4898C9168
:100E40009589892B8C93FF91EF91BF91AF919F91E1
:100E50008F917F916F915F914F913F912F910F9063
:100E60000FBE0F901F90189522EC32E0FC013183E9
:100E700020830C947B061F93CF93DF93EC01162FF6
:100E80006E8D6695617081E06827812F0E948909C7
:100E900061E0812F0E945009812F90E0FC01EE5EFD
:100EA000FE4FE491E88BFC01EA5DFE4FE491F0E037
:100EB000EE0FFF1FEC5BFE4F859194919A8B898B0F
:100EC000DF91CF911F9108951F93CF93DF93EC0192
:100ED000162F60E0812F0E9450098E8D81FD04C085
:100EE00061E0812F0E9489091C87812F90E0FC011D
:100EF000EE5EFE4FE491ED87FC01EA5DFE4FE4916A
:100F0000F0E0EE0FFF1FE65CFE4F859194919F8706
:100F10008E87DF91CF911F910895FF920F931F93BA
:100F2000CF93DF93EC01F62E522F1B821A8208EE2C
:100F300013E020E030E00C831D832E833F8382EC9E
:100F400092E0998388831F8A1E8A198E188E1B8EC1
:100F50001A8E1D8E1C8E8E8D8E7F50FB81F98E8F8A
:100F6000642FCE010E943B076F2DCE01DF91CF9100
:100F70001F910F91FF900C946407CF93DF93EC01C6
:100F80009A01AB011B8E1A8E198E188E1F8A1E8A2B
:100F900060E079E08DE390E00E94660EC9012430A4
:100FA000310520F0B9016350710902C061E070E0C1
:100FB0007D8F6C8FEC85E63108F068C0B9017695BD
:100FC00067956431710518F06351710902C061E0E1
:100FD00070E07F8B6E8B069718F0C901059702C0F1
:100FE00081E090E0998F888FC901880F991F820F47
:100FF000931F96958795969587958D30910510F05E
:101000000C9702C081E090E09B8F8A8F209168004E
:10101000E83050F091E0EE3008F490E081E001C05B
:10102000880F9A95EAF701C084E0822B80936800CC
:101030002C85283038F02E3040F0263148F48CE6EC
:1010400090E008C08DE690E005C08BE690E002C01D
:1010500080E090E09C8B8B8B283030F481E001C0E5
:10106000880F2A95EAF70DC0822F90E02E3010F4F9
:10107000089701C00E9791E001C0990F8A95EAF791
:10108000892F8D8B8C8D9D8D0197F1F7CE01DF918E
:10109000CF910C9491061F920F920FB60F921124CC
:1010A0002F933F938F939F93AF93BF9380918A0326
:1010B00090918B03A0918C03B0918D0330918903A3
:1010C00023E0230F2D3720F40196A11DB11D05C08B
:1010D00026E8230F0296A11DB11D2093890380935A
:1010E0008A0390938B03A0938C03B0938D0380911C
:1010F0008E0390918F03A0919003B091910301967C
:10110000A11DB11D80938E0390938F03A093900334
:10111000B0939103BF91AF919F918F913F912F9188
:101120000F900FBE0F901F9018952FB7F8946091F5
:101130008A0370918B0380918C0390918D032FBF54
:1011400008953FB7F89480918E0390918F03A091FA
:101150009003B091910326B5A89B05C02F3F19F0CD
:101160000196A11DB11D3FBF6627782F892F9A2FA9
:10117000620F711D811D911D42E0660F771F881F50
:10118000991F4A95D1F70895CF92DF92EF92FF927F
:10119000CF93DF936B017C010E94A108EB01C11486
:1011A000D104E104F10489F00E942F0E0E94A108ED
:1011B0006C1B7D0B683E734090F381E0C81AD10828
:1011C000E108F108C851DC4FEACFDF91CF91FF90E1
:1011D000EF90DF90CF900895789484B5826084BDBD
:1011E00084B5816084BD85B5826085BD85B581602B
:1011F00085BDEEE6F0E0808181608083E1E8F0E08B
:101200001082808182608083808181608083E0E8B9
:10121000F0E0808181608083E1EBF0E08081846098
:101220008083E0EBF0E0808181608083EAE7F0E09A
:1012300080818460808380818260808380818160FE
:1012400080838081806880831092C10008958330FC
:1012500081F028F4813099F08230A1F00895873030
:10126000A9F08830B9F08430D1F4809180008F7D6E
:1012700003C0809180008F7780938000089584B5AB
:101280008F7702C084B58F7D84BD08958091B000B2
:101290008F7703C08091B0008F7D8093B000089558
:1012A000CF93DF9390E0FC01EE5EFE4F2491FC01B2
:1012B000EA5DFE4F8491882349F190E0880F991FE1
:1012C000FC01E25BFE4FA591B4918C5B9E4FFC014B
:1012D000C591D4919FB7611108C0F8948C91209565
:1012E00082238C93888182230AC0623051F4F8945F
:1012F0008C91322F309583238C938881822B888325
:1013000004C0F8948C91822B8C939FBFDF91CF9176
:1013100008950F931F93CF93DF931F92CDB7DEB73E
:10132000282F30E0F901E250FF4F8491F901EE5E81
:10133000FE4F1491F901EA5DFE4F04910023C9F0BC
:10134000882321F069830E9427096981E02FF0E05A
:10135000EE0FFF1FEC5BFE4FA591B4919FB7F89481
:101360008C91611103C01095812301C0812B8C9356
:101370009FBF0F90DF91CF911F910F910895FC01B6
:10138000818D228D90E0805C9F4F821B91098F732D
:1013900099270895FC01918D828D981731F0828DE7
:1013A000E80FF11D858D90E008958FEF9FEF089570
:1013B000FC01918D828D981761F0828DDF01A80F5D
:1013C000B11D5D968C91928D9F5F9F73928F90E07F
:1013D00008958FEF9FEF08958CE59BE0892B49F0EE
:1013E00080E090E0892B29F00E945C0B81110C9425
:1013F00000000895FC01848DDF01A80FB11DA35AE0
:10140000BF4F2C91848D90E001968F739927848F24
:10141000A689B7892C93A089B1898C9180648C931B
:10142000938D848D981306C00288F389E02D808106
:101430008F7D80830895CF93DF93EC01888D88237F
:10144000C9F0EA89FB89808185FD05C0A889B98931
:101450008C9186FD0FC00FB607FCF5CF808185FF0C
:10146000F2CFA889B9898C9185FFEDCFCE010E947A
:10147000FA09E7CFDF91CF910895CF92DF92FF92E3
:101480000F931F93CF93DF931F92CDB7DEB76C01FD
:1014900081E0D60158968C9358975B969C915B9708
:1014A0005C968C915C97981307C05096ED91FC91D7
:1014B0005197808185FD2EC0F601038D10E00F5FEE
:1014C0001F4F0F731127F02EF601848DF81211C0F3
:1014D0000FB607FCF9CFD6015096ED91FC915197CC
:1014E000808185FFF1CFC60169830E94FA09698175
:1014F000EBCF838DE80FF11DE35AFF4F6083D601D8
:101500005B960C935B975296ED91FC91539780817B
:1015100080620CC0D6015696ED91FC91579760837E
:101520005096ED91FC91519780818064808381E099
:1015300090E00F90DF91CF911F910F91FF90DF907E
:10154000CF900895BF92CF92DF92EF92FF92CF9308
:10155000DF93EC016A017B01B22EE889F98982E010
:101560008083411581EE580761057105A1F060E0A7
:1015700079E08DE390E0A70196010E94440E21508E
:1015800031094109510956954795379527952115F8
:1015900080E1380798F0E889F989108260E874E8FA
:1015A0008EE190E0A70196010E94440E215031097E
:1015B000410951095695479537952795EC85FD8545
:1015C0003083EE85FF852083188EEC89FD89B082FB
:1015D000EA89FB89808180618083EA89FB89808137
:1015E00088608083EA89FB89808180688083EA89BA
:1015F000FB8980818F7D8083DF91CF91FF90EF9079
:10160000DF90CF90BF9008951F920F920FB60F9268
:1016100011242F938F939F93EF93FF93E091A20355
:10162000F091A3038081E091A803F091A90382FDCA
:1016300012C090818091AB038F5F8F732091AC03B8
:10164000821751F0E091AB03F0E0EE56FC4F958F1E
:101650008093AB0301C08081FF91EF919F918F91A7
:101660002F910F900FBE0F901F9018951F920F9201
:101670000FB60F9211242F933F934F935F936F9365
:101680007F938F939F93AF93BF93EF93FF9382E9E1
:1016900093E00E94FA09FF91EF91BF91AF919F9162
:1016A0008F917F916F915F914F913F912F910F900B
:1016B0000FBE0F901F90189582E993E00E94BF091A
:1016C00021E0892B09F420E0822F089510929503E0
:1016D0001092940388EE93E0A0E0B0E0809396032C
:1016E00090939703A0939803B093990382ED92E0AF
:1016F000909393038093920385EC90E090939F03E3
:1017000080939E0384EC90E09093A1038093A003C8
:1017100080EC90E09093A3038093A20381EC90E08F
:101720009093A5038093A40382EC90E09093A70389
:101730008093A60386EC90E09093A9038093A8037E
:101740001092AB031092AC031092AD031092AE0353
:10175000089508950E94EC080E94A90B0E94D004ED
:10176000CCEED9E00E9417052097E1F30E94EC0926
:10177000F9CFCF92DF92EF92FF920F931F93CF9307
:10178000DF936C017A01EB01E60EF71E00E010E03A
:10179000CE15DF0561F06991D601ED91FC910190C4
:1017A000F081E02DC6010995080F191FF1CFC8017E
:1017B000DF91CF911F910F91FF90EF90DF90CF902D
:1017C00008956115710581F0DB010D900020E9F7A6
:1017D000AD0141505109461B570BDC01ED91FC91C5
:1017E0000280F381E02D099480E090E00895EF926B
:1017F000FF920F931F93CF93DF938C01FB01C0E007
:10180000D0E064917F018FEFE81AF80A662361F057
:10181000D801ED91FC910190F081E02DC80109956E
:10182000C80FD91FF701EDCFCE01DF91CF911F91E6
:101830000F91FF90EF900895DC01ED91FC91DB0199
:1018400014964D915C9115976D917C910280F38176
:10185000E02D09940C94E10BDC01ED91FC910190D9
:10186000F081E02D09946EED72E00C94E10B0F9382
:101870001F93CF93DF93EC010E94F70B8C01CE01F5
:101880000E94330C800F911FDF91CF911F910F9118
:1018900008950F931F93CF93DF93EC010E94E10B08
:1018A0008C01CE010E94330C800F911FDF91CF91EC
:1018B0001F910F910895FC01808191810C94370F45
:1018C000CF93DF93EC0188819981009711F00E94FA
:1018D000370F198218821D821C821B821A82DF91A7
:1018E000CF9108950F931F93CF93DF93EC018B015A
:1018F0006F5F7F4F888199810E94C60F009731F0FA
:10190000998388831B830A8381E001C080E0DF9193
:10191000CF911F910F910895CF93DF93EC018881B0
:101920009981892B29F08A819B818617970760F41A
:10193000CE010E94720C882341F08C819D81892BFD
:1019400019F4E881F981108281E0DF91CF91089547
:10195000EF92FF920F931F93CF93DF93EC017B01E4
:101960008A01BA010E948C0C811104C0CE010E9430
:10197000600C07C01D830C83B701888199810E9488
:10198000D910CE01DF91CF911F910F91FF90EF9071
:101990000895FC0111821082138212821582148232
:1019A0006115710559F0FB0101900020E9F7AF01C5
:1019B00041505109461B570B0C94A80C0895CF9326
:1019C000DF93EC01FB018617970761F0608171815D
:1019D0006115710529F0448155810E94A80C02C04F
:1019E0000E94600CCE01DF91CF910895FC0111821D
:1019F000108213821282158214820C94DF0CCF9312
:101A0000DF93EC016115710561F0FB01019000208D
:101A1000E9F7AF0141505109461B570B0E94A80C32
:101A200002C00E94600CCE01DF91CF9108950F9308
:101A30001F93CF93DF93CDB7DEB762970FB6F894BD
:101A4000DEBF0FBECDBF8C01CB01F8011182108229
:101A5000138212821582148250E0BE016F5F7F4FA5
:101A60000E943011BE016F5F7F4FC8010E94FF0CC2
:101A700062960FB6F894DEBF0FBECDBFDF91CF9157
:101A80001F910F910895EF92FF920F931F93CF93A1
:101A9000DF93EC017B010C811D816115710511F44F
:101AA00080E016C04115510591F0040F151FB801D3
:101AB0000E948C0C8823A1F3288139818C819D811F
:101AC000B701820F931F0E94D9101D830C8381E000
:101AD000DF91CF911F910F91FF90EF900895FB013F
:101AE00044815581608171810C94430DCF93DF93C4
:101AF00000D0CDB7DEB769831A8241E050E0BE0165
:101B00006F5F7F4F0E94430D0F900F90DF91CF9139
:101B10000895EF92FF920F931F93CF93DF93CDB76A
:101B2000DEB728970FB6F894DEBF0FBECDBF7C019D
:101B3000CB014AE050E08E010F5F1F4FB8010E94B9
:101B40003011F80101900020E9F7AF01415051092F
:101B5000401B510BB801C7010E94430D28960FB6D8
:101B6000F894DEBF0FBECDBFDF91CF911F910F91D3
:101B7000FF90EF900895FC0124813581232B31F4EF
:101B800021E061157105A1F0FB0108C0FC01808115
:101B900091816115710531F421E0FC018081882378
:101BA00039F005C00E94D01021E0892B09F020E017
:101BB000822F08950F931F93CF93DF93EB0141156D
:101BC0005105E9F02097D9F0FC0164817581261751
:101BD0003707A0F4621B730B8A01015011096017CB
:101BE000710708F48B01FC0160817181620F731F22
:101BF000A801CE010E94E010C00FD11F1882DF9112
:101C0000CF911F910F910895CF93DF93FC018481B1
:101C100095814817590778F4C081D181FB01608113
:101C20007181CE01840F951F0E94EF10009719F06B
:101C30008C1B9D0B02C08FEF9FEFDF91CF9108951A
:101C400040E050E00C94040EFC01808191810097EB
:101C500011F00C94901060E070E0CB0108950895AD
:101C600097FB072E16F4009407D077FD09D00E9449
:101C7000850E07FC05D03EF4909581959F4F089501
:101C8000709561957F4F0895A1E21A2EAA1BBB1B88
:101C9000FD010DC0AA1FBB1FEE1FFF1FA217B30738
:101CA000E407F50720F0A21BB30BE40BF50B661F4E
:101CB000771F881F991F1A9469F760957095809512
:101CC00090959B01AC01BD01CF010895052E97FBB6
:101CD0001EF400940E947D0E57FD07D00E94440E12
:101CE00007FC03D04EF40C947D0E50954095309532
:101CF00021953F4F4F4F5F4F089590958095709578
:101D000061957F4F8F4F9F4F0895AA1BBB1B51E1D9
:101D100007C0AA1FBB1FA617B70710F0A61BB70B5B
:101D2000881F991F5A95A9F780959095BC01CD0100
:101D30000895EE0FFF1F0590F491E02D0994CF93C5
:101D4000DF938230910510F482E090E0E09131045D
:101D5000F091320420E030E0A0E0B0E0309739F1BB
:101D60004081518148175907B8F04817590771F455
:101D700082819381109729F013969C938E931297EA
:101D80002CC0909332048093310427C02115310573
:101D900031F04217530718F0A901DB0101C0EF0130
:101DA0009A01BD01DF010280F381E02DD7CF21151B
:101DB0003105F9F0281B390B2430310580F48A8174
:101DC0009B816115710521F0FB019383828304C01F
:101DD0009093320480933104FE01329644C0FE0198
:101DE000E20FF31F819391932250310939832883A5
:101DF0003AC020912F0430913004232B41F42091DC
:101E00000201309103013093300420932F0420917C
:101E10000001309101012115310541F42DB73EB784
:101E20004091040150910501241B350BE0912F04D2
:101E3000F0913004E217F307A0F42E1B3F0B281794
:101E4000390778F0AC014E5F5F4F2417350748F033
:101E50004E0F5F1F5093300440932F048193919352
:101E600002C0E0E0F0E0CF01DF91CF910895CF9381
:101E7000DF93009709F487C0FC0132971382128226
:101E8000C0913104D0913204209781F420813181B6
:101E9000280F391F80912F049091300482179307E7
:101EA00079F5F0933004E0932F046DC0DE0120E05B
:101EB00030E0AE17BF0750F412964D915C91139726
:101EC0009D014115510509F1DA01F3CFB383A283D6
:101ED00040815181840F951F8A179B0771F48D9162
:101EE0009C911197840F951F02969183808312967F
:101EF0008D919C911397938382832115310529F449
:101F0000F0933204E09331043EC0D9011396FC9360
:101F1000EE9312974D915D91A40FB51FEA17FB0741
:101F200079F480819181840F951F0296D9011196D1
:101F30009C938E938281938113969C938E93129798
:101F4000E0E0F0E08A819B81009719F0FE01EC014E
:101F5000F9CFCE01029628813981820F931F2091FB
:101F60002F04309130042817390769F4309729F489
:101F7000109232041092310402C013821282D09364
:101F80003004C0932F04DF91CF910895A0E0B0E01A
:101F9000ECECFFE00C948911EC01CB01209719F4D3
:101FA0000E949F0EB8C0FE01E60FF71F9E0122504F
:101FB0003109E217F30708F4ACC0D9010D911C9167
:101FC000119706171707B8F00530110508F49FC0E0
:101FD000A801445051094617570708F498C0025009
:101FE0001109061B170B019311936D937C93CF017D
:101FF0000E94370F8CC05B01A01AB10A4E01800EFF
:10200000911EA0913104B0913204612C712C60E0DA
:1020100070E0109709F449C0A815B905C9F5ED900D
:10202000FC901197670142E0C40ED11CCA14DB0476
:1020300078F147018A189B08640142E0C40ED11C64
:102040001296BC9012971396AC91B5E0CB16D104C2
:1020500040F0B282A38391828082D9018D939C93B8
:1020600009C00E5F1F4F0E0D1F1DF9011183008364
:10207000EB2DFA2F6115710531F0DB011396FC93FE
:10208000EE93129744C0F0933204E09331043FC0C2
:102090006D917C9111976616770608F43B01BD019E
:1020A00012960D90BC91A02DB4CF60912F04709129
:1020B000300468157905E9F468167906D0F4409182
:1020C0000001509101014115510541F44DB75EB732
:1020D0006091040170910501461B570BE417F50749
:1020E000C0F4F0933004E0932F04F90191838083CE
:1020F0000EC00E949F0E7C01009759F0A801BE01FE
:102100000E94BC10CE010E94370FC70104C0CE014F
:1021100002C080E090E0CDB7DEB7EEE00C94A511F0
:102120001F93FC0199278827BC01E8941191103274
:10213000E9F3193010F01E30C8F31B3251F01D3294
:1021400049F4689406C00E944611610F711D811DFB
:10215000911D119110531A30B0F33EF49095809573
:10216000709561957F4F8F4F9F4F1F91089540EF5E
:1021700052E00E9409110895FB01DC0102C00190A8
:102180000D9241505040D8F70895FC018191861777
:1021900021F08823D9F7992708953197CF01089521
:1021A000FB01DC018D91019080190110D9F3990B8D
:1021B0000895FB01DC0101900D920020E1F70895E4
:1021C000FB01DC014150504048F001900D9200208D
:1021D000C9F701C01D9241505040E0F70895FB013E
:1021E00051915523A9F0BF01DC014D9145174111D3
:1021F000E1F759F4CD010190002049F04D914015CF
:102200004111C9F3FB014111EFCF81E090E001974B
:102210000895FA01A191B081009719F41097E1F0A7
:10222000CD01DC01CD010D90002011F4C00113C0DF
:10223000FB012191222319F02015D9F7F3CFFB01DF
:102240002191201519F41E92119606C02223C1F780
:102250000D900020A1F7D001FA01A193B083089559
:102260004532510520F4423010F00C943B11FB0133
:102270001082CB010895BB274A3031F4992322F410
:10228000BDE2909581959F4F0C945C11592F482F7A
:10229000372F262F660F771F881F991F660F771F0E
:1022A000881F991F620F731F841F951F660F771F6A
:1022B000881F991F0895BB27FB015527AA27880F60
:1022C000991FAA1FA41710F0A41B83955051B9F7AA
:1022D000A05DAA3308F0A95DA193009779F7B11129
:1022E000B1931192CB010C947511DC01FC01672FA5
:1022F00071917723E1F7329704C07C916D937083DD
:102300006291AE17BF07C8F308952F923F924F9284
:102310005F926F927F928F929F92AF92BF92CF9275
:10232000DF92EF92FF920F931F93CF93DF93CDB77E
:10233000DEB7CA1BDB0B0FB6F894DEBF0FBECDBFF6
:1023400009942A88398848885F846E847D848C84C7
:102350009B84AA84B984C884DF80EE80FD800C81D0
:102360001B81AA81B981CE0FD11D0FB6F894DEBFB3
:102370000FBECDBFED01089511E0CCE5D1E004C062
:10238000FE010E949B0E2296CE35D107C9F7F89424
:02239000FFCF7D
:102392000000330480002C0041542B485454505008
:1023A2004152413D2255524C222C22003F003F70A7
:1023B2007269766174655F6B65793D002600696EAE
:1023C2007465726E657400687474703A2F2F64615C
:1023D20074612E737061726B66756E2E636F6D2FF2
:1023E200696E7075742F004E4A36355241724762DB
:1023F200525564334138444E786162003564526507
:10240200447259396D44684A593070425061376795
:1024120000427065354C324E5A394C55616B4C5204
:102422006541344F570064617465006C617469746E
:10243200756465006C6F6E67697475646500616CC4
:1024420074697475646500737065656400636F75A3
:102452007273650041542B48545450414354494FC0
:102462004E3D300041542B48545450524541440093
:1024720041542B43474E535552433D0041542B493F
:1024820050523D393630300041542B43474E535061
:1024920057523D310041542B43474E535345513D12
:1024A200524D4300415445300041542B434D474661
:1024B2003D310041542B43474154543D3100415476
:1024C2002B53415042523D332C312C22434F4E5418
:1024D200595045222C2247505253220041542B532B
:1024E200415042523D332C312C2241504E222C225B
:1024F2000041542B53415042523D312C3100415442
:102502002B48545450494E49540041542B4854547A
:1025120050504152413D22434944222C3100415402
:102522002B485454505445524D0041542B53415062
:1025320042523D302C310041542B434D47443D34EF
:102542000055474E53494E463A20312C3100000087
:102552000000E805B90B5406C7053A066C060000F0
:1025620000003D0AB90BBF09D809CA091B0A0D0AA6
:10257200006E616E00696E66006F7666002E000066
:00000001FF
