:100000000C9491000C94B9000C94B9000C94C106A6
:100010000C94C1060C94C1060C94B9000C94B90060
:100020000C94B9000C94B9000C94B9000C94B9006C
:100030000C94B9000C94B9000C94B9000C94B9005C
:100040000C9452080C94B9000C940B0B0C943D0BBF
:100050000C94B9000C94B9000C94B9000C94B9003C
:100060000C94B9000C94B9003F70726976617465A4
:100070005F6B65793D0041542B48545450504152B8
:10008000413D2255524C222C22004D616B65204788
:10009000455420526571756573743A200053656E3E
:1000A000642055524C3A200050726F75646C792070
:1000B0004D61646520696E20496E646F6E65736979
:1000C00061000000000800020100000304070000B6
:1000D000000000000000010204081020408001021E
:1000E000040810200102040810200404040404047D
:1000F00004040202020202020303030303030000DA
:100100000000230026002900000000002500280030
:100110002B0000000000240027002A0031026D0B94
:10012000900211241FBECFEFD8E0DEBFCDBF12E09A
:10013000A0E0B1E0E0EAF3E202C005900D92A03F3A
:10014000B107D9F724E0A0EFB2E001C01D92A037BB
:10015000B207E1F711E0C0E2D1E004C02297FE014E
:100160000E94A20ECC31D107C9F70E94B10B0C94AA
:10017000C3110C940000CF92DF92EF92FF920F9385
:100180001F93CF93DF93CDB7DEB7C65AD1090FB611
:10019000F894DEBF0FBECDBF8E010F5F1F4F24E668
:1001A000F80111922A95E9F720E030E044E650E0AA
:1001B000B8010E94E10D66E071E0C8010E94BE1026
:1001C0007E01F5E6EF0EF11C67018CE3C80ED11C31
:1001D000870166E071E080E090E00E94BE10F701C8
:1001E000819391937F01EC15FD0599F7F801E28069
:1001F000F38061E370E0C7010E94CC10892B09F401
:1002000078C0B701CE018F559F4F0E94D00CBE0120
:100210006F557F4F8DEF92E00E94E60CCE018F5517
:100220009F4F0E94620CF80164817581CE018F5549
:100230009F4F0E94D00CBE016F557F4F83E093E02B
:100240000E94E60CCE018F559F4F0E94620CF80170
:1002500066817781CE018F559F4F0E94D00CBE01E1
:100260006F557F4F89E093E00E94E60CCE018F55D9
:100270009F4F0E94620CF80160857185CE018F55F9
:100280009F4F0E94D00CBE016F557F4F8FE093E0CF
:100290000E94E60CCE018F559F4F0E94620CF80120
:1002A00062857385CE018F559F4F0E94D00CBE0191
:1002B0006F557F4F85E193E00E94E60CCE018F558C
:1002C0009F4F0E94620CF80164857585CE018F55A1
:1002D0009F4F0E94D00CBE016F557F4F8BE193E082
:1002E0000E94E60CCE018F559F4F0E94620C81E068
:1002F00001C080E0CA55DF4F0FB6F894DEBF0FBED5
:10030000CDBFDF91CF911F910F91FF90EF90DF90C4
:10031000CF9008950F931F93CF93DF9368E071E020
:1003200083E693E00E94310C66E770E08FEC93E087
:100330000E94FE0B67E573E083E693E00E94230CC6
:1003400067E573E08FEC93E00E94230C61E573E0B6
:1003500083E693E00E94230C61E573E08FEC93E069
:100360000E94230C60E070E08BE493E00E94C20DD9
:10037000882369F06CE171E083E693E00E94310C20
:100380006CE171E08FEC93E00E94310C18C06EE1DB
:1003900071E083E693E00E94310C68E670E08FEC38
:1003A00093E00E94FE0B6BE473E083E693E00E940F
:1003B000230C6BE473E08FEC93E00E94230CC0E00D
:1003C000D0E06CE271E083E693E00E94310C6CE2D5
:1003D00071E08FEC93E00E94310C8E010F5D1C4F99
:1003E000B80183E693E00E94230CB8018FEC93E000
:1003F0000E94230C6AEE71E083E693E00E94310CC8
:100400006AEE71E08FEC93E00E94310C8E01035094
:100410001D4FB80183E693E00E94230CB8018FECD6
:1004200093E00E94230C2696C432D10551F66AE16E
:1004300071E083E693E00E94310C6AE171E08FEC99
:1004400093E00E94310C83E693E00E943A0C8FEC1B
:1004500093E00E943A0C81E0DF91CF911F910F91C0
:100460000895CF93DF9320E042E063E083E693E0DA
:100470000E9494076EE271E08DE593E00E94D00C3B
:1004800067E371E087E593E00E94D00C67E571E0D7
:1004900081E593E00E94D00C6CE671E08BE493E080
:1004A0000E94D00C61E871E085E493E00E94D00CDA
:1004B00066E971E081E293E00E94D00C6BE971E0A3
:1004C00087E293E00E94D00C64EA71E08DE293E051
:1004D0000E94D00C6EEA71E083E393E00E94D00C9E
:1004E00067EB71E089E393E00E94D00C6DEB71E063
:1004F0008FE393E00E94D00CCDEFD2E060EE72E08B
:10050000CE010E94D00C269683E0C132D807B1F705
:1005100060EE72E087EF92E0DF91CF910C94D00C07
:10052000CF93DF9387EF92E00E94620CC1E2D3E0A9
:100530002697CE010E94620C82E0CD3FD807C1F71A
:10054000C5E4D3E02697CE010E94620C83E0C1325D
:10055000D807C1F785E493E00E94620C8BE493E036
:100560000E94620C81E593E00E94620C87E593E0B3
:100570000E94620C8DE593E00E94620C83E693E09A
:10058000DF91CF910C943B07CF93CAE083E693E0D1
:100590000E945B06892B81F083E693E00E94CE05E2
:1005A000682F8FEC93E00E94330C6AE070E080E0EB
:1005B00090E00E94CB08EACFC15041F7CF91089557
:1005C00083E693E00E945B06892B59F083E693E073
:1005D0000E94CE056AE070E080E090E00E94CB08C7
:1005E000EFCF0895CF936DE970E08FEC93E00E9418
:1005F000FE0B0E948A0160EF7AE080E090E00E94AA
:10060000CB080E94E0026AE870E08FEC93E00E9461
:10061000FE0B64EC71E083E693E00E94500CC3E3B0
:1006200064E670E080E090E00E94CB080E94C40283
:10063000C150B1F78091F602882389F064ED71E032
:1006400083E693E00E94500CC8E064EF71E080E024
:1006500090E00E94CB080E94C402C150B1F7CF9134
:1006600008958F929F92AF92BF92CF92DF92EF92B6
:10067000FF920F931F93CF93DF93EC018B016A01DD
:1006800060EE72E00E94D00CF8018081882359F05E
:10069000B80183E693E00E94500C64E670E080E0CD
:1006A00090E00E94CB080E949C084B015C01E12C69
:1006B000F12C83E693E00E945B06892B41F083E6F0
:1006C00093E00E94CE05BC01CE010E94900D0E94D5
:1006D0009C08681979098A099B096C157D058E05A6
:1006E0009F0538F3CE01DF91CF911F910F91FF90BD
:1006F000EF90DF90CF90BF90AF909F908F90089534
:100700000F931F93CF93DF93CDB7DEB7A5970FB6A7
:10071000F894DEBF0FBECDBF8C0160EE71E0CE015C
:1007200080960E94D00C44E650E06CEE71E0CE0161
:1007300001960E943103CE0101960E94620C44E6AC
:1007400050E068EF71E0CE0101960E943103CE01C6
:1007500001960E94620C44E650E065E072E0CE0132
:1007600001960E943103CE0101960E94620C4AE07C
:10077000B801CE0101960E941E0DBE016F5F7F4F32
:10078000CE0180960E94760DCE0101960E94620CE9
:1007900020E030E049E150E0BE016F5F7F4FCE01C5
:1007A00080960E94E10D44E650E0BE016F5F7F4FEE
:1007B000CE014A960E943103CE014A960E94620CF5
:1007C000CE0180960E94620CA5960FB6F894DEBF0B
:1007D0000FBECDBFDF91CF911F910F910895CF93A1
:1007E000DF9300D000D000D0CDB7DEB744E650E0B4
:1007F00064E172E0CE0101960E943103CE010196C0
:100800000E94620C44E650E069E172E0CE0101967C
:100810000E943103CE0101960E94620C44E650E032
:1008200063E272E0CE0101960E943103CE0101968F
:100830000E94620C44E650E06EE272E0CE01019646
:100840000E943103CE0101960E94620C6CE472E0BA
:1008500083E693E00E94310C6DE573E083E693E05C
:100860000E94230C6AE171E083E693E00E94310C60
:1008700083E693E00E943A0C26960FB6F894DEBF0A
:100880000FBECDBFDF91CF9108951F93CF93DF931C
:1008900000D000D000D0CDB7DEB740E951E061E62E
:1008A00072E0CE0101960E943103CE0101960E94B2
:1008B000620C1AEF83E693E00E945B06892B41F4F9
:1008C0006AE070E080E090E00E94CB08115091F760
:1008D00044E650E06EE672E0CE0101960E943103DC
:1008E000CE0101960E94620C44E650E06AE772E095
:1008F000CE0101960E943103CE0101960E94620C46
:1009000026960FB6F894DEBF0FBECDBFDF91CF9114
:100910001F910895CF93DF9300D000D000D0CDB7C2
:10092000DEB744E650E06EE872E0CE0101960E9428
:100930003103CE0101960E94620C48EE53E06AE951
:1009400072E0CE0101960E943103CE0101960E9411
:10095000620C26960FB6F894DEBF0FBECDBFDF91B6
:10096000CF910895CF93DF9300D000D000D0CDB7C2
:10097000DEB726E040E855E260E070E08FEC93E0FF
:100980000E94A90A40E855E260E070E083E693E047
:100990000E94C40768E873E180E090E00E94CB0801
:1009A0008AE090E00E9480030E94EF0368EE73E00B
:1009B00080E090E00E94CB080E948A0444E650E068
:1009C00067EA72E0CE0101960E943103CE010196E2
:1009D0000E94620C68EA70E08FEC93E00E943E0C8B
:1009E00026960FB6F894DEBF0FBECDBFDF91CF9134
:1009F00008950F931F93CF93DF9300D000D000D0C2
:100A0000CDB7DEB783E693E00E945B06892B09F43D
:100A1000BAC083E693E00E94CE058A3019F08D308B
:100A200009F0ACC061EB72E0CE0101960E94D00CDF
:100A3000BE016F5F7F4F87EF92E00E94270E8C010F
:100A4000CE0101960E94620C0130110509F084C0AC
:100A500067EF72E0CE0101960E94FD0CCE01019677
:100A60000E94BB00182FCE0101960E94620C112338
:100A700009F472C085E193E00E942B0E9B01633064
:100A8000710594F41092F4021092F3021092F202A3
:100A90008091F5028F5F8093F5028B3508F448C092
:100AA00082E08093F50252C0AB01435051094830B7
:100AB000510588F41092F5021092F3021092F2029E
:100AC0008091F4028F5F8093F402873088F182E096
:100AD0008093F4023BC0AB014B5051094A305105A1
:100AE00088F41092F5021092F4021092F2028091B2
:100AF000F3028F5F8093F3028430D0F082E0809322
:100B0000F30224C06551710963317105A0F410929C
:100B1000F5021092F4021092F3028091F2028F5FBC
:100B20008093F202833020F082E08093F2020EC0C4
:100B3000813091F40BC02832310574F01092F50227
:100B40001092F4021092F3021092F2020E944504F5
:100B50000E94F2020E948A0460EE72E0CE010196C9
:100B60000E94D00CBE016F5F7F4F87EF92E00E9422
:100B7000E60CCE0101960E94620C05C0682F87EF3B
:100B800092E00E947D0D26960FB6F894DEBF0FBE50
:100B9000CDBFDF91CF911F910F9108952091C40394
:100BA0003091C50328173907B9F4909182038091D9
:100BB0008303981789F0E0918203F0E0EC57FC4F33
:100BC00080812091820330E02F5F3F4F2F733327C6
:100BD0002093820390E008958FEF9FEF08951F9375
:100BE000CF93DF93DC015C968D919C915D9700978C
:100BF00049F481E090E013969C938E93129780E0E5
:100C000090E03BC05196ED91FC91529750962C91FB
:100C10005097322F30951FB75E964C915E9741FBEF
:100C2000772770F941FD6095F8944081772311F0A2
:100C3000422B01C043234083EC012197F1F748E0A8
:100C4000508160FF02C0522B01C053235083EC013E
:100C50002197F1F76695415099F78081772311F03C
:100C6000832301C0822B80831FBF5C968D919C9152
:100C70005D970197F1F781E090E0DF91CF911F91AF
:100C800008952091C4033091C5032817390781F4D2
:100C90009091820380918303981751F0E091820331
:100CA000F0E0EC57FC4F8081992787FD90950895DF
:100CB0008FEF9FEF08952091C4033091C50328174B
:100CC000390771F4809183032091820390E0805C66
:100CD0009F4F821B910960E470E00E94370E0895D7
:100CE00080E090E008952091C4033091C503281757
:100CF000390739F48FB7F894109283031092820366
:100D00008FBF0895E091C403F091C503E817F90778
:100D100069F4A389B4899C918589809589238C93F2
:100D20001092C5031092C40381E0089580E00895F5
:100D3000CF93DF93EC018A8D9B8D892BF1F080910D
:100D4000C4039091C5038C179D07B9F0009711F06B
:100D50000E9482068E8D8E7F8E8F1092830310925A
:100D60008203D093C503C093C403EB89FC898081BF
:100D70009D89892B808381E001C080E0DF91CF9144
:100D800008951F920F920FB60F9211242F933F9345
:100D90004F935F936F937F938F939F93AF93BF9383
:100DA000EF93FF93E091C403F091C503309709F4EA
:100DB00051C0868DA685B785958581FF04C08C912D
:100DC000892329F447C08C91892309F043C0A38962
:100DD000B4899C918589809589238C93868997898C
:100DE0000197F1F7208D318DA685B785758558E07F
:100DF00040E0C9010197F1F7842F90E09595879520
:100E0000482F6C91672309F04068515091F7868D07
:100E100081FD40958091830390E001968F7399271F
:100E200020918203281749F0A0918303B0E0AC57CA
:100E3000BC4F4C938093830303C0868D8160868F63
:100E4000828D938D0197F1F7A389B4898C9195894F
:100E5000892B8C93FF91EF91BF91AF919F918F91CF
:100E60007F916F915F914F913F912F910F900FBEA6
:100E70000F901F90189522EC32E0FC013183208303
:100E80000C9482061F93CF93DF93EC01162F6E8D87
:100E90006695617081E06827812F0E94900961E06A
:100EA000812F0E945709812F90E0FC01EA52FF4FE9
:100EB000E491E88BFC01E651FF4FE491F0E0EE0F86
:100EC000FF1FE85FFE4F859194919A8B898BDF918C
:100ED000CF911F9108951F93CF93DF93EC01162FAD
:100EE00060E0812F0E9457098E8D81FD04C061E072
:100EF000812F0E9490091C87812F90E0FC01EA520B
:100F0000FF4FE491ED87FC01E651FF4FE491F0E0E3
:100F1000EE0FFF1FE250FF4F859194919F878E87C0
:100F2000DF91CF911F910895FF920F931F93CF935D
:100F3000DF93EC01F62E522F1B821A8208EE13E08B
:100F400020E030E00C831D832E833F8382EC92E00F
:100F5000998388831F8A1E8A198E188E1B8E1A8E7B
:100F60001D8E1C8E8E8D8E7F50FB81F98E8F642F8F
:100F7000CE010E9442076F2DCE01DF91CF911F91CC
:100F80000F91FF900C946B07CF93DF93EC019A01C4
:100F9000AB011B8E1A8E198E188E1F8A1E8A60E076
:100FA00079E08DE390E00E946D0EC9012430310597
:100FB00020F0B9016350710902C061E070E07D8FDB
:100FC0006C8FEC85E63108F068C0B90176956795BD
:100FD0006431710518F06351710902C061E070E07D
:100FE0007F8B6E8B069718F0C901059702C081E0D0
:100FF00090E0998F888FC901880F991F820F931FE6
:1010000096958795969587958D30910510F00C975C
:1010100002C081E090E09B8F8A8F20916800E830C9
:1010200050F091E0EE3008F490E081E001C0880FCC
:101030009A95EAF701C084E0822B809368002C85A2
:10104000283038F02E3040F0263148F48CE690E01D
:1010500008C08DE690E005C08BE690E002C080E01D
:1010600090E09C8B8B8B283030F481E001C0880F9E
:101070002A95EAF70DC0822F90E02E3010F40897E1
:1010800001C00E9791E001C0990F8A95EAF7892F68
:101090008D8B8C8D9D8D0197F1F7CE01DF91CF91D6
:1010A0000C9498061F920F920FB60F9211242F9353
:1010B0003F938F939F93AF93BF938091C70390917A
:1010C000C803A091C903B091CA033091C60323E0BD
:1010D000230F2D3720F40196A11DB11D05C026E870
:1010E000230F0296A11DB11D2093C6038093C70351
:1010F0009093C803A093C903B093CA038091CB0314
:101100009091CC03A091CD03B091CE030196A11D87
:10111000B11D8093CB039093CC03A093CD03B093E8
:10112000CE03BF91AF919F918F913F912F910F90DF
:101130000FBE0F901F9018952FB7F8946091C703BA
:101140007091C8038091C9039091CA032FBF08957D
:101150003FB7F8948091CB039091CC03A091CD033D
:10116000B091CE0326B5A89B05C02F3F19F001967C
:10117000A11DB11D3FBF6627782F892F9A2F620FBF
:10118000711D811D911D42E0660F771F881F991FF9
:101190004A95D1F70895CF92DF92EF92FF92CF93C5
:1011A000DF936B017C010E94A808EB01C114D104FC
:1011B000E104F10489F00E94360E0E94A8086C1B1D
:1011C0007D0B683E734090F381E0C81AD108E108B6
:1011D000F108C851DC4FEACFDF91CF91FF90EF903B
:1011E000DF90CF900895789484B5826084BD84B5F3
:1011F000816084BD85B5826085BD85B5816085BD12
:10120000EEE6F0E0808181608083E1E8F0E010822A
:10121000808182608083808181608083E0E8F0E06B
:10122000808181608083E1EBF0E080818460808355
:10123000E0EBF0E0808181608083EAE7F0E080818C
:1012400084608083808182608083808181608083EC
:101250008081806880831092C1000895833081F07E
:1012600028F4813099F08230A1F008958730A9F0F8
:101270008830B9F08430D1F4809180008F7D03C034
:10128000809180008F7780938000089584B58F7758
:1012900002C084B58F7D84BD08958091B0008F77A2
:1012A00003C08091B0008F7D8093B0000895CF93EC
:1012B000DF9390E0FC01EA52FF4F2491FC01E651DC
:1012C000FF4F8491882349F190E0880F991FFC011A
:1012D000EE5EFE4FA591B491885F9E4FFC01C591D3
:1012E000D4919FB7611108C0F8948C912095822306
:1012F0008C93888182230AC0623051F4F8948C91D7
:10130000322F309583238C938881822B888304C06D
:10131000F8948C91822B8C939FBFDF91CF9108958D
:101320000F931F93CF93DF931F92CDB7DEB7282F74
:1013300030E0F901EE53FF4F8491F901EA52FF4F7B
:101340001491F901E651FF4F04910023C9F088235D
:1013500021F069830E942E096981E02FF0E0EE0FF1
:10136000FF1FE85FFE4FA591B4919FB7F8948C9151
:10137000611103C01095812301C0812B8C939FBF05
:101380000F90DF91CF911F910F910895FC01818DF6
:10139000228D90E0805C9F4F821B91098F7399276B
:1013A0000895FC01918D828D981731F0828DE80FA0
:1013B000F11D858D90E008958FEF9FEF0895FC015A
:1013C000918D828D981761F0828DDF01A80FB11D7C
:1013D0005D968C91928D9F5F9F73928F90E00895A0
:1013E0008FEF9FEF089583E69BE0892B49F080E023
:1013F00090E0892B29F00E94630B81110C9400006E
:101400000895FC01848DDF01A80FB11DA35ABF4FC1
:101410002C91848D90E001968F739927848FA689F3
:10142000B7892C93A089B1898C9180648C93938D1A
:10143000848D981306C00288F389E02D80818F7D0A
:1014400080830895CF93DF93EC01888D8823C9F0C2
:10145000EA89FB89808185FD05C0A889B9898C91BD
:1014600086FD0FC00FB607FCF5CF808185FFF2CF58
:10147000A889B9898C9185FFEDCFCE010E94010A20
:10148000E7CFDF91CF910895CF92DF92FF920F9334
:101490001F93CF93DF931F92CDB7DEB76C0181E02E
:1014A000D60158968C9358975B969C915B975C9667
:1014B0008C915C97981307C05096ED91FC915197D1
:1014C000808185FD2EC0F601038D10E00F5F1F4F58
:1014D0000F731127F02EF601848DF81211C00FB68C
:1014E00007FCF9CFD6015096ED91FC915197808180
:1014F00085FFF1CFC60169830E94010A6981EBCFA4
:10150000838DE80FF11DE35AFF4F6083D6015B9690
:101510000C935B975296ED91FC915397808180627A
:101520000CC0D6015696ED91FC915797608350966A
:10153000ED91FC91519780818064808381E090E0FF
:101540000F90DF91CF911F910F91FF90DF90CF907F
:101550000895BF92CF92DF92EF92FF92CF93DF93E5
:10156000EC016A017B01B22EE889F98982E080836F
:10157000411581EE580761057105A1F060E079E041
:101580008DE390E0A70196010E944B0E2150310996
:10159000410951095695479537952795211580E1C1
:1015A000380798F0E889F989108260E874E88EE1DC
:1015B00090E0A70196010E944B0E2150310941098C
:1015C00051095695479537952795EC85FD853083CC
:1015D000EE85FF852083188EEC89FD89B082EA892B
:1015E000FB89808180618083EA89FB8980818860B2
:1015F0008083EA89FB89808180688083EA89FB890E
:1016000080818F7D8083DF91CF91FF90EF90DF907D
:10161000CF90BF9008951F920F920FB60F92112492
:101620002F938F939F93EF93FF93E091DF03F091BC
:10163000E0038081E091E503F091E60382FD12C0B2
:1016400090818091E8038F5F8F732091E903821767
:1016500051F0E091E803F0E0E153FC4F958F809367
:10166000E80301C08081FF91EF919F918F912F91AD
:101670000F900FBE0F901F9018951F920F920FB6EC
:101680000F9211242F933F934F935F936F937F9308
:101690008F939F93AF93BF93EF93FF938FEC93E060
:1016A0000E94010AFF91EF91BF91AF919F918F919D
:1016B0007F916F915F914F913F912F910F900FBE4E
:1016C0000F901F9018958FEC93E00E94C60921E0BF
:1016D000892B09F420E0822F08951092D2031092F2
:1016E000D10388EE93E0A0E0B0E08093D303909321
:1016F000D403A093D503B093D60382ED92E09093E8
:10170000D0038093CF0385EC90E09093DC0380932B
:10171000DB0384EC90E09093DE038093DD0380ECA8
:1017200090E09093E0038093DF0381EC90E090934E
:10173000E2038093E10382EC90E09093E4038093D2
:10174000E30386EC90E09093E6038093E503109228
:10175000E8031092E9031092EA031092EB03089554
:1017600008950E94F3080E94B00B0E94B204C3EFD8
:10177000D9E00E94F9042097E1F30E94F309F9CF20
:10178000CF92DF92EF92FF920F931F93CF93DF934D
:101790006C017A01EB01E60EF71E00E010E0CE15B9
:1017A000DF0561F06991D601ED91FC910190F08126
:1017B000E02DC6010995080F191FF1CFC801DF916F
:1017C000CF911F910F91FF90EF90DF90CF900895F0
:1017D0006115710581F0DB010D900020E9F7AD0185
:1017E00041505109461B570BDC01ED91FC910280E1
:1017F000F381E02D099480E090E00895EF92FF924C
:101800000F931F93CF93DF938C01FB01C0E0D0E0D7
:1018100064917F018FEFE81AF80A662361F0D8011E
:10182000ED91FC910190F081E02DC8010995C80F60
:10183000D91FF701EDCFCE01DF91CF911F910F910D
:10184000FF90EF900895DC01ED91FC91DB0114967F
:101850004D915C9115976D917C910280F381E02D03
:1018600009940C94E80BDC01ED91FC910190F0815E
:10187000E02D09946EED72E00C94E80B0F931F932A
:10188000CF93DF93EC010E94FE0B8C01CE010E94EE
:101890003A0C800F911FDF91CF911F910F91089506
:1018A0000F931F93CF93DF93EC010E94E80B8C0101
:1018B000CE010E943A0C800F911FDF91CF911F91B2
:1018C0000F910895FC01808191810C943E0FCF937C
:1018D000DF93EC0188819981009711F00E943E0FFF
:1018E000198218821D821C821B821A82DF91CF917D
:1018F00008950F931F93CF93DF93EC018B016F5FDC
:101900007F4F888199810E94CD0F009731F0998394
:1019100088831B830A8381E001C080E0DF91CF913F
:101920001F910F910895CF93DF93EC0188819981E6
:10193000892B29F08A819B818617970760F4CE0155
:101940000E94790C882341F08C819D81892B19F4A8
:10195000E881F981108281E0DF91CF910895EF92C3
:10196000FF920F931F93CF93DF93EC017B018A01CA
:10197000BA010E94930C811104C0CE010E94670C31
:1019800007C01D830C83B701888199810E94E010F4
:10199000CE01DF91CF911F910F91FF90EF900895AD
:1019A000FC01118210821382128215821482611549
:1019B000710559F0FB0101900020E9F7AF0141509A
:1019C0005109461B570B0C94AF0C0895CF93DF932E
:1019D000EC01FB018617970761F060817181611549
:1019E000710529F0448155810E94AF0C02C00E940C
:1019F000670CCE01DF91CF910895FC011182108216
:101A000013821282158214820C94E60CCF93DF931A
:101A1000EC016115710561F0FB0101900020E9F70F
:101A2000AF0141505109461B570B0E94AF0C02C039
:101A30000E94670CCE01DF91CF9108950F931F9301
:101A4000CF93DF93CDB7DEB762970FB6F894DEBFC2
:101A50000FBECDBF8C01CB01F80111821082138221
:101A600012821582148250E0BE016F5F7F4F0E9488
:101A70003711BE016F5F7F4FC8010E94060D62964D
:101A80000FB6F894DEBF0FBECDBFDF91CF911F918F
:101A90000F910895EF92FF920F931F93CF93DF93CF
:101AA000EC017B010C811D816115710511F480E051
:101AB00016C04115510591F0040F151FB8010E9481
:101AC000930C8823A1F3288139818C819D81B701F2
:101AD000820F931F0E94E0101D830C8381E0DF9131
:101AE000CF911F910F91FF90EF900895FB014481DA
:101AF0005581608171810C944A0DCF93DF9300D0A2
:101B0000CDB7DEB769831A8241E050E0BE016F5F56
:101B10007F4F0E944A0D0F900F90DF91CF91089553
:101B2000EF92FF920F931F93CF93DF93CDB7DEB762
:101B300028970FB6F894DEBF0FBECDBF7C01CB0156
:101B40004AE050E08E010F5F1F4FB8010E9437112D
:101B5000F80101900020E9F7AF0141505109401B05
:101B6000510BB801C7010E944A0D28960FB6F89490
:101B7000DEBF0FBECDBFDF91CF911F910F91FF90C0
:101B8000EF900895FC0124813581232B31F421E06D
:101B900061157105A1F0FB0108C0FC0180819181F4
:101BA0006115710531F421E0FC018081882339F051
:101BB00005C00E94D71021E0892B09F020E0822F78
:101BC00008950F931F93CF93DF93EB0141155105B8
:101BD000E9F02097D9F0FC01648175812617370759
:101BE000A0F4621B730B8A01015011096017710781
:101BF00008F48B01FC0160817181620F731FA801E1
:101C0000CE010E94E710C00FD11F1882DF91CF9143
:101C10001F910F910895CF93DF93FC0184819581EB
:101C20004817590778F4C081D181FB016081718127
:101C3000CE01840F951F0E94F610009719F08C1B9F
:101C40009D0B02C08FEF9FEFDF91CF91089540E091
:101C500050E00C940B0EFC0180819181009711F0F3
:101C60000C94971060E070E0CB010895089597FB05
:101C7000072E16F4009407D077FD09D00E948C0E31
:101C800007FC05D03EF4909581959F4F089570957F
:101C900061957F4F0895A1E21A2EAA1BBB1BFD017F
:101CA0000DC0AA1FBB1FEE1FFF1FA217B307E4073B
:101CB000F50720F0A21BB30BE40BF50B661F771F93
:101CC000881F991F1A9469F7609570958095909573
:101CD0009B01AC01BD01CF010895052E97FB1EF4B9
:101CE00000940E94840E57FD07D00E944B0E07FC03
:101CF00003D04EF40C94840E509540953095219568
:101D00003F4F4F4F5F4F0895909580957095619527
:101D10007F4F8F4F9F4F0895AA1BBB1B51E107C0F8
:101D2000AA1FBB1FA617B70710F0A61BB70B881F6B
:101D3000991F5A95A9F780959095BC01CD010895FA
:101D4000EE0FFF1F0590F491E02D0994CF93DF93E0
:101D50008230910510F482E090E0E0916E04F09101
:101D60006F0420E030E0A0E0B0E0309739F140812E
:101D7000518148175907B8F04817590771F4828103
:101D80009381109729F013969C938E9312972CC0F1
:101D900090936F0480936E0427C02115310531F0B4
:101DA0004217530718F0A901DB0101C0EF019A01A6
:101DB000BD01DF010280F381E02DD7CF2115310570
:101DC000F9F0281B390B2430310580F48A819B817E
:101DD0006115710521F0FB019383828304C0909308
:101DE0006F0480936E04FE01329644C0FE01E20F40
:101DF000F31F8193919322503109398328833AC08C
:101E000020916C0430916D04232B41F42091020148
:101E10003091030130936D0420936C0420910001F4
:101E2000309101012115310541F42DB73EB74091A4
:101E3000040150910501241B350BE0916C04F091D5
:101E40006D04E217F307A0F42E1B3F0B2817390788
:101E500078F0AC014E5F5F4F2417350748F04E0F06
:101E60005F1F50936D0440936C048193919302C063
:101E7000E0E0F0E0CF01DF91CF910895CF93DF93C1
:101E8000009709F487C0FC01329713821282C09137
:101E90006E04D0916F04209781F420813181280F46
:101EA000391F80916C0490916D048217930779F526
:101EB000F0936D04E0936C046DC0DE0120E030E02F
:101EC000AE17BF0750F412964D915C9113979D0188
:101ED0004115510509F1DA01F3CFB383A2834081A3
:101EE0005181840F951F8A179B0771F48D919C91E6
:101EF0001197840F951F02969183808312968D917E
:101F00009C911397938382832115310529F4F093D3
:101F10006F04E0936E043EC0D9011396FC93EE93D8
:101F200012974D915D91A40FB51FEA17FB0779F445
:101F300080819181840F951F0296D90111969C93FF
:101F40008E938281938113969C938E931297E0E0F7
:101F5000F0E08A819B81009719F0FE01EC01F9CF36
:101F6000CE01029628813981820F931F20916C0443
:101F700030916D042817390769F4309729F41092CD
:101F80006F0410926E0402C013821282D0936D040B
:101F9000C0936C04DF91CF910895A0E0B0E0E3ED31
:101FA000FFE00C949011EC01CB01209719F40E94F2
:101FB000A60EB8C0FE01E60FF71F9E0122503109A0
:101FC000E217F30708F4ACC0D9010D911C911197E9
:101FD00006171707B8F00530110508F49FC0A801CF
:101FE000445051094617570708F498C00250110988
:101FF000061B170B019311936D937C93CF010E94E5
:102000003E0F8CC05B01A01AB10A4E01800E911EDA
:10201000A0916E04B0916F04612C712C60E070E0AF
:10202000109709F449C0A815B905C9F5ED90FC90C1
:102030001197670142E0C40ED11CCA14DB0478F189
:1020400047018A189B08640142E0C40ED11C129615
:10205000BC9012971396AC91B5E0CB16D10440F02A
:10206000B282A38391828082D9018D939C9309C00F
:102070000E5F1F4F0E0D1F1DF90111830083EB2D05
:10208000FA2F6115710531F0DB011396FC93EE9385
:10209000129744C0F0936F04E0936E043FC06D91BB
:1020A0007C9111976616770608F43B01BD011296E4
:1020B0000D90BC91A02DB4CF60916C0470916D0413
:1020C00068157905E9F468167906D0F440910001A5
:1020D000509101014115510541F44DB75EB7609132
:1020E000040170910501461B570BE417F507C0F476
:1020F000F0936D04E0936C04F901918380830EC02A
:102100000E94A60E7C01009759F0A801BE010E9412
:10211000C310CE010E943E0FC70104C0CE0102C011
:1021200080E090E0CDB7DEB7EEE00C94AC111F93E9
:10213000FC0199278827BC01E89411911032E9F33A
:10214000193010F01E30C8F31B3251F01D3249F423
:10215000689406C00E944D11610F711D811D911D73
:10216000119110531A30B0F33EF49095809570950C
:1021700061957F4F8F4F9F4F1F91089540EF52E021
:102180000E9410110895FB01DC0102C001900D9224
:1021900041505040D8F70895FC018191861721F0F5
:1021A0008823D9F7992708953197CF010895FB0126
:1021B000DC018D91019080190110D9F3990B0895DC
:1021C000FB01DC0101900D920020E1F70895FB0175
:1021D000DC014150504048F001900D920020C9F7B9
:1021E00001C01D9241505040E0F70895FB0151910C
:1021F0005523A9F0BF01DC014D9145174111E1F7CD
:1022000059F4CD010190002049F04D914015411144
:10221000C9F3FB014111EFCF81E090E001970895F0
:10222000FA01A191B081009719F41097E1F0CD0166
:10223000DC01CD010D90002011F4C00113C0FB01A1
:102240002191222319F02015D9F7F3CFFB01219119
:10225000201519F41E92119606C02223C1F70D9085
:102260000020A1F7D001FA01A193B083089545326F
:10227000510520F4423010F00C944211FB01108201
:10228000CB010895BB274A3031F4992322F4BDE2F3
:10229000909581959F4F0C946311592F482F372F9C
:1022A000262F660F771F881F991F660F771F881FBD
:1022B000991F620F731F841F951F660F771F881F5A
:1022C000991F0895BB27FB015527AA27880F991F3F
:1022D000AA1FA41710F0A41B83955051B9F7A05D55
:1022E000AA3308F0A95DA193009779F7B111B193D2
:1022F0001192CB010C947C11DC01FC01672F7191D0
:102300007723E1F7329704C07C916D9370836291DB
:10231000AE17BF07C8F308952F923F924F925F9276
:102320006F927F928F929F92AF92BF92CF92DF92E5
:10233000EF92FF920F931F93CF93DF93CDB7DEB74A
:10234000CA1BDB0B0FB6F894DEBF0FBECDBF0994DE
:102350002A88398848885F846E847D848C849B8435
:10236000AA84B984C884DF80EE80FD800C811B8143
:10237000AA81B981CE0FD11D0FB6F894DEBF0FBE72
:10238000CDBFED01089511E0C0E2D1E004C0FE012F
:102390000E94A20E2296C232D107C9F7F894FFCF4D
:1023A0000000700480002C0041542B4854545050BD
:1023B0004152413D2255524C222C22003F003F7099
:1023C0007269766174655F6B65793D002600696EA0
:1023D0007465726E657400687474703A2F2F64614E
:1023E00074612E737061726B66756E2E636F6D2FE4
:1023F000696E7075742F004E4A36355241724762CD
:10240000525564334138444E7861620035645265F8
:10241000447259396D44684A593070425061376787
:1024200000427065354C324E5A394C55616B4C52F6
:102430006541344F570064617465006C6174697460
:10244000756465006C6F6E67697475646500616CB6
:1024500074697475646500737065656400636F7595
:102460007273650041542B48545450414354494FB2
:102470004E3D300041542B48545450524541440085
:1024800041542B43474E535552433D0041542B4931
:1024900050523D393630300041542B43474E535053
:1024A00057523D310041542B43474E535345513D04
:1024B000524D4300415445300041542B434D474653
:1024C0003D310041542B43474154543D3100415468
:1024D0002B53415042523D332C312C22434F4E540A
:1024E000595045222C2247505253220041542B531D
:1024F000415042523D332C312C2241504E222C224D
:102500000041542B53415042523D312C3100415433
:102510002B48545450494E49540041542B4854546C
:1025200050504152413D22434944222C31004154F4
:102530002B485454505445524D0041542B53415054
:1025400042523D302C310041542B434D47443D34E1
:102550000055474E53494E463A20312C3100000079
:102560000000EF05C00B5B06CE05410673060000B8
:102570000000440AC00BC609DF09D109220A0D0A6E
:10258000006E616E00696E66006F7666002E000058
:00000001FF
